:100000000C9424040C9441040C9441040C94410479
:100010000C9441040C9441040C9441040C9441044C
:100020000C9441040C9441040C94F30D0C94350D84
:100030000C94451B0C9441040C9441040C94410411
:100040000C9441040C9441040C9441040C9441041C
:100050000C9441040C94FD0E0C9441040C94410446
:100060000C9441040C9441040C9441040C944104FC
:100070000C9441040C9441040C9441040C944104EC
:100080000C9441040C9441040C9441040C944104DC
:100090000C9441040C9441040C9441040C944104CC
:1000A0000C9441040C9441040C944104E906E906C3
:1000B0001C071C078707A507B208B208B00723086A
:1000C00035083508480B6F0B1D0D6F0B1D0DBB0B55
:1000D000DE0B1D0DD30CE30CA926AE26B826AC26EC
:1000E000B126B626B42660286328662869286C28BD
:1000F0006F28722805010980A101850319012AB71B
:1001000000150126B700950175108100C0050C0986
:1001100001A101850419012AA002150126A002955A
:100120000175108100C005010906A10185060507BA
:1001300019E029E7150025019508750181020507D9
:10014000190029EF1500250195F0750181020508B8
:100150001901290595057501910295017503910114
:10016000C005010902A1010901A100050919012920
:10017000081500250195087501810205010930095E
:10018000311581257F95027508810609381581256D
:100190007F950175088106050C0A38021581257FB7
:1001A000950175088106C0C00660FF0961A10109BB
:1001B00062150026FF00952075088102096315006D
:1001C00026FF00952075089102C005010906A101CE
:1001D000050719E029E71500250195087501810239
:1001E0009501750881010507190029FF150026FFF3
:1001F0000095067508810005081901290595057502
:10020000019102950175039101C009027400040176
:1002100000A0FA09040000010301010009211101F5
:1002200000012240000705810308000109040100C4
:10023000020300000009211101000122220007052C
:1002400083032000010705040320000109040200C4
:1002500001030102000921110100012247000705E5
:1002600082030800010904030001030000000921C2
:1002700011010001226D0007058503200001120114
:1002800000020000000897327649010001020001D7
:1002900020034500720067006F0044006F00780083
:1002A000200045005A00200047006C006F007700D6
:1002B000000028035A00530041002000540065004C
:1002C000630068006E006F006C006F0067007900CB
:1002D00020004C0061006200730000000403090468
:1002E00000010101010101010101020202020202F9
:1002F00002020203030303030303030404040404CC
:100300000404050505050506060606060707070792
:100310000708080808090909090A0A0A0B0B0B0C47
:100320000C0C0D0D0D0E0E0E0F0F0F1010111111E4
:100330001212131314141515161617171818191965
:100340001A1A1B1B1C1D1D1E1E1F202021222223CA
:100350002424252626272829292A2B2C2D2D2E2F0B
:1003600030313232333435363738393A3B3C3D3E22
:100370003F404142434445464748494A4C4D4E4F11
:1003800050515354555658595A5B5D5E5F616264D3
:10039000656668696B6C6D6F7072737577787A7B60
:1003A0007D7E8082838587888A8C8E8F91939596B7
:1003B000989A9C9EA0A2A3A5A7A9ABADAFB1B3B5D7
:1003C000B7BABCBEC0C2C4C6C9CBCDCFD1D4D6D8B3
:1003D000DBDDDFE2E4E7E9EBEEF0F3F5F8FAFDFF51
:1003E0000044345400746484005545650085759557
:1003F0000036264600665676009686A600372747C2
:10040000007767870038284800887898003929499C
:1004100000695979009989A9003A2A4A006A5A7AEA
:10042000003B2B4B006B5B7B004C3C5C007C6C8C82
:10043000005D4D6D008D7D9D003E2E4E006E5E7EFA
:1004400001443454017464840155456501857595F2
:100450000136264601665676019686A6013727475D
:100460000177678701382848018878980139294938
:1004700001695979019989A9013A2A4A016A5A7A86
:10048000013B2B4B016B5B7B014C3C5C017C6C8C1E
:10049000015D4D6D018D7D9D013E2E4E016E5E7E96
:1004A000290035002B61E100010000001E0014004E
:1004B00004001D000100E0001F001A0016001B00D0
:1004C0000100E3002000080007000600E0002C0007
:1004D0002100150009001900E200E20022001700C7
:1004E0000A00050000005000270DE3070000E305A7
:1004F00000004F00100D2A000000280000005100ED
:1005000023001C000B001100000052002400180002
:100510000D0010002D00010025000C000E0036001B
:100520002E000151260012000F0037002F0002514B
:100530002700130033003800300001002A0031008A
:100540003400E5003400000029000100E000E10073
:100550002A0000003A001E02200222020100E200EE
:100560003B001F02210223020100E3003C002F0296
:100570002F00260236022C003D00300230002702F8
:100580003702CB5C3E003102350035020000C45C0E
:1005900001000100000001000000CA5C0100010030
:1005A000000001000000C35C3F0052005100240223
:1005B0000000B15D4000240021001E000100010088
:1005C0004100250022001F003700010042002600E4
:1005D0002300200027000100430025020100310014
:1005E0002E00010044004500280001000100000029
:1005F00001000100E0000100010000000100010015
:10060000F20001000100010001000100EF00FC0008
:10061000010001000100ED00EE00FA000100010000
:1006200001000100F000F9000100010001000100DB
:10063000F100FB00000001000100010000000100CA
:1006400000000100010001000000010000000100A5
:1006500001004B004E0001000000010001004A00B3
:1006600050002A00A8000100010052005100AC0017
:10067000AA00B60001004D004F00AB00A900010028
:100680000100010001000100010001004C00010017
:10069000AE000100010000000000000000000000AA
:1006A000000000000000000000000000000000004A
:1006B000000000000000000000000000000000003A
:1006C000000000000000000000000000000000002A
:1006D000000000000000000000000000000000001A
:1006E000000000000000000000000000000000000A
:1006F00000000000000000000000000000000000FA
:1007000000000000000000000000000000000000E9
:1007100000000000000000000000000000000000D9
:10072000000000000000000086FFD586FFD586FF90
:10073000D586FFD586FFD500000055CB9E55CB9EB4
:1007400055CB9E00000000000055CB9E55CB9E551A
:10075000CB9E00000000000055CB9E55CB9E55CB94
:100760009E00000000000000000055CB9E0000002D
:1007700086FFD586FFD586FFD586FFD586FFD5F3C4
:10078000DEEAF3DEEAF3DEEA00000000000000002B
:10079000000AE1FF0AE1FF00000000000000000085
:1007A00020B0FF20B0FF0000000000000FA6C30F24
:1007B000A6C30000000000000000000000000000D0
:1007C000000000000000000F61EC0F61EC20FFEA68
:1007D0000F61EC0000000F61EC20FFEA20FFEA202F
:1007E000FFEA0000000000006EDDD592E0FF92E01D
:1007F000FF00000000CCFF0CE1F10CE1F100000073
:1008000000000000000000000000000000000000E8
:100810000000000000A978FF00000000000000CCEC
:10082000FFA978FFA978FFA978FF00CCFF86FFD544
:1008300086FFD586FFD586FFD500000000000000AA
:10084000000000000000000011241FBECFEFDAE01E
:10085000DEBFCDBF12E0A0E0B1E0E6E2F2E602C00A
:1008600005900D92A036B107D9F725E0A0E6B2E0D9
:1008700001C01D92A830B207E1F70E9441150C9407
:1008800011310C940000A5E2B0E0E9E4F4E00C942E
:10089000DC2CFC018081918123813481232B31F078
:1008A0009F3F31F491E08F3F19F403C091E001C004
:1008B00090E090FDB9C47F0185E0DE019196019042
:1008C0000D928A95E1F7D70112962C9189A19AA1F0
:1008D000222349F00E94641D182F682F89A19AA134
:1008E0000E94D41D03C00E94A01D182F69A17AA1E7
:1008F000812F0E9451218C019091F704F701828190
:10090000992309F44DC0811104C2E0916202E330E1
:10091000A0F481E08E0F80936202F0E0EE0FFF1FE3
:10092000EC52FD4FD7018D919C919183808382E0A1
:100930008983CE0101960E940C29BFEFE3EDF0E31D
:10094000B150E040F040E1F700C000008091620249
:10095000833009F0DEC110926202EAEDF2E0A4ED0C
:10096000B2E080EE92E0318111962C911197321312
:100970002EC030812C9132132AC0329612968E17D7
:100980009F0789F784E0898381E08093F8048EEFE4
:100990008A831092F704CE0101960E940C29B9C1F6
:1009A0009091F8049923C1F0882311F086E001C0EA
:1009B00087E08983D7018C918A8311968C918B83F0
:1009C0008EEF8C83CE0101960E940C2905C083E036
:1009D00089831092F804DBCFF70182810F3AFDE59D
:1009E0001F07D1F5882309F43EC09091E50281E00C
:1009F000890F8770987F853020F4892B8093E502DA
:100A000002C09093E5028091E5028770BFEF8B9F53
:100A1000C001112495958795959587959927909371
:100A200089008093880090938B0080938A00909334
:100A30008D0080938C004091E5025091E602609118
:100A4000E7027091E8028FE090E00E94B82D80915B
:100A5000E4020E949326E8C0003B2DE5120709F04E
:100A60009EC08111ADC080916F0282720B3CFCE58B
:100A70001F0709F483C098F5063C9CE5190709F4A3
:100A800069C0B8F4043CBCE51B0709F459C008F080
:100A90005CC0033CFCE51F0709F04EC19091FB04CC
:100AA00081E089278093FB0410921E018091FA0453
:100AB00043C0083C2CE5120709F456C008F44FC0A7
:100AC000093CACE51A0709F454C00A3CBCE51B0715
:100AD00009F032C14CED5AE169EE7AE15DC0003DAA
:100AE000ECE51E0709F468C098F40D3C2CE51207EC
:100AF00009F44EC008F447C00E3CACE51A0709F4EF
:100B000059C00F3CBCE51B0709F016C185E055C074
:100B1000073DECE51E0738F4023DFCE51F0708F031
:100B2000F8C081E14AC00F352DE5120709F4F1C084
:100B300003C19FEF9093000581608093FA04E9C0A0
:100B400044E25BE16EE27BE127C04EE25BE164E2FE
:100B50007BE122C040E15BE16AE17BE11DC04AE14B
:100B60005BE160E17BE118C046EF5AE163E07BE1C5
:100B700013C043E05BE166EF7AE10EC049EE5AE153
:100B80006CED7AE109C046EF58E164E079E104C018
:100B900044E059E166EF78E10E94EF1BBAC0033CE4
:100BA0009CE5190761F1013BEDE51E07E9F5882396
:100BB00009F4AFC081E001C08CE00E94C928A9C03F
:100BC0008091E50283FB222720F991E0922790FB98
:100BD00083F98093E502992329F040E060E080E00A
:100BE0000E942D114091E5025091E6026091E702CA
:100BF0007091E8028FE090E00E94B82D15C0882324
:100C000009F487C0909100058091FA049F3F09F094
:100C100090CF1092000581608093FA0440E060E07C
:100C200080E00E942D1175C0D70112968C91882307
:100C300009F419CF0C358DE5180709F464C060F488
:100C40000115ACE51A07A9F00F3DBCE51B0709F03B
:100C500073C00E9404234CC00E35EDE51E0709F455
:100C60004AC008F452C0093A2DE5120709F440C001
:100C700063C010926F020E940D208FEF94E3ACE0EE
:100C800081509040A040E1F700C00000F89481E05E
:100C90008093E00080E28093D8001092C900EFE1D9
:100CA000FEE43197F1F700C000001DBA1092680011
:100CB0001CBC10BE1FBA10927A0010926E001092E7
:100CC0006F0010927100109272001092C900109281
:100CD000BC0014B817B81AB81DB810BA1092BC00EE
:100CE00015B818B81BB81EB811BA0C94003F11C043
:100CF0000E947B260EC080916A0282FB882780F9C1
:100D000091E0892703C081E001C080E00E94F923BF
:100D100013C08091C604877009F486C2D701129669
:100D20008C91882309F480C280916A0282FF7CC280
:100D300082E00E94DC2378C2F70182810081118168
:100D4000882349F0C8010E94641DD82E682FC8016D
:100D50000E94D41D04C0C8010E94A01DD82EB80155
:100D60008D2D0E9451210E946A21182FC92E882E94
:100D7000F701D280B580B2942FE0B2228091C604F0
:100D80008770B9F0DD20A9F0892F807F803421F0B1
:100D900080E2810F883068F080916A0282FF09C08A
:100DA00082E00E94DC238091C6048770AA24A39469
:100DB0008111A12C9C2C92949FE09922892D90E086
:100DC0008C30910508F0CEC1FC01EA5AFF4F0C941B
:100DD000DD2F0C2D0F708C2D807F11F00295007F80
:100DE000DD20B9F0002309F4ABC180E2810F883027
:100DF00010F0811006C080916F02082B00936F02E3
:100E000005C08091E704082B0093E7040E94872324
:100E100097C1812F0E943220002309F4A3C180E2F0
:100E2000810F883080F1882071F100958091E7046E
:100E300008230093E7042AC00C2D0F708C2D807FAF
:100E4000803211F00295007F882021F0F1E08F16AA
:100E5000D9F147C080916A0282FD1BC0DD2069F094
:100E6000002339F080916F02082B00936F020E94DB
:100E7000872380E00E94672075C180E00E943220B5
:100E8000002309F46FC1802F0E9480230E948723D2
:100E900069C1DD2081F08091E804BB2051F021E0A0
:100EA000B21207C0082B081709F45CC10093E804CC
:100EB00059C1802B10C0BB2021F081E0B81609F485
:100EC00051C10E947A231FC0DD2041F091E09B15A3
:100ED00008F448C1802F0E94282044C1B11042C1AB
:100EE00012C0DD2019F0BB20A9F32AC1BB2059F0A4
:100EF000A9E38A1234C1BFEFE7EEF3E0B150E0405E
:100F0000F040E1F72AC1802F0E9421202BC18C2DB7
:100F100086958695837019F0813061F023C1DD20BC
:100F200021F0812F9C2D937002C080E090E00E9400
:100F3000AC1B1EC1DD2021F0812F9C2D937002C0BF
:100F400080E090E00E94961B13C1812FDD2019F0F4
:100F50000E94722B02C00E94B92A0E941A1508C171
:100F60008C2D8370A1F5D11001C1412F429546957A
:100F70004770440F440F212F2F7030E0C901042E19
:100F800001C0880F0A94EAF714FF08C02FE030E090
:100F900001C0220F4A95EAF7209501C020E03C2DC0
:100FA000369536953370323069F040F44091E9045B
:100FB000313019F0822B842302C0842B822B0E94B3
:100FC0004C1ED4C0282B8091E9048227F8CFDD2065
:100FD00019F08C2D817001C08695882309F4C6C054
:100FE000412F429546954770440F440F212F2F7093
:100FF00030E0C901042E01C0880F0A94EAF714FFFB
:1010000008C02FE030E001C0220F4A95EAF7209592
:1010100001C020E03C2D369536953370323051F0CA
:1010200070F44091E402313019F0822B842308C01F
:10103000842B05C0282B8091E402822701C0822BDB
:101040000E94091E93C00C2D0F70DD2039F0802FF7
:101050000E94401E812F0E94282088C0812F0E945C
:101060002120802F0E94331E81C0812F22EF821603
:1010700071F1281538F090EF891659F0A1EF8A1612
:1010800009F15AC0B3EF8B1649F1E4EF8E16B1F0B7
:1010900053C0DD2071F0B11065C02C2D2F7181E09F
:1010A00090E001C0880F2A95EAF79091E402892721
:1010B00020C0F1E0FB1508F455C0EFCF80916A0223
:1010C00082FD1AC0DD2029F08C2D8F7128C0DD2013
:1010D000D9F38C2D8F710E94331E44C0DD2041F066
:1010E00081E09C2D9F7101C0880F9A95EAF701C09D
:1010F00080E00E94091E36C0DD20A1F00C2D0F718A
:10110000802F0E94401E80916A0282FF07C028E063
:10111000029FC001112483608093C604802F0E9427
:10112000401E20C081E00E94DC2381E08B15D0F4BA
:1011300082E00E94DC2316C0DD2021F0BB2021F2DA
:10114000812F98CEBB2029F2893349F49FEFA7EE77
:10115000B3E09150A040B040E1F700C00000812F03
:101160000E94322088EF890D843010F40E94C21B47
:10117000812F9C2D0E94511E811105C01092640286
:101180001092630229C0DD2019F0B110F7CF24C0FE
:10119000B110F4CF8091630290916402029771F7CD
:1011A000193321F480E5C82ED12C02C0C12CD12CDA
:1011B000812F0E946720C114D10451F0EFE9FFE0B4
:1011C0003197F1F700C00000F1E0CF1AD108F3CF5A
:1011D000812F0E943220D2CFAA20B1F08091C60484
:1011E00080FD12C0D70112961C9285958595859534
:1011F0000E94401EC7010E9443048091C604859549
:10120000859585950E94331E85E0F701DE011196D4
:1012100001900D928A95E1F709811A81C8010E9417
:10122000A01DB8010E945121A596ECE00C94F82C69
:101230008091950287FF11C08091E80082FD05C072
:101240008091F9048111F8CF11C08091E8008B776B
:101250000BC08091F904882349F08091E80080FF59
:10126000F8CF8091E8008E778093E8000895982F5A
:10127000973068F59093E900981739F07091EC0079
:101280002091ED005091F00003C0242F762F50E004
:1012900021FD02C09F5FECCF3091EB003E7F309389
:1012A000EB003091ED003D7F3093ED003091EB008D
:1012B00031603093EB007093EC002093ED0050937D
:1012C000F0002091EE0027FDE5CF80E008958F70BB
:1012D0008093E90081E0089520919B0230919C0267
:1012E0002617370748F06115710539F42091E80099
:1012F0002E772093E80001C0B901FC0120E06115C0
:10130000710579F18091F9048823F1F18530F1F1CB
:101310008091E80083FD3CC08091E80082FD2EC0F2
:101320008091E80080FFEBCF2091F3008091F200E4
:1013300090E0922B6115710551F08830910538F4D9
:1013400021912093F100615071090196F3CF21E0C2
:10135000089709F020E08091E8008E778093E800FC
:10136000CECF2111CFCF0AC08091F904882361F03C
:10137000853061F08091E80083FD0AC08091E8002B
:1013800082FFF2CF80E0089582E0089583E008951F
:1013900081E00895089580917102089580936B0211
:1013A00070936D0260936C028091F904843001F5B2
:1013B00085E08093E9008FEF9091E800815095FDE2
:1013C00006C095ED9A95F1F700008111F5CF809157
:1013D000E80085FF0DC040E050E063E070E08BE680
:1013E00092E00E94E2288091E8008E778093E800E6
:1013F0000895BC0184E00E94CE090895BC0183E0F9
:101400000E94CE09089522E02093E9002FEF309149
:10141000E800215035FD06C035ED3A95F1F70000A2
:101420002111F5CF2091E80025FF0BC040E050E0EE
:1014300065E070E00E94E2288091E8008E7780935A
:10144000E8000895CF93DF9320910A01222339F019
:101450002091690227FF03C060E225E002C068E036
:1014600021E02093E9002FEF3091E800215035FD75
:1014700006C035ED3A95F1F700002111F5CF209126
:10148000E80025FF1DC0EC0180910A01811105C013
:1014900040E050E068E070E003C070E040E050E001
:1014A000CE010E94E2288091E8008E778093E800C8
:1014B00080E2FE01A2E7B2E001900D928A95E1F789
:1014C000DF91CF910895AAE2B0E0E9E6FAE00C944A
:1014D000E52CE5E9F2E08DE992E02091F10021931D
:1014E0008E179F07D1F780919602833009F463C06D
:1014F00030F4813071F0823009F49FC0B6C08A3078
:1015000009F48BC08B3009F46EC0893009F0ADC08E
:1015100020C080919502813A09F0A7C08091E8002F
:10152000877F8093E8008091990290919A02892B9D
:1015300021F460E282E792E003C060E080E090E0A6
:1015400070E00E946C098091E8008B778093E8003E
:101550008CC080919502813209F087C080919902F8
:1015600090919A02009719F0039709F07EC080913C
:10157000E800877F8093E8008091E80082FD05C045
:101580008091F9048111F8CF70C02091F30080910F
:10159000F20090E0922B029731F48091F1008130BB
:1015A00011F0863021F48091F100809371028091D6
:1015B000E8008B7756C080919502813A09F055C0BA
:1015C0008091990290919A02892B09F04EC08091E6
:1015D000E800877F8093E8008091E80080FFFCCFDF
:1015E00080910A0139C0809195028132F1F5809194
:1015F000990290919A02892BC1F58091E800877F2A
:101600008093E8000E9418098091970280930A0154
:1016100010926F020E940D2028C0809195028132A5
:1016200021F58091E800877F8093E8000E941809E7
:10163000809198028093700218C080919502813A3F
:10164000A1F48091E800877F8093E8008091E80012
:1016500080FFFCCF809170028093F1008091E800C0
:101660008E778093E8000E9418098091E80083FF3C
:10167000E4C18091950290919602492F50E04A3042
:10168000510508F0DAC1FA01EE59FF4F0C94DD2F35
:10169000803821F0823809F0D0C108C080919202D0
:1016A00090919302992389F082600FC080919902F2
:1016B0008F70873008F0C1C18093E9008091EB0002
:1016C00085FB882780F91092E9009091E800977FC8
:1016D0009093E8008093F1001092F10070C1282FE0
:1016E0002D7F09F0AAC1882319F0823061F0A5C1CD
:1016F00080919702813009F0A0C1933009F080E019
:10170000809393022EC08091970281112AC080910C
:1017100099028F702FEF280F263008F08EC180932A
:10172000E9002091EB0020FF1CC0933021F4809150
:10173000EB00806214C09091EB0090619093EB00FD
:1017400021E030E0A90102C0440F551F8A95E2F75D
:101750004093EA001092EA008091EB008860809349
:10176000EB001092E9008091E800877F8093E80009
:101770000E94180962C1811160C1109197021F7700
:101780008091E3008078812B8093E3008091E800D2
:10179000877F8093E8000E9418098091E80080FF0D
:1017A000FCCF8091E30080688093E300111102C0B8
:1017B00082E001C083E08093F9043FC18058823009
:1017C00008F03BC120919702309198022C3D53E0E4
:1017D000350779F583E08A838AE289834FB7F894E5
:1017E000DE01139620E03EE051E2E32FF0E050935B
:1017F0005700E49120FF03C0E295EF703F5FEF7068
:101800008E2F90E0EA3010F0C79601C0C0968D93FD
:101810009D932F5F243149F74FBF8091E800877F68
:101820008093E8006AE270E0CE0101960E946C09A4
:10183000B4C08091990290919A02432F552743306A
:101840005105A9F068F44130510509F405C1423051
:10185000510509F0F2C084E790E0EAE0F2E04BC005
:101860004132510529F14232510589F1E6C0C901E1
:10187000992781309105A1F058F0029709F0DDC059
:10188000E0E9F2E0E4918E2F90E0E0E9F2E030C090
:10189000ECEDF2E0E4918E2F90E0ECEDF2E028C068
:1018A000E2EBF2E0E4918E2F90E0E2EBF2E020C078
:1018B0008430910508F0C1C0880F991FFC01E25DDA
:1018C000FE4F0190F081E02D89E090E014C084305B
:1018D000910508F0B2C0FC01EE0FFF1FEA5DFE4F5C
:1018E0000190F081E02DDC01AE5DBE4F8C9190E067
:1018F000009709F4A2C02091E800277F2093E80018
:1019000020919B0230919C022817390708F4C901E5
:1019100040E0009789F12091F904222309F43DC0A9
:101920002530D9F12091E80023FD37C02091E8004F
:1019300022FD2FC02091E80020FFEBCF4091F30063
:101940002091F20030E0342B009759F02830310517
:1019500040F444914093F100319601972F5F3F4F3F
:10196000F3CF41E02830310509F040E02091E80054
:101970002E772093E800CDCF4111CDCF0AC08091C2
:10198000F904882351F0853041F08091E80083FD0F
:1019900004C08091E80082FFF2CF8091E8008B774D
:1019A0008093E8004AC0803809F047C08091E80081
:1019B000877F8093E800809194028093F10080916A
:1019C000E8008E77D3CE811138C080919702909134
:1019D0009802992702978CF58091E800877F809381
:1019E000E80010919702109394020E9418091111B7
:1019F00006C08091E30087FD02C081E001C084E061
:101A00008093F90442E061EC81E00E94370942E0F2
:101A100061EC82E00E94370942E261EC85E00E94BD
:101A2000370942E261EC83E00E94370942E260EC50
:101A300084E00E9437098091F9048091E80083FFD7
:101A400010C08091E800877F8093E8008091EB00D0
:101A500080628093EB0005C082E190E0EEE7F2E067
:101A60004ACFAA96E3E00C94012D1F920F920FB675
:101A70000F9211242F933F934F935F936F937F9314
:101A80008F939F93AF93BF93CF93DF93EF93FF9386
:101A9000C091E900CF708091EC00D82FD17080FD0B
:101AA000D0E81092E9008091F000877F8093F000E9
:101AB00078940E94630A1092E9008091F000886097
:101AC0008093F000CD2BCF70C093E900FF91EF9190
:101AD000DF91CF91BF91AF919F918F917F916F9146
:101AE0005F914F913F912F910F900FBE0F901F90DC
:101AF0001895E8EDF0E080818E7F80831092E200FF
:101B00001092DA001092E100A0EEB0E08C918160BA
:101B10008C9380818F77808319BCA7EDB0E08C9186
:101B20008E7F8C9380818F7E808310926E020895C9
:101B3000A0E0B0E0EEE9FDE00C94E02CC8EDD0E0D0
:101B400088818F7E8883E7EDF0E0808181608083EB
:101B500084E082BF81E080936E0288818E7F8883DB
:101B600002EE10E0F80110821092DA0081EEC82E29
:101B7000D12CF601108288818F77888388818068D4
:101B8000888388818F7D888319BC1092F904109214
:101B90009402109293021092920290EEE92EF12C90
:101BA000F70180818B7F808388818160888342E018
:101BB00060E080E00E943709F60180818E7F80839B
:101BC000F801808181608083808188608083F70153
:101BD00080818E7F8083888180618883CDB7DEB7E6
:101BE000E8E00C94FC2C1F920F920FB60F92112478
:101BF0002F933F934F935F936F937F938F939F9315
:101C0000AF93BF93EF93FF938091E10082FF09C0F0
:101C10008091E20082FF05C08091E1008B7F80937C
:101C2000E1008091DA0080FF2AC08091D80080FF17
:101C300026C08091DA008E7F8093DA008091D900EF
:101C400080FF18C080E189BD82E189BD09B400FE32
:101C5000FDCF81E08093F90480916E0281110FC065
:101C60000E94790D0E94980D8091E200846080931B
:101C7000E20005C019BC1092F90410926E02809126
:101C8000E10080FF17C08091E20080FF13C08091C7
:101C9000E2008E7F8093E2008091E2008061809379
:101CA000E2008091D80080628093D80019BC85E062
:101CB0008093F9048091E10084FF30C08091E200BC
:101CC00084FF2CC080E189BD82E189BD09B400FE9A
:101CD000FDCF8091D8008F7D8093D8008091E10066
:101CE0008F7E8093E1008091E2008F7E8093E200FE
:101CF0008091E20081608093E200809194028823C9
:101D000011F084E007C08091E30087FD02C081E00C
:101D100001C083E08093F9048091F9048091E1008F
:101D200083FF27C08091E20083FF23C08091E10000
:101D3000877F8093E10082E08093F90410929402FF
:101D40008091E1008E7F8093E1008091E2008E7FA0
:101D50008093E2008091E20080618093E20042E0A3
:101D600060E080E00E9437098091F00088608093F5
:101D7000F000FF91EF91BF91AF919F918F917F9173
:101D80006F915F914F913F912F910F900FBE0F90E8
:101D90001F9018952091E4003091E50095E6409160
:101DA000EC00842F817040FF23C08091E80080FD0B
:101DB0001DC08091F904882399F0853099F08091B5
:101DC000EB0085FD11C04091E4005091E50024171F
:101DD000350729F3915011F09A01E1CF84E008957D
:101DE00082E0089583E0089581E0089580E00895F9
:101DF0004091E80042FFDDCF089578941F920F9242
:101E00000FB60F9211248F939F93AF93BF9380913E
:101E1000650290916602A0916702B09168020196F6
:101E2000A11DB11D8093650290936602A093670285
:101E3000B0936802BF91AF919F918F910F900FBEA9
:101E40000F901F9018959C014FB7F89480916502F0
:101E500090916602A0916702B09168024FBF821B09
:101E6000930B08950F931F9310E0F801EE0FFF1FDF
:101E7000E153FE4F9081905797FD9195000F111FF0
:101E8000F801E053FE4FE081F0E0B097DF01AA0FC8
:101E9000BB1F8D010E0F1F1F2003D001219FB00D0E
:101EA0001124E8E3F0E0E91BF10997FDF3959F01A8
:101EB000220F331F89010E0F1F1F40039001419F06
:101EC000300D11242A0F3B1F37FF02C021583F4F0E
:101ED000220F232F221F330B620F1F910F910895A2
:101EE0000F931F93522F10E0F801EE0FFF1FE053E6
:101EF000FE4FE081F0E0B097EE0FFF1F9F0152030D
:101F0000D001539FB00D1124000F111FF801E153B0
:101F1000FE4F008110E000571109000F111F400310
:101F20009001419F300D11242A0F3B1F37FF02C043
:101F300021583F4F220F232F221F330B620F1F9177
:101F40000F9108950F931F93522F10E0F801EE0F99
:101F5000FF1FE053FE4FE081F0E0B0979F01520376
:101F6000D001539FB00D1124000F111FF801E15350
:101F7000FE4F008110E00057110940039001419F7E
:101F8000300D11242A0F3B1F37FF02C021583F4F4D
:101F9000220F232F221F330B620F1F910F910895E1
:101FA000EF920F931F9393E0099F800111241595E1
:101FB00007956E2D600F1F910F91EF900895A22F3E
:101FC00050E0FA01EE0FFF1FE053FE4F9081905258
:101FD00097FD9195440F551FFA01E153FE4F308153
:101FE000232F30E02A1B3109290F311D97FD3A9527
:101FF000620F0895E42FF0E0EE0FFF1FE053FE4F55
:102000006081621B0895E42FF0E0EE0FFF1FE153A3
:10201000FE4F6081621B0895E42FF0E0EE0FFF1F7A
:10202000E153FE4F408134EE439F412D1124E82FB0
:10203000F0E050E0445E5F4FDA01A21BB1099D0160
:10204000B7FF03C031952195310993E0220F331F6B
:102050009A95E1F7AF01421B530B9A0157FF02C05B
:1020600020E030E0582F259F212D1124822F089544
:10207000E42FF0E0EE0FFF1FE153FE4F408134EEFE
:10208000439F412D1124E72FF0E050E0445E5F4F65
:10209000DA01A21BB1099D01B7FF03C0319521955B
:1020A000310993E0220F331F9A95E1F7AF01421BEC
:1020B000530B9A0157FF02C020E030E0279F212DEB
:1020C0001124722F0895FC019B01009721F477FFE2
:1020D0002BC080E80895AC0197FF04C04427552722
:1020E000481B590BB901640F751F37FD0CC0241B29
:1020F000350BC901A5E0880F991FAA95E1F70E9449
:10210000C92F80E20CC0CB0165E0880F991F6A954A
:10211000E1F7BA01621B730B0E94C92F80E6861B90
:10212000F7FF03C08195089580E00895EF920F9323
:10213000CF93DF93D72FC82FC9010E19BA010E9480
:102140006310602F681B7D2F8C2FDF91CF910F9133
:10215000EF9008950F93CF93DF93D72FC82FC90126
:10216000BA010E946310682F600F7D2F8C2FDF91C2
:10217000CF910F910895EF920F931F93CF93DF9319
:10218000D62FC72F182FC9010E19010FBA010E94AF
:102190006310081B202F219F212D1124822F6D2FCA
:1021A0007C2FDF91CF911F910F91EF900895EF92C7
:1021B0000F931F93CF93DF93D62F172FC82FC901EB
:1021C0000E19070FBA010E946310702F781B719FC0
:1021D000712D11246D2F8C2FDF91CF911F910F91B5
:1021E000EF900895FF920F931F93CF93DF93F62EF6
:1021F000D72F182FC901C12FC01BBA010E9463102D
:10220000982F990F890FC81B2C2F219F212D112446
:10221000822F6F2D7D2FCDB7DEB7E5E00C94FF2C1C
:10222000FF920F931F93CF93DF93F62E172FD82F84
:10223000C901C72FC01BBA010E946310982F990FC4
:10224000890F7C2F781B719F712D11246F2D8D2F7D
:10225000CDB7DEB7E5E00C94FF2C0E94501908952D
:102260000E9412190895EBEFF4E081E380838091DE
:102270001F0190912001A091210181839283A3836A
:102280008CE384838FEF858346E050E06CE170E05F
:10229000CF010E94962D1092FA040895482F982F8E
:1022A00046FD9095E92FEF739F7046FD9F5FE29585
:1022B000EF70EE0FF0E0EA5CFE4F2181299F802D48
:1022C000212D112482958F702295207F822B3081C1
:1022D000982F930F892F47FD819580580895BC0151
:1022E0008230910508F40895613E8EE1780748F444
:1022F0009B0195E0369527959A95E1F748E0420FC6
:1023000001C04FEF91E0242F30E0290F311D3595AA
:102310002795229FF001239FF00DF00D11246E17D9
:102320007F0718F44FEF420F04C02F3F39F091E0C0
:10233000920F491740F78FEF890F08958FEF089597
:102340000F93CF93DF93D72FC82F47FD4195E8E335
:10235000F0E0CF01841B910947FD9395889FB00160
:10236000899F700D700D1124229FC001239F900D35
:10237000900D1124860F971F0E946F11682F660F12
:10238000860F682F600F7D2F8C2FDF91CF910F91DB
:10239000089520E030E0869F212D969F200D311D6D
:1023A0001124C9010895A0E0B0E0E9EDF1E10C9439
:1023B000E02CF62E472FE82FF0E0711106C0E05216
:1023C000FD4F8491782F682F73C0272F30E0E052A3
:1023D000FD4FE491FE2F0E2F10E056E0659FC001E7
:1023E0001124CFEFD0E0BE010E94C22C5BEA56035D
:1023F000C001579F900D11248F0D911D8F0D911DC0
:10240000982F990F980F7E01E21AF30AE09ED001EF
:10241000E19EB00DF09EB00D11248B2F499FA001BD
:102420001124452F55277E01E41AF50AE09EA001EC
:10243000E19E500DF09E500D11246E01C91AD10875
:10244000C29E7001C39EF00CD29EF00C11242F2D61
:102450003327C21BD30BC09F9001C19F300DD09F6B
:10246000300D1124932F6230710591F048F46115FD
:102470007105E1F061307105B9F49E2FE52F16C0AA
:102480006430710569F040F06630710579F00CC078
:102490009E2FEB2F832F0AC0EB2F8F2F952F06C077
:1024A0009B2F8E2FE32F02C09B2F852F7E2F692F0E
:1024B000CDB7DEB7E8E00C94FC2CA0E0B0E0E3E69A
:1024C000F2E10C94DF2CC82F80911A018C130DC0FF
:1024D0002091FB04237030E04091190150E081E02D
:1024E0002417350719F480E001C081E081708093E2
:1024F0001D018091000590911C01981739F080937F
:102500001C0140E060E080E00E942D11CC3029F4F5
:1025100083E090E10E945F2A39C0CD3008F097C176
:10252000C53009F447C008F06FC1C23009F085C05A
:1025300080911B01D82FDD0FDD0FD80FA5E0EA2E0B
:10254000ED0E20E32E1510F4F0E3EF2E0091FD04C4
:102550001091FE04F090FC046F2D702F812F0E94CB
:10256000D311D62EC72EB82E6091FF046F0D702F99
:10257000812F0E94D311162F072FF82EDE1508F495
:102580008CC081E03FE23E1508F485C090911B01AC
:102590009F5F90931B01811148C282E080931E01CE
:1025A00080911D01811141C2C1113FC283E080931E
:1025B0001E013BC280911B01D82FDD0FDD0FD80F0C
:1025C00015E01D0F113308F010E3F090FC040091AA
:1025D000FD04E090FE046091FF04669566956695A3
:1025E0008091F3049091F4040E94C9110E944E114D
:1025F000805887FD8195880F282F3E2D239F212D00
:102600001124822F6F2D702F0E94D311062FF72EC9
:10261000E82ED11790F5ED2FF0E0DF01A15DBD4F61
:102620008C9190911C01982331F02E2D402F6F2D0D
:10263000CF010E943011DF5FECCFC33008F056C0ED
:10264000CC2301F1C13009F058C080911B01D82F73
:10265000DD0FDD0FD80F15E01D0F113308F010E36B
:102660006091FC047091FD048091FE040E94D311DE
:10267000062FF72EE82ED11738F181E0103308F439
:1026800085CF09C080911D01882329F040E060E0DA
:1026900080E00E942D1180E079CF8D2F90E0FC0129
:1026A000E15DFD4F308120911C01232359F030FF63
:1026B00004C02F2D412F602F03C02B2D4D2D6C2DCD
:1026C0000E943011DF5F5ACFED2FF0E0DF01A15DF6
:1026D000BD4F8C9190911C01982331F02E2D402FED
:1026E0006F2DCF010E943011DF5FC5CF80911B019C
:1026F000C33049F0C43009F44AC080911B018F5F98
:1027000080931B014ACFD82FDD0FDD0FD80FE5E0F6
:10271000FE2EFD0E80E38F1510F470E3F72ED0909F
:10272000FD04C090FE042091FF0460E4E62E3E2DDF
:10273000329F312D1124E32EDF1518F50D2F10E0F7
:10274000F801E15DFD4F908180911C018923B9F072
:10275000F801EE0FFF1FE053FE4F808182958F70CE
:102760006091FC048E9D600D11247D2D8C2D0E94A6
:10277000D311462F282F672FC8010E943011DF5F29
:10278000DBCF81E09FE29F1508F000CF84CFD82FE8
:10279000DD0FDD0FD80F15E01D0F113308F010E32A
:1027A000D090FD04C090FE042091FF0400E4029F3D
:1027B000012D1124D11708F060CFED2EF12CF70177
:1027C000E15DFD4F908180911C018923D9F0F701D3
:1027D000EE0FFF1FE153FE4F6081069FB0011124F1
:1027E00045E0759567954A95E1F78091FC04680F7F
:1027F0007D2D8C2D0E94D311462F282F672FC701C6
:102800000E943011DF5FD6CFC83051F480E191E1F2
:1028100004C0CB30B8F482EF90E10E94092AB6CE12
:10282000C93058F4C63019F488E390E173CEC7304C
:1028300009F063CF8CE090E16DCECA3051F787ED9F
:1028400090E102C08BEB90E10E948D299FCEC231B6
:1028500019F486E990E1F8CFC331E8F4CF3019F4E8
:1028600080ED9FE0F1CFC03158F4CD3019F48AEFFC
:102870009FE050CECE3009F040CF8FED9FE04ACEA2
:10288000C03119F480EA91E1C8CFC13109F035CFE8
:102890008AEA90E1C2CFC53129F482E39FE00E9429
:1028A000382974CEC63158F4C33119F482EA9FE056
:1028B000F6CFC43109F021CF80E79FE0F0CFC731D8
:1028C00009F040C080911D0181111EC06091FF047C
:1028D00020E1620F08F46FEF8091F3049091F4040B
:1028E0000E94C91165E070E00E94C22C892B09F09A
:1028F000D2CE0E94592D60E370E00E94C92F6091F2
:102900001C010E94F61BC7CE80911B01082F000FEF
:10291000000F080FD5E0D00FD13308F0D0E310E05E
:10292000ED2EF12C0E151F0544F460911C01C80119
:102930000E94F61B0F5F1F4FF5CF81E0D03308F4E4
:1029400025CEA9CEC73108F03CC080911D01811170
:102950001EC06091FF0420E1620F08F46FEF8091C8
:10296000F3049091F4040E94C9116AE070E00E949F
:10297000C22C892B09F08FCE0E94592D60E370E0A4
:102980000E94C92F60911C010E941A1C84CE809164
:102990001B01082F000F000F080FD5E0D00FD13317
:1029A00008F0D0E310E0ED2EF12C0E151F050CF011
:1029B000C4CF60911C01C8010E941A1C0F5F1F4FF9
:1029C000F4CFCF3F09F099CE8091F3049091F404B5
:1029D000A091F504B091F60488279C70AA27BB2724
:1029E0002AE0B695A795979587952A95D1F78230D5
:1029F0009105A105B10571F083309105A105B105DF
:102A000069F040E00197A105B10511F060E008C050
:102A100064E102C044E160E080E003C044E164E1BD
:102A200084E10E942D1182E0C2CDCDB7DEB7E9E08E
:102A30000C94FB2C0E94391B2091A202211104C08E
:102A40002091A302222321F09093A00280939F0261
:102A50002091A402211104C02091A502222321F07B
:102A600090939E0280939D02E0914804F091490466
:102A7000309731F00480F581E02D81EA92E00995EC
:102A80000895ACE5B0E0E7E4F5E10C94DE2C85B701
:102A9000806885BF85B7806885BF84B7877F84BF1E
:102AA0000FB6F894A89580916000886180936000CB
:102AB000109260000FBE90E080E80FB6F89480930B
:102AC0006100909361000FBE8CE091E290936102EF
:102AD000809360020E94790D0E94980D8091E2001F
:102AE00084608093E20078948091F9048823A1F0B7
:102AF0001091E9001F709091EC00892F817090FD7A
:102B000080E8182B1092E9008091E80083FD0E9474
:102B1000630A1F701093E90082E084BD93E095BDC5
:102B20009AEF97BD80936E000E943B2790E09093B0
:102B30001801809317010E9476280E94BC28E8EAB9
:102B4000F2E0A6EBB2E011921D9222E0E63BF20722
:102B5000D1F78EE090E00E94E32F8093A60290933D
:102B6000A702FC010E961192E817F907E1F789EA2E
:102B70008093800089E08093810024982C983F986E
:102B80008AB18F7C8AB96E98479A8BB180638BB972
:102B9000769A8FE090E00E948A2D6093E502709310
:102BA000E6028093E7029093E80267703FEF639F2D
:102BB000B001112475956795759567957727709382
:102BC00089006093880070938B0060938A007093F3
:102BD0008D0060938C000E94B22780E090E00E94FC
:102BE000902D883E9E4F11F00E94042382E090E0D9
:102BF0000E94822D8093C40284E090E00E94822D86
:102C0000182F82E290E00E94822D212F30E0382B95
:102C100030936A022093690283E090E00E94822D43
:102C20000E944C1E8091E4020E9493260E94621C26
:102C30000E94551C0E94551C8091FA04816080936B
:102C4000FA048BE091E0909349048093480428E1D2
:102C5000C22ED12CFF24F394EE24E3948091F90446
:102C6000853009F071C080E4B82E93E0A92E00E110
:102C700012E18091F904853009F05EC08091F90479
:102C8000843009F436C00E94801C8091E9028111D1
:102C90000DC00E945D1210921A018091FB04837096
:102CA000809319010E948E19A0921E01E092E90200
:102CB00010924C040FB6F894A895C09260000FBE15
:102CC000B092600083B7817F846083BF83B78160E7
:102CD00083BF7894889583B78E7F83BF0FB6F894AF
:102CE000A8958091600088618093600010926000D8
:102CF0000FBE80919302882309F4BBCF0E943B272B
:102D000090E090931801809317010E9476280E940A
:102D1000BC28E6EBF2E0119282E0E43CF807D9F738
:102D20000E94A824E6EBF2E0819181113EC222E0EC
:102D3000E43CF207C9F79DCF10926F020E940D206C
:102D40000E94C21B1092E9020E94A824882359F015
:102D50008FB7F894409165025091660260916702C6
:102D6000709168028FBFE5ECF2E0A6EBB2E000E004
:102D700010E0302F2D9191919227A1F180E0BB249A
:102D8000B394492F4B2151F164968FAF64976596A8
:102D90003FAF65972B2181E009F480E066968FAF05
:102DA00066970E94391B8160782F68969FAF8EAF1F
:102DB000689764964FAD649765965FAD6597669624
:102DC0006FAD669768968FAD68970E94BD25F80134
:102DD000EB53FD4F8081B826B0822AC08F5FBB0CB9
:102DE000863079F60F5F1F4F0E30110509F0C1CF05
:102DF0008FEF69968FAF69976A968FAF6A976B96D8
:102E00001FAE6B970E94391B8160782F6D969FAF24
:102E10008EAF6D9769964FAD69976A965FAD6A9769
:102E20006B966FAD6B976D968FAD6D970E94BD25BC
:102E30000E94801C85E0E1EAF2E0DE01119601903B
:102E40000D928A95E1F71092A2021092A3021092BD
:102E5000A4021092A5021A81111104C08B8188234B
:102E600009F450C080919F029091A0020E94230F0C
:102E70009C0190910205992309F4AFC12F303105CF
:102E800008F440C09F3F19F09F5F90930205112303
:102E900061F00E94522B111614F09FEF01C091E0D7
:102EA000899F802D11248093A2021B81112361F040
:102EB0000E94522B111614F09FEF01C091E0899FE0
:102EC000802D11248093A3023091A2023323D1F0EC
:102ED0002091A3022223B1F045EB3403C001112459
:102EE000992319F09093A20202C0F092A20235EB4E
:102EF0002303C0011124992319F09093A30202C067
:102F0000F092A3021C81111104C08D81882309F461
:102F100050C080919D0290919E020E94230F9C01BF
:102F200090910105992309F45CC12F30310508F413
:102F300040C09F3F19F09F5F90930105112361F0FE
:102F40000E94302B111614F09FEF01C091E0899F71
:102F5000802D11248093A4021D81112361F00E9411
:102F6000302B111614F09FEF01C091E0899F802D46
:102F700011248093A5023091A4023323D1F0209133
:102F8000A5022223B1F045EB3403C001112499239B
:102F900019F09093A40202C0F092A40235EB23032F
:102FA000C0011124992319F09093A50202C0F09258
:102FB000A50245E050E0BE016F5F7F4F81EA92E0DD
:102FC0000E940431892BA9F48091A20281110FC0C3
:102FD0008091A30281110BC08091A402811107C0CE
:102FE00081E09091A502911103C080E001C081E0D1
:102FF00080FD0E941A1585E0FE013196A1EAB2E03B
:1030000001900D928A95E1F70E94C21B9091D30224
:1030100089138093D3028091F904843009F01ECE85
:103020008093E9008091E80082FF18CE8091E8004B
:1030300085FF22C00E94CA0E81111CC000E210E070
:103040005E0141E2A40EB11C08C08091F100F501BF
:1030500081935F010150110969F08091E80085FDBD
:10306000F4CF8091E8008B778093E8000E94CA0E2D
:10307000882399F391E001C090E08091E8008B777C
:103080008093E800992309F4E9CD89A18130E1F129
:1030900050F1823021F0843009F47BC0DFCD8BA168
:1030A0009AA19093D4028093D5028DA19CA1909374
:1030B000D6028093D7028FA19EA19093D8028093CD
:1030C000D90242E150E063E270E0CE018F5B9F4F96
:1030D0000E94722D84E08983F092F8048EEF8A8337
:1030E0001092F7040CC019828CE0EEE3F1E0DE01EF
:1030F000129601900D928A95E1F78EEF8D87CE01A1
:1031000001960E940C29AACD0AED12E00E94CF1B65
:10311000F801819391938F01F2E0003E1F07B1F710
:10312000F9828091DA028A838091DB028B8380911D
:10313000DC028C838091DD028D838091DE028E83A0
:103140008091DF028F838EEF8887F092F704CE01A3
:1031500001960E940C2942E150E063E270E0CE014A
:1031600001960E94722DFE01319682E183301CF09F
:103170009189928B01C0128A815031978F3FB1F7AC
:1031800042E150E063E270E0CE0101960E94962D8C
:1031900065CD8091F804882309F460CD80E00E9419
:1031A000091E8AA10E94401E59CD09BD19BD09B44E
:1031B00000FEFDCF8091D8008F7D8093D800809154
:1031C000E00082608093E0008091E00081FDFCCF10
:1031D00010926F020E940D204CCD232B09F054CE8B
:1031E00091CE213A310508F0A6CEE3CEEBEFF4E024
:1031F000248130E1231B08F420E024838091FA0429
:1032000081608093FA040895EBEFF4E0248130E1CB
:10321000230F08F42FEF24838091FA0481608093B8
:10322000FA040895A4E0B0E0E8E1F9E10C94E32C9D
:103230008033910588F5122F042FF62EBC01660FFE
:10324000771F660F771F60527C4F44E050E0CE013D
:1032500001960E94692D898183704A81282F30E070
:1032600050E9859FC001112480509D4FFC01E40F5F
:10327000F11DB497F0824B81FC01E40FF11DB4976E
:1032800000834C81840F911DFC01B4971083F901D8
:10329000E250FD4F81E080832496E5E00C94FF2C02
:1032A000FF920F931F93CF93DF93182F062FF42EC7
:1032B000C0E0D0E02F2D402F612FCE010E941219C7
:1032C0002196C033D105B1F7CDB7DEB7E5E00C9458
:1032D000FF2C0F931F93CF93DF93082F000FEB0169
:1032E00014E21093EA02EBEEF2E0DE018D9181939D
:1032F00082E0EB3FF807D1F723E030E041E150E016
:103300006AEE72E0802F0E949D2C105F6096143B45
:1033100041F7DF91CF911F910F9108958091FE02A7
:10332000882329F060E073E084E70E946919109215
:10333000FE028091FF02882329F060E973E087E7AD
:103340000E9469191092FF020895EAEEF2E060838C
:10335000418323E030E042E050E0BF01880F0E944B
:103360009D2C0895A0E0B0E0E8EBF9E10C94E12C8D
:10337000262F30E0A9014C5B5B4F7A01FA01908166
:10338000911107C0F7011082CDB7DEB7E7E00C94CA
:10339000FD2CD82EF2E16F9FE001112400E010E037
:1033A000F801EC0FFD1FE05EFB4F4081602F8D2D7B
:1033B0000E94A5190F5F1F4F0231110589F7E2CF57
:1033C000CF93DF93C82F4BE06DEF0E94A51940E02B
:1033D0006AE08C2F0E94A5198FE39CE90197F1F711
:1033E00000C0000040E060E08C2F0E94A51940E082
:1033F00061E08C2F0E94A51940E066E08C2F0E94AE
:10340000A51940E06DEF8C2F0E94A519D0E040E097
:103410006D2F8C2F0E94A519DF5FD231C1F740E0DC
:103420006D2F8C2F0E94A519DF5FD432C1F740E0C9
:103430006D2F8C2F0E94A519DF5FD43BC1F74BE0A5
:103440006DEF8C2F0E94A51941E06AE08C2F0E943D
:10345000A51940E06DEF8C2F0E94A519DF91CF9147
:103460000895A4E0B0E0E7E3FAE10C94DA2C0E94BE
:10347000CD2B84E70E94E01987E70E94E01900EE57
:1034800013E072E1772EE8E0CE2ED12CEE24E39407
:10349000F12C6624639444E050E0B801CE0101961B
:1034A0000E94692D2A8130E0C9018497AB80B12C3C
:1034B00044E2A41AB108EC81F0E0B497AC0197FFA4
:1034C00002C0495F5F4F63E0559547956A95E1F704
:1034D0002981237030E0729EB001739E700D11241B
:1034E000605E7B4F4B01840E911CB6010E94C92F78
:1034F000D70102C0AA0FBB1F8A95E2F7CD01D40104
:103500009C91892B8C93C501B7FC079653E0959548
:1035100087955A95E1F7729EA001739E500D112474
:10352000405E5B4F4A01880E911CC501B6010E94A6
:10353000C92FA70102C0440F551F8A95E2F7CA019F
:10354000D4019C91892B8C93CF01F7FD079643E022
:10355000959587954A95E1F7729EA001739E500D4F
:103560001124405E5B4F5A01A80EB11CCF01B60179
:103570000E94C92FF70102C0EE0FFF1F8A95E2F7E4
:10358000CF01D5019C91892B8C93F901EC5BFB4F0A
:1035900060820C5F1F4FB4E0003A1B0709F07BCF3D
:1035A00060E084E70E94B21961E087E70E94B219E7
:1035B0002496EEE00C94F62CEBEFF4E0438120E14E
:1035C000421B08F440E08181628190E00E94A92AB8
:1035D0000895EBEFF4E0438120E1420F08F44FEF50
:1035E0008181628190E00E94A92A0895EBEFF4E0C6
:1035F000628120E1621B08F460E08181438190E0F8
:103600000E94A92A0895EBEFF4E0628120E1620FA5
:1036100008F46FEF8181438190E00E94A92A089508
:10362000EBEFF4E0818190E04381628108970E9492
:10363000A92A0895EBEFF4E0818190E04381628153
:1036400008960E94A92A08958091FB048695869584
:10365000815009F487E10E94C92808958091FB04F4
:10366000869586958F5F883108F081E00E94C92891
:1036700008952FB7F8948091650290916602A09109
:103680006702B09168022FBF08951F920F920FB684
:103690000F9211248F939F93AF93BF9380914C040B
:1036A000811113C08091650290916602A09167021A
:1036B000B09168024196A11DB11D8093650290935F
:1036C0006602A0936702B0936802BF91AF919F9189
:1036D0008F910F900FBE0F901F90189520910A01A7
:1036E0002223C9F02091690227FF15C0262F2695B5
:1036F000269526952E31C8F4FC01E20FF11D677066
:1037000081E090E001C0880F6A95EAF78095928188
:10371000892382830895FC0106962281621301C0E9
:1037200012823196E817F907C1F7089520914A04EB
:1037300030914B042817390771F090934B04809314
:103740004A04E0914804F0914904309721F0008444
:10375000F185E02D099508952091460430914704A4
:103760002817390771F09093470480934604E0913D
:103770004804F0914904309721F00680F781E02D4C
:1037800009950895E0914804F0914904309729F093
:103790000190F081E02D0995089580E00895CF9380
:1037A000DF930E94592D66E070E00E94C92FD82F48
:1037B0000E94592D6EE070E00E94C92FC82F6D2F16
:1037C000782F80E00E9451210497C59718F48D2F1F
:1037D0009C2F02C00E94CF1BDF91CF9108958823B8
:1037E00011F0FA0101C0FB01099508951F93CF93D1
:1037F000DF93FC01E15DFD4F20816223B9F0EC0114
:103800000E94592D182F0E94592D8F77782F20E86C
:10381000720F08F47FEF612F8091FE040E94D31194
:10382000462F282F672FCE010E943011DF91CF91B4
:103830001F910895A0E0B0E0E0E2FCE10C94E12CDF
:10384000EC01FC01E15DFD4F9081692349F1D090CD
:10385000FD040091FE041091FC04E12EF12C0E9465
:10386000592D282FC7018C549F4F68E671E00E94A4
:10387000C92F8E199F0997FD039695958795959564
:1038800087952370612F289F600D11247D2D802F37
:103890000E94D311462F282F672FCE010E9430118E
:1038A000CDB7DEB7E7E00C94FD2C8091FB0483706C
:1038B00011F410921E018091FB048C7F8160809333
:1038C000FB0408950E94311A80E090E00E94902D40
:1038D000883E9E4F21F00E9404230E94331146E04F
:1038E00050E06CE170E08BEF94E00E94722D10923A
:1038F000FA048091FB048C7F11F40E943311089527
:103900000F931F93CF938FB7F89440916502509116
:10391000660260916702709168028FBF4093E00277
:103920005093E1026093E2027093E3028091E90216
:10393000811108C0C091FB048C2F837019F0C695CB
:10394000C69501C0C0E080911E018130A1F038F021
:10395000823009F461C0833009F46BC095C01092C5
:103960001B014093F3045093F4046093F5047093A7
:10397000F60481E05BC08C2F0E945D12CC2309F419
:1039800083C08091E50283FD7FC08091E40290E0D6
:10399000A0E0B0E0AC01BD01F4E0769567955795E5
:1039A0004795FA95D1F7411551056105710521F447
:1039B000AC01BD0180E001C084E08A019B01E2E02E
:1039C0003695279517950795EA95D1F701151105B5
:1039D0002105310519F08E5FB901A801769567952B
:1039E00057954795452B462B472B09F08F5F813024
:1039F00029F0823041F482E090E002C081E090E062
:103A00000E94BD2641C08091000581113DC040E06B
:103A100060E00E942D1138C0C0931A018091FB0410
:103A20008370809319010E948E1983E080931E0198
:103A30002BC08091FA04882351F046E050E06CE1FD
:103A400070E08BEF94E00E94962D1092FA04409162
:103A5000F3045091F4046091F5047091F6042FB7CB
:103A6000F8948091650290916602A0916702B091EE
:103A700068022FBF841B950BA60BB70B4A97A105B5
:103A8000B10510F010921E01CF911F910F91089572
:103A900080E090E00E94AC1B80E090E00E94961BCA
:103AA0001092E7040E948723E1EAF2E085E0DF015B
:103AB0001D928A95E9F71092020510920105109265
:103AC00003050E941A150895CF92DF92FF920F937B
:103AD0001F93CF93DF936C010091E4028091E9047E
:103AE000082BC7E0D0E010E0C8010C2E02C095956D
:103AF00087950A94E2F780FD04C02197A8F7F12C7E
:103B000009C0FC2EB6018C2F0E9451210E946A210F
:103B1000019799F38F2DDF91CF911F910F91FF9016
:103B2000DF90CF900895CF93DF93EC010E94641D46
:103B3000BE010E9451210E946A21DF91CF91089518
:103B4000292F9E3078F5863068F590E036E0239F87
:103B5000800D911D1124682F677023E0969587953D
:103B60002A95E1F7FC01EE0FFF1FE80FF91FE35B59
:103B7000FB4F40E050E080E0219130E0062E02C093
:103B8000369527950A94E2F721703327042E01C059
:103B9000220F0A94EAF7822B4F5F5F4F43305105A3
:103BA00059F7089580E00895292F9E3088F58630D2
:103BB00078F590E036E0239F800D911D1124282F89
:103BC000277051E001C0550F2A95EAF723E096953A
:103BD00087952A95E1F7FC01EE0FFF1FE80FF91F0B
:103BE000E35BFB4F20E030E070E04081CB01022E30
:103BF00002C0969587950A94E2F781708195842793
:103C00008523842781932F5F3F4F2330310569F748
:103C10000895A0E2B0E0EFE0FEE10C94E52C0E94F4
:103C20009326182F8091F8048823A9F02FEF80E7BE
:103C300092E0215080409040E1F700C0000085E014
:103C40008983812F0E9467268A838EEF8B83CE0122
:103C500001960E940C291093E4020E94481DA09630
:103C6000E3E00C94012D21E030E001C0220F8A95A1
:103C7000EAF720958091E40282230E94091E0895AC
:103C800021E030E001C0220F8A95EAF78091E4023A
:103C9000822B0E94091E08958093E9040E94481D0A
:103CA000089592959F70963079F010F4925001C06B
:103CB0009A50923068F4803F69F018F4883E40F4DE
:103CC00009C0843F29F406C0883E20F0813F11F0EE
:103CD00080E0089581E00895FC01808191810E9437
:103CE000931D0E94511E0895A1E1B0E0EAE7FEE1B4
:103CF0000C94DC2C8C0185E0F801DE011D9601900E
:103D00000D928A95E1F7D8011296EC9090918E046D
:103D100020918F04409191045091920441155105D6
:103D200031F02F3F31F481E09F3F19F403C081E06F
:103D300001C080E080FD52C1F801D080C180A38025
:103D4000B4808EE8882E84E0982EF0909004B5011F
:103D5000641B750BFF2009F4FEC080919304382F7B
:103D6000307F6933710508F0C8C0311189C02C114A
:103D700012C09D1110C0FE2CE1100DC08F7080612B
:103D800080939304C4010E94430480919304D8015A
:103D900015968C933DC1A114B10439F0BFEFCB123D
:103DA00006C081E0DB1203C003C081E001C080E0F7
:103DB00080FD03C081E08E2502C080E090E080FF9E
:103DC00010C04E2D6C2D8D2D0E941524882349F096
:103DD0008EE894E00E944304EEE8F4E086E0DF0120
:103DE00094C0A114B10439F0BFEFCB1206C081E03A
:103DF000DB1203C003C081E001C080E080FD03C08E
:103E000081E08E2502C080E090E0E82FE170BE2EB8
:103E100080FF2CC04E2D6C2D8D2D0E941524F82E68
:103E2000811124C0DD86CE868D859E850E94931DDE
:103E3000292F22952F70223018F0243090F405C0DD
:103E40009F7059F0811109C0E3C09F7031F0D80113
:103E500015969C91907F09F4DBC0805E883008F451
:103E6000D7C0C8010E944304FB2CD2C0FE2CEE2018
:103E700009F4CEC08091930481608093930448C07C
:103E80002C1106C09D1104C0E11002C0F80185C0CC
:103E9000C8010E946C1E882351F1EE2041F120914F
:103EA0009304822F82958F7090E0029774F0809136
:103EB0008E0490918F0498878F831986BB86AA867B
:103EC0002C87CE0107960E94430486E0F801AEE8F5
:103ED000B4E001900D928A95E1F70E943F240AC058
:103EE0002C15C1F0C8010E946C1E81111DC0C801B3
:103EF0000E944304FF24F3948BC03111F1CF8EE86C
:103F000094E00E94430486E0D4011D928A95E9F76B
:103F1000F12C7EC09D11E6CFE110E4CFF80185833E
:103F2000C8010E94430454C0EE2009F32091930479
:103F3000822F82958F7090E002973CF280918E04E0
:103F400090918F049A8389831B82BD82AC822E83D9
:103F5000CE010196B8CF69337105D0F5FE2CEE2065
:103F600031F22C1127C09D1125C02091930420FD12
:103F700018C0822F82958F70482F50E0411551054F
:103F800081F0F80125834F30510541F08F5F982F64
:103F90009295907F822F8F70892B8583C8010E9414
:103FA000430486E0F801AEE8B4E001900D928A95F2
:103FB000E1F72EC0C8010E946C1E811186CF80914E
:103FC0009304816080939304C8010E94430420C03D
:103FD00086E0D4011D928A95E9F71AC0EE2009F413
:103FE00086CFC8010E946C1EF82E882309F47FCF6B
:103FF00086E0F801AEE8B4E001900D928A95E1F711
:1040000080918E0490918F040E94931D0E943F2402
:104010008F2D6196ECE00C94F82C80910A01882396
:1040200031F08091690287FF02C08EE101C086E015
:10403000E0E7F4E0DF011D928A95E9F70E94481D50
:104040000895882321F00E9480230E9487230895E9
:10405000882339F090916F02892B80936F020E9420
:1040600087230895882391F19CEF980F913A30F4BB
:10407000682F8EE694E00E946E1B0DC090E2980FB0
:10408000983060F4877091E001C0990F8A95EAF743
:10409000892F0E9480230E94872308959BE5980F13
:1040A000933028F480E090E00E94AC1B089598E5DE
:1040B000980F973128F480E090E00E94961B0895B5
:1040C0008D3E20F00E94B92A0E941A150895CF93C0
:1040D000882309F49FC0C82F8CEF8C0F813A08F019
:1040E0005BC080910A018823E1F08091690287FF1B
:1040F00018C0EC2FE695E695E695F0E0E259FB4F07
:104100008281282F30E04C2F477081E090E002C080
:10411000880F991F4A95E2F782239323892B59F43C
:1041200011C0E0E7F4E08191C81729F084E0E63798
:10413000F807C9F707C06C2F8EE694E00E946E1B4B
:104140000E94872380910A018823B1F0809169023F
:1041500087FF12C0EC2FE695E695E695F0E0E25970
:10416000FB4FC77081E090E001C0880FCA95EAF765
:104170009281892B828320C0A0E7B4E0EFEF80E03A
:104180009D91C917C9F0EF3F19F4911101C0E82FB3
:104190008F5F8630A9F735C080E28C0F883078F4C5
:1041A000C77081E090E001C0880FCA95EAF790914E
:1041B0006F02892B80936F020E9487232BC0EBE54F
:1041C000EC0FE33040F4F0E0E65BFE4F808190E0DE
:1041D0000E94AC1B1FC0E8E5EC0FE73150F4F0E0A3
:1041E000EE0FFF1FE35BFE4F808191810E94961BC3
:1041F00011C0CD3E78F08C2F0E94722B0E941A15B0
:1042000009C0EF3FC9F20E2E000CFF0BE259FB4F25
:10421000C283D2CFCF91089580E008959091690232
:1042200092FF0DC0282F2871283019F4877F8460F1
:1042300006C0282F2471243011F48B7F886093FFEF
:104240000DC0282F2871283119F4877E846106C09B
:10425000282F2471243111F48B7E886120916A0209
:1042600020FF0DC0382F3871383019F4877F8160F6
:1042700006C0382F3171313011F48E7F886021FFF4
:104280000DC0282F2871283119F4877E816106C05E
:10429000282F2171213111F48E7E886194FD877E53
:1042A00008957E30A0F4663090F494E5899FF00183
:1042B000112486E0789FE00DF11D1124E60FF11D19
:1042C000EE0FFF1FE056FB4F85919491089580E01B
:1042D00090E00895CF93DF938238910569F1B0F4AF
:1042E0008133910509F46FC048F48932910509F4CE
:1042F00065C08A32910509F46BC08AC08533910587
:1043000009F457C089339105B9F082C0833E910505
:1043100071F138F4803E9105B1F0823E910511F1C2
:1043200077C0863E9105B9F1873E9105C9F1843E7B
:10433000910509F06DC024C02091690220FD53C091
:1043400021FD51C065C08091690280FD46C0809109
:104350006A0280FF48C08091690284FD50C183EEEB
:1043600090E04FC18091690282FF3AC0F4CF809102
:10437000690282FD35C080916A0280FD34C0EBCFB6
:1043800080916A0281FF35C08091690284FD37C146
:1043900087EE90E036C18091690283FF27C0F4CF99
:1043A0008091690283FD22C080916A0281FD21C053
:1043B000EBCF8091690285FD1FC021C08091690209
:1043C00085FD1DC019C08091690286FD1BC01DC0FE
:1043D0008091690286FD19C015C089E390E011C182
:1043E00082EE90E00EC180EE90E00BC186EE90E090
:1043F00008C184EE90E005C189E290E002C185E346
:1044000090E0FFC08AE290E0FCC081E390E0F9C058
:10441000811531E5930708F069C0811540E59407DF
:10442000F0F09C0174E0369527957A95E1F7922F8C
:104430009370482F437021E030E002C0220F331FF9
:104440004A95E2F73C68392B982F9F709695969580
:1044500040E2949FC0011124822B932BD2C0883E4E
:10446000910568F5803E910508F0CBC0883A91052A
:10447000B8F4853A910548F0855AE82FF0E0E65BFC
:10448000FE4F808190E09064BCC08130910509F4BA
:10449000B3C008F4B4C08430910508F4B0C0B1C012
:1044A0008F3B910508F0ABC0885AE82FF0E0EE0F83
:1044B000FF1FE35BFE4F808191819464A2C0811550
:1044C00020E2920758F4811531E0930708F099C073
:1044D0008D3E910508F493C0906593C0811540E42A
:1044E000940708F48CC09F70906A8BC0811525E5F5
:1044F000920708F042C0811534E5930728F0982F01
:104500008827846F906A7DC0811543E59407B0F0D9
:104510009C012370332741E050E002C0440F551F37
:104520002A95E2F7282F2695269580E2289F90016C
:104530001124CA01822B932B9A6863C0811522E54E
:10454000920728F4982F8827816F906A5AC09C019F
:104550002370332741E050E002C0440F551F2A95D5
:10456000E2F7282F2695269580E2289F90011124B6
:10457000CA01822B932B9C6844C0EC01811539E55C
:104580009307A8F48115984528F09C2F8827806F01
:10459000906A37C0C11586E5D80788F58C2F0E9430
:1045A0000E218F7190E0982F882790622AC0811584
:1045B0002AE5920790F48C2F8F700E940E2194E0D0
:1045C000D695C7959A95E1F7CF70D0E0DC2FCC2730
:1045D000D0699E01282BC90114C0905681159042C4
:1045E00070F48D2F8F710E940E21282F2F71CE0114
:1045F00099279062922B05C081E090E002C080E094
:1046000090E0DF91CF91089568EE7EEF80E090E03A
:104610000E94C42D60E082E090E00E94A62D60E040
:1046200083E090E00E94A62D1092E90460E084E00F
:1046300090E00E94A62D64E082E290E00E94A62D08
:1046400060E085E090E00E94A62D60E086E090E0CA
:104650000E94A62D6FEF87E090E00E94A62D40E01B
:1046600050E0BA0188E090E00E94B82D60E08DE053
:1046700090E00E94A62D40E050E0BA0188E190E071
:104680000E94B82D60E087E190E00E94A62D40E0F6
:1046900050E0BA018CE190E00E94B82D60E070E03B
:1046A00080E290E00E94C42D40E050E0BA0188E131
:1046B00090E00E94B82D1092E5021092E60210924E
:1046C000E7021092E80284E08093E5024091E5025F
:1046D0005091E6026091E7027091E8028FE090E06D
:1046E0000E94B82D40E050E0BA0183E190E00E94C2
:1046F000B82D08958091E80481111092E80408957E
:10470000809590916F02892380936F020895909114
:104710006F028091E704982B90936E048091E804D7
:104720008823D9F0892B80936E0480910A01882315
:1047300031F08091690287FF02C08EE101C086E0FE
:10474000E0E7F4E090E0815028F021912223D9F3B2
:104750009F5FF9CF91110E947A2340E250E067EC0D
:1047600074E08EE694E00E940431892B21F180E20E
:10477000EEE6F4E0A7ECB4E001900D928A95E1F743
:10478000E0914804F09149043097A9F080910A0122
:10479000882359F08091690287FF07C080916E04D9
:1047A00080936F0486E080936E040280F381E02D95
:1047B0008EE694E0099508952091C60480958223A1
:1047C0008093C604982F977099F430E0482F082EF4
:1047D000000C550B2417350759F090916A0292FF8F
:1047E00007C08595859585950E94331E1092C60455
:1047F0000895CF93C0916A02C2FB992790F9981748
:1048000091F080FBC2F9C0936A026091690284E072
:1048100090E00E94A62D6C2F82E290E00E94A62DCF
:1048200082E00E94DC23CF9108952091C5049091ED
:10483000940456E02917A9F030E0529FF001539FED
:10484000F00D1124EB56FB4F7181761306C0708179
:10485000781303C07281741306C02F5F3F4F277017
:10486000E9CF80E0089581E008958091C50490919A
:104870009404891719F08F5F8770FBCF08950F9309
:104880001F93CF93DF938091930482958F7009F0EB
:104890005AC080919004882309F455C08091C504C2
:1048A0001091940460918E0470918F04C0919104D2
:1048B000D091920491E06F3F09F090E0292F06E03B
:1048C000811709F440C0209721F07F3F21F030E0AC
:1048D00003C031E001C0322F90E030FD31C0089FAD
:1048E000F001099FF00D1124DF01AB56BB4F11966B
:1048F0003C911197371324C03C91361321C0129676
:104900003C91129731111CC013964D915C911497F4
:104910004C1B5D0B4933510598F4809193048F70C3
:10492000806180939304E656FB4F80818F70806195
:1049300080838EE894E00E9443040E94352403C0E3
:1049400001968770BDCFDF91CF911F910F91089590
:10495000A0E0B0E0EEEAF4E20C94DF2C80911701C5
:1049600090911801892BA1F08091EA048F5F8093C8
:10497000EA0481110DC00E943B2790E0909318013A
:1049800080931701892B21F40E94B2270E94621C98
:1049900008EA12E07801B12CC0E087E0C82ECC0E06
:1049A0008C2F0E9422288C2D0E9422288C2F0E945E
:1049B00085288F73F7019081891721F08083DD248A
:1049C000D39401C0D12C8C2D0E9485288F73F701C0
:1049D0009781891719F0878381E001C080E0D82A88
:1049E000BD280E947628CF5FFFEFEF1AFF0AC7307D
:1049F000A1F6C091EE04CC23C9F10E94391B20918D
:104A0000EC043091ED04AC01421B530B9A019093DE
:104A1000ED048093EC044F3F510509F020F4452B41
:104A200009F4A1C002C02FEF30E01092EE04109202
:104A3000EB04E091A602F091A702AF01425F5F4F45
:104A400090E030E08081882341F0281718F0108230
:104A50009C2F03C0821B80833C2F3196E417F507FF
:104A600089F73093EE049093EB047DC0BB2009F4EA
:104A700071C00E94391B9093ED048093EC04E09187
:104A8000A602F091A7028091EE04A6EBB2E09F018E
:104A9000225F3F4F4EE1E80199918E015C915917D9
:104AA00031F05081511103C040839C9381E03196D5
:104AB0001196E217F30779F78093EE042091F7043B
:104AC0008091F0049091F1042223C9F1892B31F4F3
:104AD00025982D9826982E9827982F988091F00445
:104AE0009091F1049170892B79F48091EF048823DF
:104AF00019F026982E9802C0269A2E9A9091EF04CB
:104B000081E089278093EF048091F0049091F10473
:104B10008130984750F01092F7048091E4020E948F
:104B200093261092F1041092F0048091F004909179
:104B3000F10401969093F1048093F00418C0892B3E
:104B4000B1F01092F1041092F0048091E4020E94FE
:104B500093260DC080E09091EB04992309F4AECF29
:104B600081118DCF86CFB1108ACF81E0F4CF8B2D0C
:104B7000CDB7DEB7E9E00C94FB2CA7E1B0E0E3ECA5
:104B8000F5E20C94E52C4B8B5C8B6D8B7E8B8F8BC5
:104B90002E893F892115310531F05F3F31F481E0E5
:104BA0004F3F19F403C081E001C080E080FD09C0DF
:104BB00080916302909164020196909364028093C5
:104BC000630261111092E70486E0FE013D96DF0169
:104BD000982F1D929A95E9F74D875E876F87398BDD
:104BE000288BDE01179601900D928A95E1F7CE0190
:104BF00007960E94741E81113EC086E0FE01379622
:104C0000DE01119601900D928A95E1F7FF81E8850A
:104C10006A857B856115710531F0EF3F31F481E0E4
:104C2000FF3F19F403C081E001C080E080FD23C094
:104C30002091940430E0C901019687709927409132
:104C4000C50450E08417950779F1F983EA837D83E1
:104C50006C8396E0929FD001939FB00D1124AB56C8
:104C6000BB4FFE01319601900D929A95E1F780932A
:104C700094040E94352416E08091C5049091940418
:104C8000891709F1189FC00111248B569B4F0E9470
:104C9000741E8823C1F08091C50490E0019687704E
:104CA00099278093C504E8CF10926F020E940D20CF
:104CB000109294041092C504EEE8F4E086E0DF015F
:104CC0001D928A95E9F76796E3E00C94012D982FE1
:104CD00092959F7019F0892F24E001C020E0982F51
:104CE0009695969511F02E5F892F982F969509F03D
:104CF0002F5F822F089510926F020E940D202FEFD8
:104D000084E39CE0215080409040E1F700C0000027
:104D10009AE088E10FB6F894A895809360000FBEE2
:104D200090936000FFCFCF93C82F0E9467265698BC
:104D30005E9825982D9826982E9827982F9890E081
:104D4000FC013197E730F105A8F4E459FF4F0C94CA
:104D5000DD2F259A2D9A0EC0259A2D9A269A2E9AE5
:104D600009C0259A2D9A04C0259A2D9A269A2E9A22
:104D7000279A2F9A8C2FCF910895A0E0B0E0E3EC12
:104D8000F6E20C94D72C20E9289F7001299FF00CA3
:104D90001124C0E0D0E000E010E067018FEFC81AF6
:104DA000D80A570182E0A80EB11CF701EC0FFD1FD5
:104DB000E856F94F6491F601EC0FFD1FE856F94FE4
:104DC0007491F501EC0FFD1FE856F94F84916111C4
:104DD00007C0711105C0811103C020E040E03CC054
:104DE0000E94D311962E372E882E6091FE0470E01B
:104DF00080E090E00E94CE2E20E030E04FE753E4C8
:104E00000E942D2E2B013C01682D70E080E090E087
:104E10000E94D02EA30192010E945C2F0E949F2E1F
:104E2000862E692D70E080E090E00E94D02EA301D4
:104E300092010E945C2F0E949F2E962E632D70E09F
:104E400080E090E00E94D02EA30192010E945C2F8E
:104E50000E949F2E282D492DC8010E9430110F5FFE
:104E60001F4F2396C039D10509F09FCFCDB7DEB7CC
:104E7000E1E10C94F32C80E290E090931801809390
:104E800017018091F20481110EC00E94CD2B81E0A8
:104E90008093F2042FEF83ED90E321508040904007
:104EA000E1F700C0000060E570E080E40E94D32BD1
:104EB0009093180180931701892B09F04EC060E58B
:104EC00070E080E00E94482C9093180180931701B5
:104ED000892B09F042C060E570E080E00E94482C18
:104EE0009093180180931701892BB9F560E570E064
:104EF0008FE30E94482C9093180180931701892B0F
:104F000061F50E94BE2C60E570E080E40E94D32B26
:104F10009093180180931701892BF9F460E570E0F4
:104F20008CE00E94482C9093180180931701892BE4
:104F3000A1F460E570E080E00E94482C9093180195
:104F400080931701892B49F460E570E08FE30E949C
:104F5000482C90931801809317010E94BE2C8091D9
:104F600017010895CF93DF9356985E9825982D9852
:104F700026982E9827982F98C8E8D0E08FEF90E0D9
:104F800099838883AAE8B0E011969C938E93ECE80D
:104F9000F0E091838083259A2D9A2FEF80E792E0AD
:104FA000215080409040E1F700C00000269A2E9AE0
:104FB0002FEF80E792E0215080409040E1F700C061
:104FC0000000279A2F9A2FEF80E792E0215080402F
:104FD0009040E1F700C0000025982D982FEF80E762
:104FE00092E0215080409040E1F700C000002698F8
:104FF0002E982FEF80E792E0215080409040E1F71B
:1050000000C0000027982F988091E50287702FEF4D
:10501000829FC0011124959587959595879599272D
:105020009983888311969C938E939183808356985D
:105030005E9825982D9826982E9827982F98DF917E
:10504000CF910895CF93E82F873080F58091170195
:1050500090911801892B09F047C0CE2F60E570E0D0
:1050600080E40E94D32B9093180180931701892B21
:10507000D1F460E570E082E10E94482C9093180121
:1050800080931701892B79F481E090E001C0880FAB
:10509000CA95EAF760E570E080950E94482C9093ED
:1050A0001801809317010E94BE2C1EC090E0FC01E5
:1050B0003797E730F105C0F4ED58FF4F0C94DD2F22
:1050C000209A289811C0219A29980EC0229A2A98CD
:1050D0000BC0239A2B9808C0529A5A9805C0539A2D
:1050E0005B9802C03E9A4698CF91089520982898E0
:1050F0002198299822982A9823982B9852985A9860
:1051000053985B983E9846980895CF93873040F522
:105110008091170190911801892B59F560E570E095
:1051200081E40E94D32B9093180180931701892B5F
:1051300011F0C0E011C080E590E00E94782C97FF4C
:1051400005C09093180180931701F3CFC82FC09525
:1051500010921801109217010E94BE2C8C2F0AC0C9
:105160009FB18FB1807F869586959370892B8095AE
:1051700001C080E0CF9108958098889A8198899A9B
:1051800084988C9A85988D9A86988E9A87988F9A0B
:1051900008959091FB049370A1F0811102C0946076
:1051A00007C0883110F09C6503C0880F880F982BCA
:1051B0009093FB0410921E018091FA048160809309
:1051C000FA040895EF92FF920F931F93CF93DF930A
:1051D0007C018B010E94CA0E811119C0E7010115E3
:1051E0001105A1F08091E80085FD0AC08091E800DA
:1051F0008E778093E8000E94CA0E882381F307C04F
:1052000089918093F10001501109E9CF80E0CDB779
:10521000DEB7E6E00C94FE2CCF932091F904243005
:1052200029F5C091E900CF703091EC00232F217057
:1052300030FD20E8C22B23E02093E9002091E80014
:1052400020FF11C040E050E060E270E00E94E228E0
:10525000882321F01092F7041092F8048091E8005E
:105260008E778093E800CF70C093E900CF910895C6
:10527000A0E0B0E0EEE3F9E20C94DD2C6C0180914B
:105280001B01C82FCC0FCC0FC80F15E01C0F11331A
:1052900008F010E36091FF04669566958091F30431
:1052A0009091F4040E94C911D82F80E48D0F0E94C0
:1052B0004E1190E8F92EF80E8D2F0E944E1120E825
:1052C000922E980EC11700F5AC2EB12CF501E15DC0
:1052D000FD4F908180911C018923A1F06091FC0415
:1052E0007091FD048091FE04ED2E0C2F292D4F2D81
:1052F000F60109950E94D311462F282F672FC5016B
:105300000E943011CF5FDECF81E0103308F080E0E3
:10531000CDB7DEB7EBE00C94F92C6F927F928F92B1
:105320009F92AF92BF92CF92DF92EF920F931F9313
:10533000CF93DF933C0180911B01C82FCC0FCC0F82
:10534000C80FD5E0DC0FD13308F0D0E36091FF0443
:1053500066958091F3049091F4040E94C911182F6E
:10536000CD1708F044C08C2E912CF401E15DFD4F67
:10537000908180911C018923C1F1F401EE0FFF1F80
:10538000E153FE4FC080D12C80E7C81AD108F40148
:10539000EE0FFF1FE053FE4FA080B12CE0E2AE1AEB
:1053A000B108CC9C9001CD9C300D300D1124AA9CED
:1053B000C001AB9C900D900D1124820F931F0E9491
:1053C0006F11082F6091FC047091FD048091FE0420
:1053D000E12E9501A601F30109950E94D311462FF4
:1053E000282F672FC4010E943011CF5FB9CF81E011
:1053F000D03308F080E0DF91CF911F910F91EF90B3
:10540000DF90CF90BF90AF909F908F907F906F90E4
:105410000895A0E0B0E0EFE0FAE20C94E02C6C011B
:1054200080911B01C82FCC0FCC0FC80FD5E0DC0F2B
:10543000D13308F0D0E36091FF0466958091F304C6
:105440009091F4040E94C911182FCD1778F5EC2E15
:10545000F12CF701E15DFD4F908180911C018923C2
:1054600019F1F701EE0FFF1FE053FE4F208130E0EE
:1054700020523109F701EE0FFF1FE153FE4F40812B
:1054800050E0405751096091FC047091FD048091F7
:10549000FE04012FF60109950E94D311462F282FF3
:1054A000672FC7010E943011CF5FCFCF81E0D0338B
:1054B00008F080E0CDB7DEB7E8E00C94FC2CA0E06B
:1054C000B0E0E5E6FAE20C94E12C8C0180911B013E
:1054D000C82FCC0FCC0FC80FD5E0DC0FD13308F0AC
:1054E000D0E36091FF046695669521E0620F08F4B1
:1054F0006FEF8091F3049091F4040E94C911D82EAB
:10550000CD17F0F4EC2EF12CF701E15DFD4F908109
:1055100080911C01892391F06091FC047091FD043D
:105520008091FE042D2D4C2FF80109950E94D31176
:10553000462F282F672FC7010E943011CF5FE0CF81
:1055400081E0D03308F080E0CDB7DEB7E7E00C941F
:10555000FD2C9091FB04937059F08093FC046093B0
:10556000FD044093FE048091FA0481608093FA0464
:1055700008958D3E39F49091A30297FF35C01092A3
:10558000A30259C08E3E29F49091A3021916BCF3D0
:105590002BC09091A2028F3E29F497FF25C0109254
:1055A000A20249C0803F19F41916CCF31DC0909196
:1055B000A402893F29F41916BCF41092A4023BC03E
:1055C0008A3F19F497FF10C0F8CF8B3F39F49091C0
:1055D000A50297FF09C01092A5022DC08C3F21F4AF
:1055E0009091A5021916BCF39FE0980F983080F4B3
:1055F00021E030E0A90102C0440F551F9A95E2F75F
:10560000CA0180959091A10289238093A10213C0C1
:105610008D3F21F4809103058E7F0BC08E3F21F4D6
:10562000809103058D7F05C08F3F29F4809103058C
:105630008B7F809303058091A202811106C0809127
:10564000A302811102C0109202058091A40281116F
:1056500006C08091A502811102C010920105089533
:105660008091030580FD16C081FD16C082FD18C023
:1056700080910105882391F08D3390F42BE0829F77
:10568000C00111246DE370E00E94C92F862F672BA3
:1056900029F007C082E0089585E0089581E008952B
:1056A0008BE008958091030580FD14C081FD14C036
:1056B00082FD16C080910205882381F0853480F434
:1056C00028E5829FC001112465E470E00E94C92F83
:1056D000862F089586E108958CE2089588E0089564
:1056E00088E508958D3E21F40E94522B819504C0D7
:1056F0008E3E29F40E94522B8093A30208958F3E80
:1057000021F40E94522B819504C0803F29F40E940D
:10571000522B8093A2020895893F19F40E94302BE6
:1057200005C08A3F31F40E94302B81958093A402FA
:1057300008958B3F21F40E94302B819504C08C3F4B
:1057400029F40E94302B8093A50208959FE0980FC2
:10575000983078F421E030E0A90102C0440F551FD1
:105760009A95E2F7CA019091A102892B8093A10238
:1057700008958D3F21F48091030581600BC08E3F19
:1057800021F480910305826005C08F3F29F4809148
:10579000030584608093030508951092B9008CE09E
:1057A0008093B8000895A0E0B0E0E9EDFBE20C942E
:1057B000DD2CB82EEB010E94391B6C01C431D105E0
:1057C00058F0CF3F8FEFD80759F0CE0164E170E079
:1057D0000E94C22C7B0107C0EE24E394F12C03C08D
:1057E00025E0E22EF12C84E8A82E94EA992E10925E
:1057F000BC009092BC000E94391B8C018091BC00BF
:1058000087FD08C00E94391B801B910B8E159F05D8
:10581000A8F32AC08091B900887F883041F0809138
:10582000B900887F803119F00FEF1FEF1FC0B092D1
:10583000BB00A092BC000E94391B8C018091BC006F
:1058400087FD08C00E94391B801B910B8E159F0598
:10585000A8F30AC08091B900887F883111F08034A4
:1058600019F700E010E00EC00EEF1FEFCF3F8FEFF3
:10587000D80709F4BCCFC6010E94230F8C179D07DF
:1058800008F4B5CFC801CDB7DEB7EBE00C94F92C26
:105890000F931F93CF93DF93EB018093BB0084E8BA
:1058A0008093BC000E94391B8C018091BC0087FD55
:1058B0000EC0CF3F8FEFD807C1F30E94391B801B6A
:1058C000910B8C179D0788F38EEF9FEF0CC02091F2
:1058D000B900287F81E090E0283211F480E090E068
:1058E000919581959109DF91CF911F910F91089525
:1058F0000F931F93CF93DF93EC0184E88093BC0058
:105900000E94391B8C018091BC0087FD0EC0CF3FE7
:105910008FEFD807C1F30E94391B801B910B8C17A6
:105920009D0788F38EEF9FEF03C08091BB0090E04E
:10593000DF91CF911F910F910895A0E0B0E0E3EACD
:10594000FCE20C94E02C6B018A017901B9010E9400
:10595000D32BE6010C0D1D1DC017D10741F424E91E
:105960002093BC00CDB7DEB7E8E00C94FC2C97FD8B
:10597000F6CFB70189910E94482CEECF84E980933D
:10598000BC000895AA1BBB1B51E107C0AA1FBB1F87
:10599000A617B70710F0A61BB70B881F991F5A95BB
:1059A000A9F780959095BC01CD0108952F923F9263
:1059B0004F925F926F927F928F929F92AF92BF921F
:1059C000CF92DF92EF92FF920F931F93CF93DF93CB
:1059D000CDB7DEB7CA1BDB0B0FB6F894DEBF0FBE28
:1059E000CDBF09942A88398848885F846E847D8475
:1059F0008C849B84AA84B984C884DF80EE80FD8077
:105A00000C811B81AA81B981CE0FD11D0FB6F894EC
:105A1000DEBF0FBECDBFED0108958F929F92AF9272
:105A2000BF92CF92DF92EF92FF92CF93DF93EC0180
:105A3000688179818A819B81611571058105910554
:105A400021F464E279ED8BE597E02DE133EF41E05D
:105A500050E00E94CA2D49015A019B01AC01A7EAFE
:105A6000B1E40E94E92D6B017C01ACEEB4EFA5011D
:105A700094010E94F72DDC01CB018C0D9D1DAE1D04
:105A8000BF1DB7FF03C00197A109B0488883998360
:105A9000AA83BB839F77DF91CF91FF90EF90DF9038
:105AA000CF90BF90AF909F908F9008950E940D2D42
:105AB000089580E091E00E940D2D0895A0E0B0E0EF
:105AC0008093000190930101A0930201B093030120
:105AD0000895FB01DC0102C005900D924150504039
