:100000000C942D040C944A040C944A040C944A0455
:100010000C944A040C944A040C944A040C944A0428
:100020000C944A040C944A040C94A20D0C94E40C15
:100030000C9400210C944A040C944A040C944A0435
:100040000C944A040C944A040C944A040C944A04F8
:100050000C944A040C94AC0E0C944A040C944A047C
:100060000C944A040C944A040C944A040C944A04D8
:100070000C944A040C944A040C944A040C944A04C8
:100080000C944A040C944A040C944A040C944A04B8
:100090000C944A040C944A040C944A040C944A04A8
:1000A0000C944A040C944A040C944A049906990648
:1000B000CC06CC0637075507620862086007D307ED
:1000C000E507E507F70A1E0BCC0C1E0BCC0C6A0BE0
:1000D0008D0BCC0C820C920C561E631E141C7F1EC2
:1000E0006F1E7D1E7D1E7B1E7D1ED723DC23E62317
:1000F000DA23DF23E423E2238E2591259425972517
:100100009A259D25A02505010980A10185031901D6
:100110002AB700150126B700950175108100C005AA
:100120000C0901A101850419012AA002150126A0CC
:1001300002950175108100C005010906A10185061F
:10014000050719E029E715002501950875018102C9
:100150000507190029EF1500250195F075018102A9
:100160000508190129059505750191029501750389
:100170009101C005010902A1010901A100050919A8
:10018000012908150025019508750181020501095D
:100190003009311581257F950275088106093815CA
:1001A00081257F950175088106050C0A38021581A5
:1001B000257F950175088106C0C00660FF0961A111
:1001C000010962150026FF00952075088102096368
:1001D000150026FF00952075089102C0050109064B
:1001E000A101050719E029E715002501950875010A
:1001F00081029501750881010507190029FF150085
:1002000026FF009506750881000508190129059546
:100210000575019102950175039101C009027400F1
:10022000040100A0FA0904000001030101000921F2
:1002300011010001224000070581030800010904A3
:100240000100020300000009211101000122220027
:1002500007058303200001070504032000010904AA
:1002600002000103010200092111010001224700DF
:1002700007058203080001090403000103000000D0
:10028000092111010001226D0007058503200001ED
:1002900012010002000000089732764901000102B5
:1002A000000120034500720067006F0044006F00EA
:1002B0007800200045005A00200047006C006F00C5
:1002C0007700000028035A0053004100200054002A
:1002D0006500630068006E006F006C006F006700CF
:1002E000790020004C0061006200730000000403EC
:1002F0000904290035002B61E100010000001E0007
:10030000140004001D000100E0001F001A00160088
:100310001B000100E3002000080007000600E000C9
:100320002C002100150009001900E200E200220063
:1003300017000A00050000005000270DE307000029
:10034000E30500004F00100D2A0000002800000007
:10035000510023001C000B0011000000520024007B
:1003600018000D0010002D00010025000C000E00EB
:1003700036002E000151260012000F0037002F001A
:1003800002512700130033003800300001002A001A
:1003900031003400E5003400000029000100E000D5
:1003A000E1002A0000003A001E02200222020100A1
:1003B000E2003B001F02210223020100E3003C0097
:1003C0002F022F00260236022C003D0030023000A2
:1003D00027023702CB5C3E003102350035020000B7
:1003E000C45C01000100000001000000CA5C0100C3
:1003F0000100000001000000C35C3F0052005100FA
:1004000024020000B55D4000240021001E00010010
:1004100001004100250022001F00370001004200BA
:1004200026002300200027000100430025020100D0
:1004300031002E00010044004500280001000100A9
:10044000000001000100E0000100010000000100C7
:100450000100F20001000100010001000100EF00B5
:10046000FC00010001000100ED00EE00FA000100B7
:10047000010001000100F000F9000100010001008D
:100480000100F100FB00000001000100010000007C
:100490000100000001000100010000000100000057
:1004A000010001004B004E000100000001000100AE
:1004B0004A005000A800AA000100010052005100AB
:1004C000AC00A900B60001004D004F00AB000100D8
:1004D00001000100010001000100010001004C00C9
:1004E0000100AE000100010000000044345400741B
:1004F000648400554565008575950036264600667E
:100500005676009686A6003727470077678700381B
:100510002848008878980039294900695979009954
:1005200089A9003A2A4A006A5A7A003B2B4B006B91
:100530005B7B004C3C5C007C6C8C005D4D6D008DE9
:100540007D9D003E2E4E006E5E7E0144345401744B
:100550006484015545650185759501362646016619
:100560005676019686A601372747017767870138B7
:1005700028480188789801392949016959790199F0
:1005800089A9013A2A4A016A5A7A013B2B4B016B2D
:100590005B7B014C3C5C017C6C8C015D4D6D018D85
:1005A0007D9D013E2E4E016E5E7E0000000000002B
:1005B000000000000000000000000000000000003B
:1005C000000000000000000000000000000000002B
:1005D000000000000000000000000000000000001B
:1005E000000000000000000000000000000000000B
:1005F00000000000000000000000000000000000FB
:1006000000000000000000000000000000000000EA
:1006100000000000000000000000000000000000DA
:1006200000000000000000000000000000000000CA
:100630000000000000000000000086FFD586FFD506
:1006400086FFD586FFD586FFD500000055CB9E5589
:10065000CB9E55CB9E00000000000055CB9E55CB95
:100660009E55CB9E00000000000055CB9E55CB9EB2
:1006700055CB9E00000000000000000055CB9E00FE
:10068000000086FFD586FFD586FFD586FFD586FF7D
:10069000D5F3DEEAF3DEEAF3DEEA00000000000054
:1006A0000000000AE1FF0AE1FF0000000000000076
:1006B000000020B0FF20B0FF0000000000000FA6E7
:1006C000C30FA6C3000000000000000000000000EF
:1006D0000000000000000000000F61EC0F61EC2042
:1006E000FFEA0F61EC0000000F61EC20FFEA20FF41
:1006F000EA20FFEA00000000000000CCFF92E0FFCB
:1007000092E0FF00000000CCFF00CCFF00000000E2
:1007100000000000000000000000000000000000D9
:1007200000000000000000A978FF000000000000A9
:1007300000CCFFA978FFA978FFA978FF00CCFF863D
:10074000FFD586FFD586FFD586FFD50000000000C7
:100750000000000000000000000000010101010194
:10076000010101010202020202020202020303036A
:10077000030303030304040404040404050505053A
:1007800005060606060607070707070808080809FA
:100790000909090A0A0A0B0B0B0C0C0C0D0D0D0EA6
:1007A0000E0E0F0F0F10101111111212131314143B
:1007B000151516161717181819191A1A1B1B1C1DB0
:1007C0001D1E1E1F20202122222324242526262709
:1007D0002829292A2B2C2D2D2E2F3031323233343B
:1007E00035363738393A3B3C3D3E3F404142434441
:1007F00045464748494A4C4D4E4F50515354555623
:1008000058595A5B5D5E5F616264656668696B6CCE
:100810006D6F7072737577787A7B7D7E8082838549
:1008200087888A8C8E8F91939596989A9C9EA0A289
:10083000A3A5A7A9ABADAFB1B3B5B7BABCBEC0C293
:10084000C4C6C9CBCDCFD1D4D6D8DBDDDFE2E4E757
:10085000E9EBEEF0F3F5F8FAFDFF11241FBECFEF40
:10086000DAE0DEBFCDBF12E0A0E0B1E0ECE1F7E6F8
:1008700002C005900D92A236B107D9F725E0A2E695
:10088000B2E001C01D92A33CB207E1F70E94291B10
:100890000C948C330C940000A5E2B0E0E2E5F4E0A7
:1008A0000C944B2FFC018081918123813481232B77
:1008B00031F09F3F31F491E08F3F19F403C091E094
:1008C00001C090E090FD5FC47F0185E0DE0191965C
:1008D00001900D928A95E1F7F701228189A19AA1F1
:1008E000222349F00E94312A182F682F89A19AA14A
:1008F0000E94A12A03C00E946D2A182F69A17AA123
:10090000812F0E9480158C018091B505882399F074
:10091000F7018281882311F086E001C087E0898396
:10092000F70180818A8381818B838EEF8C83CE0156
:1009300001960E94962CF7018281033BFDE51F077B
:1009400059F0043B2DE5120709F440C0033C9CE537
:10095000190709F075C05CC0882309F47DC0909127
:100960001B0481E0890F8770987F853020F4892BE4
:1009700080931B0402C090931B0480911B0487701A
:10098000EFEF8E9FC00111249595879595958795DA
:100990009927909389008093880090938B0080938F
:1009A0008A0090938D0080938C0040911B0450919D
:1009B0001C0460911D0470911E048FE090E00E9461
:1009C000273080911A040E94C12342C0882309F471
:1009D00043C080911B0483FB222720F991E09227DA
:1009E00090FB83F980931B04992329F040E060E099
:1009F00080E00E94670F40911B0450911C0460919D
:100A00001D0470911E048FE090E00E94273020C0EA
:100A1000882309F42FC19091BE058091B8059F3FAE
:100A200059F41092BE0581608093B80540E060E003
:100A300080E00E94670F1EC19FEF9093BE0572C0B9
:100A4000053BFDE51F0721F4882309F413C19DC070
:100A5000F701828181119FC08091700282720B3CEC
:100A60002CE5120709F480C098F5063CECE51E075A
:100A700009F466C0B8F4043C2CE5120709F456C02A
:100A800008F059C0033CECE51E0709F005C1909140
:100A9000B90581E089278093B905109220018091E2
:100AA000B80540C0083CFCE51F0709F453C008F432
:100AB0004CC0093C9CE5190709F451C00A3CECE51F
:100AC0001E0709F0E9C04BE850E268E970E25AC03D
:100AD000003DFCE51F0709F45AC098F40D3C9CE565
:100AE000190709F44BC008F444C00E3CFCE51F078D
:100AF00009F44BC00F3C2CE5120709F0CDC085E08E
:100B000047C0073D8CE5180738F4023D9CE51907FE
:100B100008F0B0C082E13CC00F35EDE51E0709F4D6
:100B2000A9C0BAC081608093B805A4C043ED50E26B
:100B30006DED70E227C04DED50E263ED70E222C032
:100B40004FEB50E269EC70E21DC049EC50E26FEBF4
:100B500070E218C045EA50E262EB70E213C042EB6B
:100B600050E265EA70E20EC048E950E26BE870E2DC
:100B700009C045EA5EE163EB7EE104C043EB5EE160
:100B800065EA7EE10E949B2175C081E001C08DE095
:100B90000E94532C6FC00C35FDE51F0709F464C09B
:100BA00060F401158CE51807A9F00F3D9CE51907C5
:100BB00009F072C00E9435174CC00E35EDE51E07D6
:100BC00009F44AC008F452C0093A2DE5120709F4A5
:100BD00040C062C0109270020E94542B8FEF94E3C9
:100BE000ECE081509040E040E1F700C00000F89454
:100BF00081E08093E00080E28093D8001092C900E9
:100C00008FE19EE40197F1F700C000001DBA109239
:100C100068001CBC10BE1FBA10927A0010926E00C1
:100C200010926F0010927100109272001092C90021
:100C30001092BC0014B817B81AB81DB810BA1092A8
:100C4000BC0015B818B81BB81EB811BA0C94003FF8
:100C500011C00E94A9230EC080916B0282FB8827DD
:100C600080F991E0892703C081E001C080E00E9403
:100C70002A1812C08091BC03877009F484C2F7015E
:100C80008281882309F47FC280916B0282FF7BC23C
:100C900082E00E940D1877C2F701828100811181E4
:100CA000882349F0C8010E94312AD82E682FC80134
:100CB0000E94A12A04C0C8010E946D2AD82EB80142
:100CC0008D2D0E9480150E949915182FC92E882EEF
:100CD000F701D280B580B2942FE0B2228091BC039C
:100CE0008770B9F0DD20A9F0892F807F803421F052
:100CF00080E2810F883068F080916B0282FF09C02A
:100D000082E00E940D188091BC038770AA24A394EE
:100D10008111A12C9C2C92949FE09922892D90E026
:100D20008C30910508F0CEC1FC01EA5AFF4F0C94BB
:100D300058320C2D0F708C2D807F11F00295007FA2
:100D4000DD20B9F0002309F4ABC180E2810F8830C7
:100D500010F0811006C080917002082B0093700281
:100D600005C08091DD03082B0093DD030E94B817B6
:100D700097C1812F0E94792B002309F4A3C180E23F
:100D8000810F883080F1882071F100958091DD031A
:100D900008230093DD032AC00C2D0F708C2D807F5B
:100DA000803211F00295007F882021F0F1E08F164B
:100DB000D9F147C080916B0282FD1BC0DD2069F034
:100DC000002339F080917002082B009370020E947A
:100DD000B81780E00E94AE2B75C180E00E94792B8D
:100DE000002309F46FC1802F0E94B1170E94B81729
:100DF00069C1DD2081F08091DE03BB2051F021E04C
:100E0000B21207C0082B081709F45CC10093DE0377
:100E100059C1802B10C0BB2021F081E0B81609F425
:100E200051C10E94AB171FC0DD2041F091E09B151E
:100E300008F448C1802F0E946F2B44C1B11042C1F9
:100E400012C0DD2019F0BB20A9F32AC1BB2059F044
:100E5000E9E38E1234C1FFEF27EE83E0F15020402A
:100E60008040E1F72AC1802F0E94682B2BC18C2D76
:100E700086958695837019F0813061F023C1DD205D
:100E800021F0812F9C2D937002C080E090E00E94A1
:100E900067211EC1DD2021F0812F9C2D937002C09F
:100EA00080E090E00E94512113C1812FDD2019F0D4
:100EB0000E94932902C00E94DA280E94EE2908C1EC
:100EC0008C2D8370A1F5D11001C1412F429546951B
:100ED0004770440F440F212F2F7030E0C901042EBA
:100EE00001C0880F0A94EAF714FF08C02FE030E031
:100EF00001C0220F4A95EAF7209501C020E03C2D61
:100F0000369536953370323069F040F44091DF0306
:100F1000313019F0822B842302C0842B822B0E9453
:100F2000192BD4C0282B8091DF038227F8CFDD2036
:100F300019F08C2D817001C08695882309F4C6C0F4
:100F4000412F429546954770440F440F212F2F7033
:100F500030E0C901042E01C0880F0A94EAF714FF9B
:100F600008C02FE030E001C0220F4A95EAF7209533
:100F700001C020E03C2D369536953370323051F06B
:100F800070F440911A04313019F0822B842308C088
:100F9000842B05C0282B80911A04822701C0822B44
:100FA0000E94D62A93C00C2D0F70DD2039F0802FBF
:100FB0000E940D2B812F0E946F2B88C0812F0E94D1
:100FC000682B802F0E94002B81C0812F92EF891601
:100FD00071F1981538F0E0EF8E1659F0F1EF8F1699
:100FE00009F15AC023EF821649F194EF8916B1F046
:100FF00053C0DD2071F0B11065C02C2D2F7181E040
:1010000090E001C0880F2A95EAF790911A04892789
:1010100020C0E1E0EB1508F455C0EFCF80916B02E2
:1010200082FD1AC0DD2029F08C2D8F7128C0DD20B3
:10103000D9F38C2D8F710E94002B44C0DD2041F02C
:1010400081E09C2D9F7101C0880F9A95EAF701C03D
:1010500080E00E94D62A36C0DD20A1F00C2D0F7151
:10106000802F0E940D2B80916B0282FF07C0F8E059
:101070000F9FC001112483608093BC03802F0E94C6
:101080000D2B20C081E00E940D1821E02B15D0F41B
:1010900082E00E940D1816C0DD2021F0BB2021F255
:1010A000812F98CEBB2029F2893349F48FEF97EE38
:1010B000E3E081509040E040E1F700C00000812F64
:1010C0000E94792B88EF890D843010F40E947D21D5
:1010D000812F9C2D0E941E2B811105C0109265024C
:1010E0001092640229C0DD2019F0B110F7CF24C09E
:1010F000B110F4CF8091640290916502029771F76C
:10110000193321F480E5C82ED12C02C0C12CD12C7A
:10111000812F0E94AE2BC114D10451F08FE99FE0C2
:101120000197F1F700C0000091E0C91AD108F3CF90
:10113000812F0E94792BD2CFAA20A9F08091BC03E5
:1011400080FD11C0F70112828595859585950E94D5
:101150000D2BC7010E944C048091BC038595859599
:1011600085950E94002B85E0F701DE011196019024
:101170000D928A95E1F709811A81C8010E946D2AB2
:10118000B8010E948015A596ECE00C94672F809121
:10119000960287FF11C08091E80082FD05C0809112
:1011A000B7058111F8CF11C08091E8008B770BC093
:1011B0008091B705882349F08091E80080FFF8CF3F
:1011C0008091E8008E778093E8000895982F9730FB
:1011D00068F59093E900981739F07091EC00209130
:1011E000ED005091F00003C0242F762F50E021FD38
:1011F00002C09F5FECCF3091EB003E7F3093EB005D
:101200003091ED003D7F3093ED003091EB00316087
:101210003093EB007093EC002093ED005093F000BE
:101220002091EE0027FDE5CF80E008958F70809338
:10123000E90081E0089520919C0230919D022617DB
:10124000370748F06115710539F42091E8002E77D1
:101250002093E80001C0B901FC0120E0611571058F
:1012600079F18091B7058823F1F18530F1F1809112
:10127000E80083FD3CC08091E80082FD2EC0809193
:10128000E80080FFEBCF2091F3008091F20090E026
:10129000922B6115710551F08830910538F4219138
:1012A0002093F100615071090196F3CF21E0089776
:1012B00009F020E08091E8008E778093E800CECF9F
:1012C0002111CFCF0AC08091B705882361F0853006
:1012D00061F08091E80083FD0AC08091E80082FF00
:1012E000F2CF80E0089582E0089583E0089581E0E0
:1012F0000895089580917202089580936C0270930E
:101300006E0260936D028091B705843001F585E02F
:101310008093E9008FEF9091E800815095FD06C021
:1013200095ED9A95F1F700008111F5CF8091E800D5
:1013300085FF0DC040E050E063E070E08CE692E095
:101340000E946C2C8091E8008E778093E8000895CD
:10135000BC0184E00E947D090895BC0183E00E94E5
:101360007D09089522E02093E9002FEF3091E800F5
:10137000215035FD06C035ED3A95F1F700002111F9
:10138000F5CF2091E80025FF0BC040E050E065E07C
:1013900070E00E946C2C8091E8008E778093E800CA
:1013A0000895CF93DF9320910A01222339F02091F1
:1013B0006A0227FF03C060E225E002C068E021E086
:1013C0002093E9002FEF3091E800215035FD06C051
:1013D00035ED3A95F1F700002111F5CF2091E800A5
:1013E00025FF1DC0EC0180910A01811105C040E07C
:1013F00050E068E070E003C070E040E050E0CE01F3
:101400000E946C2C8091E8008E778093E80080E247
:10141000FE01A3E7B2E001900D928A95E1F7DF911A
:10142000CF910895AAE2B0E0E8E1FAE00C94542FDD
:10143000E6E9F2E08EE992E02091F10021938E1727
:101440009F07D1F780919702833009F463C030F48D
:10145000813071F0823009F49FC0B6C08A3009F43F
:101460008BC08B3009F46EC0893009F0ADC020C04C
:1014700080919602813A09F0A7C08091E800877FA9
:101480008093E80080919A0290919B02892B21F42D
:1014900060E283E792E003C060E080E090E070E00B
:1014A0000E941B098091E8008B778093E8008CC034
:1014B00080919602813209F087C080919A029091C2
:1014C0009B02009719F0039709F07EC08091E80015
:1014D000877F8093E8008091E80082FD05C08091BD
:1014E000B7058111F8CF70C02091F3008091F20010
:1014F00090E0922B029731F48091F100813011F04D
:10150000863021F48091F100809372028091E8008E
:101510008B7756C080919602813A09F055C0809130
:101520009A0290919B02892B09F04EC08091E800AD
:10153000877F8093E8008091E80080FFFCCF809156
:101540000A0139C0809196028132F1F580919A02A8
:1015500090919B02892BC1F58091E800877F809351
:10156000E8000E94C7088091980280930A011092B7
:1015700070020E94542B28C080919602813221F57E
:101580008091E800877F8093E8000E94C7088091DF
:1015900099028093710218C080919602813AA1F459
:1015A0008091E800877F8093E8008091E80080FFC9
:1015B000FCCF809171028093F1008091E8008E77DA
:1015C0008093E8000E94C7088091E80083FFE4C18F
:1015D0008091960290919702492F50E04A30510530
:1015E00008F0DAC1FA01EE59FF4F0C9458328038F6
:1015F00021F0823809F0D0C108C080919302909107
:101600009402992389F082600FC080919A028F70B2
:10161000873008F0C1C18093E9008091EB0085FB21
:10162000882780F91092E9009091E800977F9093C5
:10163000E8008093F1001092F10070C1282F2D7FF7
:1016400009F0AAC1882319F0823061F0A5C1809108
:101650009802813009F0A0C1933009F080E08093B6
:1016600094022EC08091980281112AC080919A0222
:101670008F702FEF280F263008F08EC18093E9007D
:101680002091EB0020FF1CC0933021F48091EB00EF
:10169000806214C09091EB0090619093EB0021E088
:1016A00030E0A90102C0440F551F8A95E2F740932C
:1016B000EA001092EA008091EB0088608093EB00D2
:1016C0001092E9008091E800877F8093E8000E94F3
:1016D000C70862C1811160C1109198021F77809183
:1016E000E3008078812B8093E3008091E800877F7E
:1016F0008093E8000E94C7088091E80080FFFCCF3B
:101700008091E30080688093E300111102C082E0C1
:1017100001C083E08093B7053FC18058823008F054
:101720003BC120919802309199022C3D53E035073E
:1017300079F583E08A838AE289834FB7F894DE01E2
:10174000139620E03EE051E2E32FF0E05093570083
:10175000E49120FF03C0E295EF703F5FEF708E2FA2
:1017600090E0EA3010F0C79601C0C0968D939D932B
:101770002F5F243149F74FBF8091E800877F809326
:10178000E8006AE270E0CE0101960E941B09B4C035
:1017900080919A0290919B02432F55274330510527
:1017A000A9F068F44130510509F405C142305105F2
:1017B00009F0F2C084E790E0ECE1F2E04BC0413286
:1017C000510529F14232510589F1E6C0C901992735
:1017D00081309105A1F058F0029709F0DDC0E2EAEE
:1017E000F2E0E4918E2F90E0E2EAF2E030C0EEEE1B
:1017F000F2E0E4918E2F90E0EEEEF2E028C0E4EC0F
:10180000F2E0E4918E2F90E0E4ECF2E020C084302E
:10181000910508F0C1C0880F991FFC01E05DFE4FE3
:101820000190F081E02D89E090E014C084309105B2
:1018300008F0B2C0FC01EE0FFF1FE85DFE4F019003
:10184000F081E02DDC01AC5DBE4F8C9190E0009703
:1018500009F4A2C02091E800277F2093E80020919E
:101860009C0230919D022817390708F4C90140E015
:10187000009789F12091B705222309F43DC0253056
:10188000D9F12091E80023FD37C02091E80022FD26
:101890002FC02091E80020FFEBCF4091F300209172
:1018A000F20030E0342B009759F02830310540F435
:1018B00044914093F100319601972F5F3F4FF3CF52
:1018C00041E02830310509F040E02091E8002E7712
:1018D0002093E800CDCF4111CDCF0AC08091B7054C
:1018E000882351F0853041F08091E80083FD04C0E9
:1018F0008091E80082FFF2CF8091E8008B7780939F
:10190000E8004AC0803809F047C08091E800877F2E
:101910008093E800809195028093F1008091E80027
:101920008E77D3CE811138C0809198029091990220
:10193000992702978CF58091E800877F8093E800D3
:1019400010919802109395020E94C708111106C0C9
:101950008091E30087FD02C081E001C084E08093B4
:10196000B70542E061EC81E00E94E60842E061ECEC
:1019700082E00E94E60842E261EC85E00E94E6080F
:1019800042E261EC83E00E94E60842E260EC84E01F
:101990000E94E6088091B7058091E80083FF10C09F
:1019A0008091E800877F8093E8008091EB0080625F
:1019B0008093EB0005C082E190E0E0E9F2E04ACFDD
:1019C000AA96E3E00C94702F1F920F920FB60F921D
:1019D00011242F933F934F935F936F937F938F9334
:1019E0009F93AF93BF93CF93DF93EF93FF93C091F8
:1019F000E900CF708091EC00D82FD17080FDD0E845
:101A00001092E9008091F000877F8093F000789435
:101A10000E94120A1092E9008091F0008860809381
:101A2000F000CD2BCF70C093E900FF91EF91DF91D3
:101A3000CF91BF91AF919F918F917F916F915F9166
:101A40004F913F912F910F900FBE0F901F901895BF
:101A5000E8EDF0E080818E7F80831092E2001092AA
:101A6000DA001092E100A0EEB0E08C9181608C93DE
:101A700080818F77808319BCA7EDB0E08C918E7F39
:101A80008C9380818F7E808310926F020895A0E0F6
:101A9000B0E0EDE4FDE00C944F2FC8EDD0E088817C
:101AA0008F7E8883E7EDF0E080818160808384E031
:101AB00082BF81E080936F0288818E7F888302EEEF
:101AC00010E0F80110821092DA0081EEC82ED12CBD
:101AD000F601108288818F77888388818068888367
:101AE00088818F7D888319BC1092B705109295026A
:101AF000109294021092930290EEE92EF12CF701CD
:101B000080818B7F808388818160888342E060E070
:101B100080E00E94E608F60180818E7F8083F801D4
:101B2000808181608083808188608083F7018081EB
:101B30008E7F8083888180618883CDB7DEB7E8E0BF
:101B40000C946B2F1F920F920FB60F9211242F93AC
:101B50003F934F935F936F937F938F939F93AF9335
:101B6000BF93EF93FF938091E10082FF09C08091C2
:101B7000E20082FF05C08091E1008B7F8093E1004D
:101B80008091DA0080FF2AC08091D80080FF26C0B3
:101B90008091DA008E7F8093DA008091D90080FFF7
:101BA00018C080E189BD82E189BD09B400FEFDCF86
:101BB00081E08093B70580916F0281110FC00E9470
:101BC000280D0E94470D8091E20084608093E2001E
:101BD00005C019BC1092B70510926F028091E10008
:101BE00080FF17C08091E20080FF13C08091E20067
:101BF0008E7F8093E2008091E20080618093E2001A
:101C00008091D80080628093D80019BC85E08093D1
:101C1000B7058091E10084FF30C08091E20084FF2D
:101C20002CC080E189BD82E189BD09B400FEFDCFF1
:101C30008091D8008F7D8093D8008091E1008F7EC5
:101C40008093E1008091E2008F7E8093E20080919A
:101C5000E20081608093E20080919502882311F078
:101C600084E007C08091E30087FD02C081E001C0ED
:101C700083E08093B7058091B7058091E10083FFF1
:101C800027C08091E20083FF23C08091E100877F1D
:101C90008093E10082E08093B705109295028091D5
:101CA000E1008E7F8093E1008091E2008E7F80933F
:101CB000E2008091E20080618093E20042E060E017
:101CC00080E00E94E6088091F00088608093F00038
:101CD000FF91EF91BF91AF919F918F917F916F9104
:101CE0005F914F913F912F910F900FBE0F901F90DA
:101CF00018952091E4003091E50095E64091EC00C4
:101D0000842F817040FF23C08091E80080FD1DC0BA
:101D10008091B705882399F0853099F08091EB0088
:101D200085FD11C04091E4005091E500241735076E
:101D300029F3915011F09A01E1CF84E0089582E0F7
:101D4000089583E0089581E0089580E0089540912A
:101D5000E80042FFDDCF089578941F920F920FB6EE
:101D60000F9211248F939F93AF93BF93809166023C
:101D700090916702A0916802B09169020196A11D3D
:101D8000B11D8093660290936702A0936802B0939E
:101D90006902BF91AF919F918F910F900FBE0F90ED
:101DA0001F9018959C014FB7F8948091660290910E
:101DB0006702A0916802B09169024FBF821B930B2A
:101DC0000895E42FF0E0EE0FFF1FEF52FE4F9081D9
:101DD000921B97FD9195292F38E1239F212D1124E6
:101DE000620F08950F931F9310E0F801EE0FFF1F8D
:101DF000EF52FE4F9081905797FD9195000F111F64
:101E0000F801EE52FE4FE081F0E0B097DF01AA0F3B
:101E1000BB1F8D010E0F1F1F2003D001219FB00D8E
:101E20001124E8E3F0E0E91BF10997FDF3959F0128
:101E3000220F331F89010E0F1F1F40039001419F86
:101E4000300D11242A0F3B1F37FF02C021583F4F8E
:101E5000220F232F221F330B620F1F910F91089522
:101E60002091BD0530E1230F08F42FEF60E1822FB0
:101E700090E00E944628BC0188EB9BE00E94312F35
:101E800080E090E008950F931F93CF93DF93D62FB8
:101E9000072F182FC42F822F0E94B627EC2FF0E0B7
:101EA000EE0FFF1FEF52FE4F90819058890F87FD74
:101EB0008195880F682F2CE0629F612D11246D0F92
:101EC000702F812FDF91CF911F910F9108950E9464
:101ED000FF1E08950E94C11E0895A4E0B0E0E3E74C
:101EE000FFE00C94462F782E80911A0187110DC0C7
:101EF0002091B905237030E04091190150E081E054
:101F00002417350719F480E001C081E081708093C7
:101F10001F018091BE0590911E01981739F08093A2
:101F20001E0140E060E080E00E94670FEFE07E125B
:101F30005DC086E696E20E94BF2C8A8342C0F715F8
:101F400008F49AC123E0721609F459C0271508F461
:101F5000F7C031E0731609F497C0371508F0B6C022
:101F600080911D01382F330F330F380F398375E0FF
:101F7000F72EF30E80E38F1510F460E3F62E109128
:101F8000BB059091BC059A830091BA05B801892FD1
:101F90000E945028E62ED72EC82E6091BD05600FF6
:101FA000712F8A810E9450286A83172F082F298158
:101FB0002F1508F4ABC031E03A838FE28F1508F497
:101FC0008EC080911D018F5F80931D019A819111B8
:101FD00013C582E08093200180911F0181110CC5FF
:101FE00071100AC583E08093200106C5E71508F447
:101FF0006BC1F7E07F12A3CF85E996E29CCF809179
:102000001D01982F990F990F980F99839B5F9B83C0
:10201000913310F0E0E3EB83E090BB05D090BC057A
:102020002091BD0550E4F52E3F2D329F312D112416
:10203000F32EE981FB81EF1708F042C08981082F58
:1020400010E0F801EF5CFD4F908180911E01892323
:10205000B9F0F801EE0FFF1FEE52FE4F808182951E
:102060008F706091BA058F9D600D11247E2D8D2D8E
:102070000E945028462F282F672FC8010E946A0F00
:1020800099819F5F9983D5CF80911D01282F220FC1
:10209000220F280F29832B5F2B83213310F030E38D
:1020A0003B836091BA057091BB058091BC050E948D
:1020B0005028162F072FF82EE981FB81EF1788F0A3
:1020C00021E02A83F03308F47CCF09C080911F01FE
:1020D000882329F040E060E080E00E94670F1A82C8
:1020E00070CF8981E82FF0E0DF01AF5CBD4F8C91AC
:1020F00090911E01982331F02F2D412F602FCF0199
:102100000E946A0F99819F5F9983D6CFE9818E2FB4
:1021100090E0FC01EF5CFD4F308120911E012323F4
:1021200059F030FF04C0202F4A81612F03C02C2DAD
:102130004E2D6D2D0E946A0FF981FF5FF98337CF15
:1021400085E078124AC080911D01382F330F330F7C
:10215000380F39833B5F3B83313310F080E38B834F
:102160000091BA051091BB05F090BC056091BD05CA
:102170006695669566958091B1059091B2050E942D
:1021800046280E94B627805887FD8195880F282F02
:102190003F2D239F212D1124822FB8010E9450280A
:1021A000162F072FF82EE981FB81EF1708F088CF53
:1021B0008981E82FF0E0DF01AF5CBD4F8C919091F9
:1021C0001E01982331F02F2D412F602FCF010E9447
:1021D0006A0F99819F5F9983E6CF871508F449C0FC
:1021E00080911D01382F330F330F380F39833B5F38
:1021F0003B83313310F080E38B83E090BB05D090BC
:10220000BC052091BD0530E4F32E3F2D329F312DCA
:102210001124F32EE981FB81EF1708F051CF89815A
:10222000082F10E0F801EF5CFD4F908180911E01B6
:102230008923D9F0F801EE0FFF1FEF52FE4F6081A6
:10224000F69EB001112425E0759567952A95E1F772
:102250008091BA05680F7E2D8D2D0E945028462F43
:10226000282F672FC8010E946A0F99819F5F998369
:10227000D1CF81EC96E25FCE9BE0791208C084E476
:1022800097E202C080E697E20E945E2D56CE971537
:1022900068F0E9E07E1205C08BE797E20E94DA2D34
:1022A0004CCEE71578F389E997E2F8CFFDE07F128D
:1022B00003C08AE896E23FCEF71518F083E996E26C
:1022C0003ACE81E896E237CE27E172124FC0809174
:1022D0001D01382F330F330F380F3983132F1B5F36
:1022E000113308F010E380911F0181111EC060912D
:1022F000BD0520E1620F08F46FEF8091B105909168
:10230000B2050E9446286AE070E00E94312F892BB6
:1023100021F50E94D72760E30E94383260911E01A8
:10232000892F90E00E94C62118C09981892F90E0E2
:102330009C838B83E12EF12C2B813C812E153F0554
:1023400064F460911E018B819C810E94C621EB8107
:10235000FC813196FC83EB83EFCF31E03A8302C0FE
:1023600091E09A83103308F42CCEB9CE271530F1C2
:1023700033E1731203C08FE197E286CF371570F017
:1023800081E1781203C08DE198E288CF871518F0BB
:1023900087E596E279CF83E397E280CF95E17912E2
:1023A00003C087EF95E204C0971528F089E296E212
:1023B0000E94092DC2CD82EF9EE0FACFEBE17E12A2
:1023C00003C081EE9EE0B7CDE71508F4A1C0F9E1A6
:1023D0007F1250C080911D01E82FEE0FEE0FE80F25
:1023E000E983EB5FEB83E13310F0F0E3FB830091D3
:1023F000BB051091BC05F090BA056091BD056695CE
:10240000669566958091B1059091B2050E94462827
:102410000E94B627805887FD8195880F682F2CE091
:10242000629F612D11246F0D702F812F0E94502803
:10243000162F072FF82E89819B818917A8F42981EF
:10244000E22FF0E0DF01AF5CBD4F8C9190911E0157
:10245000982331F02F2D412F602FCF010E946A0F5A
:1024600039813F5F3983E7CFE1E0EA83903308F4B5
:10247000A8CD35CEF71508F448C080911F01811111
:102480001EC06091BD0520E1620F08F46FEF8091DE
:10249000B1059091B2050E94462865E070E00E9467
:1024A000312F892B09F01BCE0E94C82F60E370E00A
:1024B0000E94443260911E010E94A22110CE8091A0
:1024C0001D01982F990F990F980F9983192F1B5F52
:1024D000113308F010E3F981EF2FF0E0FC83EB8378
:1024E000E12EF12C8B819C818E159F050CF038CF4D
:1024F00060911E018B819C810E94A2212B813C81D5
:102500002F5F3F4F3C832B83EDCF83E49FE013CDC0
:102510002DE17212F0C0409132035091330360916B
:102520003403709135038091B1059091B205A0916B
:10253000B305B091B40584179507A607B70708F44B
:10254000CECD80911F0181110EC080911D01982F69
:10255000990F990F980F9983092F0B5F013308F496
:102560005CC000E35AC040E060E080E00E94670F7A
:1025700002EA12E01C821B828FE7D82E0E94D72726
:1025800081FF05C0F80110821182128220C00E94D2
:10259000D727C82E0E94D7278695782F2D2D720F0A
:1025A00008F47FEF8B819C81880F991FEB81FC8160
:1025B0008E0F9F1F9C012E553D4F79016C2D8091F0
:1025C000BC050E945028F7016083718382832B81B0
:1025D0003C812F5F3F4F3C832B830D5F1F4F203388
:1025E000310561F6B2CF3981832F90E0FC01EF5CB9
:1025F000FD4F308120911E01232361F0FC01EE0F7D
:10260000FF1FE80FF91FEE55FD4F228140816181C8
:102610000E946A0F89818F5F89839981901718F3CF
:10262000E1E0EA83003308F01A82003308F4C9CCF1
:1026300020E010E001501109822F90E080179107EF
:10264000CCF4AC01440F551F480F591F4E555D4F38
:102650000196FC01EE0FFF1F8E0F9F1FFC01EE5530
:10266000FD4F80819181A281FA0180839183A283B1
:102670002F5FE2CF0E94D7277801EE0CFF1C81FF6D
:1026800009C00E0D1F1DF801EE55FD4F108211827D
:10269000128218C00E94D72789830E94D727869567
:1026A000782F2FE7720F08F47FEF0E0D1F1D0E55C8
:1026B0001D4F69818091BC050E945028F8016083FC
:1026C000718382830E94300F0091B1051091B20591
:1026D0002091B3053091B405DC01CB01800F911F2F
:1026E000A21FB31F8093320390933303A09334034C
:1026F000B093350366CC721608F07AC080911D0144
:10270000982F990F990F890F8B5F8B834091B1059B
:102710005091B2056091B3057091B40580919E020D
:1027200090919F02A091A002B091A10284179507F9
:10273000A607B70708F055C00E94D72789830E94D3
:10274000D72790E3891BF0F7890F082F10E0F801D5
:10275000EF5CFD4F80911E019081982309F441C0E8
:10276000F981F1FF04C020E040E060E013C00E9466
:10277000D72789830E94D7278695782F2FE7720F56
:1027800008F47FEF69818091BC050E945028462F94
:10279000282F672FC8010E946A0F2091BD0530E1E4
:1027A000230F08F42FEF60E1822F90E00E9446286B
:1027B000BC0184EF91E00E94312F8091B10590918E
:1027C000B205A091B305B091B405860F971FA11D66
:1027D000B11D80939E0290939F02A093A002B0939C
:1027E000A10221E02A833B81303308F4EACB77CC85
:1027F0003EE17312C7C080911F01882329F040E099
:1028000060E080E00E94670F80911D01982F990F72
:10281000990F890F8B5F89834091B1055091B20563
:102820006091B3057091B40580916003909161034C
:10283000A0916203B091630384179507A607B707B9
:1028400008F099C06091BA057091BB058091BC05F4
:102850000E945028662E572E482E06E313E02DE7DF
:1028600031E03C832B8341ED842E41E0942EAB80FC
:10287000BC806501780132E0332EF7018081F601DA
:10288000882369F08081242D462D652D90E00E94DB
:102890006A0FF5018581242D462D652D0CC08081A0
:1028A00020E040E060E090E00E946A0FF501858141
:1028B00020E040E060E090E00E946A0FF701818133
:1028C00081937F013A94FFEFCF1ADF0A21E0A21A29
:1028D000B1083110D2CFF8018281EB81FC818823CD
:1028E00071F08281242D462D652D90E00E946A0FA3
:1028F000EB81FC818381242D462D652D0DC08281C5
:1029000020E040E060E090E00E946A0FEB81FC81F3
:10291000838120E040E060E090E00E946A0F0E9426
:10292000D727837091E009F090E0F80192830D5F62
:102930001F4F2B813C812A5F3F4F3C832B838216A4
:10294000930609F094CF0E94300F0091B1051091C9
:10295000B2052091B3053091B405DC01CB01800FA5
:10296000911FA21FB31F8093600390936103A093F4
:102970006203B093630331E03A838981803308F4C2
:1029800020CBADCB8FEF781231C08091B105909103
:10299000B205A091B305B091B40588279C70AA2711
:1029A000BB272AE0B695A795979587952A95D1F7E5
:1029B00082309105A105B10571F083309105A10523
:1029C000B10569F040E00197A105B10511F060E0A3
:1029D00008C064E102C044E160E080E003C044E17B
:1029E00064E184E10E94670F82E0FDCA80911D01CD
:1029F0008F5F80931D01EDCA2496E1E10C94622F54
:102A0000E9EBF5E085E3808380912101909122013B
:102A1000A091230181839283A3838CE384838FEF2E
:102A2000858346E050E06CE170E0CF010E94053004
:102A30001092B805089580E0089590916A0292FF7F
:102A40000DC0282F2871283019F4877F846006C0B4
:102A5000282F2471243011F48B7F886093FF0DC0E0
:102A6000282F2871283119F4877E846106C0282F09
:102A70002471243111F48B7E886120916B0220FF38
:102A80000DC0382F3871383019F4877F816006C047
:102A9000382F3171313011F48E7F886021FF0DC0E5
:102AA000282F2871283119F4877E816106C0282FCC
:102AB0002171213111F48E7E886194FD877E089505
:102AC0002091BB0390918A0356E02917A9F030E0CA
:102AD000529FF001539FF00D1124E557FC4F718177
:102AE000761306C07081781303C07281741306C018
:102AF0002F5F3F4F2770E9CF80E0089581E0089570
:102B00007E30A0F4663090F494E5899FF0011124A2
:102B100086E0789FE00DF11D1124E60FF11DEE0F08
:102B2000FF1FEE50FD4F85919491089580E090E055
:102B30000895CF93DF938238910569F1B0F4813322
:102B4000910509F477C048F48932910509F469C008
:102B50008A32910509F473C092C08533910509F456
:102B60005BC089339105B9F08AC0833E910591F12C
:102B700038F4803E9105D1F0823E910531F17FC05D
:102B8000863E9105D9F1873E9105E9F1843E910594
:102B900009F075C028C020916A0220FD5BC021FDAC
:102BA00059C020916B0223FD61C069C080916A0207
:102BB00080FD4AC080916B0280FF4CC080916A0208
:102BC00084FD4EC183EE90E04DC180916A0282FF88
:102BD0003EC0F4CF80916A0282FD39C080916B02C1
:102BE00080FD38C0EBCF80916B0281FF39C08091AE
:102BF0006A0284FD35C187EE90E034C180916A029B
:102C000083FF2BC0F4CF80916A0283FD26C08091A0
:102C10006B0281FD25C0EBCF80916A0285FD26C045
:102C200022C080916A0285FD1EC080916B0283FFE5
:102C30001DC00AC080916A0286FD1BC01DC0809124
:102C40006A0286FD19C015C089E390E00BC182EECF
:102C500090E008C180EE90E005C186EE90E002C1F0
:102C600084EE90E0FFC085E390E0FCC089E290E054
:102C7000F9C08AE290E0F6C081E390E0F3C08115EC
:102C800031E5930708F061C0811520E59207B0F0A7
:102C90009C012370332741E050E002C0440F551FD0
:102CA0002A95E2F7282F2695269580E2289F900105
:102CB0001124CA01822B932B9D68D4C0883E9105B4
:102CC00068F5803E910508F0CDC0883A9105B8F4CA
:102CD000853A910548F0855AE82FF0E0E85CFE4F10
:102CE000808190E09064BEC08130910509F4B5C048
:102CF00008F4B6C08430910508F4B2C0B3C08F3B6D
:102D0000910508F0ADC0885AE82FF0E0EE0FFF1FE4
:102D1000E55CFE4F808191819464A4C0811530E20E
:102D2000930758F4811521E0920708F09BC08D3E6F
:102D3000910508F495C0906595C0811530E493071E
:102D400008F48EC09F70906A8DC0811525E59207AA
:102D500008F042C0811534E5930728F0982F8827A2
:102D6000846F906A7FC0811523E59207B0F09C01C3
:102D70002370332741E050E002C0440F551F2A95CD
:102D8000E2F7282F2695269580E2289F90011124AE
:102D9000CA01822B932B9A6865C0811532E593078F
:102DA00028F4982F8827816F906A5CC09C0123705B
:102DB000332741E050E002C0440F551F2A95E2F747
:102DC000282F2695269580E2289F90011124CA017C
:102DD000822B932B9C6846C0EC01C11589E5D8076E
:102DE000B0F4C11528E5D20728F09C2F8827806F02
:102DF000906A38C0C11536E5D30790F58C2F0E9434
:102E00001D158F7190E0982F882790622BC0C115F7
:102E10008AE5D80790F48C2F8F700E941D1594E0DE
:102E2000D695C7959A95E1F7CF70D0E0DC2FCC27E7
:102E3000D0699E01282BC90115C0CE01905681157D
:102E4000904270F48D2F8F710E941D15282F2F71C5
:102E5000CE0199279062922B05C081E090E002C0DC
:102E600080E090E0DF91CF91089568EE7EEF80E002
:102E700090E00E94333060E082E090E00E941530E4
:102E800060E083E090E00E9415301092DF0360E084
:102E900084E090E00E94153064E082E290E00E94BD
:102EA000153060E085E090E00E94153060E086E03B
:102EB00090E00E9415306FEF87E090E00E9415309F
:102EC00040E050E0BA0188E090E00E94273060E0E6
:102ED0008DE090E00E94153040E050E0BA0188E1BA
:102EE00090E00E94273060E087E190E00E9415307A
:102EF00040E050E0BA018CE190E00E94273060E0B1
:102F000070E080E290E00E94333040E050E0BA018F
:102F100088E190E00E94273010921B0410921C045C
:102F200010921D0410921E0484E080931B044091B3
:102F30001B0450911C0460911D0470911E048FE0CD
:102F400090E00E94273040E050E0BA0183E190E039
:102F50000E94273008958091DE0381111092DE03D4
:102F6000089580959091700289238093700208954E
:102F7000909170028091DD03982B9093640380916F
:102F8000DE038823D9F0892B8093640380910A01A2
:102F9000882331F080916A0287FF02C08EE101C070
:102FA00086E0E6E6F3E090E0815028F021912223CC
:102FB000D9F39F5FF9CF91110E94AB1740E250E027
:102FC0006DEB73E084E693E00E947F33892B21F15F
:102FD00080E2E4E6F3E0ADEBB3E001900D928A9578
:102FE000E1F7E0917E05F0917F053097A9F080919F
:102FF0000A01882359F080916A0287FF07C08091F7
:1030000064038093650386E0809364030280F38108
:10301000E02D84E693E0099508952091BC03809506
:1030200082238093BC03982F977099F430E0482F47
:10303000082E000C550B2417350759F090916B02A0
:1030400092FF07C08595859585950E94002B10926B
:10305000BC030895CF93C0916B02C2FB992790F9EE
:10306000981791F080FBC2F9C0936B0260916A02DD
:1030700084E090E00E9415306C2F82E290E00E9484
:10308000153082E00E940D18CF9108958091BB0306
:1030900090918A03891719F08F5F8770FBCF08958D
:1030A0000F931F93CF93DF938091890382958F7045
:1030B00009F05AC080918603882309F455C0809195
:1030C000BB0310918A036091840370918503C091C2
:1030D0008703D091880391E06F3F09F090E0292F9A
:1030E00006E0811709F440C0209721F07F3F21F0CE
:1030F00030E003C031E001C0322F90E030FD31C03C
:10310000089FF001099FF00D1124DF01A557BC4F66
:1031100011963C911197371324C03C91361321C06E
:1031200012963C91129731111CC013964D915C91EF
:1031300014974C1B5D0B4933510598F4809189031A
:103140008F70806180938903E057FC4F80818F707E
:103150008061808384E893E00E944C040E944618BA
:1031600003C001968770BDCFDF91CF911F910F9162
:103170000895A1E1B0E0EFEBF8E10C944B2F8C0146
:1031800085E0F801DE011D9601900D928A95E1F728
:10319000D8011296EC909091840320918503409180
:1031A0008703509188034115510531F02F3F31F4C9
:1031B00081E09F3F19F403C081E001C080E080FD01
:1031C00052C1F801D080C180A380B48084E8882EE9
:1031D00083E0982EF0908603B501641B750BFF20E9
:1031E00009F4FEC080918903382F307F693371055F
:1031F00008F0C8C0311189C02C1112C09D1110C037
:10320000FE2CE1100DC08F70806180938903C40192
:103210000E944C0480918903D80115968C933DC17E
:10322000A114B10439F0BFEFCB1206C081E0DB126C
:1032300003C003C081E001C080E080FD03C081E0E5
:103240008E2502C080E090E080FF10C04E2D6C2DD6
:103250008D2D0E946015882349F084E893E00E9438
:103260004C04E4E8F3E086E0DF0194C0A114B1046B
:1032700039F0BFEFCB1206C081E0DB1203C003C000
:1032800081E001C080E080FD03C081E08E2502C0A6
:1032900080E090E0E82FE170BE2E80FF2CC04E2D24
:1032A0006C2D8D2D0E946015F82E811124C0DD86B5
:1032B000CE868D859E850E94602A292F22952F70AB
:1032C000223018F0243090F405C09F7059F081111D
:1032D00009C0E3C09F7031F0D80115969C91907F92
:1032E00009F4DBC0805E883008F4D7C0C8010E94B2
:1032F0004C04FB2CD2C0FE2CEE2009F4CEC08091F1
:10330000890381608093890348C02C1106C09D11F8
:1033100004C0E11002C0F80185C0C8010E94392B29
:10332000882351F1EE2041F120918903822F82956B
:103330008F7090E0029774F08091840390918503E0
:1033400098878F831986BB86AA862C87CE0107961D
:103350000E944C0486E0F801A4E8B3E001900D92CD
:103360008A95E1F70E9450180AC02C15C1F0C801D7
:103370000E94392B81111DC0C8010E944C04FF24FA
:10338000F3948BC03111F1CF84E893E00E944C0498
:1033900086E0D4011D928A95E9F7F12C7EC09D113B
:1033A000E6CFE110E4CFF8018583C8010E944C0408
:1033B00054C0EE2009F320918903822F82958F70EB
:1033C00090E002973CF280918403909185039A8368
:1033D00089831B82BD82AC822E83CE010196B8CF39
:1033E00069337105D0F5FE2CEE2031F22C1127C087
:1033F0009D1125C02091890320FD18C0822F829540
:103400008F70482F50E04115510581F0F801258358
:103410004F30510541F08F5F982F9295907F822F0A
:103420008F70892B8583C8010E944C0486E0F801C7
:10343000A4E8B3E001900D928A95E1F72EC0C8018F
:103440000E94392B811186CF8091890381608093FE
:103450008903C8010E944C0420C086E0D4011D925B
:103460008A95E9F71AC0EE2009F486CFC8010E94B8
:10347000392BF82E882309F47FCF86E0F801A4E8E1
:10348000B3E001900D928A95E1F7809184039091C9
:1034900085030E94602A0E9450188F2D6196ECE0EF
:1034A0000C94672FA0E0B0E0E8E5FAE10C944F2F10
:1034B0008091170190911801892BA1F08091E00370
:1034C0008F5F8093E00381110DC00E94692490E01A
:1034D0009093180180931701892B21F40E94E02416
:1034E0000E940E2208EE13E07801D0E0C0E087E0F1
:1034F000C82ECC0E8C2F0E9450258C2D0E9450255A
:103500008C2F0E94B3258F73F7019081891721F0CA
:103510008083DD24D39401C0D12C8C2D0E94B3254F
:103520008F73F7019781891719F0878381E001C0B4
:1035300080E0D82ADD290E94A425CF5FFFEFEF1A93
:10354000FF0AC730A1F61092E503C091E403CC2333
:1035500009F47BC00E94F4202091E2033091E30340
:10356000AC01421B530B9A019093E3038093E20357
:103570004F3F510509F018F4452B19F102C02FEF08
:1035800030E01092E4031092E103E091E603F09141
:10359000E703AF01425F5F4F90E030E08081882316
:1035A00041F0281718F010829C2F03C0821B8083E3
:1035B0003C2F3196E417F50789F73093E403909395
:1035C000E103DD23A1F1E091E603F091E7038091AF
:1035D000E5039091E403A8EFB3E0AF01425F5F4FD2
:1035E0006EE1E80128813C91321779F03081311188
:1035F0000CC060832C9398819227282F30E0292BD0
:1036000081E0232B09F480E091E0319611960F5F61
:103610001F4FE417F50729F78093E5039093E40320
:103620008091E503CDB7DEB7E8E00C946B2F81E025
:103630009091E1039923A1F38111C5CF0E94F42059
:103640009093E3038093E203BECFD111F7CF80E0E4
:10365000EFCFAAE4B0E0EFE2FBE10C94482F85B78E
:10366000806885BF85B7806885BF84B7877F84BF42
:103670000FB6F894A89580916000886180936000EF
:10368000109260000FBE90E080E80FB6F89480932F
:103690006100909361000FBE8BE195E1909363020E
:1036A000809362020E94280D0E94470D8091E200E3
:1036B00084608093E20078948091B7058823A1F01C
:1036C0001091E9001F709091EC00892F817090FD9E
:1036D00080E8182B1092E9008091E80083FD0E9499
:1036E000120A1F701093E90082E084BD93E095BD3B
:1036F0009AEF97BD80936E000E94692490E09093AA
:103700001801809317010E94A4250E94EA25E8EE83
:10371000F3E0A8EFB3E011921D9223E0E63FF20739
:10372000D1F78EE090E00E945E328093E6039093A2
:10373000E703FC010E961192E817F907E1F789EA11
:103740008093800089E08093810024982C983F9892
:103750008AB18F7C8AB96E98479A8BB180638BB996
:10376000769A8FE090E00E94F92F60931B0470938B
:103770001C0480931D0490931E0467703FEF639FA9
:10378000B0011124759567957595679577277093A6
:1037900089006093880070938B0060938A00709317
:1037A0008D0060938C000E94E02480E090E00E94F5
:1037B000FF2F883E9E4F11F00E94351782E090E067
:1037C0000E94F12F8093060484E090E00E94F12F84
:1037D000182F82E290E00E94F12F212F30E0382B49
:1037E00030936B0220936A0283E090E00E94F12FF5
:1037F0000E94192B80911A040E94C1230E940E225C
:103800000E9401220E9401228091B805816080936C
:10381000B8058BE091E090937F0580937E0568E189
:10382000E62EF12C06E014E08091B705853009F012
:1038300071C030E4C32EBB24B39443E0A42E50E106
:10384000D52E8091B705853009F05CC08091B70511
:10385000843009F436C00E942C2280911F0481110B
:103860000DC00E946D0F10921A018091B9058370EE
:10387000809319010E943D1FA0922001B0921F0465
:10388000109282050FB6F894A895E09260000FBEE2
:10389000C092600083B7817F846083BF83B78160FB
:1038A00083BF7894889583B78E7F83BF0FB6F894D3
:1038B000A8958091600088618093600010926000FC
:1038C0000FBE80919402882309F4BBCF0E94692423
:1038D00090E090931801809317010E94A4250E9404
:1038E000EA25E8EFF3E011920E171F07E1F70E94B7
:1038F000521AE8EFF3E08191811105C20E171F07FC
:10390000D1F79FCF109270020E94542B0E947D210C
:1039100010921F040E94521A27E0A22E24E0B22E19
:10392000A8EFB3E0F50191918D91892794E0E531FD
:10393000F90719F08823B9F332C0811130C00E9411
:10394000F4206C018091F6039091F703C816D90614
:1039500009F46BC08FEF22968FAF229723968FAF1B
:10396000239724961FAE24970E94F4208160782F1D
:1039700026969FAF8EAF269722964FAD229723961D
:103980005FAD239724966FAD249726968FAD26972B
:103990000E94EB22D092F703C092F60346C098EF44
:1039A000892E93E0992ED12CF40151904F01F5010D
:1039B0006080652489F1C12C77247394862D87213A
:1039C00021F12796CFAE27972896DFAE289791E072
:1039D000852D872109F490E029969FAF29970E94B1
:1039E000F4208160782F2B969FAF8EAF2B97279670
:1039F0004FAD279728965FAD289729966FAD2997E9
:103A00002B968FAD2B970E94EB22C394770CF6E098
:103A1000CF12D4CFF5015082D394FFEFAF1ABF0A73
:103A20002EE0D212C1CF0E94E8200E942C2285E015
:103A3000EBE8F5E0DE01119601900D928A95E1F731
:103A400010928C0510928D0510928E0510928F05A4
:103A5000DA80D11004C08B81882309F452C0809190
:103A6000890590918A050E94D20E9C01909185054E
:103A7000992309F461C12F30310508F442C09F3FFA
:103A800019F09F5F90938505DD2061F00E947329F6
:103A90001D1414F491E001C09FEF899F802D112423
:103AA00080938C05DB80DD2061F00E9473291D145A
:103AB00014F491E001C09FEF899F802D1124809321
:103AC0008D0530918C053323E1F020918D05222363
:103AD000C1F045EB3403C0011124992319F09093F0
:103AE0008C0503C081E080938C0535EB2303C00176
:103AF0001124992319F090938D0503C081E08093E0
:103B00008D05DC80D11004C08D81882309F452C05A
:103B100080918705909188050E94D20E9C0190911A
:103B20008405992309F40CC12F30310508F442C0F3
:103B30009F3F19F09F5F90938405DD2061F00E9404
:103B400051291D1414F491E001C09FEF899F802D2D
:103B5000112480938E05DD80DD2061F00E945129C3
:103B60001D1414F491E001C09FEF899F802D112452
:103B700080938F0530918E053323E1F020918F05DE
:103B80002223C1F045EB3403C0011124992319F01D
:103B900090938E0503C081E080938E0535EB23035F
:103BA000C0011124992319F090938F0503C081E07F
:103BB00080938F0545E050E0BE016F5F7F4F8BE83B
:103BC00095E00E947F33892BA9F480918C058111A7
:103BD0000FC080918D0581110BC080918E058111E0
:103BE00007C081E090918F05911103C080E001C072
:103BF00081E080FD0E94EE2985E0FE013196ABE870
:103C0000B5E001900D928A95E1F70E947D21909197
:103C10001504891721F0809315040E94E8208091F3
:103C2000B705843009F000CE8093E9008091E80068
:103C300082FFFACD8091E80085FF24C00E94790EB2
:103C400081111EC080E2C82ED12C5E0141E2A40E7B
:103C5000B11C09C08091F100F50181935F01F1E091
:103C6000CF1AD10869F08091E80085FDF3CF8091EB
:103C7000E8008B778093E8000E94790E882399F3FF
:103C800091E001C090E08091E8008B778093E8009C
:103C9000992309F4C9CDE9A18E2F90E089309105CF
:103CA00070F5FC01E459FF4F0C94583219828CE0F6
:103CB000E9E6F1E0DE01129601900D928A95E1F7B6
:103CC0008EEF8D8707C081E08093B50584E08983FE
:103CD0008EEF8A83CE0101960E94962CA5CD80910D
:103CE000B505882309F4A0CD80E00E94D62A8AA1D8
:103CF0000E940D2B99CD85E003C084E001C08FEFB9
:103D00000E948A2191CDD9BC82E189BD09B400FE0F
:103D1000FDCF8091D8008F7D8093D8008091E00006
:103D200082608093E0008091E00081FDFCCF1092E2
:103D300070020E94542B85CD232B09F0A2CEE1CE38
:103D4000213A310508F0F6CE35CFE9EBF5E02481D4
:103D500030E1231B08F420E024838091B8058160C2
:103D60008093B8050895E9EBF5E0248130E1230F55
:103D700008F42FEF24838091B80581608093B80503
:103D80000895A4E0B0E0E7ECFEE10C94522F8033FC
:103D9000910588F5122F042FF62EBC01660F771FB0
:103DA000660F771F66517B4F44E050E0CE010196CD
:103DB0000E94D82F898183704A81282F30E050E9F2
:103DC000859FC00111248A5C9B4FFC01E40FF11D0B
:103DD000B497F0824B81FC01E40FF11DB49700838E
:103DE0004C81840F911DFC01B4971083F901EC5CA8
:103DF000FB4F81E080832496E5E00C946E2FFF92C8
:103E00000F931F93CF93DF93182F062FF42EC0E04C
:103E1000D0E02F2D402F612FCE010E94C11E219690
:103E2000C033D105B1F7CDB7DEB7E5E00C946E2F06
:103E30000F931F93CF93DF93082F000FEB0114E232
:103E400010932004E1E2F4E0DE018D91819384E09F
:103E5000E133F807D1F723E030E041E150E060E2E0
:103E600074E0802F0E940C2F105F6096143B41F786
:103E7000DF91CF911F910F91089580913404882391
:103E800029F066E374E084E70E94181F109234045E
:103E900080913504882329F066EC74E087E70E945E
:103EA000181F109235040895E0E2F4E06083418326
:103EB00023E030E042E050E0BF01880F0E940C2F69
:103EC0000895A0E0B0E0E7E6FFE10C94502F262F24
:103ED00030E0A90146585A4F7A01FA0190819111B8
:103EE00007C0F7011082CDB7DEB7E7E00C946C2F66
:103EF000D82EF2E16F9FE001112400E010E0F801FC
:103F0000EC0FFD1FEA5AFA4F4081602F8D2D0E9461
:103F1000541F0F5F1F4F0231110589F7E2CFCF9376
:103F2000DF93C82F4BE06DEF0E94541F40E06AE022
:103F30008C2F0E94541F8FE39CE90197F1F700C07A
:103F4000000040E060E08C2F0E94541F40E061E0E0
:103F50008C2F0E94541F40E066E08C2F0E94541F5B
:103F600040E06DEF8C2F0E94541FD0E040E06D2F99
:103F70008C2F0E94541FDF5FD231C1F740E06D2FBC
:103F80008C2F0E94541FDF5FD432C1F740E06D2FA9
:103F90008C2F0E94541FDF5FD43BC1F74BE06DEFC5
:103FA0008C2F0E94541F41E06AE08C2F0E94541F06
:103FB00040E06DEF8C2F0E94541FDF91CF91089548
:103FC000A4E0B0E0E6EEFFE10C94492F0E94402E01
:103FD00084E70E948F1F87E70E948F1F0AEE14E07C
:103FE00072E1772EE8E0CE2ED12CEE24E394F12C72
:103FF0006624639444E050E0B801CE0101960E942B
:10400000D82F2A8130E0C9018497AB80B12C44E2DB
:10401000A41AB108EC81F0E0B497AC0197FF02C09C
:10402000495F5F4F63E0559547956A95E1F72981B0
:10403000237030E0729EB001739E700D11246A5A95
:104040007A4F4B01840E911CB6010E944432D70175
:1040500002C0AA0FBB1F8A95E2F7CD01D4019C9143
:10406000892B8C93C501B7FC079653E095958795EE
:104070005A95E1F7729EA001739E500D11244A5A81
:104080005A4F4A01880E911CC501B6010E94443264
:10409000A70102C0440F551F8A95E2F7CA01D40157
:1040A0009C91892B8C93CF01F7FD079643E0959562
:1040B00087954A95E1F7729EA001739E500D1124D9
:1040C0004A5A5A4F5A01A80EB11CCF01B6010E949C
:1040D0004432F70102C0EE0FFF1F8A95E2F7CF01CD
:1040E000D5019C91892B8C93F901E658FA4F608297
:1040F0000C5F1F4FB5E00A3A1B0709F07BCF60E069
:1041000084E70E94611F61E087E70E94611F249697
:10411000EEE00C94652FE9EBF5E0438120E1421BD2
:1041200008F440E08181628190E00E94302E089581
:10413000E9EBF5E0438120E1420F08F44FEF818184
:10414000628190E00E94302E0895E9EBF5E06281F3
:1041500020E1621B08F460E08181438190E00E94CD
:10416000302E0895E9EBF5E0628120E1620F08F45A
:104170006FEF8181438190E00E94302E0895E9EB3A
:10418000F5E0818190E04381628108970E94302EA2
:104190000895E9EBF5E0818190E043816281089622
:1041A0000E94302E08958091B9058695869581509C
:1041B00009F48EE10E94532C08958091B9058695EB
:1041C00086958F5F8F3108F081E00E94532C08950F
:1041D0002FB7F8946091660270916702809168022F
:1041E000909169022FBF08952FB7F89480916602CD
:1041F00090916702A0916802B09169022FBF089563
:104200001F920F920FB60F9211248F939F93AF932B
:10421000BF9380918205811113C0809166029091B5
:104220006702A0916802B09169024196A11DB11D7B
:104230008093660290936702A0936802B09369022C
:10424000BF91AF919F918F910F900FBE0F901F90D4
:10425000189520910A012223C9F020916A0227FFB4
:1042600015C0262F2695269526952E31C8F4FC01DB
:10427000E20FF11D677081E090E001C0880F6A9540
:10428000EAF780959281892382830895FC0106963E
:104290002281621301C012823196E817F907C1F733
:1042A000089520918005309181052817390771F014
:1042B0009093810580938005E0917E05F0917F05C4
:1042C000309721F00084F185E02D09950895209123
:1042D0007C0530917D052817390771F090937D0595
:1042E00080937C05E0917E05F0917F05309721F069
:1042F0000680F781E02D09950895E0917E05F09103
:104300007F05309729F00190F081E02D09950895FF
:1043100080E00895A0E2B0E0E0E9F1E20C94552FCE
:104320009FEF99838A83CE0101960E94962CA096D6
:10433000E2E00C94712F882311F0FA0101C0FB0117
:10434000099508951F93CF93DF93FC01EF5CFD4F18
:1043500020816223B9F0EC010E94C82F182F0E941F
:10436000C82F8F77782F20E8720F08F47FEF612F26
:104370008091BC050E945028462F282F672FCE0120
:104380000E946A0FDF91CF911F910895A0E0B0E0E5
:10439000ECECF1E20C94502FEC01FC01EF5CFD4FD2
:1043A0009081692349F1D090BB050091BC05109123
:1043B000BA05E12EF12C0E94D727282FC7018C5473
:1043C0009F4F68E671E00E9444328E199F0997FD65
:1043D000039695958795959587952370612F289FCE
:1043E000600D11247D2D802F0E945028462F282FEC
:1043F000672FCE010E946A0FCDB7DEB7E7E00C94BD
:104400006C2F8091B905837011F410922001809176
:10441000B9058C7F81608093B90508950E94E01FE3
:1044200080E090E00E94FF2F883E9E4F21F00E9486
:1044300035170E94001546E050E06CE170E089EB12
:1044400095E00E94E12F1092B8058091B9058C7F0C
:1044500011F40E94001508950F931F93CF930E94AB
:10446000E8206093160470931704809318049093C7
:10447000190420911F04211108C0C091B9052C2FE7
:10448000237019F0C695C69501C0C0E020912001A7
:104490002130A1F038F0223009F461C0233009F452
:1044A0006BC095C010921D016093B1057093B20569
:1044B0008093B3059093B40581E05BC08C2F0E947C
:1044C0006D0FCC2309F483C080911B0483FD7FC052
:1044D00080911A0490E0A0E0B0E0AC01BD01F4E0EE
:1044E0007695679557954795FA95D1F741155105FA
:1044F0006105710521F4AC01BD0180E001C084E0DB
:104500008A019B01E2E03695279517950795EA9574
:10451000D1F7011511052105310519F08E5FB9019B
:10452000A8017695679557954795452B462B472BC0
:1045300009F08F5F813029F0823041F482E090E011
:1045400002C081E090E00E94EB2341C08091BE0553
:1045500081113DC040E060E00E94670F38C0C09309
:104560001A018091B9058370809319010E943D1F43
:1045700083E0809320012BC08091B805882351F0FF
:1045800046E050E06CE170E089EB95E00E94053078
:104590001092B8054091B1055091B2056091B305F4
:1045A0007091B4052FB7F8948091660290916702DC
:1045B000A0916802B09169022FBF841B950BA60BD6
:1045C000B70B4A97A105B10510F010922001CF91C9
:1045D0001F910F910895A7E1B0E0E1EFF2E20C9492
:1045E000542F4B8B5C8B6D8B7E8B8F8B2E893F89F1
:1045F0002115310531F05F3F31F481E04F3F19F46F
:1046000003C081E001C080E080FD09C080916402A8
:104610009091650201969093650280936402611106
:104620001092DD0386E0FE013D96DF01982F1D927A
:104630009A95E9F74D875E876F87398B288BDE0166
:10464000179601900D928A95E1F7CE0107960E9488
:10465000B91881113EC086E0FE013796DE01119641
:1046600001900D928A95E1F7FF81E8856A857B8547
:104670006115710531F0EF3F31F481E0FF3F19F42E
:1046800003C081E001C080E080FD23C020918A0347
:1046900030E0C9010196877099274091BB0350E033
:1046A0008417950779F1F983EA837D836C8396E01B
:1046B000929FD001939FB00D1124A557BC4FFE01CE
:1046C000319601900D929A95E1F780938A030E94AA
:1046D000461816E08091BB0390918A03891709F16F
:1046E000189FC001112485579C4F0E94B918882338
:1046F000C1F08091BB0390E0019687709927809369
:10470000BB03E8CF109270020E94542B10928A03D0
:104710001092BB03E4E8F3E086E0DF011D928A9586
:10472000E9F76796E3E00C94702F982F92959F70AD
:1047300019F0892F24E001C020E0982F96959695D6
:1047400011F02E5F892F982F969509F02F5F822FF9
:104750000895109270020E94542B2FEF84E39CE086
:10476000215080409040E1F700C000009AE088E1CD
:104770000FB6F894A895809360000FBE90936000E8
:10478000FFCFCF93C82F0E94952356985E98259807
:104790002D9826982E9827982F9890E0FC01319715
:1047A000E730F105A8F4EB58FF4F0C945832259AE6
:1047B0002D9A0EC0259A2D9A269A2E9A09C0259ACE
:1047C0002D9A04C0259A2D9A269A2E9A279A2F9AC6
:1047D0008C2FCF910895A0E0B0E0E1EFF3E20C94CC
:1047E000462F20E9289F7001299FF00C1124C0E07A
:1047F000D0E000E010E067018FEFC81AD80A570137
:1048000082E0A80EB11CF701EC0FFD1FE655FA4F30
:104810006491F601EC0FFD1FE655FA4F7491F50116
:10482000EC0FFD1FE655FA4F8491611107C071111D
:1048300005C0811103C020E040E03CC00E94502828
:10484000962E372E882E6091BC0570E080E090E0B7
:104850000E943D3120E030E04FE753E40E949C305D
:104860002B013C01682D70E080E090E00E943F3118
:10487000A30192010E94CB310E940E31862E692D38
:1048800070E080E090E00E943F31A30192010E941D
:10489000CB310E940E31962E632D70E080E090E0C7
:1048A0000E943F31A30192010E94CB310E940E3140
:1048B000282D492DC8010E946A0F0F5F1F4F2396B4
:1048C000C039D10509F09FCFCDB7DEB7E1E10C9437
:1048D000622F80E290E090931801809317018091FD
:1048E000830581110EC00E94402E81E080938305D4
:1048F0002FEF83ED90E3215080409040E1F700C01E
:10490000000060E570E080E40E94462E909318015C
:1049100080931701892B09F04EC060E570E080E0BC
:104920000E94B92E9093180180931701892B09F0EA
:1049300042C060E570E080E00E94B92E90931801BB
:1049400080931701892BB9F560E570E08FE30E9431
:10495000B92E9093180180931701892B61F50E945D
:104960002D2F60E570E080E40E94462E90931801A0
:1049700080931701892BF9F460E570E08CE00E94C8
:10498000B92E9093180180931701892BA1F460E54B
:1049900070E080E00E94B92E909318018093170177
:1049A000892B49F460E570E08FE30E94B92E909363
:1049B0001801809317010E942D2F809117010895EF
:1049C000CF93DF9356985E9825982D9826982E9829
:1049D00027982F98C8E8D0E08FEF90E099838883DC
:1049E000AAE8B0E011969C938E93ECE8F0E09183F6
:1049F0008083259A2D9A2FEF80E792E02150804006
:104A00009040E1F700C00000269A2E9A2FEF80E731
:104A100092E0215080409040E1F700C00000279ACA
:104A20002F9A2FEF80E792E0215080409040E1F7ED
:104A300000C0000025982D982FEF80E792E02150CC
:104A400080409040E1F700C0000026982E982FEF9C
:104A500080E792E0215080409040E1F700C00000E4
:104A600027982F9880911B0487702FEF829FC00199
:104A7000112495958795959587959927998388838E
:104A800011969C938E939183808356985E98259877
:104A90002D9826982E9827982F98DF91CF910895DA
:104AA000CF93E82F873080F58091170190911801FE
:104AB000892B09F047C0CE2F60E570E080E40E94AA
:104AC000462E9093180180931701892BD1F460E54D
:104AD00070E082E10E94B92E909318018093170133
:104AE000892B79F481E090E001C0880FCA95EAF73C
:104AF00060E570E080950E94B92E90931801809334
:104B000017010E942D2F1EC090E0FC013797E7305F
:104B1000F105C0F4E458FF4F0C945832209A2898BD
:104B200011C0219A29980EC0229A2A980BC0239A64
:104B30002B9808C0529A5A9805C0539A5B9802C0A5
:104B40003E9A4698CF9108952098289821982998C0
:104B500022982A9823982B9852985A9853985B98A1
:104B60003E9846980895CF93873040F5809117017D
:104B700090911801892B59F560E570E081E40E945D
:104B8000462E9093180180931701892B11F0C0E0F5
:104B900011C080E590E00E94E82E97FF05C0909339
:104BA000180180931701F3CFC82FC09510921801F8
:104BB000109217010E942D2F8C2F0AC09FB18FB128
:104BC000807F869586959370892B809501C080E0C3
:104BD000CF9108958098889A8198899A84988C9A20
:104BE00085988D9A86988E9A87988F9A08950F93B4
:104BF0001F93522F10E0F801EE0FFF1FEE52FE4FF1
:104C0000E081F0E0B097EE0FFF1F9F015203D0014B
:104C1000539FB00D1124000F111FF801EF52FE4FEA
:104C2000008110E000571109000F111F400390018F
:104C3000419F300D11242A0F3B1F37FF02C021581E
:104C40003F4F220F232F221F330B620F1F910F9113
:104C500008950F931F93522F10E0F801EE0FFF1FDE
:104C6000EE52FE4FE081F0E0B0979F015203D00179
:104C7000539FB00D1124000F111FF801EF52FE4F8A
:104C8000008110E00057110940039001419F300D51
:104C900011242A0F3B1F37FF02C021583F4F220F1C
:104CA000232F221F330B620F1F910F910895EF9254
:104CB0000F931F9393E0099F800111241595079589
:104CC0006E2D600F1F910F91EF900895A22F50E06D
:104CD000FA01EE0FFF1FEE52FE4F9081905297FDAA
:104CE0009195440F551FFA01EF52FE4F3081232F4B
:104CF00030E02A1B3109290F311D97FD3A95620FCB
:104D00000895E42FF0E0EE0FFF1FEE52FE4F60819A
:104D1000621B0895E42FF0E0EE0FFF1FEF52FE4FED
:104D20006081621B0895622F0895E42FF0E0EE0F7A
:104D3000FF1FEF52FE4F408134EE439F412D11245F
:104D4000E82FF0E050E0445E5F4FDA01A21BB109AA
:104D50009D01B7FF03C031952195310993E0220FE2
:104D6000331F9A95E1F7AF01421B530B9A0157FF8E
:104D700002C020E030E0582F259F212D1124822FE2
:104D80000895E42FF0E0EE0FFF1FEF52FE4F408139
:104D900034EE439F412D1124E72FF0E050E0445EB4
:104DA0005F4FDA01A21BB1099D01B7FF03C0319526
:104DB0002195310993E0220F331F9A95E1F7AF0156
:104DC000421B530B9A0157FF02C020E030E0279F9F
:104DD000212D1124722F0895FC019B01009721F4CD
:104DE00077FF2BC080E80895AC0197FF04C04427EB
:104DF0005527481B590BB901640F751F37FD0CC0AF
:104E0000241B350BC901A5E0880F991FAA95E1F76E
:104E10000E94443280E20CC0CB0165E0880F991FEC
:104E20006A95E1F7BA01621B730B0E94443280E677
:104E3000861BF7FF03C08195089580E00895EF92E7
:104E40000F93CF93DF93D72FC82FC9010E19BA0143
:104E50000E94EC26602F681B7D2F8C2FDF91CF9155
:104E60000F91EF9008950F93CF93DF93D72FC82F13
:104E7000C901BA010E94EC26682F600F7D2F8C2F8C
:104E8000DF91CF910F910895EF920F931F93CF93DE
:104E9000DF93D62FC72F182FC9010E19010FBA01A2
:104EA0000E94EC26081B202F219F212D1124822FE8
:104EB0006D2F7C2FDF91CF911F910F91EF9008956F
:104EC000EF920F931F93CF93DF93D62F172FC82FF7
:104ED000C9010E19070FBA010E94EC26702F781B2A
:104EE000719F712D11246D2F8C2FDF91CF911F9108
:104EF0000F91EF900895FF920F931F93CF93DF933D
:104F0000F62ED72F182FC901C12FC01BBA010E943E
:104F1000EC26982F990F890FC81B2C2F219F212D2C
:104F20001124822F6F2D7D2FCDB7DEB7E5E00C94D5
:104F30006E2FFF920F931F93CF93DF93F62E172FB1
:104F4000D82FC901C72FC01BBA010E94EC26982F89
:104F5000990F890F7C2F781B719F712D11246F2D54
:104F60008D2FCDB7DEB7E5E00C946E2F482F982F2C
:104F700046FD9095E92FEF739F7046FD9F5FE29588
:104F8000EF70EE0FF0E0EB58FE4F2181299F802D4E
:104F9000212D112482958F702295207F822B3081C4
:104FA000982F930F892F47FD819580580895409140
:104FB0001B0150911C0125E038E0429FC001439F36
:104FC000900D529F900D1124875E994C90931C0177
:104FD00080931B01890F0895BC018230910508F46C
:104FE0000895613E8EE1780748F49B0195E036957F
:104FF00027959A95E1F748E0420F01C04FEF91E005
:10500000242F30E0290F311D35952795229FF0017F
:10501000239FF00DF00D11246E177F0718F44FEF4A
:10502000420F04C02F3F39F091E0920F491740F72B
:105030008FEF890F08958FEF08950F93CF93DF932C
:10504000D72FC82F47FD4195E8E3F0E0CF01841B3F
:10505000910947FD9395889FB001899F700D700D50
:105060001124229FC001239F900D900D1124860FC3
:10507000971F0E94EC27682F660F860F682F600F1E
:105080007D2F8C2FDF91CF910F91089520E030E09C
:10509000869F212D969F200D311D1124C901089551
:1050A000A0E0B0E0E6E5F8E20C944F2FF62E472F93
:1050B000E82FF0E0711106C0E65AF84F8491782F7E
:1050C000682F73C0272F30E0E65AF84FE491FE2F87
:1050D0000E2F10E056E0659FC0011124CFEFD0E005
:1050E000BE010E94312F5BEA5603C001579F900D0D
:1050F00011248F0D911D8F0D911D982F990F980FD1
:105100007E01E21AF30AE09ED001E19EB00DF09E0E
:10511000B00D11248B2F499FA0011124452F552735
:105120007E01E41AF50AE09EA001E19E500DF09E7A
:10513000500D11246E01C91AD108C29E7001C39E80
:10514000F00CD29EF00C11242F2D3327C21BD30B51
:10515000C09F9001C19F300DD09F300D1124932F1F
:105160006230710591F048F461157105E1F061302C
:105170007105B9F49E2FE52F16C06430710569F0F2
:1051800040F06630710579F00CC09E2FEB2F832F15
:105190000AC0EB2F8F2F952F06C09B2F8E2FE32F4A
:1051A00002C09B2F852F7E2F692FCDB7DEB7E8E099
:1051B0000C946B2F8D3E39F490918D0597FF35C07F
:1051C00010928D0559C08E3E29F490918D051916C7
:1051D000BCF32BC090918C058F3E29F497FF25C01E
:1051E00010928C0549C0803F19F41916CCF31DC0EC
:1051F00090918E05893F29F41916BCF410928E0502
:105200003BC08A3F19F497FF10C0F8CF8B3F39F4A9
:1052100090918F0597FF09C010928F052DC08C3F8C
:1052200021F490918F051916BCF39FE0980F9830E8
:1052300080F421E030E0A90102C0440F551F9A9587
:10524000E2F7CA01809590918B05892380938B05A5
:1052500013C08D3F21F4809186058E7F0BC08E3F59
:1052600021F4809186058D7F05C08F3F29F48091C0
:1052700086058B7F8093860580918C05811106C001
:1052800080918D05811102C01092850580918E0557
:10529000811106C080918F05811102C01092840592
:1052A00008958091860580FD16C081FD16C082FD9F
:1052B00018C080918405882391F08D3390F42BE001
:1052C000829FC00111246DE370E00E944432862F5A
:1052D000672B29F007C082E0089585E0089581E0FA
:1052E00008958BE008958091860580FD14C081FDAE
:1052F00014C082FD16C080918505882381F0853415
:1053000080F428E5829FC001112465E470E00E94CA
:105310004432862F089586E108958CE2089588E04E
:10532000089588E508958D3E21F40E9473298195A2
:1053300004C08E3E29F40E94732980938D05089540
:105340008F3E21F40E947329819504C0803F29F487
:105350000E94732980938C050895893F19F40E9457
:10536000512905C08A3F31F40E94512981958093CB
:105370008E0508958B3F21F40E945129819504C028
:105380008C3F29F40E94512980938F0508959FE056
:10539000980F983078F421E030E0A90102C0440F62
:1053A000551F9A95E2F7CA0190918B05892B80933E
:1053B0008B0508958D3F21F48091860581600BC097
:1053C0008E3F21F480918605826005C08F3F29F4CD
:1053D0008091860584608093860508950E94F4205C
:1053E00020918C05211104C020918D05222321F0EC
:1053F00090938A058093890520918E05211104C020
:1054000020918F05222321F09093880580938705B2
:10541000E0917E05F0917F05309731F00480F581B1
:10542000E02D8BE895E00995089580E090E00E94DA
:10543000672180E090E00E9451211092DD030E94DC
:10544000B817EBE8F5E085E0DF011D928A95E9F7F2
:105450001092850510928405109286050E94EE290F
:105460000895CF92DF92FF920F931F93CF93DF9314
:105470006C0100911A048091DF03082BC7E0D0E093
:1054800010E0C8010C2E02C0959587950A94E2F7AA
:1054900080FD04C02197A8F7F12C09C0FC2EB601AD
:1054A0008C2F0E9480150E949915019799F38F2DDA
:1054B000DF91CF911F910F91FF90DF90CF900895D2
:1054C000CF93DF93EC010E94312ABE010E94801528
:1054D0000E949915DF91CF910895292F9E3078F57C
:1054E000863068F590E036E0239F800D911D1124F1
:1054F000682F677023E0969587952A95E1F7FC0160
:10550000EE0FFF1FE80FF91FE057FA4F40E050E0A1
:1055100080E0219130E0062E02C0369527950A944E
:10552000E2F721703327042E01C0220F0A94EAF714
:10553000822B4F5F5F4F4330510559F7089580E04C
:105540000895292F9E3088F5863078F590E036E072
:10555000239F800D911D1124282F277051E001C039
:10556000550F2A95EAF723E0969587952A95E1F756
:10557000FC01EE0FFF1FE80FF91FE057FA4F20E084
:1055800030E070E04081CB01022E02C096958795F5
:105590000A94E2F78170819584278523842781937B
:1055A0002F5F3F4F2330310569F70895A0E2B0E047
:1055B000ECEDFAE20C94542F0E94C123182F809135
:1055C000B5058823A9F02FEF80E792E021508040B5
:1055D0009040E1F700C0000085E08983812F0E94A0
:1055E00095238A838EEF8B83CE0101960E94962CA1
:1055F00010931A040E94152AA096E3E00C94702FD1
:1056000021E030E001C0220F8A95EAF720958091D1
:105610001A0482230E94D62A089521E030E001C0B6
:10562000220F8A95EAF780911A04822B0E94D62ACB
:1056300008958093DF030E94152A089592959F7024
:10564000963079F010F4925001C09A50923068F47C
:10565000803F69F018F4883E40F409C0843F29F483
:1056600006C0883E20F0813F11F080E0089581E07F
:105670000895FC019081818123813481232B31F0B5
:105680008F3F31F481E09F3F19F403C081E001C0F6
:1056900080E080FD07C0808191810E94602A0E9485
:1056A0001E2B089580E0089580910A01882331F02F
:1056B00080916A0287FF02C08EE101C086E0E6E6C3
:1056C000F3E0DF011D928A95E9F70E94152A0895FB
:1056D000882321F00E94B1170E94B81708958823EB
:1056E00039F090917002892B809370020E94B81754
:1056F0000895882391F19CEF980F913A30F4682F28
:1057000084E693E00E9429210DC090E2980F983022
:1057100060F4877091E001C0990F8A95EAF7892FAC
:105720000E94B1170E94B81708959BE5980F933017
:1057300028F480E090E00E946721089598E5980F92
:10574000973128F480E090E00E94512108958D3E29
:1057500020F00E94DA280E94EE290895CF93882332
:1057600009F49FC0C82F8CEF8C0F813A08F05BC002
:1057700080910A018823E1F080916A0287FF18C0B6
:10578000EC2FE695E695E695F0E0EC59FC4F82812A
:10579000282F30E04C2F477081E090E002C0880F46
:1057A000991F4A95E2F782239323892B59F411C05C
:1057B000E6E6F3E08191C81729F083E0EC36F807BC
:1057C000C9F707C06C2F84E693E00E9429210E944C
:1057D000B81780910A018823B1F080916A0287FF8F
:1057E00012C0EC2FE695E695E695F0E0EC59FC4FFB
:1057F000C77081E090E001C0880FCA95EAF79281F6
:10580000892B828320C0A6E6B3E0EFEF80E09D9174
:10581000C917C9F0EF3F19F4911101C0E82F8F5F4C
:105820008630A9F735C080E28C0F883078F4C770D5
:1058300081E090E001C0880FCA95EAF7909170026C
:10584000892B809370020E94B8172BC0EBE5EC0FF8
:10585000E33040F4F0E0E85CFE4F808190E00E948D
:1058600067211FC0E8E5EC0FE73150F4F0E0EE0FE0
:10587000FF1FE55CFE4F808191810E94512111C084
:10588000CD3E78F08C2F0E9493290E94EE2909C00A
:10589000EF3FC9F20E2E000CFF0BEC59FC4FC283F8
:1058A000D2CFCF9108959091B9059370A1F0811155
:1058B00002C0946007C08F3110F0986703C0880F52
:1058C000880F982B9093B905109220018091B8050C
:1058D00081608093B8050895EF92FF920F931F9314
:1058E000CF93DF937C018B010E94790E811119C047
:1058F000E70101151105A1F08091E80085FD0AC0BE
:105900008091E8008E778093E8000E94790E8823CA
:1059100081F307C089918093F10001501109E9CF0B
:1059200080E0CDB7DEB7E6E00C946D2FCF932091E9
:10593000B705243011F5C091E900CF703091EC002B
:10594000232F217030FD20E8C22B23E02093E900B3
:105950002091E80020FF0EC040E050E060E270E0DF
:105960000E946C2C81111092B5058091E8008E7711
:105970008093E800CF70C093E900CF910895A0E034
:10598000B0E0E5ECFCE20C94502F8C0180911D01FD
:10599000C82FCC0FCC0FC80FD5E0DC0FD13308F0E7
:1059A000D0E36091BD056695669521E0620F08F42D
:1059B0006FEF8091B1059091B2050E944628D82ED4
:1059C000CD17F0F4EC2EF12CF701EF5CFD4F908138
:1059D00080911E01892391F06091BA057091BB05F9
:1059E0008091BC052D2D4C2FF80109950E9450285F
:1059F000462F282F672FC7010E946A0FCF5FE0CF85
:105A000081E0D03308F080E0CDB7DEB7E7E00C945A
:105A10006C2FA0E0B0E0EFE0FDE20C944C2F6C01A5
:105A200080911D01C82FCC0FCC0FC80F15E01C0FA3
:105A3000113308F010E36091BD056695669580917D
:105A4000B1059091B2050E944628D82F80E48D0FB1
:105A50000E94B62790E8F92EF80E8D2F0E94B627E7
:105A600020E8922E980EC11700F5AC2EB12CF5014E
:105A7000EF5CFD4F908180911E018923A1F0609120
:105A8000BA057091BB058091BC05ED2E0C2F292D18
:105A90004F2DF60109950E945028462F282F672F79
:105AA000C5010E946A0FCF5FDECF81E0103308F09E
:105AB00080E0CDB7DEB7EBE00C94682F6F927F9259
:105AC0008F929F92AF92BF92CF92DF92EF920F93FD
:105AD0001F93CF93DF933C0180911D01C82FCC0F02
