:100000000C9486030C94A3030C94A3030C94A303F5
:100010000C94A3030C94A3030C94A3030C94A303C8
:100020000C94A3030C94A3030C9482150C94121A41
:100030000C947B2A0C94A3030C94A3030C94A303A9
:100040000C94A3030C94A3030C94A3030C94A30398
:100050000C94A3030C9459160C94A3030C94A303BF
:100060000C94A3030C94A3030C94A3030C94A30378
:100070000C94A3030C94A3030C94A3030C94A30368
:100080000C94A3030C94A3030C94A3030C94A30358
:100090000C94A3030C94A3030C94A3030C94A30348
:1000A0000C94A3030C94A3030C94A30305010980EF
:1000B000A101850319012AB700150126B700950192
:1000C00075108100C0050C0901A101850419012AE0
:1000D000A002150126A002950175108100C005013E
:1000E0000906A1018505050719E029E71500250185
:1000F0009508750181020507190029EF15002501F2
:1001000095F075018102050819012905950575010C
:100110009102950175039101C005010902A1010930
:1001200001A100050919012905150025019505758D
:10013000018102950175038101050109300931151D
:1001400081257F95027508810609381581257F95DF
:100150000175088106050C0A38021581257F950175
:1001600075088106C0C005010906A101050719E04F
:1001700029E715002501950875018102950175088B
:1001800081010507190029FF150026FF0095067556
:100190000881000508190129059505750191029549
:1001A0000175039101C00000000000000000000084
:1001B000000000000000000000000000000000003F
:1001C000000000000000000000000000000000002F
:1001D000000000000000000000000000000000001F
:1001E000000000000000000000000000000000000F
:1001F00000000000000000000000000000000000FF
:1002000000000000000000000000000000000000EE
:1002100000000000000000000000000000000000DE
:1002200000000000000000000000000000000000CE
:1002300000000000000086FFD586FFD586FFD5862A
:10024000FFD586FFD500000055CB9E55CB9E55CBE4
:100250009E00000000000055CB9E55CB9E55CB9EC6
:1002600000000000000055CB9E55CB9E55CB9E0054
:10027000000000000000000055CB9E00000086FF3B
:10028000D586FFD586FFD586FFD586FFD5F3DEEA76
:10029000F3DEEAF3DEEA0000000000000000000ADE
:1002A000E1FF0AE1FF00000000000000000020B0B4
:1002B000FF20B0FF0000000000000FA6C30FA6C380
:1002C000000000000000000000000000000000002E
:1002D00000000000000F61EC0F61EC20FFEA0F61ED
:1002E000EC0000000F61EC20FFEA20FFEA20FFEAAB
:1002F00000000000000000000092E0FF92E0FF001C
:10030000000000CCFF0CE1F10CE1F1000000000066
:1003100000000000000000000000000000000000DD
:10032000000000A978FF00000000000000CCFFA939
:1003300078FFA978FFA978FF00000086FFD586FF27
:10034000D586FFD586FFD500000000000000000024
:100350000000000000000001010101010101010194
:100360000202020202020202020303030303030366
:100370000304040404040404050505050506060633
:100380000606070707070708080808090909090AF0
:100390000A0A0B0B0B0C0C0C0D0D0D0E0E0E0F0F95
:1003A0000F10101111111212131314141515161623
:1003B0001717181819191A1A1B1B1C1D1D1E1E1F92
:1003C0002020212222232424252626272829292AE1
:1003D0002B2C2D2D2E2F3031323233343536373809
:1003E000393A3B3C3D3E3F40414243444546474805
:1003F000494A4C4D4E4F50515354555658595A5BDB
:100400005D5E5F616264656668696B6C6D6F70727A
:10041000737577787A7B7D7E8082838587888A8CE6
:100420008E8F91939596989A9C9EA0A2A3A5A7A91A
:10043000ABADAFB1B3B5B7BABCBEC0C2C4C6C9CB11
:10044000CDCFD1D4D6D8DBDDDFE2E4E7E9EBEEF0C7
:10045000F3F5F8FAFDFF290035002B61E1000253A6
:1004600000001E00140004001D000100E0001F0039
:100470001A0016001B000100E3002000080007001E
:10048000060002512C0021001500090019002A0065
:10049000E200220017000A00050000005000270DAE
:1004A000E3070000E30500004F00100D29000000E5
:1004B00028000000510023001C000B001100000068
:1004C0005200240018000D0010002D00010025002E
:1004D0000C000E0036002E000151260012000F0005
:1004E00037002F000251270013003300380030007E
:1004F00001002A0031003400E5003400000029002A
:100500000100E000E1002A0000003A001E02200283
:1005100022020100E2003B001F022102230201002F
:10052000E3003C002F022F00260236022C003D0083
:100530003002300027023702CB5C3E00310235002A
:1005400035020000C45C0100010000000100000051
:10055000CA5C01000100000001000000C35C3F0014
:1005600052005100240200002C5D400024002100B4
:100570001E00010001004100250022001F0037007D
:100580000100420026002300200027000100430054
:100590002502010031002E00010044004500280022
:1005A00001000100000001000100E0000100010065
:1005B000000001000100F500010001000100010040
:1005C0000100F200FC00010001000100F000F10058
:1005D000FA000100010001000100F300F900010030
:1005E000010001000100F400FB0000000100010017
:1005F00001000000010000000100010001000000F6
:1006000001000000010001004B004E00010000004D
:10061000010001004A0050000100A8000100010093
:1006200052005100AC00AA00B60001004D004F007E
:10063000AB00A90001000100010001000100010060
:1006400001004C000100AE000100010000000902A1
:100650005400030100A0FA09040000010301010095
:100660000921110100012240000705810308000A49
:100670000904010001030102000921110100012206
:100680004D000705820308000A0904020001030067
:100690000000092111010001226D000705830320DC
:1006A000000A12010002000000089732764901009A
:1006B0000102000120034500720067006F00440042
:1006C0006F007800200045005A00200047006C00B1
:1006D0006F007700000030035A00530041002000F3
:1006E00054006500630068006E006F006C006F00CE
:1006F0006700790020004C00610062007300200058
:1007000049006E00630000000403090411241FBEA9
:10071000CFEFDAE0DEBFCDBF25E0ACE0B3E001C053
:100720001D92AD39B207E1F713E0A0E0B1E0E0EDD2
:10073000FFE502C005900D92AC30B107D9F70E94D9
:10074000D1270C948E2F0C940000E8EDF0E080810E
:100750008E7F80831092E2001092DA001092E10006
:10076000A0EEB0E08C9181608C9380818F77808344
:1007700019BCA7EDB0E08C918E7F8C9380818F7E29
:10078000808310925E0508952091E4003091E50089
:1007900095E6A9012091EC00822F817020FF06C010
:1007A0008091E80080FF06C080E008952091E80075
:1007B00022FD1AC080918305882389F0853089F055
:1007C0008091EB0085FD0FC02091E4003091E500A1
:1007D00042175307F9F29150E1F684E0089582E060
:1007E000089583E0089581E00895EF92FF920F93BA
:1007F0001F93CF937C018B010E94C403C82F8111EA
:1008000017C08091E80085FD0BC08091E8008E77CD
:100810008093E8000E94C403882399F3C82F08C07E
:10082000F70181917F018093F1000150110949F78F
:100830008C2FCF911F910F91FF90EF900895809191
:10084000850587FF13C08091E80082FF06C0809174
:10085000E8008B778093E80004C0809183058111C4
:10086000F2CF0895809183058823D9F38091E80021
:1008700080FFF8CF8091E8008E77ECCF982F90938F
:10088000E900242F762F50E0891731F07091EC00A9
:100890002091ED005091F00021FD07C09F5F97303F
:1008A00071F78093E90081E008953091EB003E7F7D
:1008B0003093EB003091ED003D7F3093ED003091AF
:1008C000EB0031603093EB007093EC002093ED006F
:1008D0005093F0002091EE0027FDE0CF80E00895D6
:1008E000CF92DF92EF92FF920F931F93CF93DF93FC
:1008F000C8EDD0E088818F7E8883E7EDF0E08081CD
:100900008160808384E082BF81E080935E0588817E
:100910008E7F888302EE10E0F80110821092DA00D8
:1009200081EEC82ED12CF601108288818F778883C2
:1009300088818068888388818F7D888319BC109224
:10094000830510928405109282051092810590EE25
:10095000E92EF12CF70180818B7F80838881816073
:10096000888342E060E080E00E943E04F6018081DE
:100970008E7F8083F80180818160808380818860A0
:100980008083F70180818E7F808388818061888366
:10099000DF91CF911F910F91FF90EF90DF90CF905B
:1009A0000895FC0180918B0590918C05861797071F
:1009B000A0F06115710529F49091E8009E7790935D
:1009C000E80090E06115710551F4911108C0809123
:1009D000E80082FF34C080E00895BC01F2CF80912E
:1009E00083058823C1F18530C1F18091E80083FD42
:1009F00030C08091E80082FDEACF8091E80080FF5E
:100A0000E1CF8091F3002091F200382F611571053C
:100A100019F02830310558F091E02830310509F0FF
:100A200090E02091E8002E772093E800CBCF8191D1
:100A30008093F100615071092F5F3F4FE7CF8091A4
:100A40008305882341F0853041F08091E80083FFE1
:100A5000BECF81E0089582E0089583E008958091FB
:100A60006005089590914A05803F59F480914B05A7
:100A700087FF0DC010924B0591110BC010924605D7
:100A800008C0813F81F480914B0518169CF399238F
:100A900081F080914C0590914D05892B09F064C03F
:100AA000109243050895823F49F497FFF0CF1092CA
:100AB0004A0580914B058111ECCFE0CF833F19F4BB
:100AC0001916ACF3E4CF20914C05893F29F4121696
:100AD000F4F610924C05DBCF8A3F19F427FFD7CFED
:100AE000F8CF20914D058B3F29F427FFD0CF1092EE
:100AF0004D05CDCF8C3F19F41216CCF3C8CF843FEF
:100B000031F4809149058E7F80934905C0CF853FA0
:100B100021F4809149058D7FF7CF863F21F48091A4
:100B200049058B7FF1CF873F21F480914905877F6D
:100B3000EBCF883F21F4809149058F7EE5CF8D3F33
:100B400031F4809116058E7F80931605A0CF8E3FDD
:100B500021F4809116058D7FF7CF8F3F09F097CF55
:100B6000809116058B7FF0CF08958091160580FD4A
:100B700016C081FD16C082FD16C0809143058823F2
:100B8000A1F08D3380F42BE0829FC00111246DE32E
:100B900070E00E94962B862F672B39F0089582E033
:100BA000089585E008958BE0089581E0089580918F
:100BB000160580FD16C081FD16C082FD18C080910B
:100BC0004605882391F0853490F427E3829FC00185
:100BD000112465E470E00E94962B862F672B49F064
:100BE00008958DE008958BE1089585E0089587E3E9
:100BF000089581E00895803F31F40E94D7058195E2
:100C000080934B050895813F19F40E94D705F8CFD2
:100C1000823F31F40E94D705819580934A0508955B
:100C2000833F19F40E94D705F8CF893F29F40E9429
:100C3000B50580934C0508958A3F21F40E94B505BF
:100C40008195F7CF8B3F31F40E94B5058195809354
:100C50004D0508958C3F19F40E94B505F8CF843FE7
:100C600031F4809149058160809349050895853F5D
:100C700021F4809149058260F7CF863F21F480916D
:100C800049058460F1CF873F21F480914905886050
:100C9000EBCF883F21F4809149058061E5CF8D3FFE
:100CA00031F48091160581608093160508958E3F7A
:100CB00021F4809116058260F7CF8F3FB9F78091BC
:100CC00016058460F1CF9C014FB7F894809112050E
:100CD00090911305A0911405B09115054FBF821B8B
:100CE000930B0895209118012223C9F020912F051C
:100CF00027FF15C0E62FE695E695E695EE31D8F488
:100D0000E80FF92FF11D677021E030E001C0220FDC
:100D10006A95EAF720958281282322830895FC01B1
:100D2000329608962191621303C0DF0111971C923D
:100D3000E817F907B9F70895209118012223C1F0A7
:100D400020912F0527FF14C0E62FE695E695E6953E
:100D5000EE31F8F4E80FF92FF11D677021E030E073
:100D600001C0220F6A95EAF78281822B828308955F
:100D7000FC0132962FEF30E04191641751F02F3F84
:100D800019F4411101C0232F3F5F3630A9F72F3FDF
:100D900009F40895820F911D27FD9A95FC01628345
:100DA0000895CF92DF92EF92FF926C01EE24FF2420
:100DB00020E0C114D104E104F10419F0C701B60127
:100DC00020E1C72ED82EE92EFF24C114D104E1045E
:100DD000F10419F0285FC701B6016B017C0154E0F2
:100DE000F694E794D794C7945A95D1F7C114D104D7
:100DF000E104F10419F02C5FC701B6016B017C011D
:100E000042E0F694E794D794C7944A95D1F7C11479
:100E1000D104E104F10419F02E5FC701B6019695E3
:100E2000879577956795672B682B692B09F02F5F5E
:100E3000822FFF90EF90DF90CF90089580910D0565
:100E4000811110920D05089580910C0590910B056C
:100E5000892B90910A05892B80930C0390910D05A5
:100E60009923A1F0892B80930C038091180188238A
:100E700041F180912F0587FF24C08EE1EEE0F3E081
:100E800090E0815000F591110E941E07E09131051C
:100E9000F09132053097E1F080911801882359F0E4
:100EA00080912F0587FF07C080910C0380930D036D
:100EB00085E080930C030280F381E02D8CE093E0C9
:100EC000099486E0DBCF21912223D9F29F5FD9CF0D
:100ED0000895E92FEE0FE90FEE0F8E0F982F977000
:100EE00086958695869525E0829FF0011124EE5225
:100EF000FB4F50E040E080E0219130E0092E02C03D
:100F0000369527950A94E2F721703327042E01C005
:100F1000220F0A94EAF7822B4F5F5F4F453051054D
:100F200059F70895E92FEE0FE90FEE0F8E0F982F66
:100F3000977041E001C0440F9A95EAF7869586952F
:100F4000869595E0899FF0011124EE52FB4F30E029
:100F500020E070E05191DF011197CB01022E02C019
:100F6000969587950A94E2F7817081958527842369
:100F700085278C932F5F3F4F2530310559F7089512
:100F80002091D1049091A00456E0291302C080E082
:100F9000089530E0529FF001539FF00D1124EF555A
:100FA000FB4F7181761306C07081781303C0728184
:100FB000741304C02F5F3F4F2770E7CF81E008957F
:100FC0008091D1049091A004981301C008958F5F7F
:100FD0008770FACFE92FE295EF70E250EE3070F4AF
:100FE000F0E0E057F04D0C94AA2B803F19F020F46C
:100FF000883E20F481E00895843FE1F380E0089585
:10100000883EC0F3813FD1F7F5CF93FB882780F965
:101010000895882341F0809590910C058923809351
:101020000C050C9424070895882339F090910C0541
:10103000982B90930C050C94240708952091950407
:10104000309196042817390771F090939604809395
:101050009504E0913105F0913205309721F000843C
:10106000F185E02D09940895209193043091940422
:101070002817390771F09093940480939304E091BA
:101080003105F0913205309721F00680F781E02D8F
:1010900009940895E0913105F0913205309721F0DF
:1010A0000190F081E02D099480E00895FA0181110A
:1010B00001C0FB0109948033910538F5880F991F11
:1010C000880F991FFC01E85DFE4F528133818081BA
:1010D0008370E181A82FB0E070E9879FC0011124DF
:1010E000835B9C4FE80FF92FF11DB4976083FC01DF
:1010F000E50FF11DB4974083830F911DFC01B49758
:101100002083A55BBC4F81E08C930895FF920F93E1
:101110001F93CF93DF93182F062FF42ED0E0C0E05B
:101120002F2D402F612FCE010E945B082196C033E6
:10113000D105B1F7DF91CF911F910F91FF900895E5
:1011400080919405837011F410921C018091940594
:101150008C7F81608093940508950C9486080C948C
:101160005B080F931F9310E0F801EE0FFF1FE45888
:10117000FD4F9081905797FD9195000F111FF80139
:10118000E358FD4F00810052110B2003F001219F15
:10119000F00D112408E310E0091B110997FD1395C8
:1011A00040039001419F300D1124E20FF31F9F0176
:1011B000220F331F2E0F3F1F37FF02C021583F4F12
:1011C000220F232F221F330B620F1F910F910895BF
:1011D0000F931F93522F10E0F801EE0FFF1FE358FB
:1011E000FD4FA081A052BB0B9D015203F001539F04
:1011F000F00D1124000F111FD801A458BD4F0C9100
:101200000057110B40039001419F300D11242E0F08
:101210003F1F37FF02C0215C3F4F96E03595279571
:101220009A95E1F7620F1F910F9108950F931F9305
:10123000522F10E0F801EE0FFF1FE358FD4FA08181
:10124000A052BB0B9D015203F001539FF00D1124DE
:10125000000F111FD801A458BD4F0C910057110B5E
:1012600040039001419F300D11242E0F3F1F37FF87
:1012700002C021583F4F220F232F221F330B620F32
:101280001F910F910895EF920F93972F23E0029FE4
:10129000B0011124759567956E0D792F0F91EF9020
:1012A0000895322F50E0FA01EE0FFF1FE358FD4F73
:1012B0009081905297FD9195440F551FFA01E45883
:1012C000FD4F2081231B330B290F311D97FD3A95CC
:1012D000620F0895E42FF0E0EE0FFF1FE358FD4F7B
:1012E0006081621B0895E42FF0E0EE0FFF1FE458C9
:1012F000FD4F6081621B0895622F0895E42FF0E096
:10130000EE0FFF1FE458FD4F408134EE439F412D07
:101310001124E82FF0E050E0445E5F4FDA01A21B99
:10132000B1099D01B7FF03C031952195310993E0C3
:10133000220F331F9A95E1F7AF01421B530B9A011D
:1013400057FD20E0582F259F212D1124822F08952D
:10135000E42FF0E0EE0FFF1FE458FD4F408134EE24
:10136000439F412D1124E72FF0E050E0445E5F4F92
:10137000DA01A21BB1099D01B7FF03C03195219588
:10138000310993E0220F331F9A95E1F7AF01421B19
:10139000530B9A0157FD20E0279F212D1124722F16
:1013A0000895FC019B01009729F480E077FF2BC092
:1013B00080E80895AC0197FF04C044275527481BD7
:1013C000590BB901640F751F37FD10C0241B350B75
:1013D000C901A5E0880F991FAA95E1F70E94962BF5
:1013E00080E2861BF7FF0FC081950895CB0165E071
:1013F000880F991F6A95E1F7BA01621B730B0E946F
:10140000962B80E6EECF0895EF920F93CF93DF9364
:10141000D72FC82FC9010E19BA010E94D109602F18
:10142000681B7D2F8C2FDF91CF910F91EF90089546
:101430000F93CF93DF93D72FC82FC901BA010E9412
:10144000D109682F600F7D2F8C2FDF91CF910F91E5
:101450000895EF920F931F93CF93DF93D62FC72F4B
:10146000182FC9010E19010FBA010E94D109081BDA
:10147000202F219F212D1124822F6D2F7C2FDF9172
:10148000CF911F910F91EF900895EF920F931F93BB
:10149000CF93DF93D62F172FC82FC9010E19070F2F
:1014A000BA010E94D109702F781B719F712D1124F0
:1014B0006D2F8C2FDF91CF911F910F91EF90089599
:1014C0000F931F93CF93DF93D62FC72F182FC901E8
:1014D000212F201B022FBA010E94D109982F990FAA
:1014E000990F891B800F282F219F212D1124822FD6
:1014F0006D2F7C2FDF91CF911F910F9108950F9346
:101500001F93CF93DF93D62F172FC82FC901272FF3
:10151000201B022FBA010E94D109982F990F990F11
:10152000782F791B700F719F712D11246D2F8C2FC7
:10153000DF91CF911F910F910895E82F86FDE095DF
:101540002E2F2F7086FD2F5FE695E695E695E670C7
:10155000F0E0E05EFE4F9181929F902D212D1124AD
:1015600092959F702295207F922B2081920F87FD6C
:10157000919580E8890F0895AC018230910508F4B7
:1015800008959FEF413E8EE1580740F49A0195E09F
:10159000369527959A95E1F798E0920F61E0E62F4E
:1015A000E90FFF27FF1F9F0135952795822F229F67
:1015B000F001239FF00DF00D11244E175F0738F452
:1015C0009FEF920F961758F78FEF860F08952F3FD2
:1015D000E9F361E0620FF6CF0F93CF93DF93D72F3C
:1015E000C82F47FD419588E390E0841B910947FD92
:1015F0009395889FB001899F700D700D1124229FD3
:10160000C001239F900D900D1124860F971F0E94FB
:10161000BC0A982F990F890F682F600F7D2F8C2F90
:10162000DF91CF910F91089530E020E0869F212D2A
:10163000969F200D311D1124C9010895AF92BF92CC
:10164000CF92DF92FF920F931F93CF93DF93362FAA
:10165000472FE82FF0E0EA5AFC4F71110FC0E491D8
:101660008E2F2E2F6E2F722FDF91CF911F910F9102
:10167000FF90DF90CF90BF90AF900895C72FD0E03C
:101680002491F22E022F10E056E0659FC001112434
:10169000EFEFF0E0BF010E94822B832F90E0880FD4
:1016A000991F35E5369FD001379FB00D11248A1B55
:1016B0009B0B982F990F980F6F01CC1ADD0AC09ED3
:1016C000D001C19EB00DD09EB00D11248B2F499F2B
:1016D000A0011124452F55276F01C41AD50AC09EB9
:1016E000A001C19E500DD09E500D11245F01A91A7A
:1016F000B108AC9E6001AD9ED00CBC9ED00C1124F4
:10170000CD2CDD24EC19FD09E09FE001E19FD00D17
:10171000F09FD00D1124ED2F62307105A1F050F42F
:101720006115710509F49ECF6130710581F0EB2FD1
:10173000852F98CF6430710569F080F066307105AF
:1017400009F490CFF4CFE22F2B2F8D2F8BCFE22FE8
:10175000252F88CFEB2F822F2D2F84CF2B2F8F2D4E
:10176000E52F80CF9F92AF92BF92CF92DF92EF9200
:10177000FF920F931F93CF93DF936C018091190118
:10178000C82FCC0FCC0FC80F15E01C0FB12E113392
:1017900010F030E3B32E60919805669566958091C0
:1017A0009005909191050E94140BF82E80E48F0D06
:1017B0000E949D0A90E8A92EA80E8F2D0E949D0AD6
:1017C00020E8922E980ED0E0CB1580F081E0103307
:1017D00008F080E0DF91CF911F910F91FF90EF9083
:1017E000DF90CF90BF90AF909F900895FE01E4529C
:1017F000FD4F808190911A018923A1F06091950598
:101800007091960580919705EF2C0C2F292D4A2D6C
:10181000F60109950E941E0B462F282F672FCE0137
:101820000E94AF082196D0CF7F928F929F92AF9265
:10183000BF92CF92DF92EF92FF920F931F93CF93BD
:10184000DF935C0180911901C82FCC0FCC0FC80F1A
:1018500015E01C0FF12E113310F030E3F32E6091E0
:101860009805669580919005909191050E94140BC2
:10187000782ED0E0CF1590F081E0103308F080E0B2
:10188000DF91CF911F910F91FF90EF90DF90CF905C
:10189000BF90AF909F908F907F900895FE01E4528B
:1018A000FD4F808190911A018923C9F1CE01880FE3
:1018B000991F885D9D4FFC01EC5AFF4F2081422FFC
:1018C0004057550B6A018B5A9F4FFC018081282F8E
:1018D0002052330B4901449F9001459F300D300D3C
:1018E0001124889CC001899C900D900D1124820FB9
:1018F000931F0E94BC0A082F609195057091960570
:1019000080919705E72C9401A601F50109950E94A5
:101910001E0B462F282F672FCE010E94AF0821965D
:10192000A9CFCF92DF92EF92FF920F931F93CF93A5
:10193000DF937C0180911901C82FCC0FCC0FC80F09
:1019400015E01C0FD12E113310F030E3D32E60912F
:101950009805669580919005909191050E94140BD1
:10196000C82ED0E0CD1568F081E0103308F080E09B
:10197000DF91CF911F910F91FF90EF90DF90CF906B
:101980000895FE01E452FD4F808190911A01892350
:1019900011F1CE01880F991F885D9D4FFC01EB5A14
:1019A000FF4F20812052330B8C5A9F4FFC01408106
:1019B0004057550B6091950570919605809197055C
:1019C0000C2DF70109950E941E0B462F282F672F1B
:1019D000CE010E94AF082196C5CFDF92EF92FF9211
:1019E0000F931F93CF93DF937C0180911901C82F30
:1019F000CC0FCC0FC80F15E01C0F012F113308F0CE
:101A000000E36091980566956695809190059091A8
:101A100091050E94140BD82ED0E0C01760F081E031
:101A2000103308F080E0DF91CF911F910F91FF906C
:101A3000EF90DF900895FE01E452FD4F8081909178
:101A40001A01892391F06091950570919605809116
:101A500097052D2D4C2FF70109950E941E0B462F3F
:101A6000282F672FCE010E94AF082196D6CF9091E4
:101A70002F0592FF06C0282F28712830F9F4877FA0
:101A8000846093FF06C0282F28712831F1F4877EE7
:101A900084612091300520FF06C0382F387138301E
:101AA000D9F4877F816021FF06C0282F2871283153
:101AB000D1F4877E816194FD877E0895282F24715B
:101AC0002430F9F68B7F8860DCCF282F24712431F5
:101AD00001F78B7E8861DDCF382F3171313019F7F6
:101AE0008E7F8860E0CF282F2171213121F78E7EF3
:101AF0008861E1CFCF93DF93972F70E026E0929F2C
:101B0000600D711D1124FB0134E5839FE00DF11D73
:101B10001124EE0FFF1FEA5AFB4FC591D491CE015D
:101B2000C238D105B9F1E8F5C133D10509F499C03E
:101B300050F5C932D10509F48DC0CA32D10509F476
:101B400097C0C11521E5D20708F0BFC0C11530E527
:101B5000D30708F016C1C83ED10508F09DC0C03EAD
:101B6000D10568F5C83AD10508F089C0C53AD10554
:101B700008F0FFC0C130D10511F1209709F443C02E
:101B80002497E8F440C0C533D10509F45CC0C933DB
:101B9000D105B9F620912F05237089F080EE90E0F1
:101BA0000EC0C33ED10591F168F4C03ED105F9F0F5
:101BB000C23ED10531F620912F0522FD20C0DF91D4
:101BC000CF910895C63ED10561F1C73ED10581F19F
:101BD000C43ED10509F0B5CF2091300521FFEFCFEC
:101BE00080912F0584FD0FC087EE90E0E8CF209113
:101BF0002F0520FD12C13091300530FFE0CF83EE7C
:101C000090E024FFDCCF90E080E0D9CF20912F0539
:101C100022FD06C13091300530FDC0CF24FFCFCF6B
:101C2000F2CF20912F0523FFCACF24FDECCFDCCFCC
:101C300020912F0523FDF7C03091300531FFEECF05
:101C400084EE90E0BCCF20912F0525FFB8CF89E22C
:101C500090E0B5CF20912F0525FFB1CF85E390E02F
:101C6000AECF20912F0526FFAACF8AE290E0A7CF22
:101C700020912F0526FFA3CF81E390E0A0CFCF3B9B
:101C8000D10508F6C85AD0E0CC0FDD1FC551DE4F94
:101C900088819981946493CFC11520E2D20760F4C2
:101CA000C11531E0D30708F08ACFCE019065C03F5F
:101CB000D10508F084CFA7CFC11580E4D80708F478
:101CC000A2CFCE019F70906A7ACFC11595E5D90752
:101CD00010F5C11524E5D20708F088C0C11533E519
:101CE000D30708F06FC0C11582E5D80708F465C0B6
:101CF0009E012370332781E090E002C0880F991F76
:101D00002A95E2F7C695C69520E2C29FE00111240C
:101D10008C2B9D2B50C0C11599E5D907A0F4C11596
:101D200028E5D20708F067C0C11536E5D30708F0EB
:101D30006ACF8C2F0E94370D90E0982F8827882734
:101D40009F7190623CCFC1158AE5D80708F458C04E
:101D5000CE0190568115904208F055CF8D2F8F718E
:101D60000E94370D90E0982F882788279F718C2B31
:101D7000E8CFC55AD0E0C851DE4F888190E090642A
:101D80001ECF9E01E4E036952795EA95E1F7237092
:101D90008C2F86958695837030E2839FC001112435
:101DA000922BC37021E030E002C0220F331FCA958E
:101DB000E2F7822B932B9C6802CF9C2F8827816FA0
:101DC000906AFDCE9E012370332781E090E002C02F
:101DD000880F991F2A95E2F7C695C69530E2C39FF2
:101DE000E00111248C2B9D2B9A68E9CE9C2F88272B
:101DF000846F906AE4CE9C2F8827806F906ADFCE34
:101E00008C2F8F700E94370D34E0D695C7953A9588
:101E1000E1F7CF709C2F9069D2CE89E390E0CFCECE
:101E200082EE90E0CCCE86EE90E0C9CEBF92CF920B
:101E3000DF92EF92FF920F931F93CF93DF938C016A
:101E4000C0902B05D0902C05E0902D05F0902E052C
:101E500080910E0590910F05A0911005B09111058C
:101E6000C82AD92AEA2AFB2ACFE1D0E0BC2ED70122
:101E7000C6010C2E04C0B695A795979587950A9430
:101E8000D2F780FD0EC0219788F7B12C8B2DDF9102
:101E9000CF911F910F91FF90EF90DF90CF90BF9067
:101EA0000895B8018C2F0E947A0D019761F3EECF4F
:101EB000CF93DF93EC010E94160FBE01DF91CF910B
:101EC0000C947A0D0E94580F0C94EA079F92AF92DF
:101ED000BF92CF92DF92EF92FF920F931F93CF9317
:101EE000DF9320E9289FE001299FD00D1124CA55D6
:101EF000DE4F10E000E0FE0164913196749131965E
:101F00008491962F972B982BC1F420E040E060E05D
:101F1000C8010E94AF080F5F1F4F239600331105C1
:101F200051F7DF91CF911F910F91FF90EF90DF90CC
:101F3000CF90BF90AF909F9008950E941E0B962E59
:101F4000B72EA82E6091970570E090E080E00E9487
:101F5000932E20E030E04FE753E40E94F22D6B0116
:101F60007C016A2D70E090E080E00E94952EA70130
:101F700096010E94212F0E94642EA62E692D70E0EA
:101F800090E080E00E94952EA70196010E94212FEB
:101F90000E94642E962E6B2D70E090E080E00E94EF
:101FA000952EA70196010E94212F0E94642E2A2DB2
:101FB000492DAECF27982F98089526982E980895EA
:101FC00025982D98089556985E980895279A2F9AE7
:101FD0000895269A2E9A0895259A2D9A0895CF92BB
:101FE000DF92EF92FF92CF936B017C010E94D106AA
:101FF000C82F0E94E30F0E94E00F0E94DD0F0E9495
:10200000DA0FC150C73040F4EC2FF0E0E256F04D4B
:102010000C94AA2B0E94EC0FC701B601CF91FF9040
:10202000EF90DF90CF9008950E94EC0F0E94E90F8F
:10203000F3CF0E94EC0F0E94E60FEECF0E94EC0F50
:102040000E94E90FF8CF2098289821982998229883
:102050002A9823982B9852985A9853985B983E98B0
:10206000469808958098889A8198899A84988C9A3D
:1020700085988D9A86988E9A87988F9A0895CF938F
:1020800084E090E00E94472DC82F81E290E00E94FA
:10209000472D982F8C2FCF910895CF93DF9300D0A9
:1020A0000F92CDB7DEB790918305943019F58983EF
:1020B0007B836A8383E08093E9008FEF9091E8004F
:1020C000815095FD06C095ED9A95F1F700008111BC
:1020D000F5CF8091E80085FF0DC050E040E063E05F
:1020E00070E0CE0101960E94F5038091E8008E77A2
:1020F0008093E8000F900F900F90DF91CF9108959B
:10210000BC0184E00C944D10BC0183E00C944D1094
:102110009C0182E08093E9009FEF8091E80091505C
:1021200085FD06C085ED8A95F1F700009111F5CF88
:102130008091E80085FF0CC050E040E065E070E071
:10214000C9010E94F5038091E8008E778093E80032
:102150000895CF93DF93EC01809118018823B1F1AA
:1021600080912F0587FF32C060E283E08093E90011
:102170008FEF9091E800815095FD06C095ED9A95FE
:10218000F1F700008111F5CF8091E80085FF1BC0B9
:102190008091180170E050E040E0811104C050E0EF
:1021A00040E068E070E0CE010E94F5038091E80015
:1021B0008E778093E80080E2FE01A1E6B5E0019011
:1021C0000D928A95E1F7DF91CF91089568E081E063
:1021D000CDCFEF92FF920F931F93CF93DF930E9487
:1021E000E30F0E94E00F0E94DD0F0E94DA0F88E8E3
:1021F000E82EF12C8FEF90E0F701918380830AE8BD
:1022000010E0F80191838083CCE8D0E09983888343
:102210000E94EC0FFFEF20E782E0F1502040804069
:10222000E1F700C000000E94E90F9FEFE0E7F2E055
:102230009150E040F040E1F700C000000E94E60F3E
:102240002FEF80E792E0215080409040E1F700C0FE
:1022500000000E94E00FEFEFF0E722E0E150F040D5
:102260002040E1F700C000000E94DD0F8FEF90E7F3
:10227000E2E081509040E040E1F700C000000E94A1
:10228000DA0F809119058770FFEF8F9FC00111242D
:1022900095958795959587959927F70191838083E3
:1022A000F80191838083998388830E94E30F0E94C1
:1022B000E00F0E94DD0FDF91CF911F910F91FF90F2
:1022C000EF900C94DA0F6FEE7EEF90E080E00E94CA
:1022D000892D60E082E090E00E946B2D60E083E059
:1022E00090E00E946B2D10920E0510920F05109237
:1022F00010051092110560E084E090E00E946B2DC3
:1023000060E081E290E00E946B2D60E085E090E06B
:102310000E946B2D60E086E090E00E946B2D6FEFD5
:1023200087E090E00E946B2D40E050E0BA0188E029
:1023300090E00E947D2D60E08DE090E00E946B2D8A
:1023400040E050E0BA0188E190E00E947D2D60E01D
:1023500087E190E00E946B2D40E050E0BA018CE1F3
:1023600090E00E947D2D60E080E290E00E946B2D65
:1023700040E050E0BA0188E190E00E947D2D10928B
:10238000190510921A0510921B0510921C0584E085
:102390008061809319054091190550911A0560914B
:1023A0001B0570911C058FE090E00E947D2D40E0A0
:1023B00050E0BA0183E190E00C947D2D0F931F93C0
:1023C000CF93DF93082F000FEB0114E21093370334
:1023D000E8E3F3E0DE018D91819383E0E834F807D0
:1023E000D1F724E630E041E150E067E373E0802F6D
:1023F0000E94572B105F6096143B41F7DF91CF91FD
:102400001F910F91089580914B03882329F06DE46B
:1024100073E084E70E94DE1110924B0380914C031D
:10242000882329F06DED73E087E70E94DE1110929A
:102430004C030895E7E3F3E06083418324E630E052
:1024400042E050E0BF01880F0C94572BEF92FF92AF
:102450000F931F93CF93DF93E82E062F10E00F56B4
:102460001B4FF8018081882381F0F2E16F9FE0012A
:102470001124C359DB4FF12C49916F2D8E2D0E94F1
:102480001A12F39482E1F812F7CFF8011082DF916B
:10249000CF911F910F91FF90EF900895CF93DF930D
:1024A000C82F4BE06DEF0E941A1240E06AE08C2FBB
:1024B0000E941A128FE39CE90197F1F700C0000017
:1024C00040E060E08C2F0E941A1240E061E08C2F07
:1024D0000E941A1240E066E08C2F0E941A1240E01F
:1024E0006DEF8C2F0E941A12D0E040E06D2F8C2FE0
:1024F0000E941A12DF5FD231C1F740E06D2F8C2F9E
:102500000E941A12DF5FD432C1F740E06D2F8C2F8A
:102510000E941A12DF5FD43BC1F74BE06DEF8C2FA6
:102520000E941A1241E06AE08C2F0E941A1240E0C9
:102530006DEF8C2FDF91CF910C941A126F927F92D6
:102540008F929F92AF92BF92CF92DF92EF92FF92C3
:102550000F931F93CF93DF930E94A22A84E70E94D8
:102560004E1287E70E944E1268E2E62E61E0F62ED8
:10257000D12CC12C72E1772EE8E08E2E912CAA246A
:10258000A394B12C66246394F701418150E0CA0101
:10259000849702810452110BC381C452DD0BF601F2
:1025A000EE0FFF1FEE0FFF1FE85DFE4F208123702F
:1025B00030E0FC0197FD379643E0F595E7954A95A5
:1025C000E1F7729EA001739E500D112443595B4F99
:1025D000E40FF52FF11DB4010E94962BA50101C057
:1025E000440F8A95EAF78081842B8083F80117FDD8
:1025F000379693E0F595E7959A95E1F7729EC001BD
:10260000739E900D112483599B4FE80FF92FF11DF4
:10261000C801B4010E94962BA50101C0440F8A9500
:10262000EAF78081842B8083FE01D7FD379683E013
:10263000F595E7958A95E1F7729EC001739E900D1E
:10264000112483599B4FE80FF92FF11DCE01B401DE
:102650000E94962BA50101C0440F8A95EAF780815C
:10266000842B80832F563B4FF9016082FFEFCF1AF6
:10267000DF0A84E0E80EF11CE0E3CE16D10409F095
:1026800083CF60E084E70E94261261E087E7DF9154
:10269000CF911F910F91FF90EF90DF90CF90BF905F
:1026A000AF909F908F907F906F900C9426121F9305
:1026B000CF93DF93EC01FC01E452FD4F808168234E
:1026C000A1F00E94FC2B182F0E94FC2B612F782F69
:1026D000809197050E941E0B462F282F672FCE0151
:1026E000DF91CF911F910C94AF08DF91CF911F9193
:1026F0000895DF92EF92FF920F931F93CF93DF9392
:102700008C01FC01E452FD4F8081682381F1D0905F
:102710009605D0919705C0919505EC2EF12C0E945D
:10272000FC2B282FC7018C549F4F68E671E00E9454
:10273000962B8E199F0997FD0396959587959595EC
:10274000879523706C2F289F600D11247D2D8D2F70
:102750000E941E0B462F282F672FC801DF91CF91B3
:102760001F910F91FF90EF90DF900C94AF08DF91D5
:10277000CF911F910F91FF90EF90DF90089545E06A
:1027800050E06CE170E084E995E00C945B2D909151
:102790009405937089F0811107C09460909394051B
:1027A00010921C010C94BF13893110F09066F6CF83
:1027B000880F880F982BF2CF089580919405869505
:1027C0008695815009F488E10C94C7138091940593
:1027D000869586958F5F893108F081E00C94C71348
:1027E00090919405937041F08093950560939605C0
:1027F000409397050C94BF130895E4E9F5E04381F5
:1028000020E1421B08F440E08181628190E00C9459
:10281000F013E4E9F5E0438120E1420F08F44FEFC3
:102820008181628190E00C94F013E4E9F5E062812B
:1028300020E1621B08F460E08181438190E00C9408
:10284000F013E4E9F5E0628120E1620F08F46FEF34
:102850008181438190E00C94F013E4E9F5E08181FB
:10286000438162818850990B0C94F013E4E9F5E000
:10287000818190E04381628108960C94F013E4E931
:10288000F5E0248130E1230F08F42FEF24830C942A
:10289000BF13E4E9F5E0248130E1231B08F420E0D4
:1028A00024830C94BF13E4E9F5E085E380838091F1
:1028B0001D0190911E01A0911F0181839283A3832A
:1028C0008CE384830C94BF130E949E1290E080E0FE
:1028D0000E94552D8F3E9E4F21F00E9463110E9451
:1028E000531445E050E06CE170E084E995E00E940B
:1028F000372D809194058C7F11F40C945314089516
:1029000080E290E090930D0180930C0180912C0364
:1029100081110EC00E94A22A81E080932C032FEF28
:1029200083ED90E3215080409040E1F700C000002B
:1029300064E670E080E40E94A82A90930D018093E1
:102940000C01892B09F04EC064E670E080E00E9423
:10295000042B90930D0180930C01892B09F042C048
:1029600064E670E080E00E94042B90930D01809358
:102970000C01892BB9F564E670E08FE30E94042B0B
:1029800090930D0180930C01892B61F50E947E2BA1
:1029900064E670E080E40E94A82A90930D01809381
:1029A0000C01892BF9F464E670E08CE00E94042BA2
:1029B00090930D0180930C01892BA1F464E670E0E3
:1029C00080E00E94042B90930D0180930C01892BD1
:1029D00049F464E670E08FE30E94042B90930D01AC
:1029E00080930C010E947E2B80910C010895CF935F
:1029F000C82F873070F580910C0190910D01892BC3
:102A000089F564E670E080E40E94A82A90930D01A5
:102A100080930C01892BD1F464E670E082E10E947E
:102A2000042B90930D0180930C01892B79F481E0A4
:102A300090E001C0880FCA95EAF764E670E08095DF
:102A40000E94042B90930D0180930C01CF910C9464
:102A50007E2B8A30B9F040F4883071F0893079F0FB
:102A6000209A2898CF9108958C3091F070F08D3095
:102A7000B9F73E9A4698F6CF219A2998F3CF229A31
:102A80002A98F0CF239A2B98EDCF529A5A98EACFF2
:102A9000539A5B98E7CFCF93873050F580910C0124
:102AA00090910D01C0E0892B71F464E670E081E43F
:102AB0000E94A82A90930D0180930C01892B31F07C
:102AC000C0E00E947E2B8C2FCF91089584E690E089
:102AD0000E94332B97FF05C090930D0180930C014A
:102AE000EFCFC82FC09510920D0110920C01E9CFC5
:102AF000CFB18FB1869586958C73C3708C2BC82F00
:102B0000C095E1CF1F920F920FB60F9211242F9311
:102B10003F934F935F936F937F938F939F93AF9365
:102B2000BF93EF93FF938091E10082FF09C08091F2
:102B3000E20082FF05C08091E1008B7F8093E1007D
:102B40008091DA0080FF24C08091D80080FF20C0EF
:102B50008091DA008E7F8093DA008091D90080FF27
:102B60009BC080E189BD82E189BD09B400FEFDCF33
:102B700081E08093830580915E05811109C00E94E8
:102B8000A5030E9470048091E20084608093E200BB
:102B90008091E10080FF17C08091E20080FF13C0A8
:102BA0008091E2008E7F8093E2008091E20080615C
:102BB0008093E2008091D80080628093D80019BC95
:102BC00085E0809383058091E10084FF29C0809196
:102BD000E20084FF25C080E189BD82E189BD89B51D
:102BE000982F917080FFFBCF8091D8008F7D8093CC
:102BF000D8008091E1008F7E8093E1008091E20017
:102C00008F7E8093E2008091E20081608093E200F9
:102C100080918405882309F445C084E0809383056E
:102C20008091E10083FF27C08091E20083FF23C0F1
:102C30008091E100877F8093E10082E080938305AB
:102C4000109284058091E1008E7F8093E100809155
:102C5000E2008E7F8093E2008091E20080618093A9
:102C6000E20042E060E080E00E943E048091F000DB
:102C700088608093F000FF91EF91BF91AF919F9199
:102C80008F917F916F915F914F913F912F910F9015
:102C90000FBE0F901F90189519BC109283051092CB
:102CA0005E0576CF8091E30087FD93E090938305E6
:102CB000B7CF78941F921FB61F9211248F939F93C2
:102CC000AF93BF938091120590911305A0911405C5
:102CD000B09115050196A11DB11D80931205909329
:102CE0001305A0931405B0931505BF91AF919F9163
:102CF0008F911F901FBE1F9018952FB7F894809149
:102D0000120590911305A0911405B09115052FBFE0
:102D100008950E947D169C0190914A0580914B0573
:102D2000982B21F0309348052093470590914C054E
:102D300080914D05982B21F0309345052093440553
:102D4000E0913105F0913205309731F00480F58142
:102D5000E02D89E495E00994089510920B051092F6
:102D60000A050E94240785E0E9E4F5E0DF011D92F1
:102D70008A95E9F7109246051092430510921605C0
:102D80000E94891690E080E00E94340890E080E084
:102D90000C941E080E94EF0F60932B0570932C0576
:102DA00080932D0590932E050C94AD160F931F93D1
:102DB00041E050E060E070E004C0440F551F661F22
:102DC000771F8A95D2F7CB01BA01609570958095EF
:102DD000909500912B0510912C0520912D05309197
:102DE0002E0560237123822393231F910F910C944E
:102DF000CA16909109058095892380930905282F8B
:102E0000277071F4282F082E000C330B921713062D
:102E100039F08595859585950E94D61610920905FD
:102E200008950F931F9341E050E060E070E004C00C
:102E3000440F551F661F771F8A95D2F780912B0587
:102E400090912C05A0912D05B0912E058A019B0132
:102E5000082B192B2A2B3B2BC901B8011F910F916D
:102E60000C94CA1660930E0570930F05809310059D
:102E7000909311050C94AD1610920C0580911801D9
:102E8000EEE0F3E0882359F080912F0587FF07C01B
:102E90008EE1DF011D928A95E9F70C94AD1686E06C
:102EA000F8CF1F93CF93DF93CDB7DEB7AA970FB6B6
:102EB000F894DEBF0FBECDBF85E895E02091F1000C
:102EC000DC012D93CD01B5E08D389B07B9F78091DA
:102ED0008605833009F471C0B8F4813009F448C024
:102EE000823009F4B2C08091E80083FF83C28091F0
:102EF0008505909186059A3008F07CC2E92FF0E0B4
:102F0000EB55F04D0C94AA2B8A3009F48DC08B3010
:102F100009F470C0893039F780918505813219F73D
:102F20008091890590918A05009711F00297D9F652
:102F30008091E800877F8093E8008091E80082FF1D
:102F400037C09091F3008091F200029729F48091AC
:102F5000F1008B7F813021F48091F1008093600536
:102F60008091E8008B778093E8000E941F04BBCF1C
:102F700080918505813A09F0B6CF8091E800877F7E
:102F80008093E8008091890590918A05892B61F4EE
:102F900060E281E695E070E00E94D1048091E80053
:102FA0008B778093E8009FCF60E090E080E0F3CFE4
:102FB000809183058111C1CF96CF80918505813A9B
:102FC00009F091CF8091890590918A05892B09F0AC
:102FD0008ACF8091E800877F8093E8008091E800A5
:102FE00080FFFCCF809118018093F1008091E80070
:102FF0008E77B9CF80918505813209F074CF8091A9
:10300000890590918A05892B09F06DCF8091E800A0
:10301000877F8093E8000E941F048091870580933A
:1030200018010E943C175FCF80918505813209F01D
:103030005ACF8091E800877F8093E8000E941F04A8
:103040008091880580935F054ECF80918505813AF8
:1030500009F049CF8091E800877F8093E800809154
:10306000E80080FFFCCF80915F05BECF803899F0EB
:10307000823809F0BFC1809189058F70873008F0D0
:10308000B9C18093E9008091EB0085FB882780F926
:103090001092E90006C080918105909182059111FE
:1030A00082609091E800977F9093E8008093F10010
:1030B0001092F1008091E8008E7798C1882309F47E
:1030C00086C1823009F096C180918705811189C13E
:1030D000809189058F702FEF280F263008F08AC164
:1030E0008093E9002091EB0020FF7BC1933031F405
:1030F0008091EB0080628093EB0073C19091EB00B4
:1031000090619093EB0021E030E001C0220F8A959E
:10311000EAF72093EA001092EA008091EB008860C1
:10312000EACF811167C1109187051F778091E30075
:103130008078812B8093E3008091E800877F8093E3
:10314000E8000E941F048091E80080FFFCCF80917E
:10315000E30080688093E30082E0111183E08093B4
:10316000830548C18058823008F044C1209187050A
:10317000309188052C3DE3E03E07A1F583E08A838A
:103180008AE289834FB7F894DE01139620E03EE08F
:1031900051E2E32FF0E050935700E49120FF03C089
:1031A000E295EF703F5FEF708E2F90E0EA30C0F055
:1031B000C7968D939D932F5F243159F74FBF809110
:1031C000E800877F8093E8006AE270E0CE01019614
:1031D0000E94D1048091E8008B778093E8000AC1B7
:1031E000C096E7CF8091890590918A05432F552796
:1031F0004330510509F44AC078F54130510509F4CE
:103200007AC084E590E0EEE4F6E04230510509F042
:10321000F1C02091E800277F2093E80020918B05E2
:1032200030918C058217930708F49C0140E021152A
:10323000310509F065C0411163C08091E80082FD4D
:10324000C9CF80918305882329F2853019F28091B6
:10325000E80083FFF2CFBECF4132510509F43CC0F4
:103260004232510509F0C6C08330910508F0C2C052
:10327000FC01EE0FFF1FE45EFD4F0190F081E02D99
:10328000875E9D4FDC018C9190E01AC0332721307E
:103290003105D1F02115310561F02230310509F0F9
:1032A000A9C0E4EBF6E0E4918E2F90E0E4EBF6E0C9
:1032B00007C0E8E0F7E0E4918E2F90E0E8E0F7E067
:1032C000009709F497C0A5CFE6EDF6E0E4918E2FC4
:1032D00090E0E6EDF6E0F4CF8330910508F08AC087
:1032E000880F991FFC01EE5DFD4F0190F081E02DEC
:1032F00089E090E08ECF82E190E0E2EAF6E089CFCB
:1033000080918305882309F465CF853009F462CF65
:103310008091E80083FD5ECF8091E80082FD8DCF33
:103320008091E80080FF83CF9091F3008091F200BC
:103330002115310519F08830910550F041E00897CA
:1033400009F040E08091E8008E778093E8006FCF2D
:1033500044914093F1003196215031090196E8CF14
:10336000803809F047C08091E800877F8093E800AB
:10337000809184058093F1009DCE81113BC0109116
:1033800087051230B8F58091E800877F8093E800C8
:10339000109384050E941F04112311F084E005C0DE
:1033A0008091E30087FDFACF81E08093830542E0BE
:1033B00061EC81E00E943E0442E061EC82E00E9408
:1033C0003E0442E261EC83E00E943E0413C080911F
:1033D0008705813079F481E0933009F080E08093B3
:1033E00082051092E9008091E800877F8093E800D1
:1033F0000E941F048091E80083FF0AC08091E800CA
:10340000877F8093E8008091EB0080628093EB00DF
:10341000AA960FB6F894DEBF0FBECDBFDF91CF9155
:103420001F9108951F920F920FB60F9211242F93A0
:103430003F934F935F936F937F938F939F93AF933C
:10344000BF93CF93DF93EF93FF93D091E900DF70A9
:103450008091EC00C82FC17080FDC0E81092E90097
:103460008091F000877F8093F00078940E9451173C
:103470001092E9008091F00088608093F000CD2BDD
:10348000CF70C093E900FF91EF91DF91CF91BF9191
:10349000AF919F918F917F916F915F914F913F91EC
:1034A0002F910F900FBE0F901F9018958823B1F1A8
:1034B0009CEF980F913A38F4682F8CE093E00E94CB
:1034C00072060C94240790E2980F983088F4877065
:1034D00021E030E0A90102C0440F551F8A95E2F7B0
:1034E000CA01809590910C05892380930C05E9CF42
:1034F0009BE5980F933020F490E080E00C94340822
:1035000098E5980F973120F490E080E00C941E0825
:10351000803F20F00E9432050C9489160895CF93C5
:10352000C82F882309F46EC08CEF8C0F813AB8F550
:1035300080911801882311F180912F0587FF1EC00B
:10354000EC2FE695E695E695F0E0E45FFC4F82818E
:1035500090E04C2F477021E030E002C0220F331F73
:103560004A95E2F782239323892B89F06C2F8CE014
:1035700093E00E9472060E94240709C0EEE0F3E087
:103580008191C81799F383E0E431F807C9F76C2FEC
:103590008CE093E00E949C06CF910C94240780E27B
:1035A0008C0F883068F4C77021E030E001C0220F32
:1035B000CA95EAF780910C05822B80930C05ECCF1D
:1035C000EBE5EC0FE33040F4F0E0E851FE4F808192
:1035D00090E0CF910C943408E8E5EC0FE73150F41B
:1035E000F0E0EE0FFF1FE551FE4F80819181CF91FA
:1035F0000C941E08C03F30F08C2F0E94FB05CF9129
:103600000C948916CF910895CF93C82F0E948F1ADA
:10361000C93349F42FEF87EE93E02150804090406A
:10362000E1F700C000008C2FCF910C94561A0F9335
:103630001F93CF93DF93C62FD42F022FFC018281DB
:103640008823A1F060938F050E947D1690938E05CC
:1036500080938D05C77081E001C0880FCA95EAF795
:10366000DF91CF911F910F910C94140880918F05D9
:10367000681334C080918D0590918E050E94630679
:10368000C99760F510E21D0FCD17B9F080E28C0FDD
:10369000883040F4C77081E001C0880FCA95EAF70E
:1036A0000E940908183048F481E09D2F977001C0EE
:1036B000880F9A95EAF70E941408802F0E94041B35
:1036C000183098F4D77081E001C0880FDA95EAF7D6
:1036D000DF91CF911F910F910C940908C77081E081
:1036E00001C0880FCA95EAF7F3CFDF91CF911F9100
:1036F0000F9108954F925F926F927F928F929F9257
:10370000AF92BF92CF92DF92EF92FF920F931F93EF
:10371000CF93DF9300D000D00F92CDB7DEB77C01FE
:10372000FC0183819481892B39F01081D180812F14
:103730008D218F3F09F0C9C50F900F900F900F900A
:103740000F90DF91CF911F910F91FF90EF90DF903D
:10375000CF90BF90AF909F908F907F906F905F9031
:103760004F9008950E94160F082F682F89819A8123
:103770000E949207E12FF0E026E0D29EE00DF11DBD
:10378000112434E5039FE00DF11D1124EE0FFF1FFE
:10379000EA5AFB4F059114910A328DE5180709F496
:1037A0004DC00B329DE5190709F4D0C0033CECE590
:1037B0001E0709F0F3C0F70182818823E9F0909198
:1037C0001A01809119059F3F09F0E1C010921A017A
:1037D0008F7E8093190540E060E080E00E94AD0894
:1037E0004091190550911A0560911B0570911C05B7
:1037F0008FE090E00E947D2D80910905877009F48B
:103800009BCFF7018281882309F496CF82E00F9045
:103810000F900F900F900F90DF91CF911F910F910C
:10382000FF90EF90DF90CF90BF90AF909F908F90E0
:103830007F906F905F904F900C94F916F701828102
:103840008823C9F18091190591E0980F9770887FBE
:10385000953008F4892B809319058091190587709C
:10386000FFEF8F9FC00111249595879595958795BA
:103870009927909389008093880090938B00809380
:103880008A0090938D0080938C004091190550918F
:103890001A0560911B0570911C058FE090E00E9455
:1038A0007D2D60912B0570912C0580912D059091B7
:1038B0002E050E94EF0FF7019281992309F416C596
:1038C00010928F050230FCE51F0708F488C106310D
:1038D0002CE5120738F098012B5F3C452730310565
:1038E00008F07DC10E943F109093300580932F0512
:1038F0000F303CE5130709F453C108F0CDC0083080
:103900009CE5190709F436C108F0A2C00430FCE5B3
:103910001F0709F423C108F088C002303CE51307F3
:1039200009F414C103301C4509F414C160912F053A
:103930001091300584E090E00E946B2D612F81E2B0
:1039400090E00E946B2D0E943C1756CFF7018281B8
:10395000882309F4B0CF90911905892F877F93FFB1
:1039600088608093190583FF05C040E060E080E037
:103970000E94AD084091190550911A0560911B05F0
:1039800070911C058FE090E00E947D2D94CF9FEFF9
:1039900090931A0180618093190522CF0C32FDE5C6
:1039A0001F0749F4F7018281882309F425CF81E0BC
:1039B0000E94C71321CF043FFCE51F0739F1A0F493
:1039C000093D3CE51307F1F00A3D8CE5180751F17C
:1039D000083D9CE5190709F06ECF26E241EE61EE45
:1039E000C7010E94171B08CF063FECE51E07B1F088
:1039F00088F0073F2CE5120709F05DCF27E245EE7E
:103A000066EEEECF27E245EE65EEEACF26E241EE26
:103A100060EEE6CF27E245EE64EEE2CF26E241EE2D
:103A200062EEDECF28E241E0EFCF80912F0580618A
:103A300006309CE5190709F447C080912F0588607E
:103A400007301C4508F440C080912F0580623CC0BF
:103A50000B30FCE51F0709F49BC068F409303CE516
:103A6000130709F48BC00A301C4509F05FCF809121
:103A70002F058C6029C080912F058B7F0D309CE530
:103A8000190711F180912F058D7F0E301C45E0F054
:103A900080912F05877F18C00B3FFCE51F0709F4B5
:103AA00061C060F502313CE5130709F481C078F488
:103AB00000319CE5190709F477C080912F058F7BB1
:103AC00001311C4509F032CF80932F052FCF0431EF
:103AD000FCE51F0709F47AC008F470C005311C45E5
:103AE00009F024CF80912F0582FB992790F921E0DE
:103AF000922790FB82F990FB83F9E6CF0E3F8CE58D
:103B0000180709F449C070F40C3FECE51E0771F189
:103B1000809130058E7F0D3F1C4509F007CF8093C3
:103B2000300504CF01152DE5120709F44BC060F1F3
:103B300001301D4509F0FACE80913005982F9095FF
:103B400091708E7F892B90FB81F9E9CF80912F05B1
:103B50008160BACF80912F058260B6CF80912F050A
:103B60008460B2CF809130058160D9CF80913005DB
:103B70008260D5CF80912F058064A6CF0E943C172C
:103B800080912F058068A0CF809130058360C7CFDA
:103B900080912F058E7F98CF809130058D7FBFCF8C
:103BA00080912F058F7E90CF80912F058F7D8CCFB8
:103BB0000E943C1780912F058F7786CF80912F052B
:103BC000837F82CF809130058C7FA9CF0E943C17E4
:103BD00090912F05892F97FB87F9805875CF809199
:103BE0000C050631ECE51E0709F08EC38A7A91E0D8
:103BF00009F490E09093970469E2811165E38CE009
:103C000093E00E949C060E942407F6CD80919405C3
:103C100091E089278093940510921C010E94BF13A4
:103C2000EBCD4DED53E166EE73E10E945608E4CD15
:103C300046EE53E16DED73E1F8CF4DE254E166E3FA
:103C400074E1F3CF46E354E16DE274E1EECF45E178
:103C500054E161E274E1E9CF41E254E165E174E1EC
:103C6000E4CF4DEF53E169E074E1DFCF49E054E187
:103C70006DEF73E1DACF49E454E16FE374E1D5CF3E
:103C80004FE354E169E474E1D0CF85E091CE8DE05B
:103C90008FCE82E18DCE0115FCE51F0709F448C0E7
:103CA0000F3D1C4509F481C0F70100811181992362
:103CB00009F47EC0C8010E94160FD82E682FC801D3
:103CC0000E949207B8018D2D0E947A0D182F092F9E
:103CD000882EF701C580C2946FE0C622D280D11031
:103CE00010920B0580910905877099F0DD2089F00D
:103CF000802F807F803421F080E2810F883048F06F
:103D000082E00E94F916809109058770BB24B39464
:103D10008111B12CA02EA2945FE0A522FBE0FA1540
:103D200008F482C0EA2DF0E0E155F04D0C94AA2B86
:103D30000E943C173FEF84E39CE03150804090406C
:103D4000E1F700C00000F89481E08093E00080E299
:103D50008093D8001092C900EFE1FEE43197F1F7AB
:103D600000C000001DBA109268001CBC10BE1FBA33
:103D700010927A0010926E0010926F0010927100F3
:103D8000109272001092C9001092BC0014B817B8BB
:103D90001AB81DB810BA1092BC0015B818B81BB8E4
:103DA0001EB811BA0C94003F27CD0E94631124CD98
:103DB000C8010E946907D82E85CF202F2F70922E20
:103DC000802F807F19F0929440EF9422DD20C9F07B
:103DD000992069F080E2810F883010F081100BC0CB
:103DE00080910C05982A90920C050E942407812F3F
:103DF0000E948F1A19C080910B05982A90920B058A
:103E0000F4CF812F0E94561A992071F0909480E28D
:103E1000810F883010F0811050C080910C059822DD
:103E200090920C050E9424072A2D2850330B243031
:103E3000310510F40E944A08812F902F0E94EA0752
:103E4000811131C21092990410929804BB20A9F0FC
:103E50008091090580FD11C0F70112828595859535
:103E600085950E941117C7010E947A1B8091090550
:103E70008595859585950E94D61685E0F701DE012A
:103E8000119601900D928A95E1F789819A810E949D
:103E900069079A81E981F0E026E0929FE00DF11D2B
:103EA000112434E5839FE00DF11D1124EE0FFF1F57
:103EB000EA5AFB4F859194913FCC80910B05982253
:103EC00090920B05AFCF302F3F70932E802F807FC5
:103ED000803219F0929430EF9322882041F081E0F3
:103EE000881631F1DD2081F1CC2049F180CFDD2031
:103EF00091F090910D05892D892BC11003C00E946E
:103F0000140892CFE1E0CE12FACF891709F48CCFD2
:103F100080930D0589CFC11006C00E941E07892D10
:103F20000E94090881CFF1E0CF1609F47DCFF5CFCB
:103F3000DD2039F0662463946C1408F475CF892D64
:103F4000DECFC11071CFEBCFCC2049F329E3722E25
:103F5000871009C02FEF37EE83E0215030408040BA
:103F6000E1F700C00000812F0E94561A5DCF802F1C
:103F700086958695837069F0813009F055CF812F41
:103F8000902F9370D11002C090E080E00E941E0834
:103F90004BCF812F902F9370D11002C090E080E022
:103FA0000E94340841CF812FDD2029F00E94FB05BB
:103FB0000E94891639CF0E943205FACF802F837074
:103FC00009F067C0D11030CF212F22952695277098
:103FD000220F220F412F4F7050E070E060E0022E60
:103FE00004C0440F551F661F771F0A94D2F780E064
:103FF00090E0DC0114FF0FC08FE090E0A0E0B0E0A3
:1040000004C0880F991FAA1FBB1F2A95D2F780955D
:104010009095A095B095202F269526952370223057
:1040200029F1D8F440900E0550900F0560901005CE
:1040300070901105213069F0842B952BA62BB72B9E
:10404000BC01CD0164217521862197210E94321780
:10405000EBCE44295529662977293A014B01682A74
:10406000792A8A2A9B2AC401B301F0CF842B952B8D
:10407000A62BB72B40900E0550900F0560901005B1
:1040800070901105BC01CD01642575258625972505
:10409000DDCF8695DD2011F0802F8170882309F413
:1040A000C3CE212F229526952770220F220F412F54
:1040B0004F7050E070E060E0022E04C0440F551FC6
:1040C000661F771F0A94D2F780E090E0DC0114FFAE
:1040D0000FC08FE090E0A0E0B0E004C0880F991F0F
:1040E000AA1FBB1F2A95D2F780959095A095B095F1
:1040F000202F269526952370223029F1D8F4409060
:104100002B0550902C0560902D0570902E052130C8
:1041100069F0842B952BA62BB72BBC01CD01642114
:104120007521862197210E94CA167ECE44295529E1
:10413000662977293A014B01682A792A8A2A9B2A1B
:10414000C401B301F0CF842B952BA62BB72B409045
:104150002B0550902C0560902D0570902E05BC010C
:10416000CD016425752586259725DDCF202F2F705D
:10417000922EDD2029F0822F0E941117812FBFCEB1
:10418000812F0E940908892D0E94D6164DCE812FBD
:1041900032EF831609F453C0381578F090EF891682
:1041A00031F1E1EF8E1609F442C0DD2009F46BC055
:1041B000C1101DCE802F8F713FC0F3EF8F1609F411
:1041C00043C094EF692E8610F0CFDD2009F450C073
:1041D000202F2F71922E822F0E94111738E0939E6C
:1041E000C0011124836080930905892D25C0DD203D
:1041F000C1F0C11019CE202F2F7161E070E080E076
:1042000090E004C0660F771F881F991F2A95D2F788
:1042100040902B0550902C0560902D0570902E0538
:10422000A0CF772473947C1408F4FECDE4CF802FC4
:104230008F71DD2009F4A8CF0E941117F5CD802FD2
:104240008F71DD20C9F3A0CF60E070E0CB01DD20ED
:1042500009F469CF202F2F7161E070E080E090E0D9
:1042600004C0660F771F881F991F2A95D2F75BCF6E
:1042700081E00E94F91681E08C1508F0D5CD82E02E
:104280000E94F916D1CDCC2059F0893309F06BCEBC
:104290009FEFE7EEF3E09150E040F040E1F761CEB0
:1042A000802F8F7171CFDD2019F0C110CBCDCECD15
:1042B000C110C8CD8091980490919904029709F09B
:1042C000C1CD812F0E94041BBDCD85E0DE0111967A
:1042D00001900D928A95E1F7F701228189819A81F7
:1042E000211140CA0E946907082F44CA06311C45A3
:1042F00009F0DACC8091970469E2811165E38CE0E2
:1043000093E00E9472067FCC8272F801E35CFC4568
:10431000E431F10508F0BFCCE554F04D0C94AA2B24
:104320001F93CF93DF9380919F04807FA9F48091A6
:104330009C04882389F08091D104D091A0046091DD
:104340009A0470919B04A0919D04B0919E04C62F85
:10435000C72316E0D81304C0DF91CF911F910895B1
:1043600090E0109711F0CF3F19F401968770F2CFCB
:10437000189F9001199F300D1124F901EF55FB4F43
:1043800041814713F2CF40814613EFCF4281411163
:10439000ECCF438154814A1B5B0B4933510528F70D
:1043A00080919F048F70806180939F04F901EA558A
:1043B000FB4F80818F70806180838AE994E00E9446
:1043C0007A1BDF91CF911F910C94E0078F929F92FF
:1043D000AF92BF92CF92DF92EF92FF920F931F9313
:1043E000CF93DF93CDB7DEB761970FB6F894DEBFFA
:1043F0000FBECDBF8C0185E0F801DE011D96019056
:104400000D928A95E1F7D801EC901196DC90119706
:104410001296CC9012978AE9882E84E0982E4091CB
:104420009D0450919E044115510509F441C190919C
:104430009A0420919B04892F82238F3F09F438C16D
:104440001396AD90BC901497F0909C04F501E41B7A
:10445000F50BFF2009F4FEC080919F04382F307FB8
:10446000F99708F0C8C0311185C0FC2C2D1124C06B
:104470009E1122C0C11020C08F70806180939F0464
:10448000C4010E947A1B80919F04D80115968C93D9
:104490008F2D61960FB6F894DEBF0FBECDBFDF91B2
:1044A000CF911F910F91FF90EF90DF90CF90BF9031
:1044B000AF909F908F900895A114B10429F08E2D94
:1044C0008D218F3F09F015C180E080FF14C04C2D75
:1044D0006D2D8E2D0E94C007882369F08AE994E033
:1044E0000E947A1B86E0EAE9F4E0DF011D928A95DA
:1044F000E9F7F12CCDCFAB2829F08E2D8D218F3F00
:1045000009F0F4C080E0B82FB170AB2E80FF29C055
:104510004C2D6D2D8E2D0E94C007B82E811121C00B
:10452000ED86DE868D859E850E94580F292F229567
:104530002F70223050F0243078F49F7051F0F80141
:104540009581907F31F4FB2CA3CF9F7011F08823CD
:10455000D1F3805E8830B8F3C8010E947A1BBA2C70
:10456000F2CFCC2009F494CF80919F048160809396
:104570009F04BFCF2D1112C09E1110C0C1100EC0DC
:1045800015968C93C8010E947A1B86E0F801AAE96F
:10459000B4E001900D928A95E1F77ACFED86DE8640
:1045A0008D859E850E94620F882309F1CC20F9F049
:1045B00080919F04803270F020919A0430919B0486
:1045C00038872F831986BB86AA868C87CE010796EB
:1045D0000E947A1B86E0F801AAE9B4E001900D92EE
:1045E0008A95E1F70E949021FF24F39451CFC801EE
:1045F0000E947A1BF9CF332309F470CF2D110FC01D
:104600009E110DC0C1100BC0F8018583C8010E9426
:104610007A1B86E0D4011D928A95E9F739CFED86A1
:10462000DE868D859E850E94620F882301F3CC2053
:10463000F1F280919F04803268F220919A043091C7
:104640009B043A8329831B82BD82AC828E83CE0178
:104650000196BECFF997E8F6FC2CCC2041F22D1143
:1046600016C09E1114C080919F0480FD8ECF982F9C
:10467000907F09F48ACFF8018583903F09F482CFB7
:10468000982F907F905F8F70892B85837BCFED86ED
:10469000DE868D859E850E94620F81119BCF809161
:1046A0009F04816080939F04C8010E947A1BF0CE12
:1046B000CC2009F49CCFED86DE868D859E850E94F8
:1046C000620FF82E882309F492CF86E0F801AAE958
:1046D000B4E001900D928A95E1F780919A0490914F
:1046E0009B040E94580F0E949021D2CE81E08C251D
:1046F0000ACF81E08C25E9CE1F93CF93DF93CDB70E
:10470000DEB767970FB6F894DEBF0FBECDBF4B8BF9
:104710005C8B6D8B7E8B8F8B8E899F89892B29F08B
:10472000852F84238F3F09F07CC01A8A198A85E07F
:10473000FE017396DE011D9601900D928A95E1F7B8
:1047400086E0FE013D96DE01179601900D928A9556
:10475000E1F7CE0107960E94E621811112C086E0A2
:10476000FE013796DE01119601900D928A95E1F7D0
:104770008A859B85892B29F08F81988589238F3F96
:10478000B1F516E08091D1049091A00489131DC069
:1047900067960FB6F894DEBF0FBECDBFDF91CF9105
:1047A0001F91089596E0929FD001939FB00D112420
:1047B000AF55BB4FFE01319601900D929A95E1F7EE
:1047C0008093A0040E94E007DCCF819FC0011124E8
:1047D0008F559B4F0E94E6218823D1F28091D1040E
:1047E00090E00196877099278093D104CBCF2091D8
:1047F000A00430E0C9010196877099274091D10447
:104800004817190679F60E943C171092A0041092DE
:10481000D10486E0EAE9F4E0DF011D928A95E9F728
:10482000B0CF809198049091990401969093990447
:10483000809398047ACF8F929F92AF92BF92CF923B
:10484000DF92EF92FF920F931F93CF93DF938091AC
:104850000C0190910D01892BA1F080912D038F5FA8
:1048600080932D0381110DC00E94801490E09093DD
:104870000D0180930C01892B21F40E94E9100E9404
:104880006414EDE18E2EE5E09E2E740100E010E050
:1048900077E0C72EC10E812F0E94F7148C2D0E9445
:1048A000F714812F0E944B15E70199917E01D12CBD
:1048B000891729F0FE0131978083DD24D3948C2D54
:1048C0000E944B15F7019681891709F47CC08683F5
:1048D00081E08D29082B0E9423101F5F1730C1F63D
:1048E0000E947D1660912F037091300390933003E6
:1048F00080932F0320912E0330E0261B370B820F6D
:10490000931F6BEF70E00E94822BE82E392F182F37
:1049100080932E03F0903203FF2009F400C310921D
:104920003203E0911705F0911805AF01425F5F4F28
:1049300020E06BEFB62E6BEF70E0A191AB3FA1F0E2
:10494000CA2ED12C8E2D932F1A1708F43EC08C1925
:104950009D09092E000CAA0BBB0B4E97A105B105B2
:10496000D0F1DF011197BC92E417F50731F72093DE
:104970003203011102C02111D4C210923103A0915F
:104980001705B091180590913203E5E3F5E043E493
:1049900055E080E03191E40129914E01321751F048
:1049A0003C913B3FD1F41C93BF0161507109EB0175
:1049B000288391E011964E175F0761F790933203B9
:1049C00080933103B2C280E084CFDB01AC19BD0912
:1049D0008A0F9B1FBECF2F2DC7CF81E0EBCF109248
:1049E000190140939005509391056093920570933F
:1049F000930581E080931C01C6C280910B01C1E048
:104A000018130BC020919405237080910A0190E047
:104A1000C1E02817190609F4C0E0C170C0931B015A
:104A2000193140F4E12FF0E0E153F04D0C94AA2B42
:104A3000C11102C0C0E027C040E060E080E00E94F9
:104A4000AD08F8CF80911901C82FCC0FCC0FC80F3B
:104A500045E0F42EFC0EEF2CD0E3DF1510F430E32C
:104A6000E32E6091950570919605809197050E94BF
:104A70001E0BD62EC72EB82ED0E0CE15B0F1C1E059
:104A8000FFE2FF15B8F2809119018F5F8093190141
:104A9000C11110C282E080931C0180911B01811121
:104AA00009C2112309F41BC28091340581116BC224
:104AB0008091190583FD67C260912B0570912C05CB
:104AC00080912D0590912E050E94D106813009F428
:104AD000F5C1823009F4F7C180911A01811153C2E6
:104AE00040E060E00E94AD084EC2FE01E452FD4F7E
:104AF000808190911A01892331F02B2D4D2D6C2D41
:104B0000CE010E94AF082196B8CF80911901C82F1D
:104B1000CC0FCC0FC80F25E0F22EFC0EEF2C20E3BB
:104B20002F1510F490E3E92EC0909605D0909705CC
:104B3000D09195056D2F7C2D8D2D0E941E0BB62ECC
:104B4000A72E982E609198056D0F7C2D8D2D0E94BB
:104B50001E0BD62EC72E882ED0E0CE1530F0C1E029
:104B60008FE28F1508F08FCF65CFFE01E452FD4F25
:104B7000908180911A01892359F0282D4D2D6C2D9B
:104B800090FD03C0292D4B2D6A2DCE010E94AF0848
:104B90002196E3CF80911901C82FCC0FCC0FC80FFD
:104BA00085E0F82EFC0EDF2C90E39F1510F4D0E387
:104BB000DD2EC0909605B090970520919805B0E441
:104BC000EB2E3E2D329F312D1124E32ED0E0CD155A
:104BD00030F0C1E09FE29F1508F055CF2BCFFE01CA
:104BE000E452FD4F808190911A018923B9F0FE01B2
:104BF000EE0FFF1FE358FD4F808182958F7060910B
:104C000095058E9D600D11247C2D8B2D0E941E0B11
:104C1000462F282F672FCE010E94AF082196D7CFAD
:104C200080911901C82FCC0FCC0FC80FE5E0FE2EE4
:104C3000FC0EDF2CD0E3DF1510F470E3D72EC0900C
:104C40009605B09097052091980560E4E62E3E2DDC
:104C5000329F312D1124E32ED0E0CD1508F0B9CFCD
:104C6000FE01E452FD4F808190911A018923D9F011
:104C7000FE01EE0FFF1FE458FD4F6081E69EB0017C
:104C8000112455E0759567955A95E1F78091950542
:104C9000680F7C2D8B2D0E941E0B462F282F672F0F
:104CA000CE010E94AF082196D8CF80911901C82F5C
:104CB000CC0FCC0FC80F35E0F32EFC0EEF2CD0E359
:104CC000DF1510F420E3E22ED0909505D0919605E3
:104CD000C090970560919805669566956695809158
:104CE0009005909191050E94140B0E949D0A805896
:104CF00087FD8195880F282F3C2D239F212D11247E
:104D0000822F6D2D7D2F0E941E0BD62EC72EB82E02
:104D1000D0E0CE1508F05DCFFE01E452FD4F80815A
:104D200090911A01892331F02B2D4D2D6C2DCE0140
:104D30000E94AF082196EDCF88EA99E00E94ED0C21
:104D4000C82FA1CE8EE799E0F9CF8FE79AE00E94B5
:104D5000910CF6CF80E69AE0FACF85E49AE00E94C3
:104D6000140CEECF89E29AE0FACF8CE799E0E6CF17
:104D700083E799E0E3CF8AE699E0E0CF81E599E027
:104D8000DDCF83E499E0EBCF8CEE9AE0E0CF88E1D1
:104D90009AE0DDCF84E09AE0E2CF86E199E00E94DC
:104DA000B20BCECF88EE98E0FACF81EB98E0F7CF48
:104DB000C1111EC06091980520E1620F08F46FEFE9
:104DC00080919005909191050E94140B6AE070E02B
:104DD0000E94822B892B09F02DCE0E94FC2B60E3D0
:104DE00070E00E94962B60911A010E9479134BCEBD
:104DF00080911901C82FCC0FCC0FC80F95E0D92E88
:104E0000DC0E8D2DD0E3DD1508F480E3D0E0E82E34
:104E1000F12CCE15DF0534F0C1E0EFE2ED1508F01E
:104E200032CE08CE60911A01CE010E9479132196EC
:104E3000F0CFC1111EC06091980520E1620F08F407
:104E40006FEF80919005909191050E94140B65E0A1
:104E500070E00E94822B892B09F0ECCD0E94FC2B84
:104E600060E370E00E94962B60911A010E94571334
:104E70000ACE80911901C82FCC0FCC0FC80F85E046
:104E8000D82EDC0E8D2DF0E3FD1508F480E3D0E084
:104E9000E82EF12CCE15DF0534F0C1E02FE22D1500
:104EA00008F0F1CDC7CD60911A01CE010E945713D1
:104EB0002196F0CF112309F466C0F6CD81E090E091
:104EC0000E94660F60C082E090E0FACF10930B0161
:104ED00080919405837080930A010E94031283E0FD
:104EE00089CD409190055091910560919205709106
:104EF00093052FB7F8948091120590911305A09116
:104F00001405B09115052FBF841B950BA60BB70B8D
:104F10004A97A105B105B8F110921C0134C00111E6
:104F20002CCD80913103811128CD8FB7F894409119
:104F300012055091130560911405709115058FBFEE
:104F400040933303509334036093350370933603D7
:104F50008091340510E0811108C080919405182FCC
:104F6000137019F0182F1695169580911C01813039
:104F700009F443CD882309F432CD823009F4A6CF59
:104F8000833009F4AECF802FDF91CF911F910F9125
:104F9000FF90EF90DF90CF90BF90AF909F908F9059
:104FA0000895CDB7DEB72F970FB6F894DEBF0FBECA
:104FB000CDBF84B7877F84BF0FB6F894A895809142
:104FC0006000886180936000109260000FBE80E8EE
:104FD00090E00FB6F89480936100909361000FBE4B
:104FE00085B7806885BF85B7806885BF0E94A503A7
:104FF0000E9470048091E20084608093E2007894C3
:10500000809183058823A1F01091E9001F70909191
:10501000EC00892F817090FD80E8182B1092E90038
:105020008091E80083FD0E9451171F701093E900E2
:1050300082E084BD93E095BD9AEF97BD80936E00AA
:105040000E94801490E090930D0180930C010E94C7
:1050500023100E943210EDE1F5E08BE295E0A5E32C
:10506000B5E011921D928E179F07D9F78EE090E060
:105070000E940C2C8093170590931805FC010E9646
:105080002BEF21938E179F07E1F790E080E00E94BD
:10509000552D8F3E9E4F11F00E9463110E946414A3
:1050A00089EA8093800089E08093810024982C987D
:1050B0003F988AB18F7C8AB96E98479A8BB180638A
:1050C0008BB9769A8FE090E00E944F2D609319057E
:1050D00070931A0580931B0590931C0567708FEFE2
:1050E000869FB0011124759567957595679577270B
:1050F000709389006093880070938B0060938A009E
:1051000070938D0060938C009091190594FF5DC1A0
:1051100080931A010E94E91090E080E00E94552DD2
:105120008F3E9E4F11F00E94631182E090E00E943A
:10513000472D80934F050E943F1090933005809338
:105140002F0583E090E00E94472D682F70E090E0EB
:1051500080E00E94321760912B0570912C058091A0
:105160002D0590912E050E94EF0F0E94A0080E942D
:10517000A0080E94BF138EE091E0909332058093C7
:10518000310598E1E92EF12C23E4C22E25E0D22E40
:1051900085E395E03EE0A32EA80EBB24B394809156
:1051A0008305853079F480E4982E00E112E1809146
:1051B0008305853009F40CC10E943C170E944A08FF
:1051C000109234050E941B24E0E5F5E0A5E3B5E06C
:1051D00010E000E0302F8D912191281709F449C18A
:1051E00090E0992493942827422F492109F43CC147
:1051F0009E833F83892191E009F490E098870E9483
:105200007D168160782F9A8789874E815F816885B6
:105210008A850E947C23F801E05BFA4F8081982602
:10522000908285E0E9E4F5E0DE01119601900D92AF
:105230008A95E1F790904A0580904B0510914C05B6
:1052400000914D0510924A0510924B0510924C05A5
:1052500010924D05892D882909F448C08091470591
:10526000909148050E9463069C0190914605992300
:1052700009F43DC12F303105C8F19F3F19F09F5F00
:1052800090934605992059F00E94D7059FEF191475
:105290000CF491E0899F802D112480934A05882089
:1052A00059F00E94D7059FEF18140CF491E0899FE4
:1052B000802D112480934B0530914A053323B1F0A2
:1052C00020914B05222391F045EB3403C0011124BA
:1052D000992309F4E5C090934A0545EB2403900116
:1052E0001124332309F4DFC030934B05812F802B29
:1052F00009F448C080914405909145050E946306D9
:105300009C0190914305992309F4ECC02F3031059D
:10531000C8F19F3F19F09F5F90934305112359F007
:105320000E94B5059FEF11160CF491E0899F802D26
:10533000112480934C05002359F00E94B5059FEF7E
:1053400010160CF491E0899F802D112480934D0557
:1053500030914C053323B1F020914D05222391F07B
:1053600045EB3403C0011124992309F49FC09093A5
:105370004C0545EB240390011124332309F499C013
:1053800030934D0580914A0590914B05892B909162
:105390004C05892B90914D05892B11F00E9489169F
:1053A00085E0FE013196A9E4B5E001900D928A9561
:1053B000E1F70E944A0890914E05891709F4EFCE53
:1053C0000E944A0880934E05E8CE10921A01A2CEA0
:1053D00040E060E080E00E94AD08B092340580912A
:1053E0008305843009F1109233050FB6F894A8951F
:1053F000E09260000FBE9092600083B7817F84606E
:1054000083BF83B7816083BF7894889583B78E7F8D
:1054100083BF0FB6F894A89580916000886180934F
:105420006000109260000FBE80918205882309F40D
:10543000BECE0E94801490E090930D0180930C01E9
:105440000E9423100E943210E5E3F5E01192CE167F
:10545000DF06E1F70E941B24E5E3F5E0819181116D
:105460002BC0AE12FBCFA3CE9F5F990C963009F0F4
:10547000BBCE0F5F1F4F0E30110509F0ABCE8FEF83
:105480008B878C871D860E947D168160782F9F8771
:105490008E874B855C856D858F850E947C23C1CE70
:1054A000B0924A051ACFB0924B0520CFB0924C056E
:1054B00060CFB0924D0566CF09BD19BD09B400FE9D
:1054C000FDCF8091D8008F7D8093D8008091E0003F
:1054D00082608093E0008091E00081FDFCCF0E941B
:1054E0003C1765CE213A310508F015CF4BCF232B61
:1054F00009F0C5CEFBCE1F921FB61F9211248F93C9
:105500009F93AF93BF9380913305811113C0809116
:10551000120590911305A0911405B09115054196BF
:10552000A11DB11D8093120590931305A09314053E
:10553000B0931505BF91AF919F918F911F901FBEA2
:105540001F9018951092B9008CE08093B8000895D0
:10555000EF92FF920F931F93CF93DF93182FEB01DE
:105560001092BC0084EA8093BC000E947D167C01EE
:105570008091BC0087FF27C08091B900887F883068
:1055800029F08091B900887F8031D9F51093BB0054
:1055900084E88093BC000E947D168C018091BC0041
:1055A00087FF24C02091B900287F90E080E0283157
:1055B000B1F081E090E0203411F490E080E091952A
:1055C000819591090CC0CF3FDC0791F20E947D16B6
:1055D0008E199F098C179D0758F28EEF9FEFDF9170
:1055E000CF911F910F91FF90EF900895CF3FDC076F
:1055F000A9F20E947D16801B910B8C179D0770F2FB
:10560000ECCF8FEF9FEFEBCF0F931F93CF93DF93F1
:10561000EB018093BB0084E88093BC000E947D1660
:105620008C018091BC0087FF11C02091B900287FB8
:1056300081E090E0283211F490E080E0919581952E
:105640009109DF91CF911F910F910895CF3FDC0712
:1056500041F30E947D16801B910B8C179D0708F368
:105660008EEF9FEFEECF0F931F93CF93DF93EC015D
:1056700084E88093BC000E947D168C018091BC0060
:1056800087FF08C08091BB0090E0DF91CF911F9110
:105690000F910895CF3FDC0789F30E947D16801B90
:1056A000910B8C179D0750F38EEF9FEFEECFCF92AB
:1056B000DF92EF92FF920F931F93CF93DF936B01D3
:1056C0008A017901B9010E94A82AE6010C0D1D1D6D
:1056D000C017D10761F424E92093BC00DF91CF917A
:1056E0001F910F91FF90EF90DF90CF90089597FD5D
:1056F000F2CFB70189910E94042BEACF84E980930D
:10570000BC000895AA1BBB1B51E107C0AA1FBB1F09
:10571000A617B70710F0A61BB70B881F991F5A953D
:10572000A9F780959095BC01CD01089597FB072EB0
:1057300016F4009407D077FD09D00E94822B07FC55
:1057400005D03EF4909581959F4F08957095619591
:105750007F4F0895EE0FFF1F0590F491E02D0994FF
:105760008F929F92AF92BF92CF92DF92EF92FF9271
:10577000CF93DF93EC01688179818A819B816115E8
:1057800071058105910521F464E279ED8BE597E0DF
:105790002DE133EF41E050E00E948F2D49015A0185
:1057A0009B01AC01A7EAB1E40E94AE2D6B017C0124
:1057B000ACEEB4EFA50194010E94BC2DDC01CB013D
:1057C0008C0D9D1DAE1DBF1DB7FF03C00197A10924
:1057D000B04888839983AA83BB839F77DF91CF9159
:1057E000FF90EF90DF90CF90BF90AF909F908F9001
:1057F00008950E94B02B089580E091E00E94B02BA4
:105800000895B0E0A0E08093000190930101A0937F
:105810000201B093030108950F931F93CF93DF9379
:105820008230910510F482E090E0E0919B05F091C8
:105830009C0530E020E0B0E0A0E0309799F421151D
:10584000310509F447C0281B390B24303105C0F558
:105850008A819B816115710571F1FB0193838283BC
:10586000FE0111C0408151810281138148175907FF
:10587000F8F04817590799F4109761F012960C93B5
:10588000129713961C933296CF01DF91CF911F91FF
:105890000F91089500939B0510939C05F4CF21155B
:1058A000310519F04217530718F49A01BD01EF01B1
:1058B000DF01F801C2CF90939C0580939B05D0CF68
:1058C000FE01E20FF31F8193919322503109398336
:1058D0002883DACF2091990530919A05232B41F442
:1058E000209106013091070130939A052093990584
:1058F00020910401309105012115310541F42DB7A6
:105900003EB74091080150910901241B350B40918D
:10591000990550919A054217530708F0B5CF241BFB
:10592000350B2817390708F4AFCFBC016E5F7F4FE6
:105930002617370708F4A8CF640F751F70939A05D0
:1059400060939905FA01819391939ECFCF93DF9352
:105950000097E9F0FC01329713821282C0919B05F7
:10596000D0919C05DE0130E020E02097A1F4208159
:105970003181820F931F2091990530919A05281744
:10598000390709F067C0F0939A05E0939905DF9114
:10599000CF910895DA01AE17BF0708F040C0129604
:1059A0004D915C9113979D014115510599F7D901CE
:1059B0001396FC93EE9312974D915D91A40FB51F32
:1059C000EA17FB0779F4808191810296840F951F75
:1059D000D90111969C938E938281938113969C9307
:1059E0008E931297B0E0A0E08A819B810097B9F571
:1059F000FE0181919191E80FF91F80919905909195
:105A00009A058E179F0719F6109761F510929C055D
:105A100010929B05D0939A05C0939905B8CFB38394
:105A2000A28340815181840F951FA817B90771F493
:105A30004E5F5F4F8D919C911197480F591F518375
:105A4000408312968D919C91938382832115310519
:105A500009F0ADCFF0939C05E0939B0598CFDE0154
:105A6000EC01C2CF13961C921E921297D3CFDC0189
:105A7000CB01FC01F999FECF06C0F2BDE1BDF89A59
:105A8000319600B40D9241505040B8F70895F999FD
:105A9000FECF92BD81BDF89A992780B50895A6E101
:105AA000B0E044E050E00C94392DA8E1B0E042E0D1
:105AB00050E00C94392DDC01A40FB51F415050402B
:105AC00048F0CB01840F951F2E910E946C2D415000
:105AD0005040D0F70895262FF999FECF92BD81BD91
