:100000000C94DC030C94F9030C94F9030C94F9039D
:100010000C94F9030C94F9030C94F9030C94F90370
:100020000C94F9030C94F9030C94BE130C949312E2
:100030000C9421260C94F9030C94F9030C94F90305
:100040000C94F9030C94F9030C94F9030C94F90340
:100050000C94F9030C9483250C94F9030C94F90384
:100060000C94F9030C94F9030C94F9030C94F90320
:100070000C94F9030C94F9030C94F9030C94F90310
:100080000C94F9030C94F9030C94F9030C94F90300
:100090000C94F9030C94F9030C94F9030C94F903F0
:1000A0000C94F9030C94F9030C94F9039B079D0736
:1000B000A8079F07A107A307A507A707AA07AC07DB
:1000C000AE07B907B007B207B407B607B807BB0752
:1000D0005D085D089B089B08D708F708D90A320B12
:1000E0003909320B360A360A430A430A430A430ADD
:1000F000430A430A430A430A430A430A430A430A98
:10010000430A430A430A430A540A7C0A810A880ABA
:10011000A00A230C260C290C2C0C2F0C320C350CAD
:100120001611321160119C11E311E611E911EC1165
:10013000EF11F211F511F811FB11FE110312061265
:1001400009120E121312161219127F21A62146232C
:10015000A6214623EE21112246230F232223E52840
:10016000E528F828F828EE28F828F828F828E528BF
:10017000E528F328F828F828F328312936294029DA
:10018000342939293E293C29290035002B61E10019
:10019000290000001E00140004001D003400E000CF
:1001A0001F001A0016001B00E104E30020000800F5
:1001B00007000600E2002C002100150009001900CC
:1001C0002A00E200220017000A000500000050008B
:1001D000270DE3070000E30500004F00100D290084
:1001E000000028000000510023001C000B0011003B
:1001F00000005200240018000D0010002D004B00DC
:1002000025000C000E0036002E00015126001200C1
:100210000F0037002F00025127001300334238002F
:1002200030004E002A0031003400E50034000000A8
:1002300029000100E000E100010000003A001E0278
:10024000200222020100E2003B001F0221022302E1
:100250000100E3003C002F022F00260201002C00C9
:100260003D003002300027024C00CA5C3E003102E3
:10027000350035020000C35C0100010000000100F0
:100280000000C95C01000100000001000000C25C28
:100290003F005200510024020000F45C40002400A2
:1002A00021001E00010001004100250022001F0066
:1002B0003700010042002600230020002700010033
:1002C00043002502010031002E00010044004500DA
:1002D000280001000100000001000100F5000100FC
:1002E0000100000001000100010001000100010007
:1002F00001000100F200FC00010001000100F0001B
:10030000F100FA000100010001000100F300F90012
:100310000100010001000100F400FB0000000100E9
:1003200001000100000001000000010001000100C7
:1003300000000100000001000100010001000100B7
:10034000000001000100010050000100A8000100B0
:10035000010052005100AC00AA00B60001000100EB
:100360004F00AB00A90001000100010001000100E5
:100370000100010001000100AE00010001000000C9
:10038000000000000000000000000000000000006D
:10039000000000000000000000000000000000005D
:1003A000000000000000000000000000000000004D
:1003B000000000000000000000000000000000003D
:1003C000000000000000000000000000000000002D
:1003D000000000000000000000000000000000001D
:1003E000000000000000000000000000000000000D
:1003F00000000000000000000000000000000000FD
:1004000000000000000000000000000000000000EC
:1004100086FFD586FFD586FFD586FFD586FFD5001A
:10042000000055CB9E55CB9E55CB9E000000000092
:100430000055CB9E55CB9E55CB9E00000000000082
:1004400055CB9E55CB9E55CB9E0000000000000072
:10045000000055CB9E00000086FFD586FFD586FFA5
:10046000D586FFD586FFD5F3DEEAF3DEEAF3DEEAD2
:100470000000000000000000000AE1FF0AE1FF00A8
:10048000000000000000000020B0FF20B0FF0000CE
:100490000000000086FFD500000000000000000002
:1004A000000000000000000000000000000000004C
:1004B000000000000020FFEA000000000000000033
:1004C0000020FFEA20FFEA20FFEA00000000000011
:1004D00000000092E0FF92E0FF00000000CCFF0C63
:1004E000E1F10CE1F100000000000000000000005C
:1004F00000000000000000000000000000A978FFDC
:1005000000000000000000CCFFA978FFA978FFA937
:1005100078FF00000086FFD586FFD586FFD586FFD1
:10052000D5000000000000000000000000000000F6
:1005300000000000000000000000010101010101B5
:100540000101010202020202020202030303030389
:100550000303040404040405050505050606060650
:100560000607070707080808080909090A0A0A0B05
:100570000B0B0C0C0C0D0D0D0E0E0E0F0F101010A2
:100580001111121213131414151516161717181823
:1005900019191A1A1B1C1C1D1D1E1F1F2021212288
:1005A000232324252526272828292A2B2C2C2D2EC9
:1005B0002F30313132333435363738393A3B3C3DE0
:1005C0003E3F404142434445464748494B4C4D4ECF
:1005D0004F50525354555758595A5C5D5E60616391
:1005E000646567686A6B6C6E6F7172747677797A1E
:1005F0007C7D7F8182848687898B8D8E9092949575
:1006000097999B9D9FA1A2A4A6A8AAACAEB0B2B494
:10061000B6B9BBBDBFC1C3C5C8CACCCED0D3D5D770
:10062000DADCDEE1E3E6E8EAEDEFF2F4F7F9FCFF0D
:1006300005010902A10185020901A10005091901AD
:1006400029051500250195057501810295017503A0
:1006500081010501093009311581257F9502750851
:10066000810609381581257F950175088106050CDD
:100670000A38021581257F950175088106C0C005DD
:10068000010980A10185031601002603001A8100DB
:100690002A8300751095018100C0050C0901A10194
:1006A0008504160100269C021A01002A9C0275107E
:1006B00095018100C005010906A1018505050719FD
:1006C000E029E71500250195087501810205081943
:1006D00001290595057501910295017503910105A3
:1006E00007190029EF1500250195F075018102C059
:1006F00005010906A101050719E029E715002501F3
:100700009508750181029501750881010508190197
:10071000290595057501910295017503910105075C
:10072000190029FF150026FF00950675088100C0F5
:1007300009023B00020100A0FA09040000010301C4
:100740000100092111010001224000070581030871
:10075000000A090401000103000000092111010041
:100760000122C0000705820320000A1201100100C7
:10077000000008EDFE07130100010203010403302D
:1007800000000016034500720067006F0044006F10
:10079000007800200045005A000000160345007252
:1007A0000067006F0044006F007800200045005A89
:1007B000000000040309040011241FBECFEFDAE09B
:1007C000DEBFCDBF13E0A0E0B1E0E2EEFDE502C088
:1007D00005900D92AE36B107D9F726E0AEE6B3E04C
:1007E00001C01D92AD30B207E1F70E9408150C94CC
:1007F000EF2E0C9400008F929F92AF92BF92CF92F7
:10080000DF92EF92FF920F931F93CF93DF93CDB7B9
:10081000DEB728970FB6F894DEBF0FBECDBFFC0140
:10082000F080118183819481892B09F452C71F3F85
:1008300021F40FEFF01609F44CC76F0185E0DE01DB
:10084000119601900D928A95E1F7F6012281898136
:100850009A81222349F00E94AD27082F682F8981B1
:100860009A810E94262803C00E94F927082F26E0BB
:10087000129FF001112434E5039FE00DF11D1124B6
:10088000EF0DF11DEE0FFF1FE857FE4F059114917C
:10089000F6018281043FFCE51F0799F028F4023C31
:1008A0003CE5130791F0B3C0053F9CE51907B1F192
:1008B000063FECE51E0709F0AAC0882309F409C722
:1008C0005CC0882309F405C773C0882309F401C7F5
:1008D00080916505882319F01092650503C08FEF9C
:1008E0008093650560916205709163058091640550
:1008F0009091650528960FB6F894DEBF0FBECDBF68
:10090000DF91CF911F910F91FF90EF90DF90CF90EB
:10091000BF90AF909F908F900C94511C882309F446
:10092000D8C690916E0381E0892780936E03D1C66B
:1009300010927003F60192810A3CFCE51F0709F44E
:1009400059C208F449C1013D2CE5120709F490C2CF
:1009500040F1053DECE51E0709F4B9C208F480C179
:100960000D3D8CE5180709F4BDC20E3DECE51E07F0
:1009700009F07EC1992309F4ACC628960FB6F89405
:10098000DEBF0FBECDBFDF91CF911F910F91FF90C2
:10099000EF90DF90CF90BF90AF909F908F900C948E
:1009A000B8260D3C8CE5180729F4992309F491C663
:1009B00081E019C00E3CECE51E0708F447C10F3C6E
:1009C0003CE5130709F438C208F044C2992309F43E
:1009D00080C68091620586958695825C8F73833090
:1009E00008F4C4C182E028960FB6F894DEBF0FBEAB
:1009F000CDBFDF91CF911F910F91FF90EF90DF90CE
:100A0000CF90BF90AF909F908F900C94571C8823ED
:100A100019F1033EFCE51F07C1F050F4013E3CE52F
:100A2000130781F0023E8CE51807B1F481E010C095
:100A3000043E9CE5190759F0053EECE51E0761F4FC
:100A400084E006C010927D0305C082E001C083E00F
:100A500080937D030E94D21D17FF73C0F60182812F
:100A6000882309F46EC08091170580936F0310925C
:100A7000170580917D03813071F048F08230D1F00C
:100A80008430F1F486EE0E94B82B88E117C082EE24
:100A90000E94322C15C08CE89BE00E943B2088E12C
:100AA0000E94322C88E10E94CB2B8CE79BE00E94B5
:100AB0003B2006C082EE0E94322C87E50E94B82BB4
:100AC0008FE39CE90197F1F700C000007801E894FA
:100AD000F7F85CE0A52EB12CC7010A2C02C0969550
:100AE00087950A94E2F7282F2F7041F0822F90E02B
:100AF0002A3010F44D9604C0069702C087E290E0B9
:100B00000E94B82B94E0A91AB108ECEFAE16EFEFF3
:100B1000BE0611F780917D03813039F040F08230BC
:100B200031F0843051F488E206C08CE204C082EED9
:100B30000E94CB2B02C00E94B82B80916F03809340
:100B40001705003FFCE51F07C1F188F4083D3CE5AF
:100B50001307D9F0093D8CE51807D9F1073D9CE54D
:100B6000190709F0E5CE26E241EE61EE11C0023F21
:100B7000ECE51E0751F128F1033F2CE5120709F0BF
:100B8000D7CE27E246EE66EE03C027E245EE65EEDD
:100B9000C60128960FB6F894DEBF0FBECDBFDF9119
:100BA000CF911F910F91FF90EF90DF90CF90BF906A
:100BB000AF909F908F900C94E21B26E240EE60EE87
:100BC000E7CF27E244EE64EEE3CF26E242EE62EEA8
:100BD000DFCF28E241E0DBCF033C3CE5130709F41B
:100BE000A3C0E0F40531ECE51E0770F40230FCE52B
:100BF0001F0708F07EC101152CE51207F1F1013045
:100C00001C4509F47CC010C206318CE5180709F4B4
:100C1000D7C1023C1C4509F47BC006C2063CFCE57A
:100C20001F0709F4BEC050F4043C3CE5130709F467
:100C300096C0053C1C4509F4ADC0F6C1083CECE586
:100C40001E0709F4C1C008F4B5C0CAC00B3CFCE5DE
:100C50001F0709F4DBC00C3C1C4509F4E1C0E4C1EA
:100C6000033D2CE5120709F41FC108F40FC121C18F
:100C70000C3D1C4509F0D8C12FC1992309F429C5A1
:100C8000109217050E94902B0FEF14E32CE00150F7
:100C900010402040E1F700C00000F89481E080930C
:100CA000E00080E28093D8001092C9008FE19EE4BA
:100CB0000197F1F700C000001DBA109268001CBC3B
:100CC00010BE1FBA10927A0010926E0010926F0040
:100CD00010927100109272001092C9001092BC0024
:100CE00014B817B81AB81DB810BA1092BC0015B8CD
:100CF00018B81BB81EB811BA0C94003FEAC4992367
:100D000009F4E7C48091AC0381608093AC03E1C433
:100D1000992309F4DEC49091620581E089278093CC
:100D2000620510920801DECD992309F4D2C48091A6
:100D300017058272D9F028960FB6F894DEBF0FBE61
:100D4000CDBFDF91CF911F910F91FF90EF90DF907A
:100D5000CF90BF90AF909F908F900C94671C992379
:100D600009F4B7C480911705827229F328960FB64B
:100D7000F894DEBF0FBECDBFDF91CF911F910F91D1
:100D8000FF90EF90DF90CF90BF90AF909F908F90AB
:100D90000C94851C992309F49CC480916305885F99
:100DA00006C0992309F495C4809163058850809307
:100DB000630598CD992309F48CC42091640530E132
:100DC000230F08F42FEF09C0992309F482C420915E
:100DD000640530E1231B08F420E02093640582CDF4
:100DE000992309F476C42091650530E1230F08F4B6
:100DF0002FEF09C0992309F46CC42091650530E1F7
:100E0000231B08F420E0209365056CCD992309F499
:100E100060C42091660530E1230F08F42FEF09C06C
:100E2000992309F456C42091660530E1231B08F488
:100E300020E02093660556CD992309F44AC4809199
:100E4000620586958695865C8F73823008F48ECF16
:100E500086E0C9CD992309F43CC48091620586954A
:100E60008695895C8F73853008F480CF89E0BBCD8F
:100E7000992309F42EC480916205869586958F5C2E
:100E80008F73853008F472CF8FE0ADCD992309F4CC
:100E900020C48091620586958695855D8F7382302A
:100EA00008F464CF85E19FCD992309F412C488E149
:100EB0009ACD992309F40DC4809162058695869593
:100EC000895D8F73893008F451CF89E18CCD9923E6
:100ED00009F4FFC383E287CD992309F4FAC3109282
:100EE000BB03F7C3992309F4F4C382E08093BB03E7
:100EF000F0C3992309F498C00E94AD26811102C065
:100F00000E94B82684E090E00E944C2D90E09093DF
:100F1000900380938F03F801E350FC45E231F10523
:100F200030F4EA5AFF4F80918F030C94BC2D8091CE
:100F30008F03816027C0826025C0846023C08061E8
:100F400021C080621FC080641DC080681BC0846097
:100F5000886018C08E7F16C08D7F14C08B7F12C032
:100F60008F7E10C08F7D0EC08F7B0CC08F770AC024
:100F70008B7F877F07C087FB222720F991E092278C
:100F800090FB87F980938F0360918F0384E090E05A
:100F90000E94602D1092170528960FB6F894DEBFB8
:100FA0000FBECDBFDF91CF911F910F91FF90EF90BA
:100FB000DF90CF90BF90AF909F908F900C94902B2C
:100FC00080911705992389F0982F9A7A81E009F486
:100FD00080E080937103811102C069E201C065E382
:100FE00087E695E00E9475260BC080917103811100
:100FF00002C069E201C065E387E695E00E944A26E7
:1010000028960FB6F894DEBF0FBECDBFDF91CF910B
:101010001F910F91FF90EF90DF90CF90BF90AF9016
:101020009F908F900C946727F6010081118199237E
:1010300049F0C8010E94AD27F82E682FC8010E9410
:10104000262804C0C8010E94F927F82EB8018F2D68
:101050000E94920C182F382FF601258122952F70AF
:10106000028101111092C4058091C2058770A9F018
:10107000002399F080E2810F883078F082E02F839E
:1010800038879E830E947B288091C2058770EE245A
:10109000E3942F8138859E818111E12CA92EA294A1
:1010A0004FE0A422B12CFCE0AF16B10408F0DAC284
:1010B000F501E859FF4F0C94BC2D892F807F9F705C
:1010C000F92E882319F0F29480EFF8220023B9F06A
:1010D000FF2009F458C280E2810F883010F03111EE
:1010E00006C090911705F92AF092170505C0909156
:1010F000C405F92AF092C4050E94672744C2812FD3
:1011000038870E94CB2B3885FF2009F4ABC2105ED4
:10111000F094183010F0311106C090911705F922A3
:10112000F092170505C09091C405F922F092C4050C
:101130000E94672797C2492F407F892F8F704032C6
:1011400011F08295807F332319F03130E9F025C00A
:10115000002381F03091C505222351F0213041F464
:10116000982F932B391709F47DC29093C5057AC245
:10117000832B91C1222319F0213009F473C28E838D
:101180000E9461278E818DC1002321F0223008F05A
:1011900069C281C1211166C284C1002321F02223CA
:1011A00009F479C1F0C1222309F47BC1FEC1292FC2
:1011B00026952695237030E02115310521F0213048
:1011C000310559F04FC2002319F0812F937002C0EE
:1011D00080E090E00E94C01B53C2002319F0812FD1
:1011E000937002C080E090E00E94AA1B49C20023D5
:1011F000F9F0153F51F0163F71F0143FA9F48091BA
:1012000072039091730381600BC08091720390917F
:101210007303826005C080917203909173038460B0
:101220009093730380937203812F0E941B251EC02D
:10123000153F51F0163F71F0143FA9F480917203ED
:10124000909173038E7F0BC0809172039091730312
:101250008D7F05C080917203909173038B7F909373
:10126000730380937203812F0E9454240E940B26E3
:1012700007C2892F837009F079C00111FFC1812F46
:10128000829586958770880F880F412F4F7050E0A8
:1012900060E070E04A015B01082E04C0880C991CD4
:1012A000AA1CBB1C0A94D2F714FF14C04FE050E0F4
:1012B00060E070E08A019B0104C0000F111F221F33
:1012C000331F8A95D2F7B901A801409550956095D2
:1012D000709503C040E050E0BA01969596959370E2
:1012E000892F90E00091C6051091C7052091C8058F
:1012F0003091C90582309105A9F083309105E9F05C
:10130000019759F0482959296A297B29CB01BA014B
:10131000602371238223932326C0802A912AA22A44
:10132000B32A1BC0482959296A297B29CB01BA0154
:10133000602771278227932716C0CB01BA0160234B
:101340007123822393230E9450294091C605509116
:10135000C7056091C8057091C905CB01BA0168291C
:1013600079298A299B290E94502988C1002319F0D4
:10137000892F817001C08695882309F47FC1812F50
:10138000829586958770880F880F412F4F7050E0A7
:1013900060E070E04A015B01082E04C0880C991CD3
:1013A000AA1CBB1C0A94D2F714FF14C04FE050E0F3
:1013B00060E070E08A019B0104C0000F111F221F32
:1013C000331F8A95D2F7B901A801409550956095D1
:1013D000709503C040E050E0BA01969596959370E1
:1013E000892F90E00091BE051091BF052091C005A6
:1013F0003091C10582309105A9F083309105E9F063
:10140000019759F0482959296A297B29CB01BA014A
:10141000602371238223932326C0802A912AA22A43
:10142000B32A1BC0482959296A297B29CB01BA0153
:10143000602771278227932716C0CB01BA0160234A
:101440007123822393230E9417294091BE05509156
:10145000BF056091C0057091C105CB01BA01682933
:1014600079298A299B290E94172908C1412F50E018
:10147000FA01E05EF109E531F10508F07FC0EC58B2
:10148000FF4F0C94BC2D1F70892F8F71002331F0FA
:101490000E949428812F0E94AE2BE4C00E945628FF
:1014A000812F0E94A32BDEC0002311F12111DAC08D
:1014B000292F2F7181E090E0A0E0B0E0AC01BD01E8
:1014C00004C0440F551F661F771F2A95D2F78091DD
:1014D000BE059091BF05A091C005B091C1058A01DC
:1014E0009B01082719272A273B27C901B80125C0D6
:1014F000223008F0B7C0DCCF002329F0892F8F718C
:101500002EC00023D9F3892F8F710E945628AAC0BC
:10151000002381F0292F2F7181E090E0A0E0B0E05E
:10152000BC01CD0104C0660F771F881F991F2A9543
:10153000D2F703C060E070E0CB010E94172992C08F
:10154000002381F0192F1F71812F0E94942828E019
:10155000129FC001112483608093C205812F0E94D5
:10156000942880C081E02F830E947B282F81223025
:1015700008F478C082E00E947B2874C0002339F010
:10158000222309F4BBCF812F0E94322C6BC022236F
:1015900009F4B9CF193349F43FEF83EC99E03150A6
:1015A00080409040E1F700C00000812F0E94CB2BCB
:1015B00059C0323FB1F028F4303F49F0313FF9F0E3
:1015C00028C0343FB9F058F0353F71F022C00023F5
:1015D00009F456C09091D00581E0892708C081E0C8
:1015E00008270093D0054CC001114AC081E08093C8
:1015F000D00546C0011144C01092D00541C000235F
:1016000029F08091CF05882329F329C0222311F3E3
:1016100037C08091CF052223C1F0882341F09091FB
:10162000D00581E089278093D0051092CF05812FC6
:10163000002319F00E94322C23C00E94CB2B86E09D
:10164000F60111928A95E9F71BC08823C9F00111B0
:1016500017C09091D00581E089278093D005109222
:10166000CF050EC0F8E0AF16B10441F04CF01AE01F
:10167000A11AB10822E0A216B10410F40E94D61BF0
:10168000EE2039F18091C20580FD23C0F60112825F
:101690008595859585950E949428C6010E94FB0337
:1016A0008091C20585958595859528960FB6F89405
:1016B000DEBF0FBECDBFDF91CF911F910F91FF9085
:1016C000EF90DF90CF90BF90AF909F908F900C9451
:1016D000562828960FB6F894DEBF0FBECDBFDF9117
:1016E000CF911F910F91FF90EF90DF90CF90BF901F
:1016F000AF909F908F900895282F277081E090E001
:1017000001C0880F2A95EAF780959091C405892336
:101710008093C4050C946727282F277081E090E000
:1017200001C0880F2A95EAF79091C405892B809310
:10173000C4050C946727AF92BF92CF92DF92EF92CD
:10174000FF920F931F93CF93DF9320E9289F70019F
:10175000299FF00C1124C0E0D0E000E010E0670108
:101760008FEFC81AD80A570182E0A80EB11CFE01FB
:10177000EE0DFF1DE058FC4F6491F601EC0FFD1FCC
:10178000E058FC4F7491F501EC0FFD1FE058FC4F41
:101790008491611107C0711105C0811103C020E05F
:1017A00040E004C00E94391D472F282FC8010E9425
:1017B0004F1C0F5F1F4F2396C039D105C1F6DF9133
:1017C000CF911F910F91FF90EF90DF90CF90BF903E
:1017D000AF900895CF93E82F873058F58091090195
:1017E00090910A01892B09F042C0CE2F80E40E941B
:1017F000221E90930A0180930901892BB1F482E1A2
:101800000E94FB1D90930A0180930901892B69F4C2
:1018100081E090E001C0880FCA95EAF780950E94A8
:10182000FB1D90930A018093090184E98093BC0019
:101830001EC090E0FC013797E730F105C0F4E75790
:10184000FF4F0C94BC2D209A289811C0219A2998FA
:101850000EC0229A2A980BC0239A2B9808C0529A3D
:101860005A9805C0539A5B9802C03E9A4698CF9109
:101870000895CF93DF93873008F047C08091090126
:1018800090910A01892B09F049C080E40E94221E30
:1018900090930A0180930901892B11F080E031C0F7
:1018A00083E10E94FB1D90930A0180930901892B1B
:1018B000A9F781E40E94221E90930A0180930901F6
:1018C000892B61F784E88093BC000E94FF25EC011E
:1018D0009091BC0097FD0EC00E94FF258C1B9D0BB4
:1018E00084369105A8F38EEF9FEF90930A018093C1
:1018F0000901D4CF8091BB00809510920A0110920B
:10190000090194E99093BC000AC09FB18FB1807F18
:10191000869586959370892B809501C080E0DF9134
:10192000CF910895CF93DF9326E0729FF0011124A9
:1019300034E5839FE00DF11D1124E60FF11DEE0F3C
:10194000FF1FE857FE4FC591D491CE01C238D10593
:1019500049F1B0F4C133D10509F464C048F4C93287
:10196000D10509F458C0CA32D10509F462C068C073
:10197000C533D10509F448C0C933D10599F060C019
:10198000C33ED10541F138F4C03ED10591F0C23ECD
:10199000D105B1F055C0C63ED10521F1C73ED105F4
:1019A00061F14EC020918F0320FD14C221FD12C2AF
:1019B00013C220918F0320FF0FC289E390E00CC275
:1019C00020918F0322FF08C280918F0384FDB4C150
:1019D00083EE90E001C280918F0382FFF5CF82EE0B
:1019E00090E0FAC120918F0323FFF6C180918F030D
:1019F00084FDA2C187EE90E0EFC180918F0383FF49
:101A0000F5CF86EE90E0E8C120918F0325FFE4C179
:101A100089E290E0E1C120918F0325FFDDC185E3DC
:101A200090E0DAC120918F0326FFD6C18AE290E0D0
:101A3000D3C120918F0326FFCFC181E390E0CCC1B9
:101A4000C11520E5D20708F047C0C11530E4D3071F
:101A500008F034C1C83ED10518F5C03ED10508F0E4
:101A6000BBC1C83AD10570F4C53AD10508F0B0C081
:101A7000C130D10509F4B0C108F45EC1249708F45F
:101A80005BC1AAC1CF3BD10508F4ADC0C03CD105B4
:101A900008F452C1FE01EE0FFF1FE055FC4F02C1DA
:101AA000C11520E2D20760F4C11531E0D30708F078
:101AB00093C1C03FD10508F43FC1CE0190658CC1F0
:101AC000C11580E3D80708F0F0C0FE01FF70EE0FEB
:101AD000FF1FE05DFA4FE6C0C11595E5D90708F094
:101AE00044C0C11524E5D20708F000C1C11532E594
:101AF000D30710F5C11581E5D80708F0E3C02C2FF6
:101B0000237081E090E002C0880F991F2A95E2F7C8
:101B10009C689E0174E0369527957A95E1F72370CD
:101B2000922BEC2FEF70E695E69530E2E39FF00103
:101B300011248E2B9F2B50C18C2F86958695AE013C
:101B400043705527C115D34508F0C1C090E2899F65
:101B50009001112481E090E002C0880F991F4A95FE
:101B6000E2F7822B932B9C6837C1C1152AE5D20777
:101B7000A0F4C11539E5D30708F0C6C0C11586E544
:101B8000D80708F4B8C0C11598E5D90708F4D4C03F
:101B90009C2F8827806F906A1FC1C1152BE5D20743
:101BA00008F4CAC0CE01C1153CE5D30708F4C1C092
:101BB00090568115904208F0BFC08D2F8F710E9402
:101BC000D81DFE01FF27F0628F719F01382BAFC037
:101BD000C53AD10509F4B3C0C63AD10509F0B2C07F
:101BE00082E890E4F9C0C83AD10509F4AEC0C93A18
:101BF000D10509F4ADC0CA3AD10509F4ACC0CB3A5D
:101C0000D10509F4ABC0CC3AD10509F4AAC0CB3B4D
:101C1000D10509F4A9C0CC3BD10509F4A8C0CD3A3F
:101C2000D10509F4A7C0C03BD10509F4A6C0CE3A3E
:101C3000D10509F4A5C0CF3AD10509F4A4C0C13B30
:101C4000D10509F4A3C0C23BD10509F4A2C0C33B2E
:101C5000D10509F4A1C0C43BD10509F4A0C0C53B1E
:101C6000D10509F49FC0C63BD10509F49EC0C73B0E
:101C7000D10509F49DC0C83BD10509F49CC0C93BFE
:101C8000D10509F49BC0CD3BD10509F49AC0CE3BE8
:101C9000D10509F499C0CA3BD10509F498C080E088
:101CA00094E49AC08591949197C09E013327C9010D
:101CB000D3FF02C0986C90C0906C8EC0CE019F7014
:101CC000906A8AC09C2F8827816F906A85C090E2B5
:101CD000899F9001112481E090E002C0880F991F34
:101CE0004A95E2F7822B932B9A6876C09C2F88271F
:101CF000846F906A71C08C2F0E94D81D8F7190E004
:101D0000982F8827906268C08C2F8F700E94D81DF2
:101D1000FE0194E0F695E7959A95E1F7EF70F0E013
:101D2000FE2FEE27F06A8F70806E9F01282BC9016D
:101D300053C09927906650C080E090E04DC081E884
:101D400090E44AC083E890E447C082EE94E444C043
:101D500089EE94E441C08AEE94E43EC085EB94E4BD
:101D60003BC086EB94E438C083EB94E435C084EB4D
:101D700094E432C087EB94E42FC08CEC94E42CC044
:101D80008DEC94E429C083E895E426C08AE895E4C4
:101D900023C082E995E420C084E995E41DC081E276
:101DA00096E41AC083E296E417C084E296E414C075
:101DB00085E296E411C086E296E40EC087E296E4DE
:101DC0000BC08FE694E408C080E794E405C08AE283
:101DD00096E402C080EE90E0DF91CF91089580E21A
:101DE00090E090930A018093090180917A03811118
:101DF00011C01092B9008CE08093B80081E080930C
:101E00007A032FEF83ED90E3215080409040E1F77B
:101E100000C0000080E40E94221E90930A0180937B
:101E20000901892B09F040C080E00E94FB1D9093BE
:101E30000A0180930901892BB9F580E00E94FB1DFE
:101E400090930A0180930901892B71F58FE30E9419
:101E5000FB1D90930A0180930901892B29F584E9E0
:101E60008093BC0080E40E94221E90930A0180931C
:101E70000901892BC9F48CE00E94FB1D90930A0193
:101E800080930901892B81F480E00E94FB1D9093CF
:101E90000A0180930901892B39F48FE30E94FB1D0D
:101EA00090930A018093090184E98093BC0080919A
:101EB0000901089556985E9825982D9826982E9891
:101EC00027982F988FEF90E0909389008093880057
:101ED00090938B0080938A0090938D0080938C0068
:101EE000259A2D9A2FEF80E792E021508040904074
:101EF000E1F700C00000269A2E9A2FEF80E792E0CB
:101F0000215080409040E1F700C00000279A2F9AAE
:101F10002FEF80E792E0215080409040E1F700C031
:101F2000000025982D982FEF80E792E02150804007
:101F30009040E1F700C0000026982E982FEF80E730
:101F400092E0215080409040E1F700C000002798C7
:101F50002F9856985E9825982D9826982E98279811
:101F60002F98089584B1807F84B985B1807F85B929
:101F70008AB1837F8AB98BB1837F8BB93E984698AB
:101F8000089580B38C7080BB81B3836F81BB08954B
:101F90008F929F92AF92BF92CF92DF92EF92FF9279
:101FA0000F931F93CF93DF931F92CDB7DEB780912E
:101FB000090190910A01892B91F0809179038F5F3B
:101FC0008093790381110BC00E94EF0E90E09093F3
:101FD0000A0180930901892B11F40E945A0F01E82C
:101FE00013E068E8E62E63E0F62E6801812C912C60
:101FF00057E0A52EA80C882D0E94EA0B8A2D0E947E
:10200000EA0B882D0E94390CD6019C91981721F07B
:102010008C93BB24B39401C0B12C8A2D0E94390C3F
:10202000F7019081981719F0808381E001C080E06A
:10203000B82A9B280E94B20F8394FFEFCF1ADF0AC1
:102040002FEFE21AF20A47E08412D2CF0E94FF2556
:102050006AEF70E00E94942D9C01682F80917403B8
:10206000882309F45BC010927403E0917B03F09124
:102070007C03DF011E9690E07BEF4AEFE42EF12C0B
:1020800080818B3FA9F0482F50E0681728F0690144
:10209000C41AD50AA60106C06701C41AD50AA6014A
:1020A000420F531F4F30510514F0708301C091E06F
:1020B0003196EA17FB0721F790937403911030C013
:1020C000992371F160917503709176038091770384
:1020D000909178030E94A9254FB7F8940091CA0502
:1020E0001091CB052091CC053091CD054FBF0093C9
:1020F00075031093760320937703309378038090D1
:102100005E0590905F05A0906005B09061054FEF6F
:1021100084169406A406B40619F543C0992091F2DA
:10212000E0907B03F0907C0380917403E4E9F3E09A
:102130002EE02E0F3081D8019D918D01D7014C9159
:102140004B3F29F4391719F06C93908381E0BFEF6E
:10215000EB1AFB0A31962E13EDCF80937403B2CFA6
:10216000AB01BC01662777276A017B01C094D0943C
:10217000E094F094C814D904EA04FB0420F48FEF2F
:102180009FEFDC0106C0DB01CA01880D991DAA1D65
:10219000BB1D80935E0590935F05A0936005B0938F
:1021A000610580916205982F937021F0B82EB69446
:1021B000B69401C0B12C909108019130A1F038F093
:1021C000923009F44DC1933009F455C165C11092A4
:1021D000160100935A0510935B0520935C0530931C
:1021E0005D0581E045C190910701B9120EC0837071
:1021F00090E02091060130E051E040E08217930723
:1022000009F450E0852F942F02C081E090E0282F40
:102210002170209318014B2D50E04531510508F0F5
:102220000DC1FA01E057FF4F0C94BC2D209116010F
:10223000892B09F403C1220F822F880F880F022FE8
:10224000080F1AE0100F113308F010E3011708F01F
:10225000B6C020E040E060E0802F90E00E944F1C7C
:102260000F5FF4CF80911601E82EEE0C8E2D880FB3
:10227000880FE80E1AE01E0D113308F010E360918C
:10228000630570916405809165050E94391D062FD4
:10229000F82EE11608F093C0EE2DF0E0DF01A35C0C
:1022A000BC4F8C9190911701982341F02F2D472F0F
:1022B000602FCF0179830E944F1C7981E394E9CF8D
:1022C00080911601A82EAA0C8A2D880F880FA80EBF
:1022D0001AE01A0D113308F010E3D0906405C09095
:1022E00065052091660500E4029F012D1124A116C9
:1022F00008F065C0EA2CF12CF701E35CFC4F80810B
:10230000909117019823B1F0F701EE0FFF1FE252F1
:10231000FD4F908192959F7060916305099F600DBC
:1023200011247D2D8C2D0E94391D472F282FC70188
:102330000E944F1CA394DBCF80911601E82EEE0C77
:102340008E2D880F880FE80E1AE01E0D113308F04D
:1023500010E36091660566956695669580915A05CD
:1023600090915B050E942E1D009165050E94B31C93
:10237000805887FD8195880F282F209F212D1124BB
:10238000822F60916305709164050E94391D062FAC
:10239000F82EE116A0F4EE2DF0E0DF01A35CBC4FB7
:1023A0008C9190911701982341F02F2D472F602F8A
:1023B000CF0179830E944F1C7981E394EACF81E0B9
:1023C0001033E8F13BC084E998E11AC08CE698E14B
:1023D00017C086E599E11FC082E499E11CC08DE237
:1023E00099E11EC088E199E11BC089E698E108C027
:1023F0008EE598E105C083E598E102C08BE398E1A2
:102400000E94DE1F1CC08FE298E10AC086E09DE1B9
:1024100002C082E099E10E94711F11C080EF98E133
:102420000E94E11E0CC08EEF97E105C08DEC97E194
:1024300002C08EE897E10E946C1E01C080E090917E
:1024400016019F5F90931601811126C082E0809350
:1024500008018091180181111FC0BB2041F01CC0F0
:10246000B09207018370809306010E94981983E05F
:102470008093080111C060915A0570915B058091AD
:102480005C0590915D050E94A9256031710581056B
:10249000910510F01092080180916E03811115C012
:1024A0006091BE057091BF058091C0059091C105F6
:1024B0000E941127813029F0823039F482E090E0C7
:1024C00002C081E090E00E949B0B81E00F90DF91C1
:1024D000CF911F910F91FF90EF90DF90CF90BF9021
:1024E000AF909F908F900895E8EDF0E080818E7F0F
:1024F00080831092E2001092DA001092E100A0EEC8
:10250000B0E08C9181608C9380818F77808319BC3F
:10251000A7EDB0E08C918E7F8C9380818F7E80833D
:102520001092BC0308951F920F920FB60F921124C0
:102530002F933F934F935F936F937F938F939F93CB
:10254000AF93BF93CF93DF93EF93FF93C091E900D5
:10255000CF708091EC00D82FD17080FDD0E8109220
:10256000E9008091F000877F8093F00078940E94CA
:1025700099201092E9008091F00088608093F0002B
:10258000CD2BCF70C093E900FF91EF91DF91CF91F8
:10259000BF91AF919F918F917F916F915F914F917B
:1025A0003F912F910F900FBE0F901F901895209183
:1025B000E4003091E50095E64091EC00842F8170B5
:1025C00040FF22C08091E80080FD1CC080913C0546
:1025D000882391F0853091F08091EB0085FD10C04B
:1025E0004091E4005091E5004217530729F39A0106
:1025F000915011F784E0089582E0089583E00895F2
:1026000081E0089580E008954091E80042FFDECF28
:10261000089580913E0587FF11C08091E80082FDFA
:1026200005C080913C058111F8CF11C08091E80070
:102630008B770BC080913C05882349F08091E8009E
:1026400080FFF8CF8091E8008E778093E8000895AE
:10265000982F973058F59093E900981739F07091BA
:10266000EC002091ED005091F00003C0242F762F54
:1026700050E021FF19C03091EB003E7F3093EB001A
:102680003091ED003D7F3093ED003091EB003160F3
:102690003093EB007093EC002093ED005093F0002A
:1026A0002091EE0027FF07C09F5FD3CF8F708093EC
:1026B000E90081E0089580E00895CF92DF92EF92E3
:1026C000FF920F931F93CF93DF93C8EDD0E08881E3
:1026D0008F7E8883E7EDF0E080818160808384E0F5
:1026E00082BF81E08093BC0388818E7F888302EE65
:1026F00010E0F80110821092DA0081EEC82ED12C81
:10270000F601108288818F7788838881806888832A
:1027100088818F7D888319BC10923C0510923D05FD
:1027200010923B0510923A0590EEE92EF12CF7013C
:1027300080818B7F808388818160888342E060E034
:1027400080E00E942813F60180818E7F8083F8014B
:10275000808181608083808188608083F7018081AF
:102760008E7F8083888180618883DF91CF911F91E4
:102770000F91FF90EF90DF90CF9008951F920F92EE
:102780000FB60F9211242F933F934F935F936F9344
:102790007F938F939F93AF93BF93EF93FF9380911A
:1027A000E10082FF09C08091E20082FF05C08091B4
:1027B000E1008B7F8093E1008091DA0080FF2AC0E6
:1027C0008091D80080FF26C08091DA008E7F8093B0
:1027D000DA008091D90080FF18C080E189BD82E1D4
:1027E00089BD09B400FEFDCF81E080933C05809156
:1027F000BC0381110FC00E9474120E945D1380916E
:10280000E20084608093E20005C019BC10923C0590
:102810001092BC038091E10080FF17C08091E2001C
:1028200080FF13C08091E2008E7F8093E200809150
:10283000E20080618093E2008091D8008062809302
:10284000D80019BC85E080933C058091E10084FFAD
:1028500034C08091E20084FF30C080E189BD82E114
:1028600089BD09B400FEFDCF8091D8008F7D809393
:10287000D8008091E1008F7E8093E1008091E2009A
:102880008F7E8093E2008091E20081608093E2007D
:1028900080913D05882311F084E007C08091E3001A
:1028A00087FD02C081E001C083E080933C05109267
:1028B00017050E94902B0E94D61B8091E10083FF98
:1028C00027C08091E20083FF23C08091E100877FD1
:1028D0008093E10082E080933C0510923D05809159
:1028E000E1008E7F8093E1008091E2008E7F8093F3
:1028F000E2008091E20080618093E20042E060E0CB
:1029000080E00E9428138091F00088608093F0009E
:10291000FF91EF91BF91AF919F918F917F916F91B7
:102920005F914F913F912F910F900FBE0F901F908D
:10293000189520914405309145052617370748F032
:102940006115710539F42091E8002E772093E80095
:1029500001C0B90140E061157105A9F120913C0564
:10296000222309F443C0253009F442C02091E80035
:1029700023FD40C02091E80022FD32C02091E800F4
:1029800020FFE9CF4091F3002091F20030E0342B9A
:10299000FC01CF016115710559F02830310540F473
:1029A00081918093F100615071092F5F3F4FF1CF0A
:1029B00041E02830310509F040E02091E8002E7711
:1029C0002093E800C8CF4111C9CF0AC080913C05CF
:1029D000882361F0853061F08091E80083FD0AC0B2
:1029E0008091E80082FFF2CF80E0089582E00895B0
:1029F00083E0089581E008958091BB03811107C0B1
:102A000080913C05843011F081E0089582E00895C2
:102A1000CF93DF93CDB7DEB72A970FB6F894DEBF1A
:102A20000FBECDBF84B7877F84BF0FB6F894A8953B
:102A300080916000886180936000109260000FBEFA
:102A400080E8809361001092610085B7806885BF3F
:102A500085B7806885BF0E9474120E945D138091C3
:102A6000E20084608093E200789480913C058823A2
:102A7000A1F01091E9001F709091EC00892F8170F6
:102A800090FD80E8182B1092E9008091E80083FD0A
:102A90000E9499201F701093E90082E084BD93E0AA
:102AA00095BD9AEF97BD80936E000E94EF0E90E067
:102AB00090930A01809309010E94B20F0E94C10FF6
:102AC000A1E8B3E0E4E9F3E01EE0F12EFE0E11927E
:102AD0001D92FE12FCCF8EE090E00E94C22D8093EA
:102AE0007B0390937C03FC010E962BEF2193E81758
:102AF000F907E1F70E94AD26811102C00E94B826B5
:102B00000E94021A0E94AD26811104C00E94B826BC
:102B10000E94A31C80E190E00E94542D6093620506
:102B20007093630580936405909365058FE78093A8
:102B300066056C7F71F40E94A31C80E190E00E9406
:102B4000542D6093620570936305809364059093A0
:102B500065058CE090E00E944C2D90E0A0E0B0E094
:102B600080937D0390937E03A0937F03B0938003B3
:102B700089EA8093800089E08093810024982C98D2
:102B80003F988AB18F7C8AB96E98479A8BB18063DF
:102B90008BB9769A0E945A0F0E94AD26811102C00D
:102BA0000E94B82682E090E00E944C2D8093AC03F6
:102BB00084E090E00E944C2D90E0909390038093ED
:102BC0008F0383E090E00E944C2D682F70E080E03E
:102BD00090E00E94502980916205837011F4109258
:102BE0000801809162058C7F81608093620560910D
:102BF00062057091630580916405909165050E945E
:102C0000511C8BE091E0909392038093910399245F
:102C10009394EE24EA94CC24C394D12C50E1452E15
:102C200062E1562E78E1A72EB12CE0E48E2E809141
:102C30003C05853009F043C080913C05843009F1A2
:102C4000109293030FB6F894A895A09260000FBE5F
:102C50008092600083B7817F846083BF83B7816087
:102C600083BF7894889583B78E7F83BF0FB6F8941F
:102C7000A895809160008861809360001092600048
:102C80000FBE80913B05882391F20E94EF0E90E0E9
:102C900090930A01809309010E94B20F0E94C10F14
:102CA000E4E9F3E01192FE12FDCF0E94C80FE4E9BF
:102CB000F3E081918111F2C0FE12FBCFB8CF0E94E8
:102CC000C80FEDEAF3E0A4E9B3E000E010E0702FF4
:102CD0006D9121912627B1F180E090E030E0782ECF
:102CE000A901082E02C0559547950A94E2F740FFC6
:102CF00025C089837A83C60102C0880F991F7A9400
:102D0000E2F73C01862F90E08621972121E0892B74
:102D100009F420E02B830E94FF258160782F9D839A
:102D20008C8349815A816B818D810E94D41AF8016C
:102D3000E355FC4F80816826608219C00196863079
:102D4000910569F60F5F1F4F0E30110509F0BFCFD7
:102D5000EE82EF8218860E94FF258160782F9A8785
:102D600089874E815F8168858A850E94D41A809107
:102D7000A9039091AA030E94D5259C019091A803D4
:102D8000992321F02131310508F47CC08091A403FE
:102D90001091A50381110BC0111194C02091A603BD
:102DA000211190C02091A70321118CC06BC09F3FBF
:102DB00019F09F5F9093A803181624F40E94FB2437
:102DC0008093A4038091A40387FF05C00E94FB2485
:102DD00081958093A403111624F40E94FB24809310
:102DE000A5038091A50387FF05C00E94FB24819560
:102DF0008093A5033091A403332301F12091A5030F
:102E00002223E1F045EB3403C0011124892F990FEF
:102E1000990B009719F08093A40302C09092A40329
:102E200035EB2303C0011124892F990F990B0097CB
:102E300019F08093A50302C09092A5038091A60388
:102E4000181624F40E94D9248093A6038091A60327
:102E500087FF05C00E94D92481958093A6038091A5
:102E6000A703181624F40E94D9248093A703809105
:102E7000A70387FF05C00E94D92481958093A703EB
:102E80000E940B261091AB030E94D61B181709F461
:102E9000CECE0E94D61B8093AB03C9CE49BC59BC91
:102EA00009B400FEFDCF8091D8008F7D8093D800BB
:102EB0008091E00082608093E0008091E00081FDDD
:102EC000FCCFB5CE9F3F09F074CF7CCF8033910506
:102ED00020F5880F991F880F991FFC01EF5DFE4FA9
:102EE00052813381808183707181E0E98E9FC001BE
:102EF00011248D519C4FFC01E70FF11DB4976083A5
:102F0000FC01E50FF11DB4974083830F911DFC0177
:102F1000B497208381E08093E2030895FC0130E0C0
:102F2000D901AA0FBB1FA352BD4F9C91905797FD8B
:102F30009195220F331FD901A252BD4F2C9130E041
:102F400020523109D901AA0FBB1F2A0F3B1F420390
:102F5000D001439FB00D112448E350E09A01291B92
:102F6000310997FD3395C901220F331FA901480F7D
:102F7000591F64039001659F300D11242A0F3B1FD8
:102F800037FF02C021583F4F220F232F221F330B40
:102F900080916305280F20830895E22FF0E0DF0180
:102FA000AA0FBB1FA252BD4F2C9130E02052310915
:102FB000220F331F4203D001439FB00D1124EE0FA7
:102FC000FF1FE352FD4F408150E040575109440F2D
:102FD000551F64039001659F300D11242A0F3B1F7C
:102FE00037FF02C021583F4F220F232F221F330BE0
:102FF00030916305230FFC01208308950F931F93E5
:10300000E22FF0E0DF01AA0FBB1FA252BD4F0C91CF
:1030100010E0005211094003D001419FB00D11246E
:10302000EE0FFF1FE352FD4F408150E04057510922
:1030300064039001659F300D11242A0F3B1F37FF59
:1030400002C021583F4F220F232F221F330B3091F4
:103050006305230FFC0120831F910F9108950F93A7
:1030600043E0249F9001112435952795200FFC0102
:1030700020830F910895DC0170E0FB01EE0FFF1F2C
:10308000E252FD4F9081905297FD9195660F771F08
:10309000FB01E352FD4F809163052081280F241B23
:1030A000920F9C930895DC01E62FF0E0EE0FFF1FD6
:1030B000E252FD4F9081941B9C930895DC01E62F12
:1030C000F0E0EE0FFF1FE352FD4F9081941B9C93A5
:1030D0000895FC0140830895E62FF0E0EE0FFF1FF6
:1030E000E352FD4F208134EE239F212D1124609166
:1030F000650570E030E0245E3F4F241B310937FF47
:1031000003C031952195310943E0220F331F4A95C1
:10311000E1F7AB01421B530B9A0157FF02C020E0BD
:1031200030E0FC0122830895E62FF0E0EE0FFF1F50
:10313000E352FD4F208134EE239F212D1124609115
:10314000640570E030E0245E3F4F241B310937FFF7
:1031500003C031952195310943E0220F331F4A9571
:10316000E1F7AB01421B530B9A0157FF02C020E06D
:1031700030E0FC0121830895FC01CB01309721F45C
:1031800077FF2CC080E808959F01F7FF04C0222735
:1031900033272E1B3F0BBC01621B730B280F391FFB
:1031A00097FD0DC0CB0145E0880F991F4A95E1F7C7
:1031B000B9010E94A82D80E2861B682F09C0C901B1
:1031C00025E0880F991F2A95E1F70E94A82D605AE3
:1031D000862FF7FF02C081950895089580E0089535
:1031E000EF92FF920F93CF937C01CA01C22FC01BB5
:1031F0000E94BC18C81BF701C083CF910F91FF90AC
:10320000EF9008950F931F93CF93DF931F92CDB745
:10321000DEB78C01CA0129830E94BC182981820F64
:10322000F80180830F90DF91CF911F910F91089546
:10323000EF92FF920F93CF937C01201B9091650535
:10324000C22FC90FCA010E94BC18C81BF701C28354
:10325000CF910F91FF90EF900895EF92FF920F930F
:10326000CF937C01201B90916405C22FC90FCA0126
:103270000E94BC18C81BF701C183CF910F91FF902A
:10328000EF9008950F931F93CF938C01CA01C091C3
:103290006505C21B0E94BC18982F880F980FC91B88
:1032A000F801C283CF911F910F9108950F931F933F
:1032B000CF938C01CA01C0916405C21B0E94BC1847
:1032C000982F880F980FC91BF801C183CF911F91C8
:1032D0000F910895EF92FF921F93CF93DF937B019D
:1032E000182F110FC0E0D0E08C2F8C5D8093460525
:1032F00020E030E0F901EC0FFD1FEE0DFF1D808195
:10330000F901EA5BFA4F81832F5F3F4F203131058E
:1033100089F761E170E0812F0E9446206096C039F4
:10332000D10511F7DF91CF911F91FF90EF90089594
:103330008091E203882351F063EE73E084E70E94FA
:103340006A1963E774E087E70E946A191092E20342
:103350000895E6E4F5E06083418362E070E0880F61
:103360000C944620CF93DF93C82F4BE06DEF0E9463
:10337000A91940E06AE08C2F0E94A9198FE39CE90B
:103380000197F1F700C0000040E060E08C2F0E9440
:10339000A91940E061E08C2F0E94A91940E066E085
:1033A0008C2F0E94A91940E06DEF8C2F0E94A91963
:1033B000D0E040E06D2F8C2F0E94A919DF5FD23141
:1033C000C1F740E06D2F8C2F0E94A919DF5FD43226
:1033D000C1F740E06D2F8C2F0E94A919DF5FD43B0D
:1033E000C1F74BE06DEF8C2F0E94A91941E06AE014
:1033F0008C2F0E94A91940E06DEF8C2FDF91CF91A7
:103400000C94A9197F928F929F92AF92BF92CF9204
:10341000DF92EF92FF920F931F93CF93DF9310925F
:10342000B9008CE08093B80084E70E94B21987E766
:103430000E94B219E4E2EE2EE1E0FE2EC12CD12C66
:10344000F2E17F2EA8E08A2E912CAA24A394B12C1D
:10345000F7013297608170E0CB0184973196E0816B
:10346000F0E0B497D7012C9130E024523109D60115
:10347000AA0FBB1FAA0FBB1FAF5DBE4FCC91C3707D
:10348000D0E0AC0197FF02C0495F5F4F63E0559504
:1034900047956A95E1F77C9E80017D9E100D112471
:1034A000040F111D03541C4FB4010E94A82DA50147
:1034B00002C0440F551F8A95E2F7CA01D8019C91BA
:1034C000892B8C93CF01F7FD079653E0959587954F
:1034D0005A95E1F77C9E80017D9E100D1124080F06
:1034E000111D03541C4FCF01B4010E94A82DF501FA
:1034F00002C0EE0FFF1F8A95E2F7CF01D8019C9121
:10350000892B8C93C90137FD079643E095958795E4
:103510004A95E1F77C9EF0017D9EF00D1124E80FA5
:10352000F11DE354FC4FC901B4010E94A82D95017F
:1035300002C0220F331F8A95E2F7C9019081892BBF
:1035400080833FEFC31AD30A44E0E40EF11C50E33A
:10355000C516D10409F07CCF81E08093E1030DEB27
:1035600013E0C0E0D0E0D8014D918D016C2F84E7CD
:103570000E94A919FE01E354FC4F42896C2F87E792
:103580000E94A9192196C231D10569F7DF91CF9127
:103590001F910F91FF90EF90DF90CF90BF90AF9071
:1035A0009F908F907F900895EF92FF920F931F93BB
:1035B000CF93DF93CDB7DEB767970FB6F894DEBF32
:1035C0000FBECDBF4B8B5C8B6D8B7E8B8F8B0E8933
:1035D0001F8901151105C1F15F3F11F44F3FA1F1A2
:1035E000E42EF12CA1E0B0E0042E01C0AA0F0A9451
:1035F000EAF7852F90E0662319F02091D00506C0E8
:103600009C01275F3A4FF90120812A232223A9F048
:1036100046E0489F9001499F300D1124F701E20FC9
:10362000F31FEE0FFF1FEF51FE4F40815181FC0150
:10363000E75FFA4F9081A92B06C0FC01E75FFA4FC4
:10364000A0958081A823A08386E0FE013D96DF013E
:10365000982F1D929A95E9F74D875E876F87198B92
:10366000088BDE01179601900D928A95E1F7CE0145
:1036700007960E94BF29811137C086E0FE01379668
:10368000DE01119601900D928A95E1F7FF81E885A0
:103690006A857B856115710539F1EF3F11F4FF3FB4
:1036A00019F12091D70530E0C9010196877099275B
:1036B0004091080650E08417950779F1F983EA8371
:1036C0007D836C8396E0929FD001939FB00D11246F
:1036D000A852BA4FFE01319601900D929A95E1F7EA
:1036E0008093D7050E945A2916E080910806909190
:1036F000D705891711F1189FC001112488529A4FDC
:103700000E94BF298823C9F08091080690E00196A5
:103710008770992780930806E8CF109217050E94BA
:10372000902B1092D70510920806E1EDF5E086E0A7
:10373000DF011D928A95E9F7D7CF67960FB6F89407
:10374000DEBF0FBECDBFDF91CF911F910F91FF90D4
:10375000EF9008952091070530910805821793078F
:1037600071F09093080580930705E0919103F09123
:103770009203309721F00084F185E02D099408959B
:1037800020910505309106058217930771F09093FB
:10379000060580930505E0919103F091920330971F
:1037A00021F00680F781E02D09940895E0919103BE
:1037B000F0919203309721F00190F081E02D09946F
:1037C00080E008950F931F93CF93DF93C62FD42FDC
:1037D000022FFC0182818823C9F0609370030E944C
:1037E000FF25909304058093030580E28C0F8830B9
:1037F00008F050C0C77081E001C0880FCA95EAF791
:10380000DF91CF911F910F910C94AE2B109170030B
:10381000161330C080910305909104050E94D525B0
:10382000883C910538F5C0E2CD0F1D17B9F080E254
:10383000810F883040F4177081E001C0880F1A951D
:10384000EAF70E94A32BC83048F481E09D2F9770BF
:1038500001C0880F9A95EAF70E94AE2B802F0E9434
:10386000B82BC830B8F4D77081E001C0880FDA9562
:10387000EAF70AC080E28C0F883060F4C77081E0FC
:1038800001C0880FCA95EAF7DF91CF911F910F9180
:103890000C94A32BDF91CF911F910F9108950C945D
:1038A0006617AB01BC0180E190E00C94722DE2E65A
:1038B000F5E0880F880F90819370892B8083109298
:1038C000080160817181828193810C94511C9091D7
:1038D0006205892F86958695815C8F739370882306
:1038E00021F0880F880F892B02C0892F8065809373
:1038F00062051092080160916205709163058091E4
:103900006405909165050C94511C90916205892F76
:10391000869586958F5F8F739370853120F4880F1D
:10392000880F892B02C0892F8460809362051092D2
:103930000801609162057091630580916405909122
:1039400065050C94511CE2E6F5E08DE2808311825E
:103950008FEF828383838FE784836081718182818B
:1039600093810C94511C482F982F46FD9095E92F78
:10397000EF739F7046FD9F5FE295EF70EE0FF0E0F2
:10398000E75EFE4F2181299F802D212D11248295F4
:103990008F702295207F822B3081982F930F892F53
:1039A00047FD819580580895BC018230910508F447
:1039B0000895613E8EE1780748F49B0195E03695C5
:1039C00027959A95E1F748E0420F01C04FEF91E04B
:1039D000242F30E0290F311D35952795229FF001C6
:1039E000239FF00DF00D11246E177F0718F44FEF91
:1039F000420F05C02F3F310539F091E0920F491772
:103A000038F78FEF890F08958FEF08950F931F9365
:103A1000CF938C01C22F67FD6195E8E3F0E0CF0101
:103A2000861B910967FD9395889F9001899F300DB2
:103A3000300D1124449FC001459F900D900D11241D
:103A4000820F931F0E94D41C982F880F980F9C0FF1
:103A5000F8019083CF911F910F91089520E030E0FD
:103A6000A901869F412D969F400D511D1124CA0129
:103A70000895CF92DF92EF92FF920F931F93CF930F
:103A8000DF937B01282F382FE82FF0E0F11006C0DC
:103A9000E05DFA4F6491762F862F7BC00F2D10E0EA
:103AA00046E0649FC0011124CFEFD0E0BE010E9428
:103AB000942DAB016BEA6403C001659F900D112446
:103AC0008E0D911D8E0D911D982F990F980FBE018F
:103AD000601B710B6E9FD0016F9FB00D7E9FB00D6C
:103AE00011248B2F9F9DB0011124672F77277E0112
:103AF000E61AF70AB7016E9F70016F9FF00C7E9F68
:103B0000F00C11246E01C91AD108C09EB001C19EEB
:103B1000700DD09E700D1124672F7727C61BD70B11
:103B2000CE9F8001CF9F100DDE9F100D1124712FAD
:103B30004230510591F04CF441155105D9F0413016
:103B40005105B1F4722F2F2D15C04430510561F08D
:103B500044F04630510571F00BC02B2F812F732F8D
:103B600009C07F2D2B2F02C0212F7B2F832F02C056
:103B70007B2F8F2DE22FF0E0E05DFA4F6491E72F6D
:103B8000F0E0E05DFA4F7491E82FF0E0E05DFA4F6D
:103B90008491DF91CF911F910F91FF90EF90DF9073
:103BA000CF90089560917D038CE090E00C94602D9F
:103BB00090918F0392FF0DC0282F2871283019F49F
:103BC000877F846006C0282F2471243011F48B7FF6
:103BD000886093FF0DC0282F2871283119F4877E43
:103BE000846106C0282F2471243111F48B7E8861F2
:103BF00094FD877E0895CF93DF938093BB0084E884
:103C00008093BC000E94FF25EC019091BC0097FDC1
:103C10000AC00E94FF258C1B9D0B84369105A8F3DA
:103C20008EEF9FEF0CC02091B900287F81E090E0DB
:103C3000283211F480E090E0919581959109DF910F
:103C4000CF9108950F931F93CF93DF93C82F1092B6
:103C5000BC0084EA8093BC000E94FF258C019091F7
:103C6000BC0097FD0AC00E94FF25801B910B843683
:103C70009105A8F38EEF9FEF2AC09091B900987F2D
:103C8000983041F09091B900987F903119F08FEF02
:103C90009FEF1DC0C093BB0084E88093BC000E94CE
:103CA000FF25EC019091BC0097FD08C00E94FF2504
:103CB0008C1B9D0B84369105A8F3DCCF8091B90055
:103CC000887F883111F0803411F780E090E0DF9137
:103CD000CF911F910F9108959F92AF92BF92CF9273
:103CE000DF92EF92FF920F931F93CF93DF9300D059
:103CF00000D0CDB7DEB76C0110911601110F812FE6
:103D0000880F880F180F3AE0310F313308F030E395
:103D1000809163058983809164058A83809165051C
:103D20008B83609166056695669580915A059091A2
:103D30005B053C830E942E1DF82E80E48F0D0E94AF
:103D4000B31C90E8E92EE80E8F2D0E94B31C20E8EA
:103D5000922E980E3C81131700F5A12EB12CF5017F
:103D6000E35CFC4F8081909117019823A1F00F2D07
:103D7000212F492D6E2DCE0101963C83F601099528
:103D800069817A818B810E94391D472F282FC501B7
:103D90000E944F1C3C811F5FDECF81E0303308F072
:103DA00080E00F900F900F900F90DF91CF911F91B7
:103DB0000F91FF90EF90DF90CF90BF90AF909F90CA
:103DC00008957F928F929F92AF92BF92CF92DF928F
:103DD000EF92FF920F931F93CF93DF9300D000D009
:103DE000CDB7DEB75C0110911601110F812F880F3E
:103DF000880F180F3AE0310F313308F030E380912B
:103E000063058983809164058A83809165058B832E
:103E100060916605669580915A0590915B053C839B
:103E20000E942E1D782E3C81131708F044C0812E6D
:103E3000912CF401E35CFC4F908180911701892360
:103E4000C1F1F401EE0FFF1FE352FD4FE080F12CB2
:103E500080E7E81AF108F401EE0FFF1FE252FD4F70
:103E6000C080D12CE0E2CE1AD108EE9CA001EF9CDC
:103E7000500D500D1124CC9CC001CD9C900D900D87
:103E80001124840F951F3C830E94D41C072D282FDA
:103E9000A601B701CE010196F501099569817A81E4
:103EA0008B810E94391D472F282FC4010E944F1C6F
:103EB0003C811F5FB9CF81E0303308F080E00F9084
:103EC0000F900F900F90DF91CF911F910F91FF9066
:103ED000EF90DF90CF90BF90AF909F908F907F90AA
:103EE0000895BF92CF92DF92EF92FF920F931F93AC
:103EF000CF93DF9300D01F92CDB7DEB76C01109146
:103F00001601110F812F880F880F180F0AE0010F7B
:103F1000013308F000E38091630589838091640593
:103F20008A83809165058B83609166056695809193
:103F30005A0590915B050E942E1DB82E101768F54A
:103F4000E12EF12CF701E35CFC4F90818091170189
:103F5000892309F1F701EE0FFF1FE252FD4F408167
:103F600050E040525109F701EE0FFF1FE352FD4FA1
:103F7000608170E0605771092B2DCE010196F6012A
:103F8000099569817A818B810E94391D472F282FDD
:103F9000C7010E944F1C1F5FD1CF81E0003308F0A2
:103FA00080E00F900F900F90DF91CF911F910F91B4
:103FB000FF90EF90DF90CF90BF900895BF92CF9287
:103FC000DF92EF92FF920F931F93CF93DF9300D076
:103FD0001F92CDB7DEB77C0110911601110F812F12
:103FE000880F880F180F0AE0010F013308F000E373
:103FF000809163058983809164058A83809165053A
:104000008B83609166056695669580915A059091BF
:104010005B050E942E1DB82E1017E0F4C12ED12C86
:10402000F601E35CFC4F808190911701982381F0A9
:104030004B2D612FCE010196F701099569817A8197
:104040008B810E94391D472F282FC6010E944F1CCB
:104050001F5FE2CF81E0003308F080E00F900F9007
:104060000F90DF91CF911F910F91FF90EF90DF9014
:10407000CF90BF900895CF93DF93EC0180EEFE01C7
:10408000099581EEFE01DF91CF9109940F931F9363
:10409000CF93DF938B010E94221EC6E4D5E00A5B1A
:1040A0001A4FC017D10741F424E92093BC00DF91D7
:1040B000CF911F910F91089597FDF6CF89910E949E
:1040C000FB1DEFCFCF92DF92FF920F931F93CF9301
:1040D000DF931F92CDB7DEB7F82E8B0199830E9434
:1040E000D712998181111CC0CF2CD92E0115110531
:1040F000B1F08091E80085FD0AC08091E8008E77DC
:104100008093E8000E94D712882381F309C0F6014A
:1041100081916F018093F10001501109E7CF80E098
:104120000F90DF91CF911F910F91FF90DF90CF9073
:1041300008951F93CF93DF93CDB7DEB7AA970FB63D
:10414000F894DEBF0FBECDBFEEE3F5E088E08E0F42
:104150009091F10091938E13FBCF80913F058330B6
:1041600009F460C030F4813071F0823009F49CC0F1
:10417000B3C08A3009F488C08B3009F46BC0893031
:1041800009F0AAC020C080913E05813A09F0A4C080
:104190008091E800877F8093E800809142059091AC
:1041A0004305892B21F460E28AE195E003C060E0D9
:1041B00080E090E070E00E9499148091E8008B7795
:1041C0008093E80089C080913E05813209F084C067
:1041D0008091420590914305029708F07DC080913F
:1041E000E800877F8093E8008091E80082FD05C0A9
:1041F00080913C058111F8CF6FC02091F300809130
:10420000F20090E0922B029729F48091F1008B7FCD
:10421000813021F48091F100809319058091E800AC
:104220008B7756C080913E05813A09F055C0809148
:10423000420590914305892B09F04EC08091E8001A
:10424000877F8093E8008091E80080FFFCCF809119
:10425000150139C080913E058132F1F5809142050A
:1042600090914305892BC1F58091E800877F809369
:10427000E8000E9409138091400580931501109277
:1042800017050E94902B28C080913E05813221F5B0
:104290008091E800877F8093E8000E940913809155
:1042A00041058093180518C080913E05813AA1F41C
:1042B0008091E800877F8093E8008091E80080FF8C
:1042C000FCCF809118058093F1008091E8008E77F3
:1042D0008093E8000E9409138091E80083FFD6C113
:1042E00080913E0590913F05492F50E04A3051059D
:1042F00008F0CCC1FA01EB55FF4F0C94BC2D80386F
:1043000021F0823809F0C2C108C080913A0590912D
:104310003B05992389F082600FC0809142058F7020
:10432000873008F0B3C18093E9008091EB0085FBF2
:10433000882780F91092E9009091E800977F909388
:10434000E8008093F1001092F10074C1282F2D7FB6
:1043500009F09CC1882319F0823061F097C18091E7
:104360004005813009F092C1933009F080E08093DC
:104370003B052EC08091400581112AC080914205E5
:104380008F702FEF280F263008F080C18093E9004E
:104390002091EB0020FF1CC0933021F48091EB00B2
:1043A000806214C09091EB0090619093EB0021E04B
:1043B00030E0A90102C0440F551F8A95E2F74093EF
:1043C000EA001092EA008091EB0088608093EB0095
:1043D0001092E9008091E800877F2FC1811156C1BA
:1043E000109140051F778091E3008078812B8093A6
:1043F000E3008091E800877F8093E8000E94091322
:104400008091E80080FFFCCF8091E300806880937A
:10441000E300111102C082E001C083E080933C05FB
:1044200035C18058823008F031C1809140059091AB
:1044300041058C3D53E0950779F583E08A838AE254
:1044400089834FB7F894DE01139620E03EE051E2F5
:10445000E32FF0E050935700E49120FF03C0E29572
:10446000EF703F5FEF708E2F90E0EA3010F0C7964C
:1044700001C0C0968D939D932F5F243149F74FBFA4
:104480008091E800877F8093E8006AE270E0CE01C7
:1044900001960E949914BDC0409142055091430578
:1044A000292F332723303105B9F06CF42130310541
:1044B00009F4FBC02230310509F0E8C08BE390E03D
:1044C000E0E3F7E054C02132310509F433C0223271
:1044D000310509F43CC0DAC0992781309105D1F04B
:1044E0005CF4892B09F0D2C0E3EBF7E0E4918E2F66
:1044F00090E0E3EBF7E038C08230910599F0039744
:1045000009F0C4C0EDE7F7E0E4918E2F90E0EDE70D
:10451000F7E02AC0EBE9F7E0E4918E2F90E0EBE9B9
:10452000F7E022C0E3E8F7E0E4918E2F90E0E3E8C3
:10453000F7E01AC04115510509F4BCC041305105DE
:1045400009F0A4C089E090E0EBE5F7E010C0411568
:10455000510509F4B4C04130510509F097C080EC11
:1045600090E0E0E3F6E003C0009709F48FC02091EB
:10457000E800277F2093E80020914405309145050D
:104580002817390708F4C90140E0009789F1209104
:104590003C05222309F43DC02530D9F12091E800E3
:1045A00023FD37C02091E80022FD2FC02091E800B4
:1045B00020FFEBCF4091F3002091F20030E0342B4C
:1045C000009759F02830310540F444914093F100B0
:1045D000319601972F5F3F4FF3CF41E028303105EF
:1045E00009F040E02091E8002E772093E800CDCF3D
:1045F0004111CDCF0AC080913C05882351F0853010
:1046000041F08091E80083FD04C08091E80082FFC2
:10461000F2CF8091E8008B778093E80037C0803834
:10462000A9F58091E800877F8093E80080913D059F
:104630008093F1008091E8008E778093E8000E94DB
:10464000091324C0811122C0109140051230F0F4EA
:104650008091E800877F8093E80010933D050E94D9
:104660000913111106C08091E30087FD02C081E0AB
:1046700001C084E080933C0542E061EC81E00E944F
:10468000281342E261EC82E00E9428138091E80046
:1046900083FF1AC08091E800877F8093E8008091B3
:1046A000EB0080628093EB000FC082E190E0EBE6CC
:1046B000F7E05DCF89E090E0E2E4F7E058CF80E4F6
:1046C00090E0E0EFF6E053CFAA960FB6F894DEBF85
:1046D0000FBECDBFDF91CF911F9108958091190535
:1046E0000895CF93DF9300D01F92CDB7DEB720910E
:1046F0003C05243031F523E02983805891099B83C0
:104700008A8382E08093E9008FEF9091E8008150E6
:1047100095FD06C095ED9A95F1F700008111F5CF52
:104720008091E80085FF0DC040E050E063E070E05C
:10473000CE0101960E9462208091E8008E778093DE
:10474000E8000F900F900F90DF91CF9108950F9395
:104750001F93CF93DF9300D01F92CDB7DEB78C01AC
:104760000E94FC14823011F0843021F584E08983AA
:104770001B830A8382E08093E9008FEF9091E80029
:10478000815095FD06C095ED9A95F1F700008111D5
:10479000F5CF8091E80085FF0DC040E050E063E078
:1047A00070E0CE0101960E9462208091E8008E7731
:1047B0008093E8000F900F900F90DF91CF911F91A1
:1047C0000F910895CF93DF93EC010E94FC14823087
:1047D00011F08430F9F482E08093E9009FEF80913A
:1047E000E800915085FD06C085ED8A95F1F700003F
:1047F0009111F5CF8091E80085FF0CC040E050E0BA
:1048000066E070E0CE010E9462208091E8008E7721
:104810008093E800DF91CF910895CF93DF93EC016F
:104820000E94FC14823011F08430D9F5809115017A
:10483000882339F080918F0387FF03C060E282E014
:1048400002C068E081E08093E9008FEF9091E8007A
:10485000815095FD06C095ED9A95F1F70000811104
:10486000F5CF8091E80085FF1CC080911501811172
:1048700005C040E050E068E070E003C070E040E058
:1048800050E0CE010E9462208091E8008E778093F4
:10489000E80080E2FE01AAE1B5E001900D928A9560
:1048A000E1F7DF91CF910895803F39F48091A5031E
:1048B00087FF6CC01092A50369C0813F29F48091E5
:1048C000A5031816BCF362C09091A403823F29F49B
:1048D00097FF5CC01092A40359C0833F19F41916C6
:1048E000CCF354C0893F41F48091A60318160CF014
:1048F0004DC01092A6034AC08A3F29F48091A603B6
:1049000087FF44C0F6CF8B3F39F48091A70387FF20
:104910003DC01092A7033AC08C3F29F48091A703B1
:104920001816BCF333C0843F21F48091A3038E7F1B
:1049300017C0853F21F48091A3038D7F11C0863F6E
:1049400021F48091A3038B7F0BC0873F21F48091DA
:10495000A303877F05C0883F31F48091A3038F7E36
:104960008093A30313C08D3F21F48091CE058E7FE9
:104970000BC08E3F21F48091CE058D7F05C08F3F07
:1049800029F48091CE058B7F8093CE058091A4037E
:1049900081110EC08091A50381110AC08091A603E8
:1049A000811106C08091A703811102C01092A80353
:1049B00008958091CE0580FD16C081FD16C082FD50
:1049C00018C08091A803882391F0883290F428E0E1
:1049D000829FC001112468E270E00E94A82D862FFA
:1049E000672B29F007C082E0089584E0089581E0F4
:1049F000089588E008958091CE0580FD14C081FD62
:104A000014C082FD16C08091A803882381F08E31E6
:104A100080F42DE2829FC00111246EE170E00E94BB
:104A2000A82D862F08958BE0089586E1089585E0EE
:104A300008958DE20895803F21F40E94FB24819522
:104A400004C0813F29F40E94FB248093A5030895AC
:104A5000823F21F40E94FB24819504C0833F29F406
:104A60000E94FB248093A4030895893F19F40E94B7
:104A7000D92405C08A3F31F40E94D92481958093BE
:104A8000A60308958B3F21F40E94D924819504C088
:104A90008C3F29F40E94D9248093A7030895843F72
:104AA00021F48091A303816017C0853F21F4809198
:104AB000A303826011C0863F21F48091A303846028
:104AC0000BC0873F21F48091A303886005C0883F15
:104AD00031F48091A30380618093A30308958D3FF7
:104AE00021F48091CE0581600BC08E3F21F480912E
:104AF000CE05826005C08F3F29F48091CE05846089
:104B00008093CE05089578941F920F920FB60F925E
:104B100011248F939F93AF93BF938091CA05909177
:104B2000CB05A091CC05B091CD050196A11DB11D7D
:104B30008093CA059093CB05A093CC05B093CD0587
:104B4000BF91AF919F918F910F900FBE0F901F90CB
:104B50001895CF92DF92EF92FF920F931F932FB78A
:104B6000F894C090CA05D090CB05E090CC05F090A9
:104B7000CD052FBF97018601061B170B280B390B9C
:104B8000C616D706E806F90618F0C901B80106C02E
:104B9000C901B80161507109810991091F910F91F3
:104BA000FF90EF90DF90CF900895CF92DF92EF9239
:104BB000FF920F931F932FB7F8944091CA0550911D
:104BC000CB056091CC057091CD052FBF6A017B01AB
:104BD000EE24FF248C0120E030E0C016D106E2066E
:104BE000F30610F4415051099A01281B390BC901F1
:104BF0001F910F91FF90EF90DF90CF9008952FB706
:104C0000F8948091CA059091CB05A091CC05B09104
:104C1000CD052FBF0895E0919103F0919203309755
:104C200049F082E08093A2030480F581E02D82EABE
:104C300093E009950E94FF259093AA038093A9030E
:104C400008951F920F920FB60F9211248F939F9386
:104C5000AF93BF9380919303811113C08091CA05D4
:104C60009091CB05A091CC05B091CD054196A11DA9
:104C7000B11D8093CA059093CB05A093CC05B0934A
:104C8000CD05BF91AF919F918F910F900FBE0F9067
:104C90001F90189520911501222321F020918F0358
:104CA00027FD04C0FC013296089619C0262F2695D0
:104CB000269526952E31C0F4FC01E20FF11D677098
:104CC00081E090E001C0880F6A95EAF780959281B3
:104CD0008923828308953196E817F90729F0208106
:104CE0002613F9CF1082F7CF0895209115012223C2
:104CF00021F020918F0327FD05C0FC0132962FEF94
:104D000030E019C0262F2695269526952E3120F5C0
:104D1000FC01E20FF11D677081E090E001C0880F97
:104D20006A95EAF79281892B828308952F3F39F0A3
:104D30003F5F363041F041914613F8CF0DC041112D
:104D4000F7CF232FF5CF2F3F39F0FC01E20FF11DF4
:104D500027FDFA9562830895089580E090E00E940F
:104D60005A2D21E08D3E9E4F09F020E0822F0895BC
:104D70006DEE7EEF80E090E00E947E2D60E082E0AC
:104D800090E00E94602D60E083E090E00E94602D42
:104D90001092C6051092C7051092C8051092C90559
:104DA00060E084E090E00E94602D60E085E090E0AB
:104DB0000E94602D60E086E090E00E94602D6FEF21
:104DC00087E090E00E94602D40E050E0BA0188E06A
:104DD00090E00E94722D60E08DE090E00E94602DD6
:104DE00040E050E0BA0188E190E00E94722D60E05E
:104DF00087E190E00E94602D40E050E0BA0180E140
:104E000090E00E94722D40E050E0BA018FE090E007
:104E10000E94722D40E050E0BA0183E190E00C94D2
:104E2000722DCF92DF92EF92FF926C01EE24FF245D
:104E3000C114D104E104F10421F0C701B60120E15D
:104E400001C020E0C72ED82EE92EFF24C114D104C2
:104E5000E104F10419F0285FC701B6016B017C0180
:104E600054E0F694E794D794C7945A95D1F7C114B7
:104E7000D104E104F10419F02C5FC701B6016B0104
:104E80007C0142E0F694E794D794C7944A95D1F711
:104E9000C114D104E104F10419F02E5FC701B60179
:104EA000DC01CB01B695A79597958795892B8A2B21
:104EB0008B2B09F02F5F822FFF90EF90DF90CF9028
:104EC00008958091C50581111092C50508959091AE
:104ED000C40580911705892B2091C305982F922B2B
:104EE000909367058091C5058823D9F0892B80931D
:104EF000670580911501882331F080918F0387FF2A
:104F000002C08EE101C086E0E9E6F5E090E0815064
:104F100028F021912223D9F39F5FF9CF91110E94AC
:104F20006127E0919103F09192033097A9F080916D
:104F30001501882359F080918F0387FF07C0809166
:104F400067058093680585E0809367050280F3819B
:104F5000E02D87E695E009940895BF92CF92DF9205
:104F6000EF92FF920F931F93CF93DF938C01C0902A
:104F7000C605D090C705E090C805F090C90580919E
:104F8000BE059091BF05A091C005B091C105C82A8A
:104F9000D92AEA2AFB2ACFE1D0E0D701C6010C2E9C
:104FA00004C0B695A795979587950A94D2F780FF88
:104FB00007C0BC2EB8018C2F0E94920C019719F4E7
:104FC000219758F7B12C8B2DDF91CF911F910F9125
:104FD000FF90EF90DF90CF90BF900895CF93DF9335
:104FE000EC010E94AD27BE010E94920CDF91CF918F
:104FF0000895292F220F920F990F890F682F669518
:1050000066956695982F977085E0689FB00111248A
:1050100040E050E080E0FA01E60FF71FE957FA4F51
:10502000208130E0092E02C0369527950A94E2F7D8
:1050300021703327042E01C0220F0A94EAF7822B35
:105040004F5F5F4F4530510531F70895292F220FEB
:10505000920F990F890FA82FA695A695A6958770F0
:1050600051E001C0550F8A95EAF785E0A89FD0016D
:10507000112420E030E070E0F901EA0FFB1FE9574E
:10508000FA4F4081CB01022E02C0969587950A9473
:10509000E2F781709927819584278523842780836F
:1050A0002F5F3F4F2530310539F708950F931F9338
:1050B00041E050E060E070E004C0440F551F661FFF
:1050C000771F8A95D2F7409550956095709580919D
:1050D000BE059091BF05A091C005B091C1058A01A0
:1050E0009B01082319232A233B23C901B8011F91DF
:1050F0000F910C9417292091C205809582238093EB
:10510000C205982F977079F430E0482F082E000CD4
:10511000550B2417350739F08595859585950E949F
:1051200056281092C20508950F931F9341E050E056
:1051300060E070E004C0440F551F661F771F8A951A
:10514000D2F78091BE059091BF05A091C005B091A6
:10515000C1058A019B01082B192B2A2B3B2BC90166
:10516000B8011F910F910C94172920910806909176
:10517000D70556E02917A9F030E0529FF001539F60
:10518000F00D1124E852FA4F7181671306C0708147
:10519000871303C07281471306C02F5F3F4F2770EC
:1051A000E9CF80E0089581E008950E94EE27292F3D
:1051B0002F7092959F70E92FF0E03297EE30F10555
:1051C000B8F4E155FF4F0C94BC2D803F99F018F4D2
:1051D000803E70F40FC0843F59F40CC0803E50F004
:1051E000813F31F407C0822F869586958695089574
:1051F00080E0089581E008951092C4051092C305DF
:105200000E946727E2EAF3E086E0DF011D928A95BB
:10521000E9F71092A8031092CE050E940B2680E0B9
:1052200090E00E94C01B80E090E00C94AA1BCF92FB
:10523000DF92EF92FF926B017C010E94112756983A
:105240005E9825982D9826982E9827982F9890E06C
:10525000FC013197E730F105A8F4E354FF4F0C94BB
:10526000BC2D259A2D9A0EC0259A2D9A269A2E9AF3
:1052700009C0259A2D9A04C0259A2D9A269A2E9A0D
:10528000279A2F9AC092BE05D092BF05E092C00522
:10529000F092C105FF90EF90DF90CF900C94FC2826
:1052A0006093C6057093C7058093C8059093C905A0
:1052B0000C94FC28809108069091D705891719F065
:1052C0008F5F8770FBCF08958091D60582958F7090
:1052D00009F054C08091D305882309F44FC0809110
:1052E0000806A091D7056091D1057091D205409133
:1052F000D4055091D505B6E08A1709F43FC090E077
:1053000041155105C1F17F3F11F46F3FA1F1B89FE5
:10531000F001B99FF00D1124E852FA4F2181721368
:105320002AC02081621327C02281211124C0238139
:1053300034812417350710F421503109241B350B13
:10534000283C3105C0F42091D6052F7020612093B0
:10535000D60526E0289FF001299FF00D1124E35285
:10536000FA4F80818F708061808381ED95E00E948B
:10537000FB030C945A2901968770BECF08959F9223
:10538000AF92BF92CF92DF92EF92FF920F931F9353
:10539000CF93DF93CDB7DEB761970FB6F894DEBF3A
:1053A0000FBECDBF7C0185E0F701DE011D960190A7
:1053B0000D928A95E1F7D701DC9011960C91119727
:1053C0001296CC9012971396AD90BC901497309192
:1053D000D1054091D2058091D4059091D5050097D3
:1053E00009F462C14F3F19F43F3F09F45DC1909049
:1053F000D305992009F4FFC02091D605A816B90657
:1054000028F0F501E81BF90BCF0104C080959095B9
:105410008A0D9B1D11E0883C910548F010E0207F2B
:1054200009F0B0C081ED95E00E94FB0335C1822FE9
:10543000807F09F06FC0401312C03D1110C0C11031
:105440000EC02F7020612093D60581ED95E00E945B
:10545000FB038091D605D70115968C931DC0AB2810
:1054600009F44EC00F3F21F4BFEFDB1609F448C02A
:10547000C11014C040E0602F8D2D0E94B5288823F4
:1054800069F081ED95E00E94FB03E1EDF5E086E037
:10549000DF011D928A95E9F710E02FC10F3F19F443
:1054A000BFEFDB1669F1C1102BC040E0602F8D2DDE
:1054B0000E94B528182F811123C0DD860E878D85A7
:1054C0009E850E94EE27292F22952F7030E02230F2
:1054D000310524F02430310534F05EC09F7051F066
:1054E000811108C00AC19F7029F0F7019581907F52
:1054F00009F403C190E2980F983008F04DC0FDC048
:105500001C2DCC2009F4F9C08091D60581608093D0
:10551000D605C2CF40130AC03D1108C0C11006C055
:105520008091D605D70115968C9399C0DD860E879C
:105530008D859E850E94D528882371F1CC2061F14C
:105540002091D605822F82958F7090E0029774F09B
:105550008091D1059091D20598878F831986BB865B
:10556000AA862C87CE0107960E94FB0386E0F701EE
:10557000A1EDB5E001900D928A95E1F70E946429B2
:1055800011E0BBC0401761F0DD860E878D859E85DA
:105590000E94D528811118C0C7010E94FB03F0CFDB
:1055A0003D11F2CFC110F0CF8091D605F701858370
:1055B000C7010E94FB0386E0E1EDF5E0DF011D92EB
:1055C0008A95E9F7192D99C0CC2031F32091D605A1
:1055D000822F82958F7090E0029744F28091D105DE
:1055E0009091D2059A8389831B82BD82AC822E83DF
:1055F000CE010196B9CFA816B90638F0A81AB90A93
:10560000B8ECAB16B10450F007C0809590958A0DA8
:105610009B1D883C910510F010E03EC01C2DCC2055
:1056200009F4BACF401327C03D1125C02091D605FB
:1056300020FD18C0822F82958F70482F50E04115B1
:10564000510581F0F70125834F30510541F08F5FFF
:10565000982F9295907F822F8F70892B8583C70119
:105660000E94FB0386E0F701A1EDB5E001900D92E9
:105670008A95E1F742C0DD860E878D859E850E9462
:10568000D528811173CF8091D60581608093D6058E
:10569000C7010E94FB0331C0E1EDF5E086E0DF01C8
:1056A0001D928A95E9F729C0CC2009F475CFDD86D3
:1056B0000E878D859E850E94D528182F882309F492
:1056C0006BCF86E0F701A1EDB5E001900D928A95D0
:1056D000E1F78091D1059091D2050E94EE27929535
:1056E0009F70963041F48091D00591E08927809396
:1056F000D0059093CF050E946429812F61960FB643
:10570000F894DEBF0FBECDBFDF91CF911F910F91F7
:10571000FF90EF90DF90CF90BF90AF909F90089553
:1057200080911501882331F080918F0387FF02C09B
:105730008EE101C086E0E9E6F5E0DF011D928A9581
:10574000E9F70C94FC28882341F080959091170587
:105750008923809317050C9467270895882339F0CF
:1057600090911705892B809317050C94672708954E
:10577000CF93C82F0E94322CC93349F42FEF83EC0A
:1057800099E0215080409040E1F700C000008C2F4C
:10579000CF910C94CB2B882309F463C0823869F431
:1057A0000E94D61B81FF5DC069E387E695E00E94F9
:1057B00075260E94672769E30EC0833891F40E9422
:1057C000D61B80FF4EC063E587E695E00E947526F4
:1057D0000E94672763E587E695E00E944A260C94BD
:1057E0006727843869F40E94D61B82FF3AC067E4B9
:1057F00087E695E00E9475260E94672767E4EBCF55
:105800009CEF980F913A10F4682FE5CF90E2980F33
:10581000983088F4877021E030E0A90102C0440F7D
:10582000551F8A95E2F7CA01809590911705892343
:1058300080931705D4CF9BE5980F933020F480E038
:1058400090E00C94C01B98E5980F973120F480E00D
:1058500090E00C94AA1B803F20F00E9454240C94EA
:105860000B260895882309F416C18238B1F40E94EA
:10587000D61B81FD10C169E387E695E00E9475267D
:105880000E9467272FEF41EE54E0215040405040E6
:10589000E1F700C0000069E317C08338D9F40E9423
:1058A000D61B80FDF8C063E587E695E00E9475266B
:1058B0000E9467278FEF91EE24E0815090402040B6
:1058C000E1F700C0000063E587E695E00E944A2604
:1058D0000C9467278438B1F40E94D61B82FDDBC08C
:1058E00067E487E695E00E9475260E9467274FEFE0
:1058F00051EE84E0415050408040E1F700C000008C
:1059000067E4E2CF9CEF980F913A30F4682F87E676
:1059100095E00E947526DCCF90E2980F983080F4D5
:10592000877021E030E0A90102C0440F551F8A951D
:10593000E2F7CA0190911705892B80931705C8CF0C
:105940009BE5980F933070F4853A29F0863A31F050
:1059500083E890E005C081E890E002C082E890E032
:105960000C94C01B98E5980F973108F08EC0883AC8
:1059700009F445C0893A09F445C08A3A09F445C09A
:105980008B3A09F445C08C3A09F445C08B3B09F4C5
:1059900045C08C3B09F445C08D3A09F445C0803BB5
:1059A00009F445C08E3A09F445C08F3A09F445C060
:1059B000813B09F445C0823B09F445C0833B09F4AF
:1059C00045C0843B09F445C0853B09F445C0863B8E
:1059D00009F445C0873B09F445C0883B09F445C03C
:1059E000893B09F445C08D3B09F445C08E3B09F461
:1059F00045C08A3B09F445C080E090E044C082EE97
:105A000090E041C089EE90E03EC08AEE90E03BC05D
:105A100085EB90E038C086EB90E035C083EB90E0FA
:105A200032C084EB90E02FC087EB90E02CC08CEC70
:105A300090E029C08DEC90E026C083E891E023C07F
:105A40008AE891E020C082E991E01DC084E991E0FC
:105A50001AC081E292E017C083E292E014C084E2AF
:105A600092E011C085E292E00EC086E292E00BC0A7
:105A700087E292E008C08FE690E005C080E790E002
:105A800002C08AE292E00C94AA1B803F20F00E94A0
:105A90001B250C940B260895F999FECF92BD81BD6C
:105AA000F89A992780B50895A6E1B0E044E050E067
:105AB0000C94862DA8E1B0E042E050E00C94862DD5
:105AC000262FF999FECF92BD81BDF89A019700B4B7
:105AD000021639F01FBA20BD0FB6F894FA9AF99A57
