:100000000C94C3030C94E0030C94E0030C94E00301
:100010000C94E0030C94E0030C94E0030C94E003D4
:100020000C94E0030C94E0030C94F11B0C94C51A9F
:100030000C94DD210C94E0030C94E0030C94E00399
:100040000C94E0030C94E0030C94E0030C94E003A4
:100050000C94E0030C946B210C94E0030C94E003EB
:100060000C94E0030C94E0030C94E0030C94E00384
:100070000C94E0030C94E0030C94E0030C94E00374
:100080000C94E0030C94E0030C94E0030C94E00364
:100090000C94E0030C94E0030C94E0030C94E00354
:1000A0000C94E0030C94E0030C94E00373077807CE
:1000B0007D07820787078C07910796079B07A00794
:1000C000A507EB04C007C307C607C907CC07CF07BE
:1000D000D407ED0793089308D008D0081B09390905
:1000E000150B790B8509630A760A760AF60CF90C6A
:1000F000FC0CFF0C020D050D080D230F280F320F0D
:10010000260F2B0F300F2E0FA011BA11E51123125D
:100110006512AC12AF12B212B512B812BB12BE12F7
:10012000C112C412C712CC12CF12D212D712DC12D3
:10013000DF12E2125C278327252983272529CB2775
:10014000EE272529E928FC28C329C329D529D52943
:10015000CC29D529D529D529C329C329D129D529E0
:10016000D529D129290035002B61E10029000000A3
:100170001E00140004001D003400E0001F001A00DF
:1001800016001B00E104E300200008000700060041
:10019000E2002C0021001500090019002A00E200ED
:1001A000220017000A00050000005000270DE30799
:1001B0000000E30500004F00100D2900000028009A
:1001C0000000510023001C000B0011000000520031
:1001D000240018000D0010002D00010025000C0067
:1001E0000E0036002E000151260012000F003700CD
:1001F0002F000251270013003300380030000100A7
:100200002A0031003400E50034000000290001001C
:10021000E000E1002A0000003A001E022002220253
:100220000100E2003B001F02210223020100E30063
:100230003C002F022F00260236022C003D00300227
:10024000300027023702CA5C3E0031023500350219
:100250000000C35C01000100000001000000C95C57
:1002600001000100000001000000C25C3F005200DC
:100270005100240200000B5D4000240021001E00FC
:10028000010001004100250022001F00370001008D
:100290004200260023002000270001004300250221
:1002A000010031002E00010044004500280001003B
:1002B0000100000001000100F50001000100000044
:1002C0000100010001000100010001000100010026
:1002D000F200FC00010001000100F000F100FA0052
:1002E0000100010001000100F300F900010001001C
:1002F00001000100F400FB0000000100010001000A
:1003000000000100000001000100010000000100E8
:100310000000010001004B004E0001000000010040
:1003200001004A0050000100A80001000100520035
:100330005100AC00AA00B60001004D004F00AB0018
:10034000A9000100010001000100010001000100FD
:100350004C000100AE0001000100000000000000A0
:10036000000000000000000000000000000000008D
:10037000000000000000000000000000000000007D
:10038000000000000000000000000000000000006D
:10039000000000000000000000000000000000005D
:1003A000000000000000000000000000000000004D
:1003B000000000000000000000000000000000003D
:1003C000000000000000000000000000000000002D
:1003D000000000000000000000000000000000001D
:1003E00000000000000000000000000086FFD5862D
:1003F000FFD586FFD586FFD586FFD500000055CBFB
:100400009E55CB9E55CB9E00000000000055CB9E14
:1004100055CB9E55CB9E00000000000055CB9E554D
:10042000CB9E55CB9E00000000000000000055CB85
:100430009E00000086FFD586FFD586FFD586FFD5B6
:1004400086FFD5F3DEEAF3DEEAF3DEEA0000000021
:1004500000000000000AE1FF0AE1FF0000000000C8
:100460000000000020B0FF20B0FF000000000000EE
:100470000F61EC0000000000000000000000000020
:1004800000000000000000000000000F61EC0F61A0
:10049000EC20FFEA0F61EC0000000F61EC20FFEAA6
:1004A00020FFEA20FFEA00000000000000000092A8
:1004B000E0FF92E0FF00000000CCFF0CE1F10CE156
:1004C000F10000000000000000000000000000003B
:1004D000000000000000000000A978FF00000000FC
:1004E000000000CCFFA978FFA978FFA978FF0000E1
:1004F0000086FFD586FFD586FFD586FFD500000094
:1005000000000000000000000000000000010101E8
:1005100001010101010102020202020202020203C0
:100520000303030303030304040404040404050590
:100530000505050606060606070707070708080853
:1005400008090909090A0A0A0B0B0B0C0C0C0D0D02
:100550000D0E0E0E0F0F0F1010111111121213139A
:100560001414151516161717181819191A1A1B1B13
:100570001C1D1D1E1E1F202021222223242425266F
:1005800026272829292A2B2C2D2D2E2F30313232A7
:10059000333435363738393A3B3C3D3E3F404142B3
:1005A000434445464748494A4C4D4E4F5051535499
:1005B000555658595A5B5D5E5F616264656668694D
:1005C0006B6C6D6F7072737577787A7B7D7E8082CD
:1005D000838587888A8C8E8F91939596989A9C9E16
:1005E000A0A2A3A5A7A9ABADAFB1B3B5B7BABCBE26
:1005F000C0C2C4C6C9CBCDCFD1D4D6D8DBDDDFE2F3
:10060000E4E7E9EBEEF0F3F5F8FAFDFF0501090286
:10061000A10185020901A10005091901290515009B
:10062000250195057501810295017503810105017B
:10063000093009311581257F950275088106093831
:100640001581257F950175088106050C0A3802156C
:1006500081257F950175088106C0C005010980A12B
:100660000185031A81002A830016010026030095E4
:100670000175108100C0050C0901A10185041A0152
:10068000002A9C02160100269C029501751081002B
:10069000C005010906A1018505050719E029E7152F
:1006A0000025019508750181020507190029EF153C
:1006B00000250195F07501810205081901290595AC
:1006C0000575019102950175039101C005010906A7
:1006D000A101050719E029E7150025019508750115
:1006E00081029501750881010507190029FF150090
:1006F00026FF009506750881000508190129059552
:100700000575019102950175039101C009023B0035
:10071000020100A0FA0904000001030101000921FF
:10072000110100012240000705810308000A0904A5
:100730000100010300000009211101000122C00095
:100740000705820320000A1201100100000008EDD5
:10075000FE0713010001020301040330000000162C
:10076000034500720067006F0064006F007800208E
:100770000045005A00000008035A005300410000E1
:1007800000040309040011241FBECFEFDAE0DEBF2E
:10079000CDBF13E0A0E0B1E0EEE9F2E602C00590C3
:1007A0000D92A23AB107D9F726E0A2EAB3E001C060
:1007B0001D92A934B207E1F70E94321D0C944D310D
:1007C0000C9400004F925F926F927F928F929F9253
:1007D000AF92BF92CF92DF92EF92FF920F931F934F
:1007E000CF93DF9300D000D01F92CDB7DEB7FC01CE
:1007F0000081D18083819481892B41F044244A94E3
:10080000D41006C091E00F3F19F403C091E001C07D
:1008100090E090FDBEC77F0185E0DE01119601905A
:100820000D928A95E1F7F701228189819A8122232D
:1008300049F00E948423182F682F89819A810E9491
:10084000FE2303C00E94D123182F24E5129FF0013C
:10085000112486E0D89EE00DF11D1124E00FF11D5A
:10086000EE0FFF1FEC59FE4F05911491F7018281A5
:100870000930FDE51F0759F00A302DE5120709F48C
:1008800046C0023C9CE5190709F09EC062C088235F
:1008900009F4C0C09091270581E0890F8770987F87
:1008A000853020F4892B8093270502C0909327057B
:1008B000809127058770EFEF8E9FC00111249595D9
:1008C00087959595879599279093890080938800BF
:1008D00090938B0080938A0090938D0080938C007E
:1008E00040912705509128056091290570912A05AE
:1008F0008FE090E00E94502E6091F6057091F70510
:100900008091F8059091F9050E94090F83C0882312
:1009100009F480C08091270583FB222720F991E00C
:10092000922790FB83F980932705992329F040E0D3
:1009300060E080E00E9458184091270550912805FA
:100940006091290570912A058FE090E00E94502E59
:1009500061C0882309F41DC7909117018091270574
:100960009F3F59F4109217018F7E8093270540E036
:1009700060E080E00E94581806C09FEF9093170136
:10098000806180932705409127055091280560914B
:10099000290570912A058FE090E00F900F900F903D
:1009A0000F900F90DF91CF911F910F91FF90EF90DB
:1009B000DF90CF90BF90AF909F908F907F906F907F
:1009C0005F904F900C94502E0B30FDE51F0711F5F2
:1009D000882309F4DEC680913E068370846080938C
:1009E0003E06109206010F900F900F900F900F90FF
:1009F000DF91CF911F910F91FF90EF90DF90CF90FB
:100A0000BF90AF909F908F907F906F905F904F902E
:100A10000C945C18F7018281882319F1033E2CE5C0
:100A20001207C1F050F4013E9CE5190781F0023E27
:100A3000ECE51E07B1F481E010C0043EFCE51F07A1
:100A400059F0053E2CE5120761F484E006C01092CF
:100A5000230505C082E001C083E0809323050E9446
:100A60002D1A17FF71C0F7018281882309F46CC029
:100A70008091FD058093A2031092FD0580912305CE
:100A8000813071F048F08230C1F08430E1F486EEBC
:100A90000E94262C88E115C082EE0E94A02C13C073
:100AA00083E00E94072C88E10E94A02C88E10E942C
:100AB000392C83E00E94FC2B06C082EE0E94A02C01
:100AC00087E50E94262C8FE39CE90197F1F700C08F
:100AD00000005801E894B7F82CE0C22ED12CC501D3
:100AE0000C2C02C0969587950A94E2F7282F2F7058
:100AF00041F0822F90E02A3010F44D9604C0069702
:100B000002C087E290E00E94262C94E0C91AD10826
:100B1000ECEFCE16EFEFDE0611F780912305813062
:100B200039F040F0823031F0843051F488E206C070
:100B30008CE204C082EE0E94392C02C00E94262C56
:100B40008091A2038093FD05033FFCE51F07C9F1D7
:100B500080F4083D8CE51807C9F0093D9CE51907AC
:100B6000E1F1073DECE51E07D9F526E241EE61EE25
:100B700010C0053FFCE51F0761F138F1063F8CE529
:100B8000180771F527E245EE66EE03C027E245EE51
:100B900065EEC7010F900F900F900F900F90DF91AF
:100BA000CF911F910F91FF90EF90DF90CF90BF906A
:100BB000AF909F908F907F906F905F904F900C942C
:100BC000331A26E241EE60EEE4CF27E245EE64EE12
:100BD000E0CF26E241EE62EEDCCF28E241E0D8CF62
:100BE000F7019281992309F44DC11092A3030230B9
:100BF000FCE51F0708F430C106312CE5120738F078
:100C000098012A5F3C452730310508F025C10E9434
:100C1000632290933A05809339050F308CE51807CD
:100C200009F4CFC008F042C00830ECE51E0709F413
:100C3000A8C0F0F404302CE5120709F490C068F461
:100C400002309CE5190709F486C003301C4509F001
:100C5000DFC0809139058260D9C00630FCE51F07EE
:100C600009F487C008F089C0809139058860CEC03A
:100C70000B308CE5180709F495C068F40930ECE5F1
:100C80001E0709F482C00A301C4509F0C1C08091DA
:100C90003905886080C00D302CE5120709F486C044
:100CA00008F087C0809139058D7FB0C00A3F9CE570
:100CB000190709F457C050F50231FCE51F0709F484
:100CC00088C068F400318CE5180709F47EC0013152
:100CD0001C4509F09DC0809139058F7B97C0043178
:100CE000ECE51E0709F487C008F479C005311C45FE
:100CF00009F08EC08091390582FB222720F991E00E
:100D0000922790FB82F990FB83F980C00D3F8CE520
:100D1000180709F452C058F40B3FECE51E0729F1FF
:100D20000C3F1C4509F074C080913A0560C00F3F2C
:100D30002CE5120709F458C080F101151D4509F092
:100D400067C080913A05982F909591708E7F892B7E
:100D500090FB81F94DC080913905816057C0809129
:100D6000390519C080913A051BC080913A0582600F
:100D70003FC080913905806149C08091390580620A
:100D800045C080913905806441C00E94E72B809165
:100D9000390580683BC0846039C080913A05826023
:100DA000816026C0809139058E7F30C080913905E1
:100DB00019C080913905877F29C080913A058D7FC0
:100DC00017C0809139058F7E21C0809139058F7DB4
:100DD0001DC00E94E72B809139058F7717C0809145
:100DE0003905877F8B7F12C080913A058D7F8E7F7A
:100DF00080933A050DC00E94E72B8091390587FB4F
:100E0000222720F991E0922790FB87F980933905FA
:100E10006091390510913A0584E090E00E943E2EE1
:100E2000612F81E290E00E943E2E0F900F900F9074
:100E30000F900F90DF91CF911F910F91FF90EF9046
:100E4000DF90CF90BF90AF909F908F907F906F90EA
:100E50005F904F900C94E72B8091FD050631FCE5E7
:100E60001F07A9F58A7A91E009F490E09093A40312
:100E7000882311F065E301C069E287E695E00E94EE
:100E80002E220EC006311C4509F008C18091A40332
:100E9000882309F47CC465E387E695E00E94062276
:100EA0000F900F900F900F900F90DF91CF911F91A7
:100EB0000F91FF90EF90DF90CF90BF90AF909F90F9
:100EC0008F907F906F905F904F900C943E23827232
:100ED000F801E25CFC45E431F10508F083C0EA5A10
:100EE000FF4F0C94263090913E0681E0892777CD04
:100EF0004EEA58E164EC78E12CC044EC58E16EEA2B
:100F000078E127C040EA58E167EA78E122C047EA81
:100F100058E160EA78E11DC04CE858E166E978E103
:100F200018C046E958E16CE878E113C048E758E199
:100F300062E878E10EC042E858E168E778E109C06C
:100F400044E658E16EE678E104C04EE658E164E616
:100F500078E10F900F900F900F900F90DF91CF914D
:100F60001F910F91FF90EF90DF90CF90BF90AF90C7
:100F70009F908F907F906F905F904F900C9445184A
:100F800065E082E013C068E086E010C06EE089E0B2
:100F90000DC064E18FE00AC067E185E107C0809180
:100FA0003E06837080661BCD62E289E10F900F9050
:100FB0000F900F900F90DF91CF911F910F91FF90A5
:100FC000EF90DF90CF90BF90AF909F908F907F90E9
:100FD0006F905F904F900C94DA1880913E0683706A
:100FE0008C68FDCC0115ECE51E07D9F00E3D1C45C3
:100FF00009F054C00F900F900F900F900F90DF9159
:10100000CF911F910F91FF90EF90DF90CF90BF9005
:10101000AF909F908F907F906F905F904F900C94C7
:1010200074220E94E72B2FEF84E39CE02150804044
:101030009040E1F700C00000F89481E08093E00068
:1010400080E28093D8001092C900EFE1FEE431976E
:10105000F1F700C000001DBA109268001CBC10BE61
:101060001FBA10927A0010926E0010926F001092C8
:101070007100109272001092C9001092BC0014B856
:1010800017B81AB81DB810BA1092BC0015B818B825
:101090001BB81EB811BA0C94003F7BC3F701008146
:1010A0001181992349F0C8010E948423D82E682F0A
:1010B000C8010E94FE2304C0C8010E94D123D82E7B
:1010C000B8018D2D0E945B0D182FA92ED82EF70187
:1010D000B580B2949FE0B922028101111092FC0503
:1010E0008091FA05877079F0002369F080E2810F22
:1010F000883048F082E00E945B248091FA05877076
:10110000992493948111912C8A2C82948FE08822C7
:10111000882D90E08C30910508F0EBC2FC01E65977
:10112000FF4F0C9426309A2D9F708A2D807FC92EF8
:1011300019F0C294B0EFCB220023B9F0CC2009F40F
:101140005EC280E2810F883010F0D11006C080911D
:10115000FD05C82AC092FD0505C08091FC05C82A7E
:10116000C092FC050E943E234AC2812F0E94392C66
:10117000CC2009F4BEC2C09480E2810F883010F008
:10118000D11006C08091FD05C822C092FD0505C0A2
:101190008091FC05C822C092FC050E943E23A9C292
:1011A0009A2D9F708A2D807FC92E803219F0C294AB
:1011B000A0EFCA22DD2021F0F1E0DF16F1F02BC014
:1011C000002389F08091FE05BB2059F0442443940C
:1011D000B41007C0C82AC81609F48BC2C092FE0515
:1011E00088C28C2912C0BB2029F055245394B51411
:1011F00009F47FC20E9438231AC0002349F06624F4
:1012000063946B1408F475C28C2D0E941C2C71C25F
:10121000B1106FC20CC0002319F0BB20A9F3EFC1BD
:10122000BB2029F0F9E37F2ED710FBC1F1C18C2D33
:101230000E94112C5EC28A2D86958695837019F0C6
:10124000813061F056C2002321F0812F9A2D9370D6
:1012500002C080E090E00E94231851C2002321F0D8
:10126000812F9A2D937002C080E090E00E940D18AB
:1012700046C2002319F1E5EFDE1669F0F6EFDF163E
:1012800081F0E4EF4E2ED41015C08091A703909109
:10129000A80381600BC08091A7039091A80382608E
:1012A00005C08091A7039091A80384609093A80340
:1012B0008093A703812F0E94032124C075EF572E2E
:1012C000D51471F066EF662ED61481F054EF752EAA
:1012D000D71015C08091A7039091A8038E7F0BC0F3
:1012E0008091A7039091A8038D7F05C08091A703EB
:1012F0009091A8038B7F9093A8038093A703812FDD
:101300000E9439200E94C721FAC18A2D837009F0FA
:1013100069C00111F2C1912F929596959770990F1E
:10132000990F812F8F70482E512C612C712C092E12
:1013300004C0440C551C661C771C0A94D2F714FF99
:1013400012C04FE050E060E070E004C0440F551F51
:10135000661F771F9A95D2F7DB01CA018095909599
:10136000A095B09503C080E090E0DC016A2D669501
:1013700066956370623019F1C8F42091FF053091D1
:1013800000064091010650910206613059F084290F
:101390009529A629B729BC01CD0162237323842393
:1013A00095230AC0422A532A642A752ABC01CD011A
:1013B00064297529862997290E9495249EC184292C
:1013C0009529A629B7294090FF0550900006609006
:1013D000010670900206BC01CD01642575258625A5
:1013E0009725EACF002319F08A2D817001C08695D8
:1013F000882309F482C1912F929596959770990F41
:10140000990F812F8F70482E512C612C712C092E31
:1014100004C0440C551C661C771C0A94D2F714FFB8
:1014200012C04FE050E060E070E004C0440F551F70
:10143000661F771F9A95D2F7DB01CA0180959095B8
:10144000A095B09503C080E090E0DC016A2D669520
:10145000669563706230D9F068F52091F605309199
:10146000F7054091F8055091F905613059F084294C
:101470009529A629B729BC01CD01622373238423B2
:1014800095231EC0422A532A642A752A13C0842930
:101490009529A629B7294090F6055090F705609048
:1014A000F8057090F905BC01CD01642575258625E8
:1014B000972506C0BC01CD01642975298629972985
:1014C0000E942A241AC12A2D2F70D22E002339F00F
:1014D000822F0E947424812F0E941C2C0EC1812F08
:1014E0000E94112C8D2D0E94362407C1812F92EF6E
:1014F000D91609F442C09D1538F0E0EFDE1671F000
:10150000F1EFDF16A9F176C043EF442ED414E1F1D8
:1015100034EF532ED51409F44FC06CC0002311F1E1
:10152000B110E7C02A2D2F7181E090E0A0E0B0E07B
:10153000AC01BD0104C0440F551F661F771F2A95DB
:10154000D2F78091F6059091F705A091F805B0913A
:10155000F9052A013B01482659266A267B26C30144
:10156000B20127C0552453945B1408F4C2C0DACFEB
:10157000002329F08A2D8F712FC00023D9F38A2DE3
:101580008F710E943624B5C0002381F02A2D2F715F
:1015900081E090E0A0E0B0E0BC01CD0104C0660FA6
:1015A000771F881F991F2A95D2F703C060E070E06B
:1015B000CB010E942A249DC0002389F02A2D2F717F
:1015C000D22E822F0E947424E8E0DE9EC0011124F6
:1015D00083608093FA058D2D0E9474248AC081E077
:1015E0000E945B24F1E0FB1508F083C082E00E94BA
:1015F0005B247FC0002339F0BB2009F4BBCF812FCF
:101600000E94A02C76C0BB2009F4B9CF893349F4DD
:101610002FEF87EE93E0215080409040E1F700C02B
:101620000000812F0E94392C64C0E2EFDE16E9F041
:10163000ED1540F0F0EFDF1681F021EF422ED414CB
:1016400029F12EC094EF592ED514D9F0D51480F07D
:1016500085EF682ED61489F023C0002309F44FC00B
:101660009091440681E0892705C00093440647C055
:1016700081E080278093440642C0011140C081E090
:10168000F9CF01113CC01092440639C0002329F063
:1016900080914306882321F329C0BB2009F32FC082
:1016A00080914306BB20C1F0882341F0909144060D
:1016B00081E089278093440610924306812F0023FE
:1016C00019F00E94A02C1BC00E94392C86E0F70163
:1016D00011928A95E9F713C0882389F001110FC090
:1016E0009091440681E08927809344061092430636
:1016F00006C088EF880D843010F40E943918812FBD
:101700009A2D0E94B529811105C01092A60310924E
:10171000A50311C0002319F0B110F7CF0CC0B11010
:10172000F4CF8091A5039091A603029771F7812FC2
:101730000E94262CEACF992061F18091FA0580FD64
:1017400028C0F70112828595859585950E9474249D
:10175000C7010E94E2038091FA05859585958595DC
:101760000F900F900F900F900F90DF91CF911F91DE
:101770000F91FF90EF90DF90CF90BF90AF909F9030
:101780008F907F906F905F904F900C94362469E219
:1017900083CB0F900F900F900F900F90DF91CF9110
:1017A0001F910F91FF90EF90DF90CF90BF90AF907F
:1017B0009F908F907F906F905F904F900895909141
:1017C000390592FF0DC0282F2871283019F4877F22
:1017D000846006C0282F2471243011F48B7F886028
:1017E00093FF0DC0282F2871283119F4877E84615A
:1017F00006C0282F2471243111F48B7E886120913A
:101800003A0520FF0DC0382F3871383019F4877F22
:10181000816006C0382F3171313011F48E7F8860BD
:1018200021FF0DC0282F2871283119F4877E81618E
:1018300006C0282F2171213111F48E7E886194FD1C
:10184000877E08953F924F925F926F927F928F9220
:101850009F92AF92BF92CF92DF92EF92FF920F933F
:101860001F93CF93DF9320E9289F7001299FF00CED
:101870001124C0E0D0E000E010E067018FEFC81A4B
:10188000D80A570182E0A80EB11CF701EC0FFD1F2A
:10189000E45AFC4F6491F601EC0FFD1FE45AFC4F33
:1018A0007491F501EC0FFD1FE45AFC4F8491611116
:1018B00007C0711105C0811103C020E040E03CC0A9
:1018C0000E94A219962E372E882E6091410670E054
:1018D00080E090E00E94032F20E030E04FE753E4E7
:1018E0000E94622E2B013C01682D70E080E090E0A8
:1018F0000E94052FA30192010E94912F0E94D42ED5
:10190000862E692D70E080E090E00E94052FA301F3
:1019100092010E94912F0E94D42E962E632D70E08A
:1019200080E090E00E94052FA30192010E94912F78
:101930000E94D42E282D492DC8010E945A180F5FED
:101940001F4F2396C039D10509F09FCFDF91CF916A
:101950001F910F91FF90EF90DF90CF90BF90AF90CD
:101960009F908F907F906F905F904F903F900895E1
:10197000CF93E82F873080F58091090190910A017B
:10198000892B09F047C0CE2F64E670E080E40E9406
:10199000332D90930A0180930901892BD1F464E6D9
:1019A00070E082E10E948A2D90930A0180930901E0
:1019B000892B79F481E090E001C0880FCA95EAF79D
:1019C00064E670E080950E948A2D90930A018093CE
:1019D0000901CF910C94062E90E0FC013797E73077
:1019E000F105C0F4EA58FF4F0C942630209A28984D
:1019F00011C0219A29980EC0229A2A980BC0239AC6
:101A00002B9808C0529A5A9805C0539A5B9802C006
:101A10003E9A4698CF910895CF93873008F03FC003
:101A20008091090190910A01892B09F041C064E677
:101A300070E080E40E94332D90930A0180930901A5
:101A4000892B11F0C0E027C064E670E083E10E94BA
:101A50008A2D90930A0180930901892B99F764E6F6
:101A600070E081E40E94332D90930A018093090174
:101A7000892B41F784E690E00E94BA2D97FF05C0BC
:101A800090930A0180930901DDCFC82FC095109271
:101A90000A01109209010E94062E8C2F0AC09FB1E4
:101AA0008FB1807F869586959370892B809501C034
:101AB00080E0CF910895CF93DF9324E5829FC0010A
:101AC0001124FC0146E0749FE00DF11D1124E60F86
:101AD000F11DEE0FFF1FEC59FE4FC591D491CE01C1
:101AE000C238D10569F1B0F4C133D10509F475C02C
:101AF00048F4C932D10509F469C0CA32D10509F4E4
:101B000073C085C0C533D10509F459C0C933D105A7
:101B1000B9F07DC0C33ED10571F138F4C03ED105A6
:101B2000B1F0C23ED10511F172C0C63ED105B9F186
:101B3000C73ED105C9F1C43ED10509F068C024C033
:101B40002091390520FD5DC021FD5BC060C0209162
:101B5000390520FD50C020913A0520FF57C18091E2
:101B6000390584FD51C183EE90E050C120913905C3
:101B700022FF4CC1F4CF8091390582FD3FC0809196
:101B80003A0580FD3EC0EBCF20913A0521FF3EC1D2
:101B90008091390584FD38C187EE90E037C12091EE
:101BA000390523FF33C1F4CF8091390583FD2CC063
:101BB00080913A0581FFECCF84EE90E027C120911F
:101BC000390525FF23C189E290E020C12091390524
:101BD00025FF1CC185E390E019C12091390526FF3E
:101BE00015C18AE290E012C12091390526FF0EC18D
:101BF00081E390E00BC189E390E008C182EE90E0C0
:101C000005C180EE90E002C186EE90E0FFC0C115F4
:101C100052E5D50708F075C0C11521E5D20728F0B7
:101C20009C2F8827816F906AF1C0C83ED10570F55E
:101C3000C03ED10508F0EAC0C83AD105B8F4C53AAB
:101C4000D10550F08C2F855AC82FD0E0C059DC4FF9
:101C5000888190E09064DAC0C130D10509F4D6C023
:101C600008F4D2C0249708F4CFC0D0C0CF3BD10530
:101C700008F0CAC08C2F885AC82FD0E0CC0FDD1FC7
:101C8000CD58DC4F888199819464C0C0C11540E271
:101C9000D40760F4C11551E0D50708F0B7C0C03FC4
:101CA000D10508F4B1C0CE019065B0C0C11580E483
:101CB000D80708F4A9C0C11520E5D20720F4CE0149
:101CC0009F70906AA3C0CE01F4E096958795FA952F
:101CD000E1F7282F23703C2F337081E090E002C0A1
:101CE000880F991F3A95E2F79C68922B2C2F2F7042
:101CF0002695269550E2259F90011124822B932B47
:101D000085C0C11546E5D40708F03FC0C11555E5AB
:101D1000D50748F08C2F0E94DF0B8F7190E0982F31
:101D20008827906273C0C11584E5D80728F09C2FDE
:101D30008827846F906A6AC09E01237033279C2F86
:101D400096959695C115D34580F441E050E002C0C8
:101D5000440F551F2A95E2F780E2989F90011124C5
:101D6000CA01822B932B9C6851C041E050E002C015
:101D7000440F551F2A95E2F780E2989F90011124A5
:101D8000CA01822B932B9A6841C0C1155AE5D50729
:101D900078F5C11589E5D80710F18C2F8F700E9456
:101DA000DF0B9E0194E0369527959A95E1F72F7009
:101DB00030E0322F22273069A901482B0EC09056FF
:101DC0008115904208F58D2F8F710E94DF0B9E01C7
:101DD000332730628F71A901582BCA0117C0C11572
:101DE00028E5D20788F09C2F8827806F906A0EC064
:101DF000C1154BE5D40740F0CE01C1155CE5D50710
:101E0000F0F69927906602C080E090E0DF91CF91D4
:101E10000895CF92DF92EF92FF926B017C010E94B6
:101E2000E82256985E9825982D9826982E982798FF
:101E30002F9890E0FC013197E730F105A8F4E358C2
:101E4000FF4F0C942630259A2D9A0EC0259A2D9A74
:101E5000269A2E9A09C0259A2D9A04C0259A2D9A61
:101E6000269A2E9A279A2F9AC701B601FF90EF90D3
:101E7000DF90CF90089540E060E080E00E94581825
:101E800081E080936605089580E290E090930A01D6
:101E9000809309018091B00381110EC00E942D2D05
:101EA00081E08093B0032FEF83ED90E321508040D9
:101EB0009040E1F700C0000064E670E080E40E941A
:101EC000332D90930A0180930901892B09F04EC0AC
:101ED00064E670E080E00E948A2D90930A0180936E
:101EE0000901892B09F042C064E670E080E00E949D
:101EF0008A2D90930A0180930901892BB9F564E634
:101F000070E08FE30E948A2D90930A01809309016B
:101F1000892B61F50E94062E64E670E080E40E9441
:101F2000332D90930A0180930901892BF9F464E61B
:101F300070E08CE00E948A2D90930A018093090141
:101F4000892BA1F464E670E080E00E948A2D9093D2
:101F50000A0180930901892B49F464E670E08FE35C
:101F60000E948A2D90930A01809309010E94062EF7
:101F7000809109010895CF93DF9356985E98259834
:101F80002D9826982E9827982F98C8E8D0E08FEFA4
:101F900090E099838883AAE8B0E011969C938E9391
:101FA000ECE8F0E091838083259A2D9A2FEF80E76B
:101FB00092E0215080409040E1F700C00000269A56
:101FC0002E9A2FEF80E792E0215080409040E1F779
:101FD00000C00000279A2F9A2FEF80E792E021504F
:101FE00080409040E1F700C0000025982D982FEF29
:101FF00080E792E0215080409040E1F700C000006F
:1020000026982E982FEF80E792E021508040904054
:10201000E1F700C0000027982F988091270587706E
:102020002FEF829FC00111249595879595958795EF
:1020300099279983888311969C938E9391838083AB
:1020400056985E9825982D9826982E9827982F9820
:10205000DF91CF91089584B1807F84B985B1807F6D
:1020600085B98AB1837F8AB98BB1837F8BB93E985A
:102070004698089580B38C7080BB81B3836F81BB19
:1020800008958F929F92AF92BF92CF92DF92EF927C
:10209000FF920F931F93CF93DF938091090190914B
:1020A0000A01892BA1F08091AF038F5F8093AF036A
:1020B00081110DC00E94440F90E090930A0180931B
:1020C0000901892B21F40E9401190E94BB0F6BE2C8
:1020D000E62E65E0F62E6701D0E0812C07E00D0FBB
:1020E0008D2F0E94B80C802F0E94B80C8D2F0E945B
:1020F0000C0DF6019081891719F0808311E001C061
:1021000010E0802F0E940C0DF6019781891719F0BD
:10211000878381E001C080E0182B812A0E942B1068
:10212000DF5FFFEFCF1ADF0AD730C1F60E94BB2175
:102130006AEF70E00E94FE2FBC01482F8091AA0335
:102140008823D9F11092AA03E0912105F09122058C
:10215000DF011E9690E08BEF0AEF10E020812B3F0D
:1021600099F0C22ED12C421720F09B012C193D0969
:1021700005C098012C193D09260F371F2E31310556
:1021800014F0808301C091E03196EA17FB0731F724
:102190009093AA03811002C0911111C01092A9035B
:1021A000E0912105F09122059091AA03AEE3B5E0FC
:1021B000BF01625F7F4F80E028C08110EFCF809128
:1021C000A9038111EBCF0091AB031091AC032091D7
:1021D000AD033091AE038FB7F89440910306509150
:1021E000040660910506709106068FBFDB01CA01E7
:1021F000801B910BA20BB30B4017510762077307AB
:10220000E0F40197A109B10918C0E70129917E0105
:102210003C91321741F030813B3F21F440832C93B5
:1022200091E001C081E0319611966E177F0769F742
:102230009093AA038093A903C6CF2FB7F894C090B8
:102240000306D0900406E0900506F09006062FBF26
:10225000C092AB03D092AC03E092AD03F092AE0318
:1022600040913A0650913B0660913C0670913D06C4
:102270004F3FDFEF5D076D077D07E9F0AA27BB271A
:102280008C019D0100951095209530950417150738
:102290002607370720F48FEF9FEFDC0104C0840F7F
:1022A000951FA61FB71F80933A0690933B06A093F5
:1022B0003C06B0933D0690906605911008C0D09101
:1022C0003E068D2F837019F0D695D69501C0D0E0CB
:1022D000809106018130A1F038F0823009F489C183
:1022E000833009F493C1B9C110921601C092360629
:1022F000D0923706E0923806F092390681E083C129
:1023000080910801D8130DC020913E06237030E063
:102310004091070150E081E02417350719F480E06F
:1023200001C081E08170809318014D2F50E046314B
:10233000510508F04CC1FA01EC57FF4F0C942630C0
:10234000882309F444C180911601182F110F110F31
:10235000180F05E0010F013308F000E3101708F033
:10236000F7C020E040E060E0812F90E00E945A1822
:102370001F5FF4CF80911601182F110F110F180F46
:1023800005E0010F013308F000E360913F06709112
:102390004006809141060E94A219E62ED72EC82E33
:1023A000101708F0D5C0E12FF0E0DF01A05CBC4FB2
:1023B0008C9190911701982331F02C2D4E2D6D2D7D
:1023C000CF010E945A181F5FEBCF80911601182F82
:1023D000110F110F180F05E0010F013308F000E392
:1023E000B0904006A09041062091420650E4E52EB0
:1023F0003E2D329F312D1124E32E101708F0A8C076
:10240000C12ED12CF601E05CFC4F90818091170128
:102410008923B9F0F601EE0FFF1FEF51FD4F8081C8
:1024200082958F7060913F068E9D600D11247B2DEB
:102430008A2D0E94A219462F282F672FC6010E94BD
:102440005A181F5FDACF80911601182F110F110F44
:10245000180F05E0010F013308F000E3B0904006CB
:10246000A09041062091420630E4C32E3C2D329FBD
:10247000312D1124C32E101708F06AC0E12EF12C63
:10248000F701E05CFC4F9081809117018923D9F01E
:10249000F701EE0FFF1FE052FD4F6081C69EB001B5
:1024A000112495E0759567959A95E1F780913F061F
:1024B000680F7B2D8A2D0E94A219462F282F672F87
:1024C000C7010E945A181F5FD6CF80911601182F9E
:1024D000110F110F180F05E0010F013308F000E391
:1024E000D0903F06E0904006C090410660914206C1
:1024F00066956695669580913606909137060E949E
:1025000098190E941D19805887FD8195880F282FE2
:102510003C2D239F212D1124822F6D2D7E2D0E9475
:10252000A219E62ED72EC82E101790F4E12FF0E056
:10253000DF01A05CBC4F8C9190911701982331F082
:102540002C2D4E2D6D2DCF010E945A181F5FECCF00
:1025500081E00033E8F13BC081EB94E11AC085E8EB
:1025600094E117C08AE895E11FC08BE695E11CC095
:1025700080E595E11EC084E395E11BC083E894E10A
:1025800008C08AE794E105C081E794E102C086E5CE
:1025900094E10E9402261CC087E494E10AC08FE601
:1025A00099E102C083E295E10E94A62511C08FE067
:1025B00095E10E942A250CC089E194E105C087EECF
:1025C00093E102C089EA93E10E94C92401C080E03E
:1025D000909116019F5F9093160181113EC082E099
:1025E0008093060180911801811137C0DD2351F0DD
:1025F00034C0D093080180913E0683708093070118
:102600000E94CD1583E08093060127C0C090360656
:10261000D0903706E0903806F09039068FB7F894DE
:1026200040910306509104066091050670910606DC
:102630008FBFDB01CA018C199D09AE09BF094C157A
:102640005D056E057F0518F40197A109B1094A9748
:10265000A105B10510F010920601911026C08091DD
:102660006605811122C08091270583FD1EC06091FF
:10267000F6057091F7058091F8059091F9050E9493
:10268000E822813029F0823041F482E090E002C0FB
:1026900081E090E00E94220C08C080911701811116
:1026A00004C040E060E00E945818882DDF91CF916F
:1026B0001F910F91FF90EF90DF90CF90BF90AF9060
:1026C0009F908F9008958033910540F5880F991F52
:1026D000880F991FFC01EC5DFE4F52813381808190
:1026E00083707181A82FB0E0E0E98E9FC0011124B2
:1026F00089539C4FFC01E70FF11DB4976083FC01E7
:10270000E50FF11DB4974083830F911DFC01B49731
:102710002083FD01EB53FC4F81E080830895FF92FD
:102720000F931F93CF93DF93182F062FF42EC0E043
:10273000D0E02F2D402F612FCE010E9463132196F0
:10274000C033D105B1F7DF91CF911F910F91FF9069
:1027500008950F931F9310E0F801EE0FFF1FE05252
:10276000FD4F9081905797FD9195000F111FF80133
:10277000EF51FD4FE081F0E0B097DF01AA0FBB1FE2
:102780008D010E0F1F1F2003D001219FB00D1124BA
:10279000E8E3F0E0E91BF10997FDF3959F01220FB3
:1027A000331F89010E0F1F1F40039001419F300D01
:1027B00011242A0F3B1F37FF02C021583F4F220F21
:1027C000232F221F330B620F1F910F9108950F9338
:1027D0001F93522F10E0F801EE0FFF1FEF51FD4F36
:1027E000E081F0E0B097EE0FFF1F9F015203D00190
:1027F000539FB00D1124000F111FF801E052FD4F3F
:10280000008110E000571109000F111F40039001D3
:10281000419F300D11242A0F3B1F37FF02C0215862
:102820003F4F220F232F221F330B620F1F910F9157
:1028300008950F931F93522F10E0F801EE0FFF1F22
:10284000EF51FD4FE081F0E0B0979F015203D001BE
:10285000539FB00D1124000F111FF801E052FD4FDE
:10286000008110E00057110940039001419F300D95
:1028700011242A0F3B1F37FF02C021583F4F220F60
:10288000232F221F330B620F1F910F910895EF9298
:102890000F931F9393E0099F8001112415950795CD
:1028A0006E2D600F1F910F91EF900895A22F50E0B1
:1028B000FA01EE0FFF1FEF51FD4F9081905297FDEF
:1028C0009195440F551FFA01E052FD4F3081232F9F
:1028D00030E02A1B3109290F311D97FD3A95620F0F
:1028E0000895E42FF0E0EE0FFF1FEF51FD4F6081E0
:1028F000621B0895E42FF0E0EE0FFF1FE052FD4F42
:102900006081621B0895622F0895E42FF0E0EE0FBE
:10291000FF1FE052FD4F408134EE439F412D1124B3
:10292000E82FF0E050E0445E5F4FDA01A21BB109EE
:102930009D01B7FF03C031952195310993E0220F26
:10294000331F9A95E1F7AF01421B530B9A0157FFD2
:1029500002C020E030E0582F259F212D1124822F26
:102960000895E42FF0E0EE0FFF1FE052FD4F40818D
:1029700034EE439F412D1124E72FF0E050E0445EF8
:102980005F4FDA01A21BB1099D01B7FF03C031956A
:102990002195310993E0220F331F9A95E1F7AF019A
:1029A000421B530B9A0157FF02C020E030E0279FE3
:1029B000212D1124722F0895FC019B01009721F411
:1029C00077FF2BC080E80895AC0197FF04C044272F
:1029D0005527481B590BB901640F751F37FD0CC0F3
:1029E000241B350BC901A5E0880F991FAA95E1F7B3
:1029F0000E94123080E20CC0CB0165E0880F991F65
:102A00006A95E1F7BA01621B730B0E94123080E6EF
:102A1000861BF7FF03C08195089580E00895EF922B
:102A20000F93CF93DF93D72FC82FC9010E19BA0187
:102A30000E94DC14602F681B7D2F8C2FDF91CF91BB
:102A40000F91EF9008950F93CF93DF93D72FC82F57
:102A5000C901BA010E94DC14682F600F7D2F8C2FF2
:102A6000DF91CF910F910895EF920F931F93CF9322
:102A7000DF93D62FC72F182FC9010E19010FBA01E6
:102A80000E94DC14081B202F219F212D1124822F4E
:102A90006D2F7C2FDF91CF911F910F91EF900895B3
:102AA000EF920F931F93CF93DF93D62F172FC82F3B
:102AB000C9010E19070FBA010E94DC14702F781B90
:102AC000719F712D11246D2F8C2FDF91CF911F914C
:102AD0000F91EF900895FF920F931F93CF93DF9381
:102AE000F62ED72F182FC901C12FC01BBA010E9483
:102AF000DC14982F990F890FC81B2C2F219F212D93
:102B00001124822F6F2D7D2FDF91CF911F910F9177
:102B1000FF900895FF920F931F93CF93DF93F62EAC
:102B2000172FD82FC901C72FC01BBA010E94DC1470
:102B3000982F990F890F7C2F781B719F712D11246D
:102B40006F2D8D2FDF91CF911F910F91FF900895E1
:102B50000F931F93CF93DF93082F000FEB0114E225
:102B60001093B103E2EBF3E0DE018D91819383E0FA
:102B7000E23CF807D1F724E630E041E150E061EBB8
:102B800073E0802F0E94DF2D105F6096143B41F7A9
:102B9000DF91CF911F910F9108958091C5038823F4
:102BA00029F067EC73E084E70E94A8151092C50332
:102BB0008091C603882329F067E574E087E70E94C7
:102BC000A8151092C6030895E1EBF3E060834183FA
:102BD00024E630E042E050E0BF01880F0C94DF2D86
:102BE000FF920F931F93CF93DF93E62FF0E0E55F03
:102BF000FA4F90819923B1F0F82E82E1689FE001AD
:102C0000112400E010E0F801EC0FFD1FE951FB4F2B
:102C10004081602F8F2D0E94E4150F5F1F4F0231FE
:102C2000110589F7DF91CF911F910F91FF900895C2
:102C3000CF93DF93C82F4BE06DEF0E94E41540E087
:102C40006AE08C2F0E94E4158FE39CE90197F1F76D
:102C500000C0000040E060E08C2F0E94E41540E0DE
:102C600061E08C2F0E94E41540E066E08C2F0E940A
:102C7000E41540E06DEF8C2F0E94E415D0E040E0B9
:102C80006D2F8C2F0E94E415DF5FD231C1F740E039
:102C90006D2F8C2F0E94E415DF5FD432C1F740E026
:102CA0006D2F8C2F0E94E415DF5FD43BC1F74BE002
:102CB0006DEF8C2F0E94E41541E06AE08C2F0E949A
:102CC000E41540E06DEF8C2FDF91CF910C94E4156B
:102CD0007F928F929F92AF92BF92CF92DF92EF92AC
:102CE000FF920F931F93CF93DF930E942D2D84E7C4
:102CF0000E94181687E70E94181604E211E0E12CE2
:102D0000F12C42E138E0A32EB12CCC24C394D12C79
:102D100077247394D80111962C91119730E0C90152
:102D200084971296CC911297D0E0A4971396EC91C9
:102D3000F0E0B497BC0197FF02C0695F7F4FA3E04A
:102D400075956795AA95E1F7D701AA0FBB1FAA0F42
:102D5000BB1FAC5DBE4F2C91237030E0429FD00171
:102D6000439FB00D1124A951BB4F4D01860E911CFC
:102D7000B5010E941230B60102C0660F771F8A9516
:102D8000E2F7CB01D4019C91892B8C93CE01D7FD26
:102D9000079663E0959587956A95E1F7429FB001A4
:102DA000439F700D112469517B4F4B01880E911C7C
:102DB000CE01B5010E941230B60102C0660F771F26
:102DC0008A95E2F7CB01D4019C91892B8C93CF019A
:102DD000F7FD079653E0959587955A95E1F7429F41
:102DE000E001439FD00D1124C951DB4FC80FD11D05
:102DF000CF01B5010E941230F60102C0EE0FFF1F95
:102E00008A95E2F7CF019881892B8883F901E55FE4
:102E1000FA4F7082FFEFEF1AFF0A0C5F1F4F60E35B
:102E2000E616F10409F076CF60E084E70E94F01521
:102E300061E087E7DF91CF911F910F91FF90EF90B5
:102E4000DF90CF90BF90AF909F908F907F900C9429
:102E5000F0150F931F93CF93DF93CDB7DEB767972E
:102E60000FB6F894DEBF0FBECDBF4B8B5C8B6D8B66
:102E70007E8B8F8B0E891F890115110531F05F3F05
:102E800031F481E04F3F19F403C081E001C080E0DC
:102E900080FD3BC08091A5039091A603019690937D
:102EA000A6038093A503242F30E0A1E0B0E0042E18
:102EB00001C0AA0F0A94EAF7852F90E0662319F063
:102EC0007091440605C0FC01ED5EFA4F70817A23D3
:102ED0007723A1F046E0489FF001499FF00D1124AF
:102EE000E20FF31FEE0FFF1FEC51FE4F40815181A7
:102EF000FC01ED5EFA4F9081A92B06C0FC01ED5E4E
:102F0000FA4FA0958081A823A08386E0FE013D961C
:102F1000DF01982F1D929A95E9F74D875E876F879D
:102F2000198B088BDE01179601900D928A95E1F7B7
:102F3000CE0107960E94DE2981113EC086E0FE0187
:102F40003796DE01119601900D928A95E1F7FF8187
:102F5000E8856A857B856115710531F0EF3F31F4B5
:102F600081E0FF3F19F403C081E001C080E080FDF3
:102F700023C020918D0530E0C90101968770992703
:102F80004091BE0550E08417950779F1F983EA83F3
:102F90007D836C8396E0929FD001939FB00D1124A6
:102FA000A257BA4FFE01319601900D929A95E1F722
:102FB00080938D050E94BF2416E08091BE059091FC
:102FC0008D058917F9F0189FC001112482579A4F77
:102FD0000E94DE298823B1F08091BE0590E0019621
:102FE000877099278093BE05E8CF0E94E72B109247
:102FF0008D051092BE05E7E8F5E086E0DF011D9241
:103000008A95E9F767960FB6F894DEBF0FBECDBF7D
:10301000DF91CF911F910F9108952091110530916B
:1030200012052817390771F0909312058093110546
:10303000E0913B05F0913C05309721F00084F1854B
:10304000E02D0994089520910F053091100528175F
:10305000390771F09093100580930F05E0913B05BF
:10306000F0913C05309721F00680F781E02D09941E
:103070000895E0913B05F0913C05309721F00190D7
:10308000F081E02D099480E00895882311F0FA0181
:1030900001C0FB01099480913E06837011F41092E7
:1030A000060180913E068C7F816080933E060895E4
:1030B0000C948F130C94631345E050E06CE170E0C6
:1030C0008EE396E00C942E2EEEE3F6E0248130E1C0
:1030D000231B08F420E024830C945C18EEE3F6E054
:1030E000248130E1230F08F42FEF24830C945C1823
:1030F000EEE3F6E0238130E1231B08F420E0238394
:103100000C945C18EEE3F6E0238130E1230F08F421
:103110002FEF23830C945C18EEE3F6E0228130E17C
:10312000231B08F420E022830C945C18EEE3F6E005
:10313000228130E1230F08F42FEF22830C945C18D6
:10314000EEE3F6E08181885081830C945C18EEE315
:10315000F6E08181885F81830C945C1890913E0633
:10316000892F86958695815C8F739370882321F0D3
:10317000880F880F892B02C0892F846580933E06B3
:10318000109206010C945C1890913E06892F86954A
:1031900086958F5F8F739370863120F4880F880F28
:1031A000892B02C0892F846080933E06109206010D
:1031B0000C945C1890913E0696959695981720F081
:1031C000961710F40C94C418880F880F90913E063F
:1031D0009370892B80933E06109206010C945C1824
:1031E000EEE3F6E081E380838091190190911A016A
:1031F000A0911B0181839283A3838FE784830C9426
:103200005C180E94681680E090E00E94282E8F3E95
:103210009E4F21F00E9474220E94F01845E050E079
:103220006CE170E08EE396E00E940A2E80913E06EB
:103230008C7F11F40C94F0180895482F982F46FDB8
:103240009095E92FEF739F7046FD9F5FE295EF70B9
:10325000EE0FF0E0E45EFE4F2181299F802D212DAD
:10326000112482958F702295207F822B3081982F98
:10327000930F892F47FD819580580895BC018230B6
:10328000910508F40895613E8EE1780748F49B01AA
:1032900095E0369527959A95E1F748E0420F01C0F1
:1032A0004FEF91E0242F30E0290F311D3595279500
:1032B000229FF001239FF00DF00D11246E177F0760
:1032C00018F44FEF420F04C02F3F39F091E0920FF6
:1032D000491740F78FEF890F08958FEF08950F93E7
:1032E000CF93DF93D72FC82F47FD4195E8E3F0E058
:1032F000CF01841B910947FD9395889FB001899F59
:10330000700D700D1124229FC001239F900D900D10
:103310001124860F971F0E943E19682F660F860F93
:10332000682F600F7D2F8C2FDF91CF910F91089523
:1033300020E030E0869F212D969F200D311D112425
:10334000C9010895EF92FF920F931F93CF93DF93DC
:10335000F62E472FE82FF0E0711106C0E45FFA4F18
:103360006491762F862F72C0272F30E0E45FFA4FEA
:10337000E4910E2F10E056E0659FC0011124CFEFBD
:10338000D0E0BE010E94FE2F5BEA5603C001579FAA
:10339000900D11248F0D911D8F0D911D982F990F58
:1033A000890F7E01E21AF30AE09ED001E19EB00D82
:1033B000F09EB00D1124489FA0011124452F5527E0
:1033C0007E01E41AF50AE09EA001E19E500DF09EF8
:1033D000500D11247E01E81AF108E29EC001E39E1F
:1033E000900DF29E900D1124892F9927C81BD90B9F
:1033F000C09FC001C19F900DD09F900D11246230DD
:10340000710591F048F461157105E1F061307105C5
:10341000A9F48B2F752F19C06430710561F038F055
:103420006630710579F00AC0892F7B2F0EC08E2F70
:103430007B2FE52F0AC08E2F792F02C0852F7E2F7C
:10344000EB2F03C08B2F7E2FE92F6E2FDF91CF91B3
:103450001F910F91FF90EF900895609123058CE0EC
:1034600090E00C943E2E0F931F93CF93DF93C62FC3
:10347000D42F122FFC0182818823C9F06093A3030B
:103480000E94BB2190930E0580930D0580E28C0F66
:10349000883008F056C0C77081E001C0880FCA9517
:1034A000EAF7DF91CF911F910F910C941C2C809122
:1034B000A30368132FC080910D0590910E050E9403
:1034C0009121C99738F500E20D0FCD17B9F080E2D0
:1034D0008C0F883040F4C77081E001C0880FCA9516
:1034E000EAF70E94112C083028F581E09D2F977093
:1034F00001C0880F9A95EAF70E941C2C812F0E9428
:10350000262C0830F0F4D77081E001C0880FDA95DE
:10351000EAF70AC080E28C0F883098F4C77081E027
:1035200001C0880FCA95EAF7DF91CF911F910F91E3
:103530000C94112C812FDF91CF911F910F910C943E
:10354000262CDF91CF911F910F910895E8EDF0E0C7
:1035500080818E7F80831092E2001092DA001092B8
:10356000E100A0EEB0E08C9181608C9380818F7738
:10357000808319BCA7EDB0E08C918E7F8C93808105
:103580008F7E80831092650508951F920F920FB66B
:103590000F9211242F933F934F935F936F937F93D9
:1035A0008F939F93AF93BF93CF93DF93EF93FF934B
:1035B000C091E900CF708091EC00D82FD17080FDD0
:1035C000D0E81092E9008091F000877F8093F000AE
:1035D00078940E9478261092E9008091F00088602B
:1035E0008093F000CD2BCF70C093E900FF91EF9155
:1035F000DF91CF91BF91AF919F918F917F916F910B
:103600005F914F913F912F910F900FBE0F901F90A0
:1036100018952091E4003091E50095E64091EC008A
:10362000842F817040FF23C08091E80080FD1DC081
:1036300080912C06882399F0853099F08091EB00D9
:1036400085FD11C04091E4005091E5002417350735
:1036500029F3915011F09A01E1CF84E0089582E0BE
:10366000089583E0089581E0089580E008954091F1
:10367000E80042FFDDCF089580912E0687FF11C03C
:103680008091E80082FD05C080912C068111F8CF61
:1036900011C08091E8008B770BC080912C068823A5
:1036A00049F08091E80080FFF8CF8091E8008E77A4
:1036B0008093E8000895982F973068F59093E9007B
:1036C000981739F07091EC002091ED005091F000C6
:1036D00003C0242F762F50E021FD02C09F5FECCF66
:1036E0003091EB003E7F3093EB003091ED003D7F59
:1036F0003093ED003091EB0031603093EB0070932C
:10370000EC002093ED005093F0002091EE0027FD97
:10371000E5CF80E008958F708093E90081E00895FF
:10372000CF92DF92EF92FF920F931F93CF93DF938D
:10373000C8EDD0E088818F7E8883E7EDF0E080815E
:103740008160808384E082BF81E080936505888109
:103750008E7F888302EE10E0F80110821092DA006A
:1037600081EEC82ED12CF601108288818F77888354
:1037700088818068888388818F7D888319BC1092B6
:103780002C0610922D0610922B0610922A0690EE0F
:10379000E92EF12CF70180818B7F80838881816005
:1037A000888342E060E080E00E945B1BF60180813C
:1037B0008E7F8083F8018081816080838081886032
:1037C0008083F70180818E7F8083888180618883F8
:1037D000DF91CF911F910F91FF90EF90DF90CF90ED
:1037E00008951F920F920FB60F9211242F933F93BB
:1037F0004F935F936F937F938F939F93AF93BF93F9
:10380000EF93FF938091E10082FF09C08091E20075
:1038100082FF05C08091E1008B7F8093E100809161
:10382000DA0080FF2AC08091D80080FF26C08091F6
:10383000DA008E7F8093DA008091D90080FF18C073
:1038400080E189BD82E189BD09B400FEFDCF81E040
:1038500080932C068091650581110FC00E94A61AE5
:103860000E94901B8091E20084608093E20005C07A
:1038700019BC10922C06109265058091E10080FF22
:1038800017C08091E20080FF13C08091E2008E7F1C
:103890008093E2008091E20080618093E200809159
:1038A000D80080628093D80019BC85E080932C06F4
:1038B0008091E10084FF34C08091E20084FF30C039
:1038C00080E189BD82E189BD09B400FEFDCF809110
:1038D000D8008F7D8093D8008091E1008F7E809307
:1038E000E1008091E2008F7E8093E2008091E2000F
:1038F00081608093E20080912D06882311F084E09E
:1039000007C08091E30087FD02C081E001C083E031
:1039100080932C060E94E72B0E94391810926605AE
:103920008091E10083FF27C08091E20083FF23C0E4
:103930008091E100877F8093E10082E080932C06F4
:1039400010922D068091E1008E7F8093E10080919E
:10395000E2008E7F8093E2008091E200806180939C
:10396000E20042E060E080E00E945B1B8091F0009A
:1039700088608093F000FF91EF91BF91AF919F918C
:103980008F917F916F915F914F913F912F910F9008
:103990000FBE0F901F901895209134063091350678
:1039A0002617370748F06115710539F42091E800B2
:1039B0002E772093E80001C0B901FC0120E06115D9
:1039C000710579F180912C068823F1F18530F1F1B0
:1039D0008091E80083FD3CC08091E80082FD2EC00C
:1039E0008091E80080FFEBCF2091F3008091F200FE
:1039F00090E0922B6115710551F08830910538F4F3
:103A000021912093F100615071090196F3CF21E0DB
:103A1000089709F020E08091E8008E778093E80015
:103A2000CECF2111CFCF0AC080912C06882361F020
:103A3000853061F08091E80083FD0AC08091E80044
:103A400082FFF2CF80E0089582E0089583E0089538
:103A500081E0089580912C06843011F081E0089572
:103A600082E00895CF93DF93CDB7DEB72A970FB6E4
:103A7000F894DEBF0FBECDBF84B7877F84BF0FB67B
:103A8000F894A895809160008861809360001092FE
:103A900060000FBE90E080E80FB6F894809361005C
:103AA000909361000FBE85B7806885BF85B7806839
:103AB00085BF0E94A61A0E94901B8091E20084603C
:103AC0008093E200789480912C068823A1F01091D5
:103AD000E9001F709091EC00892F817090FD80E8C3
:103AE000182B1092E9008091E80083FD0E9478264F
:103AF0001F701093E90082E084BD93E095BD9AEFBA
:103B000097BD80936E000E94440F90E090930A014D
:103B1000809309010E942B100E943A10ABE2B5E09D
:103B20000CE415E0EEE3F5E011921D9225E0EC3493
:103B3000F207D1F78EE090E00E942C3080932105AF
:103B400090932205FC010E962BEF21938E179F0771
:103B5000E1F780E090E00E94282E8F3E9E4F11F00A
:103B60000E9474220E9401198CE090E00E941A2E9B
:103B700090E0A0E0B0E08093230590932405A0930B
:103B80002505B093260589EA8093800089E080931B
:103B9000810024982C983F988AB18F7C8AB96E98BE
:103BA000479A8BB180638BB9769A8FE090E00E9440
:103BB000222E609327057093280580932905909302
:103BC0002A0567708FEF869FB00111247595679560
:103BD0007595679577277093890060938800709337
:103BE0008B0060938A0070938D0060938C0090919D
:103BF000270594FF03C08093170102C0109217019C
:103C00000E94BB0F80E090E00E94282E8F3E9E4FC6
:103C100011F00E94742282E090E00E941A2E80939C
:103C200056050E94632290933A058093390583E0FC
:103C300090E00E941A2E682F70E080E090E00E94D1
:103C400095240E944B180E944B180E945C188BE030
:103C500091E090933C0580933B05BB24B394AA2448
:103C6000AA9480E1982E92E1892E28E1C22ED12CCF
:103C700030E4732E80912C06853009F04AC00E94F2
:103C80003B0F80912C06843019F110923D050FB640
:103C9000F894A895C09260000FBE709260000E94D8
:103CA0003B0F83B7817F846083BF83B7816083BF0D
:103CB0007894889583B78E7F83BF0FB6F894A895C4
:103CC00080916000886180936000109260000FBE58
:103CD00080912B06882309F4CDCF0E94440F90E0F9
:103CE00090930A01809309010E942B100E943A10C0
:103CF000EEE3F5E011920E171F07E1F70E94411065
:103D0000EEE3F5E081918111DCC00E171F07D1F7BA
:103D1000B1CF0E944110A7E5B5E0EEE3F5E0E12C5C
:103D2000F12C3E2D21919D91922721F180E0662476
:103D30006394492F4621D1F089833A83262181E07B
:103D400009F480E08B830E94BB218160782F9D83E2
:103D50008C8349815A816B818D810E942917F701DB
:103D6000E95AFA4F8081682660821AC08F5F660C1C
:103D70008630F9F68FEFE81AF80A2EE0E216F10421
:103D800081F6AE82AF8218860E94BB218160782FB7
:103D90009A8789874E815F8168858A850E94291765
:103DA00080915305909154050E9491219C0190911E
:103DB0005205992321F02E30310508F476C0809108
:103DC0004E05F0904F0581110BC0F1108EC020916F
:103DD000500521118AC020915105211186C065C06E
:103DE0009F3F19F09F5F90935205181624F40E948C
:103DF000E02080934E0580914E0587FF05C00E940C
:103E0000E020819580934E051F1424F40E94E02049
:103E100080934F0580914F0587FF05C00E94E020E9
:103E2000819580934F0530914E053323D1F0209139
:103E30004F052223B1F045EB3403C001112499232F
:103E400019F090934E0502C0B0924E0535EB230356
:103E5000C0011124992319F090934F0502C0B0922C
:103E60004F0580915005181624F40E94BE208093BF
:103E700050058091500587FF05C00E94BE208195A6
:103E80008093500580915105181624F40E94BE209D
:103E9000809351058091510587FF05C00E94BE2087
:103EA0008195809351050E94C7210E9439189091F5
:103EB0005505891709F4DECE0E94391880935505FF
:103EC000D9CE99BC89BC09B400FEFDCF8091D80041
:103ED0008F7D8093D8008091E00082608093E00025
:103EE0008091E00081FDFCCFC5CE9F3F09F07ACFE5
:103EF0008BCF809109060895CF93DF9300D01F9256
:103F0000CDB7DEB790912C06943019F589837B8369
:103F10006A8382E08093E9008FEF9091E8008150FE
:103F200095FD06C095ED9A95F1F700008111F5CF4A
:103F30008091E80085FF0DC040E050E063E070E054
:103F4000CE0101960E944C268091E8008E778093E6
:103F5000E8000F900F900F90DF91CF910895CF93CD
:103F6000DF93EC010E942A1D823011F0843031F47D
:103F7000BE0184E0DF91CF910C947C1FDF91CF9143
:103F80000895BC016058710983E00C947C1FCF93A5
:103F9000DF93EC010E942A1D823011F08430F9F485
:103FA00082E08093E9008FEF9091E800815095FDC9
:103FB00006C095ED9A95F1F700008111F5CF80913B
:103FC000E80085FF0CC040E050E066E070E0CE0104
:103FD0000E944C268091E8008E778093E800DF9164
:103FE000CF910895CF93DF93EC010E942A1D823078
:103FF00011F08430D9F580911501882339F0809132
:10400000390587FF03C060E282E002C068E081E01A
:104010008093E9008FEF9091E800815095FD06C0F4
:1040200095ED9A95F1F700008111F5CF8091E800A8
:1040300085FF1CC080911501811105C040E050E052
:1040400068E070E003C070E040E050E0CE010E9404
:104050004C268091E8008E778093E80080E2FE0194
:10406000AAE0B6E001900D928A95E1F7DF91CF9139
:104070000895803F39F480914F0587FF6CC01092FE
:104080004F0569C0813F29F480914F051816BCF394
:1040900062C090914E05823F29F497FF5CC0109258
:1040A0004E0559C0833F19F41916CCF354C0893F0B
:1040B00041F48091500518160CF04DC01092500537
:1040C0004AC08A3F29F48091500587FF44C0F6CF4B
:1040D0008B3F39F48091510587FF3DC01092510507
:1040E0003AC08C3F29F4809151051816BCF333C0B7
:1040F000843F21F480914D058E7F17C0853F21F4C8
:1041000080914D058D7F11C0863F21F480914D0532
:104110008B7F0BC0873F21F480914D05877F05C0C1
:10412000883F31F480914D058F7E80934D0513C0FB
:104130008D3F21F4809107068E7F0BC08E3F21F4C6
:10414000809107068D7F05C08F3F29F48091070677
:104150008B7F8093070680914E0581110EC0809160
:104160004F0581110AC080915005811106C08091D0
:104170005105811102C010925205089580910706E1
:1041800080FD16C081FD16C082FD18C080915205C9
:10419000882391F08D3390F42BE0829FC00111248D
:1041A0006DE370E00E941230862F672B29F007C064
:1041B00082E0089585E0089581E008958BE00895F8
:1041C0008091070680FD17C081FD17C082FD19C0D0
:1041D00080915205882399F0853498F427E3829FD3
:1041E000C001112465E470E00E941230862F672B15
:1041F00049F481E008958DE008958BE1089585E00C
:10420000089587E30895803F21F40E94E02081957E
:1042100004C0813F29F40E94E02080934F05089557
:10422000823F21F40E94E020819504C0833F29F45D
:104230000E94E02080934E050895893F19F40E9462
:10424000BE2005C08A3F31F40E94BE208195809334
:10425000500508958B3F21F40E94BE20819504C033
:104260008C3F29F40E94BE20809351050895843F1D
:1042700021F480914D05816017C0853F21F4809124
:104280004D05826011C0863F21F480914D05846008
:104290000BC0873F21F480914D05886005C0883FA1
:1042A00031F480914D05806180934D0508958D3FD7
:1042B00021F48091070681600BC08E3F21F480912C
:1042C0000706826005C08F3F29F48091070684604D
:1042D00080930706089578941F920F920FB60F925D
:1042E00011248F939F93AF93BF9380910306909176
:1042F0000406A0910506B09106060196A11DB11D08
:104300008093030690930406A0930506B0930606D7
:10431000BF91AF919F918F910F900FBE0F901F9003
:104320001895CF92DF92EF92FF920F931F932FB7C2
:10433000F89440910306509104066091050670912F
:1043400006062FBF6A017B01EE24FF248C0120E0CA
:1043500030E0C016D106E206F30610F441505109D0
:104360009A01281B390BC9011F910F91FF90EF9003
:10437000DF90CF9008952FB7F89480910306909125
:104380000406A0910506B09106062FBF0895E0919E
:104390003B05F0913C05309749F082E080934C0555
:1043A0000480F581E02D8CE495E009950E94BB2105
:1043B000909354058093530508951F920F920FB662
:1043C0000F9211248F939F93AF93BF9380913D05DC
:1043D000811113C08091030690910406A0910506F7
:1043E000B09106064196A11DB11D809303069093DE
:1043F0000406A0930506B0930606BF91AF919F9166
:104400008F910F900FBE0F901F901895209115015E
:104410002223C9F02091390527FF15C0262F2695A4
:10442000269526952E31C8F4FC01E20FF11D677028
:1044300081E090E001C0880F6A95EAF7809592814B
:10444000892382830895FC0106962281621301C0AC
:1044500012823196E817F907C1F7089520911501E6
:104460002223C1F02091390527FF14C0262F26955D
:10447000269526952E3130F5FC01E20FF11D67706F
:1044800081E090E001C0880F6A95EAF79281892B5C
:1044900082830895FC0132962FEF30E0419164173A
:1044A00089F02F3F19F4411101C0232F3F5F3630AF
:1044B000A9F72F3F39F0FC01E20FF11D27FDFA9516
:1044C000628308950895CF9384E090E00E941A2EAD
:1044D000C82F81E290E00E941A2E2C2F30E0A90113
:1044E000582BCA01CF9108956FEE7EEF80E090E0E7
:1044F0000E945C2E60E082E090E00E943E2E60E030
:1045000083E090E00E943E2E1092FF05109200067C
:10451000109201061092020660E084E090E00E9492
:104520003E2E60E081E290E00E943E2E60E085E059
:1045300090E00E943E2E60E086E090E00E943E2ED9
:104540006FEF87E090E00E943E2E40E050E0BA011D
:1045500088E090E00E94502E60E08DE090E00E94A4
:104560003E2E40E050E0BA0188E190E00E94502EDB
:1045700060E087E190E00E943E2E40E050E0BA010A
:104580008CE190E00E94502E60E080E290E00E947A
:104590003E2E1092270510922805109229051092A0
:1045A0002A0584E08061809327054091270550917A
:1045B00028056091290570912A058FE090E00E94FE
:1045C000502E40E050E0BA0183E190E00C94502E70
:1045D000CF92DF92EF92FF926C01EE24FF24C11480
:1045E000D104E104F10421F0C701B60120E101C0CA
:1045F00020E0C72ED82EE92EFF24C114D104E104F7
:10460000F10419F0285FC701B6016B017C0154E089
:10461000F694E794D794C7945A95D1F7C114D1046E
:10462000E104F10419F02C5FC701B6016B017C01B4
:1046300042E0F694E794D794C7944A95D1F7C11411
:10464000D104E104F10419F02E5FC701B601DC01C9
:10465000CB01B695A79597958795892B8A2B8B2BA0
:1046600009F02F5F822FFF90EF90DF90CF90089599
:104670008091FE0581111092FE0508959091FD052F
:104680008091FC05892B2091FB05982F922B90930C
:1046900067058091FE058823D9F0892B80936705F3
:1046A00080911501882331F08091390587FF02C080
:1046B0008EE101C086E0E9E6F5E090E0815028F067
:1046C00021912223D9F39F5FF9CF91110E943823C2
:1046D000E0913B05F0913C053097A9F080911501E0
:1046E000882359F08091390587FF07C080916705BD
:1046F0008093680585E0809367050280F381E02D53
:1047000087E695E009940895BF92CF92DF92EF92E9
:10471000FF920F931F93CF93DF938C01C090F60508
:10472000D090F705E090F805F090F9058091FF052D
:1047300090910006A0910106B0910206C82AD92ADC
:10474000EA2AFB2ACFE1D0E0D701C6010C2E04C033
:10475000B695A795979587950A94D2F780FD04C0E2
:10476000219790F7B12C07C0BC2EB8018C2F0E9466
:104770005B0D0197A9F38B2DDF91CF911F910F91C5
:10478000FF90EF90DF90CF90BF900895CF93DF938D
:10479000EC010E948423BE010E945B0DDF91CF914A
:1047A0000895292F220F920F990F890F682F669570
:1047B00066956695982F977085E0689FB0011124E3
:1047C00040E050E080E0FB01E40FF51FE154FA4FB8
:1047D000208130E0092E02C0369527950A94E2F731
:1047E00021703327042E01C0220F0A94EAF7822B8E
:1047F0004F5F5F4F4530510531F70895292F220F44
:10480000920F990F890FE82FE695E695E695877048
:1048100051E001C0550F8A95EAF785E0E89FF00165
:104820001124E154FA4F20E030E070E04081CB01E8
:10483000022E02C0969587950A94E2F781708195C1
:1048400084278523842781932F5F3F4F25303105AF
:1048500069F708950E94090F6093F6057093F705B4
:104860008093F8059093F9050C94CC2B0F931F932C
:1048700041E050E060E070E004C0440F551F661F47
:10488000771F8A95D2F740955095609570958091E5
:10489000F6059091F705A091F805B091F9058A0108
:1048A0009B01082319232A233B23C901B8011F9127
:1048B0000F910C942A242091FA05809582238093ED
:1048C000FA05982F977079F430E0482F082E000CE5
:1048D000550B2417350739F08595859585950E94E8
:1048E00036241092FA0508950F931F9341E050E08B
:1048F00060E070E004C0440F551F661F771F8A9563
:10490000D2F78091F6059091F705A091F805B09146
:10491000F9058A019B01082B192B2A2B3B2BC90176
:10492000B8011F910F910C942A246093FF05709396
:10493000000680930106909302060C94CC2B2091E4
:10494000BE0590918D0556E02917A9F030E0529FE1
:10495000F001539FF00D1124E257FA4F7181761345
:1049600006C07081781303C07281741306C02F5F74
:104970003F4F2770E9CF80E0089581E0089580914E
:10498000BE0590918D05891719F08F5F8770FBCF59
:1049900008959F92AF92BF92CF92DF92EF92FF92D3
:1049A0000F931F93CF93DF936C0180911601C82F53
:1049B000CC0FCC0FC80F15E01C0F113308F010E31B
:1049C000609142066695669580913606909137060D
:1049D0000E949819D82F80E48D0F0E941D1990E82D
:1049E000F92EF80E8D2F0E941D1920E8922E980E98
:1049F000C11700F5AC2EB12CF501E05CFC4F9081A5
:104A0000809117018923A1F060913F0670914006C3
:104A100080914106ED2E0C2F292D4F2DF601099581
:104A20000E94A219462F282F672FC5010E945A18ED
:104A3000CF5FDECF81E0103308F080E0DF91CF91CF
:104A40001F910F91FF90EF90DF90CF90BF90AF90AC
:104A50009F9008956F927F928F929F92AF92BF9294
:104A6000CF92DF92EF920F931F93CF93DF933C018E
:104A700080911601C82FCC0FCC0FC80FD5E0DC0FEA
:104A8000D13308F0D0E360914206669580913606F6
:104A9000909137060E949819182FCD1708F044C03E
:104AA0008C2E912CF401E05CFC4F908180911701D9
:104AB0008923C1F1F401EE0FFF1FE052FD4FC080CA
:104AC000D12C80E7C81AD108F401EE0FFF1FEF5177
:104AD000FD4FA080B12CE0E2AE1AB108CC9C900151
:104AE000CD9C300D300D1124AA9CC001AB9C900DC3
:104AF000900D1124820F931F0E943E19082F609180
:104B00003F067091400680914106E12E9501A60175
:104B1000F30109950E94A219462F282F672FC4017F
:104B20000E945A18CF5FB9CF81E0D03308F080E0FF
:104B3000DF91CF911F910F91EF90DF90CF90BF90B9
:104B4000AF909F908F907F906F900895CF92DF925B
:104B5000EF92FF920F931F93CF93DF936C0180919D
:104B60001601C82FCC0FCC0FC80FD5E0DC0FD13306
:104B700008F0D0E3609142066695809136069091E8
:104B800037060E949819182FCD1778F5EC2EF12CC6
:104B9000F701E05CFC4F908180911701892319F1A6
:104BA000F701EE0FFF1FEF51FD4F208130E0205243
:104BB0003109F701EE0FFF1FE052FD4F408150E039
:104BC0004057510960913F0670914006809141061F
:104BD000012FF60109950E94A219462F282F672F51
:104BE000C7010E945A18CF5FCFCF81E0D03308F0C1
:104BF00080E0DF91CF911F910F91FF90EF90DF90B8
:104C0000CF900895DF92EF92FF920F931F93CF936F
:104C1000DF938C0180911601C82FCC0FCC0FC80FE9
:104C2000D5E0DC0FD13308F0D0E360914206669501
:104C3000669580913606909137060E949819D82E75
:104C4000CD17F0F4EC2EF12CF701E05CFC4F9081D5
:104C500080911701892391F060913F067091400681
:104C6000809141062D2D4C2FF80109950E94A21923
:104C7000462F282F672FC7010E945A18CF5FE0CF19
:104C800081E0D03308F080E0DF91CF911F910F9148
:104C9000FF90EF90DF900895EF92FF920F931F9394
:104CA000CF93DF937C018B010E94091B811119C0F6
:104CB000E70101151105A1F08091E80085FD0AC00A
:104CC0008091E8008E778093E8000E94091B88237A
:104CD00081F307C089918093F10001501109E9CF58
:104CE00080E0DF91CF911F910F91FF90EF90089599
:104CF0001F93CF93DF93CDB7DEB7AA970FB6F89483
:104D0000DEBF0FBECDBFEEE2F6E08091F1008193F1
:104D100026E0E633F207C9F780912F06833009F4C5
:104D200060C030F4813071F0823009F49AC0B1C0B3
:104D30008A3009F486C08B3009F46BC0893009F0E1
:104D4000A8C020C080912E06813A09F0A2C08091AF
:104D5000E800877F8093E8008091320690913306C7
:104D6000892B21F460E28AE096E003C060E080E0F5
:104D700090E070E00E94CC1C8091E8008B778093DB
:104D8000E80087C080912E06813209F082C08091B0
:104D9000320690913306029708F07BC08091E800BC
:104DA000877F8093E8008091E80082FD05C08091B4
:104DB0002C068111F8CF6DC02091F3008091F20094
:104DC00090E0922B029729F48091F1008B7F813043
:104DD00021F48091F100809309068091E8008B779F
:104DE00054C080912E06813A09F053C0809132065A
:104DF00090913306892B09F04CC08091E800877FA1
:104E00008093E8008091E80080FFFCCF809115013D
:104E100037C080912E068132E1F580913206909163
:104E20003306892BB1F58091E800877F8093E800F5
:104E30000E943C1B80913006809315010E94E72B55
:104E400028C080912E06813221F58091E800877F6D
:104E50008093E8000E943C1B8091310680930806F5
:104E600018C080912E06813AA1F48091E800877FD6
:104E70008093E8008091E80080FFFCCF80910806D5
:104E80008093F1008091E8008E778093E8000E9483
:104E90003C1B8091E80083FFD8C180912E06909141
:104EA0002F06492F50E04A30510508F0CEC1FA01D3
:104EB000E656FF4F0C942630803821F0823809F0F6
:104EC000C4C108C080912A0690912B06992389F0CD
:104ED00082600FC0809132068F70873008F0B5C1B4
:104EE0008093E9008091EB0085FB882780F9109280
:104EF000E9009091E800977F9093E8008093F1009B
:104F00001092F10071C1282F2D7F09F09EC18823D6
:104F100019F0823061F099C180913006813009F03A
:104F200094C1933009F080E080932B062EC08091CD
:104F3000300681112AC0809132068F702FEF280F22
:104F4000263008F082C18093E9002091EB0020FF19
:104F50001CC0933021F48091EB00806214C09091CA
:104F6000EB0090619093EB0021E030E0A90102C0DA
:104F7000440F551F8A95E2F74093EA001092EA0029
:104F80008091EB0088608093EB001092E9008091A3
:104F9000E800877F2CC1811158C1109130061F771E
:104FA0008091E3008078812B8093E3008091E8007A
:104FB000877F8093E8000E943C1B8091E80080FF7F
:104FC000FCCF8091E30080688093E300111102C060
:104FD00082E001C083E080932C0637C18058823084
:104FE00008F033C180913006909131068C3D53E03A
:104FF000950779F583E08A838AE289834FB7F8942D
:10500000DE01139620E03EE051E2E32FF0E0509302
:105010005700E49120FF03C0E295EF703F5FEF700F
:105020008E2F90E0EA3010F0C79601C0C0968D93A5
:105030009D932F5F243149F74FBF8091E800877F10
:105040008093E8006AE270E0CE0101960E94CC1CD9
:10505000BAC04091320650913306292F33272330AE
:105060003105B1F068F42130310509F4FDC022307A
:10507000310509F0EAC08BE390E0ECE0F7E050C0C6
:105080002132310581F12232310509F439C0DDC008
:10509000992781309105B9F070F082309105D9F0EF
:1050A000039709F0D2C0E9E5F7E0E4918E2F90E094
:1050B000E9E5F7E032C0E1E8F7E0E4918E2F90E017
:1050C000E1E8F7E02AC0E7E7F7E0E4918E2F90E00F
:1050D000E7E7F7E022C0EFE5F7E0E4918E2F90E0FC
:1050E000EFE5F7E01AC04115510509F4C2C041309F
:1050F000510509F0AAC089E090E0E7E3F7E010C0AD
:105100004115510509F4BAC04130510509F09DC05F
:1051100080EC90E0ECE0F6E003C0009709F495C065
:105120002091E800277F2093E800209134063091F9
:1051300035068217930708F49C0140E021153105DC
:1051400089F180912C06882309F43DC08530D9F17E
:105150008091E80083FD37C08091E80082FD2FC078
:105160008091E80080FFEACF4091F3008091F20047
:1051700090E0942B2115310559F08830910540F4C9
:1051800044914093F1003196215031090196F2CFBC
:1051900041E0089709F040E08091E8008E77809325
:1051A000E800CCCF4111CDCF0AC080912C068823D6
:1051B00051F0853041F08091E80083FD04C080917A
:1051C000E80082FFF2CF8091E8008B778093E800BF
:1051D0003CC08038D1F58091E800877F8093E8005B
:1051E00080912D068093F1008091E8008E77809366
:1051F000E8000E943C1B29C0811127C08091300625
:10520000909131069927029704F58091E800877FF5
:105210008093E8001091300610932D060E943C1BED
:10522000111106C08091E30087FD02C081E001C03A
:1052300084E080932C0642E061EC81E00E945B1BDD
:1052400042E261EC82E00E945B1B8091E80083FFF8
:105250001AC08091E800877F8093E8008091EB007E
:1052600080628093EB000FC082E190E0E7E4F7E01A
:1052700057CF89E090E0EEE1F7E052CF80E490E094
:10528000ECECF6E04DCFAA960FB6F894DEBF0FBE59
:10529000CDBFDF91CF911F910895CF9380918C0561
:1052A00082958F7009F05FC080918905882309F489
:1052B0005AC08091BE05B0918D0570918705A0916F
:1052C000880540918A0550918B0591E07F3F09F058
:1052D00090E0692FC6E08B1709F445C041155105D0
:1052E00021F0AF3F21F020E003C021E001C0262FD4
:1052F00090E020FD35C0C89FF001C99FF00D11243A
:10530000E257FA4F21812A132BC02081271328C08E
:105310002281211125C0238134812417350710F4FF
:1053200021503109241B350B29333105C8F4209154
:105330008C052F70206120938C0526E0289FF001BA
:10534000299FF00D1124ED56FA4F80818F708061F6
:10535000808387E895E00E94E203CF910C94BF24FC
:1053600001968770B8CFCF910895E92FE295EF703D
:105370004E2F50E0FA013297EE30F105B0F4EC55C3
:10538000FF4F0C942630803F91F018F4883E68F46B
:105390000EC0843F51F40BC0883E48F0813F29F491
:1053A00006C093FB882780F9089580E0089581E086
:1053B00008950E94C6230E94B52908959F92AF9236
:1053C000BF92CF92DF92EF92FF920F931F93CF93F2
:1053D000DF93CDB7DEB761970FB6F894DEBF0FBE8F
:1053E000CDBF7C0185E0F701DE011D9601900D9295
:1053F0008A95E1F7D701BC9011960C9111971296FE
:10540000AC90309187054091880580918A059091F4
:105410008B05009731F04F3F31F421E03F3F19F405
:1054200003C021E001C020E020FD7AC1F701C38064
:10543000D48090908905992009F41AC120918C0597
:10544000C816D90628F0B601681B790BCB0104C039
:10545000809590958C0D9D1D11E0C99748F010E046
:10546000207F09F0CBC087E895E00E94E20350C19D
:10547000822F807F09F08DC0401313C03B1111C0F3
:105480001A2DA1100EC02F70206120938C0587E883
:1054900095E00E94E20380918C05D70115968C93CC
:1054A00068C1C114D10439F00F3F39F481E0BFEF76
:1054B000BB1203C003C081E001C080E080FD03C0D7
:1054C00081E08A2502C080E090E080FF13C04A2D71
:1054D000602F8B2D0E949F24882361F087E895E040
:1054E0000E94E203E7E8F5E086E0DF011D928A957D
:1054F000E9F74DC0CD2839F00F3F39F481E0BFEF17
:10550000BB1203C003C081E001C080E080FD03C086
:1055100081E08A2502C080E090E0E82FE170DE2E75
:1055200080FF2CC04A2D602F8B2D0E949F24182FA6
:10553000811124C0BD860E878D859E850E94C6235D
:10554000292F22952F70223018F0243090F405C0B6
:105550009F7059F0811109C00CC19F7031F0D701C3
:1055600015969C91907F09F404C1805E883008F400
:1055700000C1C7010E94E2031D2DFBC01A2DAA2005
:1055800009F4F7C080918C05816080938C0510E050
:10559000F0C0401308C03B1106C0A11004C08091A8
:1055A0008C05F70197C0BD860E878D859E850E946C
:1055B000D929882369F1AA2059F120918C05822FDD
:1055C00082958F7090E0029774F08091870590919A
:1055D000880598878F831986DB86CA862C87CE013B
:1055E00007960E94E20386E0F701A7E8B5E0019084
:1055F0000D928A95E1F70E944D290DC0401769F080
:10560000BD860E878D859E850E94D929811119C07E
:10561000C7010E94E20311E0ACC03B11F1CFA11021
:10562000EFCF80918C05F7018583C7010E94E203CB
:1056300086E0E7E8F5E0DF011D928A95E9F7192D8C
:1056400098C0AA2029F320918C05822F82958F7013
:1056500090E0029744F280918705909188059A83A3
:1056600089831B82DD82CC822E83CE010196B9CF45
:10567000C816D90638F0C81AD90AB9E3CB16D1042E
:1056800048F006C0809590958C0D9D1DC99710F02F
:1056900010E03EC01A2DAA2009F4BACF401327C04B
:1056A0003B1125C020918C0520FD18C0822F8295CA
:1056B0008F70482F50E04115510581F0F701258387
:1056C0004F30510541F08F5F982F9295907F822F38
:1056D0008F70892B8583C7010E94E20386E0F70162
:1056E000A7E8B5E001900D928A95E1F742C0BD862A
:1056F0000E878D859E850E94D929811174CF809156
:105700008C05816080938C05C7010E94E20331C043
:10571000E7E8F5E086E0DF011D928A95E9F729C008
:10572000AA2009F475CFBD860E878D859E850E94BF
:10573000D929182F882309F46BCF86E0F701A7E851
:10574000B5E001900D928A95E1F7809187059091DF
:1057500088050E94C62392959F70963041F48091EF
:10576000440691E0892780934406909343060E9463
:105770004D29812F61960FB6F894DEBF0FBECDBFC5
:10578000DF91CF911F910F91FF90EF90DF90CF901D
:10579000BF90AF909F9008951092FC051092FB056A
:1057A0000E943E23ECE4F5E086E0DF011D928A953D
:1057B000E9F710925205109207060E94C72180E077
:1057C00090E00E94231880E090E00C940D18109255
:1057D000FD0580911501882331F08091390587FFFF
:1057E00002C08EE101C086E0E9E6F5E0DF011D922E
:1057F0008A95E9F70C94CC2B882341F08095909101
:10580000FC0589238093FC050C943E23089588238E
:1058100039F09091FC05892B8093FC050C943E2374
:105820000895882341F080959091FD058923809308
:10583000FD050C943E230895882339F09091FD05D1
:10584000892B8093FD050C943E230895CF93C82F98
:105850000E94A02CC93349F42FEF87EE93E021502A
:1058600080409040E1F700C000008C2FCF910C9455
:10587000392C882309F463C0823869F40E943918EE
:1058800081FF5DC069E387E695E00E942E220E94B9
:105890003E2369E30EC0833891F40E94391880FFDB
:1058A0004EC063E587E695E00E942E220E943E23CB
:1058B00063E587E695E00E9406220C943E23843837
:1058C00069F40E94391882FF3AC067E487E695E0E0
:1058D0000E942E220E943E2367E4EBCF9CEF980F9C
:1058E000913A10F4682FE5CF90E2980F983088F441
:1058F000877021E030E0A90102C0440F551F8A954E
:10590000E2F7CA0180959091FD0589238093FD05FA
:10591000D4CF9BE5980F933020F480E090E00C9476
:10592000231898E5980F973120F480E090E00C94CC
:105930000D18803F20F00E9439200C94C721089553
:10594000882309F489C08238B1F40E94391881FD96
:1059500083C069E387E695E00E942E220E943E23E1
:105960002FEF41EE54E0215040405040E1F700C09D
:10597000000069E317C08338D9F40E94391880FD0C
:105980006BC063E587E695E00E942E220E943E23CD
:105990008FEF91EE24E0815090402040E1F700C06D
:1059A000000063E587E695E00E9406220C943E2302
:1059B0008438B1F40E94391882FD4EC067E487E64E
:1059C00095E00E942E220E943E234FEF51EE84E08C
:1059D000415050408040E1F700C0000067E4E2CF52
:1059E0009CEF980F913A30F4682F87E695E00E947B
:1059F0002E22DCCF90E2980F983080F4877021E05F
:105A000030E0A90102C0440F551F8A95E2F7CA0190
:105A10009091FD05892B8093FD05C8CFEBE5E80F3C
:105A2000E33038F4F0E0E059FC4F808190E00C94D2
:105A30002318E8E5E80FE73148F4F0E0EE0FFF1F28
:105A4000ED58FC4F808191810C940D18803F20F01F
:105A50000E9403210C94C72108951092B9008CE094
:105A60008093B8000895EF92FF920F931F93CF9306
:105A7000DF93182FEB011092BC0084EA8093BC00E6
:105A80000E94BB217C018091BC0087FD0EC0CF3FEE
:105A90008FEFD807C1F30E94BB218E199F098C1785
:105AA0009D0788F38EEF9FEF2EC08091B900887F0D
:105AB000883041F08091B900887F803119F08FEFF4
:105AC0009FEF21C01093BB0084E88093BC000E942C
:105AD000BB218C018091BC0087FD0CC0CF3F8FEFB4
